{
	"contracts/Yield.sol": {
		"OpenDex": {
			"abi": [
				{
					"inputs": [
						{
							"internalType": "address",
							"name": "_factory",
							"type": "address"
						},
						{
							"internalType": "address",
							"name": "_governanceToken",
							"type": "address"
						}
					],
					"stateMutability": "nonpayable",
					"type": "constructor"
				},
				{
					"anonymous": false,
					"inputs": [
						{
							"indexed": false,
							"internalType": "uint256",
							"name": "newFee",
							"type": "uint256"
						}
					],
					"name": "FeeAdjusted",
					"type": "event"
				},
				{
					"anonymous": false,
					"inputs": [
						{
							"indexed": true,
							"internalType": "address",
							"name": "user",
							"type": "address"
						},
						{
							"indexed": false,
							"internalType": "uint256",
							"name": "amount",
							"type": "uint256"
						}
					],
					"name": "LiquidityIncentive",
					"type": "event"
				},
				{
					"inputs": [
						{
							"internalType": "uint256",
							"name": "_newFee",
							"type": "uint256"
						}
					],
					"name": "adjustFee",
					"outputs": [],
					"stateMutability": "nonpayable",
					"type": "function"
				},
				{
					"inputs": [
						{
							"internalType": "address",
							"name": "tokenA",
							"type": "address"
						},
						{
							"internalType": "address",
							"name": "tokenB",
							"type": "address"
						}
					],
					"name": "createCustomPair",
					"outputs": [
						{
							"internalType": "address",
							"name": "pair",
							"type": "address"
						}
					],
					"stateMutability": "nonpayable",
					"type": "function"
				},
				{
					"inputs": [],
					"name": "defaultFee",
					"outputs": [
						{
							"internalType": "uint256",
							"name": "",
							"type": "uint256"
						}
					],
					"stateMutability": "view",
					"type": "function"
				},
				{
					"inputs": [],
					"name": "factory",
					"outputs": [
						{
							"internalType": "address",
							"name": "",
							"type": "address"
						}
					],
					"stateMutability": "view",
					"type": "function"
				},
				{
					"inputs": [],
					"name": "governanceToken",
					"outputs": [
						{
							"internalType": "address",
							"name": "",
							"type": "address"
						}
					],
					"stateMutability": "view",
					"type": "function"
				},
				{
					"inputs": [
						{
							"internalType": "address",
							"name": "",
							"type": "address"
						}
					],
					"name": "isGovernanceMember",
					"outputs": [
						{
							"internalType": "bool",
							"name": "",
							"type": "bool"
						}
					],
					"stateMutability": "view",
					"type": "function"
				},
				{
					"inputs": [
						{
							"internalType": "address",
							"name": "_pair",
							"type": "address"
						},
						{
							"internalType": "uint256",
							"name": "_amount",
							"type": "uint256"
						}
					],
					"name": "provideLiquidityIncentive",
					"outputs": [],
					"stateMutability": "nonpayable",
					"type": "function"
				},
				{
					"inputs": [
						{
							"internalType": "address",
							"name": "",
							"type": "address"
						}
					],
					"name": "userStakes",
					"outputs": [
						{
							"internalType": "uint256",
							"name": "",
							"type": "uint256"
						}
					],
					"stateMutability": "view",
					"type": "function"
				}
			],
			"devdoc": {
				"kind": "dev",
				"methods": {},
				"version": 1
			},
			"evm": {
				"assembly": "    /* \"contracts/Yield.sol\":259:1732  contract OpenDex {... */\n  mstore(0x40, 0x80)\n    /* \"contracts/Yield.sol\":420:421  3 */\n  0x03\n    /* \"contracts/Yield.sol\":395:421  uint public defaultFee = 3 */\n  0x02\n  sstore\n    /* \"contracts/Yield.sol\":659:797  constructor(address _factory, address _governanceToken) {... */\n  callvalue\n  dup1\n  iszero\n  tag_1\n  jumpi\n  0x00\n  dup1\n  revert\ntag_1:\n  pop\n  mload(0x40)\n  sub(codesize, bytecodeSize)\n  dup1\n  bytecodeSize\n  dup4\n  codecopy\n  dup2\n  dup2\n  add\n  0x40\n  mstore\n  dup2\n  add\n  swap1\n  tag_2\n  swap2\n  swap1\n  tag_3\n  jump\t// in\ntag_2:\n    /* \"contracts/Yield.sol\":736:744  _factory */\n  dup2\n    /* \"contracts/Yield.sol\":726:733  factory */\n  0x00\n  dup1\n    /* \"contracts/Yield.sol\":726:744  factory = _factory */\n  0x0100\n  exp\n  dup2\n  sload\n  dup2\n  0xffffffffffffffffffffffffffffffffffffffff\n  mul\n  not\n  and\n  swap1\n  dup4\n  0xffffffffffffffffffffffffffffffffffffffff\n  and\n  mul\n  or\n  swap1\n  sstore\n  pop\n    /* \"contracts/Yield.sol\":773:789  _governanceToken */\n  dup1\n    /* \"contracts/Yield.sol\":755:770  governanceToken */\n  0x01\n  0x00\n    /* \"contracts/Yield.sol\":755:789  governanceToken = _governanceToken */\n  0x0100\n  exp\n  dup2\n  sload\n  dup2\n  0xffffffffffffffffffffffffffffffffffffffff\n  mul\n  not\n  and\n  swap1\n  dup4\n  0xffffffffffffffffffffffffffffffffffffffff\n  and\n  mul\n  or\n  swap1\n  sstore\n  pop\n    /* \"contracts/Yield.sol\":659:797  constructor(address _factory, address _governanceToken) {... */\n  pop\n  pop\n    /* \"contracts/Yield.sol\":259:1732  contract OpenDex {... */\n  jump(tag_6)\n    /* \"#utility.yul\":88:205   */\ntag_8:\n    /* \"#utility.yul\":197:198   */\n  0x00\n    /* \"#utility.yul\":194:195   */\n  dup1\n    /* \"#utility.yul\":187:199   */\n  revert\n    /* \"#utility.yul\":334:460   */\ntag_10:\n    /* \"#utility.yul\":371:378   */\n  0x00\n    /* \"#utility.yul\":411:453   */\n  0xffffffffffffffffffffffffffffffffffffffff\n    /* \"#utility.yul\":404:409   */\n  dup3\n    /* \"#utility.yul\":400:454   */\n  and\n    /* \"#utility.yul\":389:454   */\n  swap1\n  pop\n    /* \"#utility.yul\":334:460   */\n  swap2\n  swap1\n  pop\n  jump\t// out\n    /* \"#utility.yul\":466:562   */\ntag_11:\n    /* \"#utility.yul\":503:510   */\n  0x00\n    /* \"#utility.yul\":532:556   */\n  tag_20\n    /* \"#utility.yul\":550:555   */\n  dup3\n    /* \"#utility.yul\":532:556   */\n  tag_10\n  jump\t// in\ntag_20:\n    /* \"#utility.yul\":521:556   */\n  swap1\n  pop\n    /* \"#utility.yul\":466:562   */\n  swap2\n  swap1\n  pop\n  jump\t// out\n    /* \"#utility.yul\":568:690   */\ntag_12:\n    /* \"#utility.yul\":641:665   */\n  tag_22\n    /* \"#utility.yul\":659:664   */\n  dup2\n    /* \"#utility.yul\":641:665   */\n  tag_11\n  jump\t// in\ntag_22:\n    /* \"#utility.yul\":634:639   */\n  dup2\n    /* \"#utility.yul\":631:666   */\n  eq\n    /* \"#utility.yul\":621:684   */\n  tag_23\n  jumpi\n    /* \"#utility.yul\":680:681   */\n  0x00\n    /* \"#utility.yul\":677:678   */\n  dup1\n    /* \"#utility.yul\":670:682   */\n  revert\n    /* \"#utility.yul\":621:684   */\ntag_23:\n    /* \"#utility.yul\":568:690   */\n  pop\n  jump\t// out\n    /* \"#utility.yul\":696:839   */\ntag_13:\n    /* \"#utility.yul\":753:758   */\n  0x00\n    /* \"#utility.yul\":784:790   */\n  dup2\n    /* \"#utility.yul\":778:791   */\n  mload\n    /* \"#utility.yul\":769:791   */\n  swap1\n  pop\n    /* \"#utility.yul\":800:833   */\n  tag_25\n    /* \"#utility.yul\":827:832   */\n  dup2\n    /* \"#utility.yul\":800:833   */\n  tag_12\n  jump\t// in\ntag_25:\n    /* \"#utility.yul\":696:839   */\n  swap3\n  swap2\n  pop\n  pop\n  jump\t// out\n    /* \"#utility.yul\":845:1352   */\ntag_3:\n    /* \"#utility.yul\":924:930   */\n  0x00\n    /* \"#utility.yul\":932:938   */\n  dup1\n    /* \"#utility.yul\":981:983   */\n  0x40\n    /* \"#utility.yul\":969:978   */\n  dup4\n    /* \"#utility.yul\":960:967   */\n  dup6\n    /* \"#utility.yul\":956:979   */\n  sub\n    /* \"#utility.yul\":952:984   */\n  slt\n    /* \"#utility.yul\":949:1068   */\n  iszero\n  tag_27\n  jumpi\n    /* \"#utility.yul\":987:1066   */\n  tag_28\n  tag_8\n  jump\t// in\ntag_28:\n    /* \"#utility.yul\":949:1068   */\ntag_27:\n    /* \"#utility.yul\":1107:1108   */\n  0x00\n    /* \"#utility.yul\":1132:1196   */\n  tag_29\n    /* \"#utility.yul\":1188:1195   */\n  dup6\n    /* \"#utility.yul\":1179:1185   */\n  dup3\n    /* \"#utility.yul\":1168:1177   */\n  dup7\n    /* \"#utility.yul\":1164:1186   */\n  add\n    /* \"#utility.yul\":1132:1196   */\n  tag_13\n  jump\t// in\ntag_29:\n    /* \"#utility.yul\":1122:1196   */\n  swap3\n  pop\n    /* \"#utility.yul\":1078:1206   */\n  pop\n    /* \"#utility.yul\":1245:1247   */\n  0x20\n    /* \"#utility.yul\":1271:1335   */\n  tag_30\n    /* \"#utility.yul\":1327:1334   */\n  dup6\n    /* \"#utility.yul\":1318:1324   */\n  dup3\n    /* \"#utility.yul\":1307:1316   */\n  dup7\n    /* \"#utility.yul\":1303:1325   */\n  add\n    /* \"#utility.yul\":1271:1335   */\n  tag_13\n  jump\t// in\ntag_30:\n    /* \"#utility.yul\":1261:1335   */\n  swap2\n  pop\n    /* \"#utility.yul\":1216:1345   */\n  pop\n    /* \"#utility.yul\":845:1352   */\n  swap3\n  pop\n  swap3\n  swap1\n  pop\n  jump\t// out\n    /* \"contracts/Yield.sol\":259:1732  contract OpenDex {... */\ntag_6:\n  dataSize(sub_0)\n  dup1\n  dataOffset(sub_0)\n  0x00\n  codecopy\n  0x00\n  return\nstop\n\nsub_0: assembly {\n        /* \"contracts/Yield.sol\":259:1732  contract OpenDex {... */\n      mstore(0x40, 0x80)\n      callvalue\n      dup1\n      iszero\n      tag_1\n      jumpi\n      0x00\n      dup1\n      revert\n    tag_1:\n      pop\n      jumpi(tag_2, lt(calldatasize, 0x04))\n      shr(0xe0, calldataload(0x00))\n      dup1\n      0xc079c318\n      gt\n      tag_11\n      jumpi\n      dup1\n      0xc079c318\n      eq\n      tag_7\n      jumpi\n      dup1\n      0xc45a0155\n      eq\n      tag_8\n      jumpi\n      dup1\n      0xf61ea571\n      eq\n      tag_9\n      jumpi\n      dup1\n      0xf96dae0a\n      eq\n      tag_10\n      jumpi\n      jump(tag_2)\n    tag_11:\n      dup1\n      0x45c442e3\n      eq\n      tag_3\n      jumpi\n      dup1\n      0x5a6c72d0\n      eq\n      tag_4\n      jumpi\n      dup1\n      0x82224869\n      eq\n      tag_5\n      jumpi\n      dup1\n      0x8da7ad23\n      eq\n      tag_6\n      jumpi\n    tag_2:\n      0x00\n      dup1\n      revert\n        /* \"contracts/Yield.sol\":1255:1518  function provideLiquidityIncentive(address _pair, uint _amount) external {... */\n    tag_3:\n      tag_12\n      0x04\n      dup1\n      calldatasize\n      sub\n      dup2\n      add\n      swap1\n      tag_13\n      swap2\n      swap1\n      tag_14\n      jump\t// in\n    tag_13:\n      tag_15\n      jump\t// in\n    tag_12:\n      stop\n        /* \"contracts/Yield.sol\":395:421  uint public defaultFee = 3 */\n    tag_4:\n      tag_16\n      tag_17\n      jump\t// in\n    tag_16:\n      mload(0x40)\n      tag_18\n      swap2\n      swap1\n      tag_19\n      jump\t// in\n    tag_18:\n      mload(0x40)\n      dup1\n      swap2\n      sub\n      swap1\n      return\n        /* \"contracts/Yield.sol\":495:545  mapping(address => bool) public isGovernanceMember */\n    tag_5:\n      tag_20\n      0x04\n      dup1\n      calldatasize\n      sub\n      dup2\n      add\n      swap1\n      tag_21\n      swap2\n      swap1\n      tag_22\n      jump\t// in\n    tag_21:\n      tag_23\n      jump\t// in\n    tag_20:\n      mload(0x40)\n      tag_24\n      swap2\n      swap1\n      tag_25\n      jump\t// in\n    tag_24:\n      mload(0x40)\n      dup1\n      swap2\n      sub\n      swap1\n      return\n        /* \"contracts/Yield.sol\":446:488  mapping(address => uint) public userStakes */\n    tag_6:\n      tag_26\n      0x04\n      dup1\n      calldatasize\n      sub\n      dup2\n      add\n      swap1\n      tag_27\n      swap2\n      swap1\n      tag_22\n      jump\t// in\n    tag_27:\n      tag_28\n      jump\t// in\n    tag_26:\n      mload(0x40)\n      tag_29\n      swap2\n      swap1\n      tag_19\n      jump\t// in\n    tag_29:\n      mload(0x40)\n      dup1\n      swap2\n      sub\n      swap1\n      return\n        /* \"contracts/Yield.sol\":993:1184  function adjustFee(uint _newFee) external onlyGovernance {... */\n    tag_7:\n      tag_30\n      0x04\n      dup1\n      calldatasize\n      sub\n      dup2\n      add\n      swap1\n      tag_31\n      swap2\n      swap1\n      tag_32\n      jump\t// in\n    tag_31:\n      tag_33\n      jump\t// in\n    tag_30:\n      stop\n        /* \"contracts/Yield.sol\":283:305  address public factory */\n    tag_8:\n      tag_34\n      tag_35\n      jump\t// in\n    tag_34:\n      mload(0x40)\n      tag_36\n      swap2\n      swap1\n      tag_37\n      jump\t// in\n    tag_36:\n      mload(0x40)\n      dup1\n      swap2\n      sub\n      swap1\n      return\n        /* \"contracts/Yield.sol\":1560:1729  function createCustomPair(address tokenA, address tokenB) external returns (address pair) {... */\n    tag_9:\n      tag_38\n      0x04\n      dup1\n      calldatasize\n      sub\n      dup2\n      add\n      swap1\n      tag_39\n      swap2\n      swap1\n      tag_40\n      jump\t// in\n    tag_39:\n      tag_41\n      jump\t// in\n    tag_38:\n      mload(0x40)\n      tag_42\n      swap2\n      swap1\n      tag_37\n      jump\t// in\n    tag_42:\n      mload(0x40)\n      dup1\n      swap2\n      sub\n      swap1\n      return\n        /* \"contracts/Yield.sol\":312:342  address public governanceToken */\n    tag_10:\n      tag_43\n      tag_44\n      jump\t// in\n    tag_43:\n      mload(0x40)\n      tag_45\n      swap2\n      swap1\n      tag_37\n      jump\t// in\n    tag_45:\n      mload(0x40)\n      dup1\n      swap2\n      sub\n      swap1\n      return\n        /* \"contracts/Yield.sol\":1255:1518  function provideLiquidityIncentive(address _pair, uint _amount) external {... */\n    tag_15:\n        /* \"contracts/Yield.sol\":1346:1361  governanceToken */\n      0x01\n      0x00\n      swap1\n      sload\n      swap1\n      0x0100\n      exp\n      swap1\n      div\n      0xffffffffffffffffffffffffffffffffffffffff\n      and\n        /* \"contracts/Yield.sol\":1339:1375  IERC20(governanceToken).transferFrom */\n      0xffffffffffffffffffffffffffffffffffffffff\n      and\n      0x23b872dd\n        /* \"contracts/Yield.sol\":1376:1386  msg.sender */\n      caller\n        /* \"contracts/Yield.sol\":1396:1400  this */\n      address\n        /* \"contracts/Yield.sol\":1403:1410  _amount */\n      dup5\n        /* \"contracts/Yield.sol\":1339:1411  IERC20(governanceToken).transferFrom(msg.sender, address(this), _amount) */\n      mload(0x40)\n      dup5\n      0xffffffff\n      and\n      0xe0\n      shl\n      dup2\n      mstore\n      0x04\n      add\n      tag_47\n      swap4\n      swap3\n      swap2\n      swap1\n      tag_48\n      jump\t// in\n    tag_47:\n      0x20\n      mload(0x40)\n      dup1\n      dup4\n      sub\n      dup2\n      0x00\n      dup8\n      gas\n      call\n      iszero\n      dup1\n      iszero\n      tag_50\n      jumpi\n      returndatasize\n      0x00\n      dup1\n      returndatacopy\n      revert(0x00, returndatasize)\n    tag_50:\n      pop\n      pop\n      pop\n      pop\n      mload(0x40)\n      returndatasize\n      not(0x1f)\n      0x1f\n      dup3\n      add\n      and\n      dup3\n      add\n      dup1\n      0x40\n      mstore\n      pop\n      dup2\n      add\n      swap1\n      tag_51\n      swap2\n      swap1\n      tag_52\n      jump\t// in\n    tag_51:\n      pop\n        /* \"contracts/Yield.sol\":1448:1455  _amount */\n      dup1\n        /* \"contracts/Yield.sol\":1422:1432  userStakes */\n      0x03\n        /* \"contracts/Yield.sol\":1422:1444  userStakes[msg.sender] */\n      0x00\n        /* \"contracts/Yield.sol\":1433:1443  msg.sender */\n      caller\n        /* \"contracts/Yield.sol\":1422:1444  userStakes[msg.sender] */\n      0xffffffffffffffffffffffffffffffffffffffff\n      and\n      0xffffffffffffffffffffffffffffffffffffffff\n      and\n      dup2\n      mstore\n      0x20\n      add\n      swap1\n      dup2\n      mstore\n      0x20\n      add\n      0x00\n      keccak256\n      0x00\n        /* \"contracts/Yield.sol\":1422:1455  userStakes[msg.sender] += _amount */\n      dup3\n      dup3\n      sload\n      tag_53\n      swap2\n      swap1\n      tag_54\n      jump\t// in\n    tag_53:\n      swap3\n      pop\n      pop\n      dup2\n      swap1\n      sstore\n      pop\n        /* \"contracts/Yield.sol\":1490:1500  msg.sender */\n      caller\n        /* \"contracts/Yield.sol\":1471:1510  LiquidityIncentive(msg.sender, _amount) */\n      0xffffffffffffffffffffffffffffffffffffffff\n      and\n      0x4bb73a9896fa16d063ba06a3803cba6d97a7fb5521820b11842dff98fb3493f1\n        /* \"contracts/Yield.sol\":1502:1509  _amount */\n      dup3\n        /* \"contracts/Yield.sol\":1471:1510  LiquidityIncentive(msg.sender, _amount) */\n      mload(0x40)\n      tag_55\n      swap2\n      swap1\n      tag_19\n      jump\t// in\n    tag_55:\n      mload(0x40)\n      dup1\n      swap2\n      sub\n      swap1\n      log2\n        /* \"contracts/Yield.sol\":1255:1518  function provideLiquidityIncentive(address _pair, uint _amount) external {... */\n      pop\n      pop\n      jump\t// out\n        /* \"contracts/Yield.sol\":395:421  uint public defaultFee = 3 */\n    tag_17:\n      sload(0x02)\n      dup2\n      jump\t// out\n        /* \"contracts/Yield.sol\":495:545  mapping(address => bool) public isGovernanceMember */\n    tag_23:\n      mstore(0x20, 0x04)\n      dup1\n      0x00\n      mstore\n      keccak256(0x00, 0x40)\n      0x00\n      swap2\n      pop\n      sload\n      swap1\n      0x0100\n      exp\n      swap1\n      div\n      0xff\n      and\n      dup2\n      jump\t// out\n        /* \"contracts/Yield.sol\":446:488  mapping(address => uint) public userStakes */\n    tag_28:\n      mstore(0x20, 0x03)\n      dup1\n      0x00\n      mstore\n      keccak256(0x00, 0x40)\n      0x00\n      swap2\n      pop\n      swap1\n      pop\n      sload\n      dup2\n      jump\t// out\n        /* \"contracts/Yield.sol\":993:1184  function adjustFee(uint _newFee) external onlyGovernance {... */\n    tag_33:\n        /* \"contracts/Yield.sol\":850:868  isGovernanceMember */\n      0x04\n        /* \"contracts/Yield.sol\":850:880  isGovernanceMember[msg.sender] */\n      0x00\n        /* \"contracts/Yield.sol\":869:879  msg.sender */\n      caller\n        /* \"contracts/Yield.sol\":850:880  isGovernanceMember[msg.sender] */\n      0xffffffffffffffffffffffffffffffffffffffff\n      and\n      0xffffffffffffffffffffffffffffffffffffffff\n      and\n      dup2\n      mstore\n      0x20\n      add\n      swap1\n      dup2\n      mstore\n      0x20\n      add\n      0x00\n      keccak256\n      0x00\n      swap1\n      sload\n      swap1\n      0x0100\n      exp\n      swap1\n      div\n      0xff\n      and\n        /* \"contracts/Yield.sol\":842:908  require(isGovernanceMember[msg.sender], \"Not a governance member\") */\n      tag_57\n      jumpi\n      mload(0x40)\n      0x08c379a000000000000000000000000000000000000000000000000000000000\n      dup2\n      mstore\n      0x04\n      add\n      tag_58\n      swap1\n      tag_59\n      jump\t// in\n    tag_58:\n      mload(0x40)\n      dup1\n      swap2\n      sub\n      swap1\n      revert\n    tag_57:\n        /* \"contracts/Yield.sol\":1080:1082  10 */\n      0x0a\n        /* \"contracts/Yield.sol\":1069:1076  _newFee */\n      dup2\n        /* \"contracts/Yield.sol\":1069:1082  _newFee <= 10 */\n      gt\n      iszero\n        /* \"contracts/Yield.sol\":1061:1099  require(_newFee <= 10, \"Fee too high\") */\n      tag_61\n      jumpi\n      mload(0x40)\n      0x08c379a000000000000000000000000000000000000000000000000000000000\n      dup2\n      mstore\n      0x04\n      add\n      tag_62\n      swap1\n      tag_63\n      jump\t// in\n    tag_62:\n      mload(0x40)\n      dup1\n      swap2\n      sub\n      swap1\n      revert\n    tag_61:\n        /* \"contracts/Yield.sol\":1133:1140  _newFee */\n      dup1\n        /* \"contracts/Yield.sol\":1120:1130  defaultFee */\n      0x02\n        /* \"contracts/Yield.sol\":1120:1140  defaultFee = _newFee */\n      dup2\n      swap1\n      sstore\n      pop\n        /* \"contracts/Yield.sol\":1156:1176  FeeAdjusted(_newFee) */\n      0x8f0bb2e9dd4d9e8f7b5a5a5e6ec3ecfb088b85352c3405f9bf7fef9fcf4b50c1\n        /* \"contracts/Yield.sol\":1168:1175  _newFee */\n      dup2\n        /* \"contracts/Yield.sol\":1156:1176  FeeAdjusted(_newFee) */\n      mload(0x40)\n      tag_64\n      swap2\n      swap1\n      tag_19\n      jump\t// in\n    tag_64:\n      mload(0x40)\n      dup1\n      swap2\n      sub\n      swap1\n      log1\n        /* \"contracts/Yield.sol\":993:1184  function adjustFee(uint _newFee) external onlyGovernance {... */\n      pop\n      jump\t// out\n        /* \"contracts/Yield.sol\":283:305  address public factory */\n    tag_35:\n      0x00\n      dup1\n      sload\n      swap1\n      0x0100\n      exp\n      swap1\n      div\n      0xffffffffffffffffffffffffffffffffffffffff\n      and\n      dup2\n      jump\t// out\n        /* \"contracts/Yield.sol\":1560:1729  function createCustomPair(address tokenA, address tokenB) external returns (address pair) {... */\n    tag_41:\n        /* \"contracts/Yield.sol\":1636:1648  address pair */\n      0x00\n        /* \"contracts/Yield.sol\":1686:1693  factory */\n      dup1\n      0x00\n      swap1\n      sload\n      swap1\n      0x0100\n      exp\n      swap1\n      div\n      0xffffffffffffffffffffffffffffffffffffffff\n      and\n        /* \"contracts/Yield.sol\":1668:1705  IUniswapV2Factory(factory).createPair */\n      0xffffffffffffffffffffffffffffffffffffffff\n      and\n      0xc9c65396\n        /* \"contracts/Yield.sol\":1706:1712  tokenA */\n      dup5\n        /* \"contracts/Yield.sol\":1714:1720  tokenB */\n      dup5\n        /* \"contracts/Yield.sol\":1668:1721  IUniswapV2Factory(factory).createPair(tokenA, tokenB) */\n      mload(0x40)\n      dup4\n      0xffffffff\n      and\n      0xe0\n      shl\n      dup2\n      mstore\n      0x04\n      add\n      tag_66\n      swap3\n      swap2\n      swap1\n      tag_67\n      jump\t// in\n    tag_66:\n      0x20\n      mload(0x40)\n      dup1\n      dup4\n      sub\n      dup2\n      0x00\n      dup8\n      gas\n      call\n      iszero\n      dup1\n      iszero\n      tag_69\n      jumpi\n      returndatasize\n      0x00\n      dup1\n      returndatacopy\n      revert(0x00, returndatasize)\n    tag_69:\n      pop\n      pop\n      pop\n      pop\n      mload(0x40)\n      returndatasize\n      not(0x1f)\n      0x1f\n      dup3\n      add\n      and\n      dup3\n      add\n      dup1\n      0x40\n      mstore\n      pop\n      dup2\n      add\n      swap1\n      tag_70\n      swap2\n      swap1\n      tag_71\n      jump\t// in\n    tag_70:\n        /* \"contracts/Yield.sol\":1661:1721  pair = IUniswapV2Factory(factory).createPair(tokenA, tokenB) */\n      swap1\n      pop\n        /* \"contracts/Yield.sol\":1560:1729  function createCustomPair(address tokenA, address tokenB) external returns (address pair) {... */\n      swap3\n      swap2\n      pop\n      pop\n      jump\t// out\n        /* \"contracts/Yield.sol\":312:342  address public governanceToken */\n    tag_44:\n      0x01\n      0x00\n      swap1\n      sload\n      swap1\n      0x0100\n      exp\n      swap1\n      div\n      0xffffffffffffffffffffffffffffffffffffffff\n      and\n      dup2\n      jump\t// out\n        /* \"#utility.yul\":88:205   */\n    tag_73:\n        /* \"#utility.yul\":197:198   */\n      0x00\n        /* \"#utility.yul\":194:195   */\n      dup1\n        /* \"#utility.yul\":187:199   */\n      revert\n        /* \"#utility.yul\":334:460   */\n    tag_75:\n        /* \"#utility.yul\":371:378   */\n      0x00\n        /* \"#utility.yul\":411:453   */\n      0xffffffffffffffffffffffffffffffffffffffff\n        /* \"#utility.yul\":404:409   */\n      dup3\n        /* \"#utility.yul\":400:454   */\n      and\n        /* \"#utility.yul\":389:454   */\n      swap1\n      pop\n        /* \"#utility.yul\":334:460   */\n      swap2\n      swap1\n      pop\n      jump\t// out\n        /* \"#utility.yul\":466:562   */\n    tag_76:\n        /* \"#utility.yul\":503:510   */\n      0x00\n        /* \"#utility.yul\":532:556   */\n      tag_101\n        /* \"#utility.yul\":550:555   */\n      dup3\n        /* \"#utility.yul\":532:556   */\n      tag_75\n      jump\t// in\n    tag_101:\n        /* \"#utility.yul\":521:556   */\n      swap1\n      pop\n        /* \"#utility.yul\":466:562   */\n      swap2\n      swap1\n      pop\n      jump\t// out\n        /* \"#utility.yul\":568:690   */\n    tag_77:\n        /* \"#utility.yul\":641:665   */\n      tag_103\n        /* \"#utility.yul\":659:664   */\n      dup2\n        /* \"#utility.yul\":641:665   */\n      tag_76\n      jump\t// in\n    tag_103:\n        /* \"#utility.yul\":634:639   */\n      dup2\n        /* \"#utility.yul\":631:666   */\n      eq\n        /* \"#utility.yul\":621:684   */\n      tag_104\n      jumpi\n        /* \"#utility.yul\":680:681   */\n      0x00\n        /* \"#utility.yul\":677:678   */\n      dup1\n        /* \"#utility.yul\":670:682   */\n      revert\n        /* \"#utility.yul\":621:684   */\n    tag_104:\n        /* \"#utility.yul\":568:690   */\n      pop\n      jump\t// out\n        /* \"#utility.yul\":696:835   */\n    tag_78:\n        /* \"#utility.yul\":742:747   */\n      0x00\n        /* \"#utility.yul\":780:786   */\n      dup2\n        /* \"#utility.yul\":767:787   */\n      calldataload\n        /* \"#utility.yul\":758:787   */\n      swap1\n      pop\n        /* \"#utility.yul\":796:829   */\n      tag_106\n        /* \"#utility.yul\":823:828   */\n      dup2\n        /* \"#utility.yul\":796:829   */\n      tag_77\n      jump\t// in\n    tag_106:\n        /* \"#utility.yul\":696:835   */\n      swap3\n      swap2\n      pop\n      pop\n      jump\t// out\n        /* \"#utility.yul\":841:918   */\n    tag_79:\n        /* \"#utility.yul\":878:885   */\n      0x00\n        /* \"#utility.yul\":907:912   */\n      dup2\n        /* \"#utility.yul\":896:912   */\n      swap1\n      pop\n        /* \"#utility.yul\":841:918   */\n      swap2\n      swap1\n      pop\n      jump\t// out\n        /* \"#utility.yul\":924:1046   */\n    tag_80:\n        /* \"#utility.yul\":997:1021   */\n      tag_109\n        /* \"#utility.yul\":1015:1020   */\n      dup2\n        /* \"#utility.yul\":997:1021   */\n      tag_79\n      jump\t// in\n    tag_109:\n        /* \"#utility.yul\":990:995   */\n      dup2\n        /* \"#utility.yul\":987:1022   */\n      eq\n        /* \"#utility.yul\":977:1040   */\n      tag_110\n      jumpi\n        /* \"#utility.yul\":1036:1037   */\n      0x00\n        /* \"#utility.yul\":1033:1034   */\n      dup1\n        /* \"#utility.yul\":1026:1038   */\n      revert\n        /* \"#utility.yul\":977:1040   */\n    tag_110:\n        /* \"#utility.yul\":924:1046   */\n      pop\n      jump\t// out\n        /* \"#utility.yul\":1052:1191   */\n    tag_81:\n        /* \"#utility.yul\":1098:1103   */\n      0x00\n        /* \"#utility.yul\":1136:1142   */\n      dup2\n        /* \"#utility.yul\":1123:1143   */\n      calldataload\n        /* \"#utility.yul\":1114:1143   */\n      swap1\n      pop\n        /* \"#utility.yul\":1152:1185   */\n      tag_112\n        /* \"#utility.yul\":1179:1184   */\n      dup2\n        /* \"#utility.yul\":1152:1185   */\n      tag_80\n      jump\t// in\n    tag_112:\n        /* \"#utility.yul\":1052:1191   */\n      swap3\n      swap2\n      pop\n      pop\n      jump\t// out\n        /* \"#utility.yul\":1197:1671   */\n    tag_14:\n        /* \"#utility.yul\":1265:1271   */\n      0x00\n        /* \"#utility.yul\":1273:1279   */\n      dup1\n        /* \"#utility.yul\":1322:1324   */\n      0x40\n        /* \"#utility.yul\":1310:1319   */\n      dup4\n        /* \"#utility.yul\":1301:1308   */\n      dup6\n        /* \"#utility.yul\":1297:1320   */\n      sub\n        /* \"#utility.yul\":1293:1325   */\n      slt\n        /* \"#utility.yul\":1290:1409   */\n      iszero\n      tag_114\n      jumpi\n        /* \"#utility.yul\":1328:1407   */\n      tag_115\n      tag_73\n      jump\t// in\n    tag_115:\n        /* \"#utility.yul\":1290:1409   */\n    tag_114:\n        /* \"#utility.yul\":1448:1449   */\n      0x00\n        /* \"#utility.yul\":1473:1526   */\n      tag_116\n        /* \"#utility.yul\":1518:1525   */\n      dup6\n        /* \"#utility.yul\":1509:1515   */\n      dup3\n        /* \"#utility.yul\":1498:1507   */\n      dup7\n        /* \"#utility.yul\":1494:1516   */\n      add\n        /* \"#utility.yul\":1473:1526   */\n      tag_78\n      jump\t// in\n    tag_116:\n        /* \"#utility.yul\":1463:1526   */\n      swap3\n      pop\n        /* \"#utility.yul\":1419:1536   */\n      pop\n        /* \"#utility.yul\":1575:1577   */\n      0x20\n        /* \"#utility.yul\":1601:1654   */\n      tag_117\n        /* \"#utility.yul\":1646:1653   */\n      dup6\n        /* \"#utility.yul\":1637:1643   */\n      dup3\n        /* \"#utility.yul\":1626:1635   */\n      dup7\n        /* \"#utility.yul\":1622:1644   */\n      add\n        /* \"#utility.yul\":1601:1654   */\n      tag_81\n      jump\t// in\n    tag_117:\n        /* \"#utility.yul\":1591:1654   */\n      swap2\n      pop\n        /* \"#utility.yul\":1546:1664   */\n      pop\n        /* \"#utility.yul\":1197:1671   */\n      swap3\n      pop\n      swap3\n      swap1\n      pop\n      jump\t// out\n        /* \"#utility.yul\":1677:1795   */\n    tag_82:\n        /* \"#utility.yul\":1764:1788   */\n      tag_119\n        /* \"#utility.yul\":1782:1787   */\n      dup2\n        /* \"#utility.yul\":1764:1788   */\n      tag_79\n      jump\t// in\n    tag_119:\n        /* \"#utility.yul\":1759:1762   */\n      dup3\n        /* \"#utility.yul\":1752:1789   */\n      mstore\n        /* \"#utility.yul\":1677:1795   */\n      pop\n      pop\n      jump\t// out\n        /* \"#utility.yul\":1801:2023   */\n    tag_19:\n        /* \"#utility.yul\":1894:1898   */\n      0x00\n        /* \"#utility.yul\":1932:1934   */\n      0x20\n        /* \"#utility.yul\":1921:1930   */\n      dup3\n        /* \"#utility.yul\":1917:1935   */\n      add\n        /* \"#utility.yul\":1909:1935   */\n      swap1\n      pop\n        /* \"#utility.yul\":1945:2016   */\n      tag_121\n        /* \"#utility.yul\":2013:2014   */\n      0x00\n        /* \"#utility.yul\":2002:2011   */\n      dup4\n        /* \"#utility.yul\":1998:2015   */\n      add\n        /* \"#utility.yul\":1989:1995   */\n      dup5\n        /* \"#utility.yul\":1945:2016   */\n      tag_82\n      jump\t// in\n    tag_121:\n        /* \"#utility.yul\":1801:2023   */\n      swap3\n      swap2\n      pop\n      pop\n      jump\t// out\n        /* \"#utility.yul\":2029:2358   */\n    tag_22:\n        /* \"#utility.yul\":2088:2094   */\n      0x00\n        /* \"#utility.yul\":2137:2139   */\n      0x20\n        /* \"#utility.yul\":2125:2134   */\n      dup3\n        /* \"#utility.yul\":2116:2123   */\n      dup5\n        /* \"#utility.yul\":2112:2135   */\n      sub\n        /* \"#utility.yul\":2108:2140   */\n      slt\n        /* \"#utility.yul\":2105:2224   */\n      iszero\n      tag_123\n      jumpi\n        /* \"#utility.yul\":2143:2222   */\n      tag_124\n      tag_73\n      jump\t// in\n    tag_124:\n        /* \"#utility.yul\":2105:2224   */\n    tag_123:\n        /* \"#utility.yul\":2263:2264   */\n      0x00\n        /* \"#utility.yul\":2288:2341   */\n      tag_125\n        /* \"#utility.yul\":2333:2340   */\n      dup5\n        /* \"#utility.yul\":2324:2330   */\n      dup3\n        /* \"#utility.yul\":2313:2322   */\n      dup6\n        /* \"#utility.yul\":2309:2331   */\n      add\n        /* \"#utility.yul\":2288:2341   */\n      tag_78\n      jump\t// in\n    tag_125:\n        /* \"#utility.yul\":2278:2341   */\n      swap2\n      pop\n        /* \"#utility.yul\":2234:2351   */\n      pop\n        /* \"#utility.yul\":2029:2358   */\n      swap3\n      swap2\n      pop\n      pop\n      jump\t// out\n        /* \"#utility.yul\":2364:2454   */\n    tag_83:\n        /* \"#utility.yul\":2398:2405   */\n      0x00\n        /* \"#utility.yul\":2441:2446   */\n      dup2\n        /* \"#utility.yul\":2434:2447   */\n      iszero\n        /* \"#utility.yul\":2427:2448   */\n      iszero\n        /* \"#utility.yul\":2416:2448   */\n      swap1\n      pop\n        /* \"#utility.yul\":2364:2454   */\n      swap2\n      swap1\n      pop\n      jump\t// out\n        /* \"#utility.yul\":2460:2569   */\n    tag_84:\n        /* \"#utility.yul\":2541:2562   */\n      tag_128\n        /* \"#utility.yul\":2556:2561   */\n      dup2\n        /* \"#utility.yul\":2541:2562   */\n      tag_83\n      jump\t// in\n    tag_128:\n        /* \"#utility.yul\":2536:2539   */\n      dup3\n        /* \"#utility.yul\":2529:2563   */\n      mstore\n        /* \"#utility.yul\":2460:2569   */\n      pop\n      pop\n      jump\t// out\n        /* \"#utility.yul\":2575:2785   */\n    tag_25:\n        /* \"#utility.yul\":2662:2666   */\n      0x00\n        /* \"#utility.yul\":2700:2702   */\n      0x20\n        /* \"#utility.yul\":2689:2698   */\n      dup3\n        /* \"#utility.yul\":2685:2703   */\n      add\n        /* \"#utility.yul\":2677:2703   */\n      swap1\n      pop\n        /* \"#utility.yul\":2713:2778   */\n      tag_130\n        /* \"#utility.yul\":2775:2776   */\n      0x00\n        /* \"#utility.yul\":2764:2773   */\n      dup4\n        /* \"#utility.yul\":2760:2777   */\n      add\n        /* \"#utility.yul\":2751:2757   */\n      dup5\n        /* \"#utility.yul\":2713:2778   */\n      tag_84\n      jump\t// in\n    tag_130:\n        /* \"#utility.yul\":2575:2785   */\n      swap3\n      swap2\n      pop\n      pop\n      jump\t// out\n        /* \"#utility.yul\":2791:3120   */\n    tag_32:\n        /* \"#utility.yul\":2850:2856   */\n      0x00\n        /* \"#utility.yul\":2899:2901   */\n      0x20\n        /* \"#utility.yul\":2887:2896   */\n      dup3\n        /* \"#utility.yul\":2878:2885   */\n      dup5\n        /* \"#utility.yul\":2874:2897   */\n      sub\n        /* \"#utility.yul\":2870:2902   */\n      slt\n        /* \"#utility.yul\":2867:2986   */\n      iszero\n      tag_132\n      jumpi\n        /* \"#utility.yul\":2905:2984   */\n      tag_133\n      tag_73\n      jump\t// in\n    tag_133:\n        /* \"#utility.yul\":2867:2986   */\n    tag_132:\n        /* \"#utility.yul\":3025:3026   */\n      0x00\n        /* \"#utility.yul\":3050:3103   */\n      tag_134\n        /* \"#utility.yul\":3095:3102   */\n      dup5\n        /* \"#utility.yul\":3086:3092   */\n      dup3\n        /* \"#utility.yul\":3075:3084   */\n      dup6\n        /* \"#utility.yul\":3071:3093   */\n      add\n        /* \"#utility.yul\":3050:3103   */\n      tag_81\n      jump\t// in\n    tag_134:\n        /* \"#utility.yul\":3040:3103   */\n      swap2\n      pop\n        /* \"#utility.yul\":2996:3113   */\n      pop\n        /* \"#utility.yul\":2791:3120   */\n      swap3\n      swap2\n      pop\n      pop\n      jump\t// out\n        /* \"#utility.yul\":3126:3244   */\n    tag_85:\n        /* \"#utility.yul\":3213:3237   */\n      tag_136\n        /* \"#utility.yul\":3231:3236   */\n      dup2\n        /* \"#utility.yul\":3213:3237   */\n      tag_76\n      jump\t// in\n    tag_136:\n        /* \"#utility.yul\":3208:3211   */\n      dup3\n        /* \"#utility.yul\":3201:3238   */\n      mstore\n        /* \"#utility.yul\":3126:3244   */\n      pop\n      pop\n      jump\t// out\n        /* \"#utility.yul\":3250:3472   */\n    tag_37:\n        /* \"#utility.yul\":3343:3347   */\n      0x00\n        /* \"#utility.yul\":3381:3383   */\n      0x20\n        /* \"#utility.yul\":3370:3379   */\n      dup3\n        /* \"#utility.yul\":3366:3384   */\n      add\n        /* \"#utility.yul\":3358:3384   */\n      swap1\n      pop\n        /* \"#utility.yul\":3394:3465   */\n      tag_138\n        /* \"#utility.yul\":3462:3463   */\n      0x00\n        /* \"#utility.yul\":3451:3460   */\n      dup4\n        /* \"#utility.yul\":3447:3464   */\n      add\n        /* \"#utility.yul\":3438:3444   */\n      dup5\n        /* \"#utility.yul\":3394:3465   */\n      tag_85\n      jump\t// in\n    tag_138:\n        /* \"#utility.yul\":3250:3472   */\n      swap3\n      swap2\n      pop\n      pop\n      jump\t// out\n        /* \"#utility.yul\":3478:3952   */\n    tag_40:\n        /* \"#utility.yul\":3546:3552   */\n      0x00\n        /* \"#utility.yul\":3554:3560   */\n      dup1\n        /* \"#utility.yul\":3603:3605   */\n      0x40\n        /* \"#utility.yul\":3591:3600   */\n      dup4\n        /* \"#utility.yul\":3582:3589   */\n      dup6\n        /* \"#utility.yul\":3578:3601   */\n      sub\n        /* \"#utility.yul\":3574:3606   */\n      slt\n        /* \"#utility.yul\":3571:3690   */\n      iszero\n      tag_140\n      jumpi\n        /* \"#utility.yul\":3609:3688   */\n      tag_141\n      tag_73\n      jump\t// in\n    tag_141:\n        /* \"#utility.yul\":3571:3690   */\n    tag_140:\n        /* \"#utility.yul\":3729:3730   */\n      0x00\n        /* \"#utility.yul\":3754:3807   */\n      tag_142\n        /* \"#utility.yul\":3799:3806   */\n      dup6\n        /* \"#utility.yul\":3790:3796   */\n      dup3\n        /* \"#utility.yul\":3779:3788   */\n      dup7\n        /* \"#utility.yul\":3775:3797   */\n      add\n        /* \"#utility.yul\":3754:3807   */\n      tag_78\n      jump\t// in\n    tag_142:\n        /* \"#utility.yul\":3744:3807   */\n      swap3\n      pop\n        /* \"#utility.yul\":3700:3817   */\n      pop\n        /* \"#utility.yul\":3856:3858   */\n      0x20\n        /* \"#utility.yul\":3882:3935   */\n      tag_143\n        /* \"#utility.yul\":3927:3934   */\n      dup6\n        /* \"#utility.yul\":3918:3924   */\n      dup3\n        /* \"#utility.yul\":3907:3916   */\n      dup7\n        /* \"#utility.yul\":3903:3925   */\n      add\n        /* \"#utility.yul\":3882:3935   */\n      tag_78\n      jump\t// in\n    tag_143:\n        /* \"#utility.yul\":3872:3935   */\n      swap2\n      pop\n        /* \"#utility.yul\":3827:3945   */\n      pop\n        /* \"#utility.yul\":3478:3952   */\n      swap3\n      pop\n      swap3\n      swap1\n      pop\n      jump\t// out\n        /* \"#utility.yul\":3958:4400   */\n    tag_48:\n        /* \"#utility.yul\":4107:4111   */\n      0x00\n        /* \"#utility.yul\":4145:4147   */\n      0x60\n        /* \"#utility.yul\":4134:4143   */\n      dup3\n        /* \"#utility.yul\":4130:4148   */\n      add\n        /* \"#utility.yul\":4122:4148   */\n      swap1\n      pop\n        /* \"#utility.yul\":4158:4229   */\n      tag_145\n        /* \"#utility.yul\":4226:4227   */\n      0x00\n        /* \"#utility.yul\":4215:4224   */\n      dup4\n        /* \"#utility.yul\":4211:4228   */\n      add\n        /* \"#utility.yul\":4202:4208   */\n      dup7\n        /* \"#utility.yul\":4158:4229   */\n      tag_85\n      jump\t// in\n    tag_145:\n        /* \"#utility.yul\":4239:4311   */\n      tag_146\n        /* \"#utility.yul\":4307:4309   */\n      0x20\n        /* \"#utility.yul\":4296:4305   */\n      dup4\n        /* \"#utility.yul\":4292:4310   */\n      add\n        /* \"#utility.yul\":4283:4289   */\n      dup6\n        /* \"#utility.yul\":4239:4311   */\n      tag_85\n      jump\t// in\n    tag_146:\n        /* \"#utility.yul\":4321:4393   */\n      tag_147\n        /* \"#utility.yul\":4389:4391   */\n      0x40\n        /* \"#utility.yul\":4378:4387   */\n      dup4\n        /* \"#utility.yul\":4374:4392   */\n      add\n        /* \"#utility.yul\":4365:4371   */\n      dup5\n        /* \"#utility.yul\":4321:4393   */\n      tag_82\n      jump\t// in\n    tag_147:\n        /* \"#utility.yul\":3958:4400   */\n      swap5\n      swap4\n      pop\n      pop\n      pop\n      pop\n      jump\t// out\n        /* \"#utility.yul\":4406:4522   */\n    tag_86:\n        /* \"#utility.yul\":4476:4497   */\n      tag_149\n        /* \"#utility.yul\":4491:4496   */\n      dup2\n        /* \"#utility.yul\":4476:4497   */\n      tag_83\n      jump\t// in\n    tag_149:\n        /* \"#utility.yul\":4469:4474   */\n      dup2\n        /* \"#utility.yul\":4466:4498   */\n      eq\n        /* \"#utility.yul\":4456:4516   */\n      tag_150\n      jumpi\n        /* \"#utility.yul\":4512:4513   */\n      0x00\n        /* \"#utility.yul\":4509:4510   */\n      dup1\n        /* \"#utility.yul\":4502:4514   */\n      revert\n        /* \"#utility.yul\":4456:4516   */\n    tag_150:\n        /* \"#utility.yul\":4406:4522   */\n      pop\n      jump\t// out\n        /* \"#utility.yul\":4528:4665   */\n    tag_87:\n        /* \"#utility.yul\":4582:4587   */\n      0x00\n        /* \"#utility.yul\":4613:4619   */\n      dup2\n        /* \"#utility.yul\":4607:4620   */\n      mload\n        /* \"#utility.yul\":4598:4620   */\n      swap1\n      pop\n        /* \"#utility.yul\":4629:4659   */\n      tag_152\n        /* \"#utility.yul\":4653:4658   */\n      dup2\n        /* \"#utility.yul\":4629:4659   */\n      tag_86\n      jump\t// in\n    tag_152:\n        /* \"#utility.yul\":4528:4665   */\n      swap3\n      swap2\n      pop\n      pop\n      jump\t// out\n        /* \"#utility.yul\":4671:5016   */\n    tag_52:\n        /* \"#utility.yul\":4738:4744   */\n      0x00\n        /* \"#utility.yul\":4787:4789   */\n      0x20\n        /* \"#utility.yul\":4775:4784   */\n      dup3\n        /* \"#utility.yul\":4766:4773   */\n      dup5\n        /* \"#utility.yul\":4762:4785   */\n      sub\n        /* \"#utility.yul\":4758:4790   */\n      slt\n        /* \"#utility.yul\":4755:4874   */\n      iszero\n      tag_154\n      jumpi\n        /* \"#utility.yul\":4793:4872   */\n      tag_155\n      tag_73\n      jump\t// in\n    tag_155:\n        /* \"#utility.yul\":4755:4874   */\n    tag_154:\n        /* \"#utility.yul\":4913:4914   */\n      0x00\n        /* \"#utility.yul\":4938:4999   */\n      tag_156\n        /* \"#utility.yul\":4991:4998   */\n      dup5\n        /* \"#utility.yul\":4982:4988   */\n      dup3\n        /* \"#utility.yul\":4971:4980   */\n      dup6\n        /* \"#utility.yul\":4967:4989   */\n      add\n        /* \"#utility.yul\":4938:4999   */\n      tag_87\n      jump\t// in\n    tag_156:\n        /* \"#utility.yul\":4928:4999   */\n      swap2\n      pop\n        /* \"#utility.yul\":4884:5009   */\n      pop\n        /* \"#utility.yul\":4671:5016   */\n      swap3\n      swap2\n      pop\n      pop\n      jump\t// out\n        /* \"#utility.yul\":5022:5202   */\n    tag_88:\n        /* \"#utility.yul\":5070:5147   */\n      0x4e487b7100000000000000000000000000000000000000000000000000000000\n        /* \"#utility.yul\":5067:5068   */\n      0x00\n        /* \"#utility.yul\":5060:5148   */\n      mstore\n        /* \"#utility.yul\":5167:5171   */\n      0x11\n        /* \"#utility.yul\":5164:5165   */\n      0x04\n        /* \"#utility.yul\":5157:5172   */\n      mstore\n        /* \"#utility.yul\":5191:5195   */\n      0x24\n        /* \"#utility.yul\":5188:5189   */\n      0x00\n        /* \"#utility.yul\":5181:5196   */\n      revert\n        /* \"#utility.yul\":5208:5399   */\n    tag_54:\n        /* \"#utility.yul\":5248:5251   */\n      0x00\n        /* \"#utility.yul\":5267:5287   */\n      tag_159\n        /* \"#utility.yul\":5285:5286   */\n      dup3\n        /* \"#utility.yul\":5267:5287   */\n      tag_79\n      jump\t// in\n    tag_159:\n        /* \"#utility.yul\":5262:5287   */\n      swap2\n      pop\n        /* \"#utility.yul\":5301:5321   */\n      tag_160\n        /* \"#utility.yul\":5319:5320   */\n      dup4\n        /* \"#utility.yul\":5301:5321   */\n      tag_79\n      jump\t// in\n    tag_160:\n        /* \"#utility.yul\":5296:5321   */\n      swap3\n      pop\n        /* \"#utility.yul\":5344:5345   */\n      dup3\n        /* \"#utility.yul\":5341:5342   */\n      dup3\n        /* \"#utility.yul\":5337:5346   */\n      add\n        /* \"#utility.yul\":5330:5346   */\n      swap1\n      pop\n        /* \"#utility.yul\":5365:5368   */\n      dup1\n        /* \"#utility.yul\":5362:5363   */\n      dup3\n        /* \"#utility.yul\":5359:5369   */\n      gt\n        /* \"#utility.yul\":5356:5392   */\n      iszero\n      tag_161\n      jumpi\n        /* \"#utility.yul\":5372:5390   */\n      tag_162\n      tag_88\n      jump\t// in\n    tag_162:\n        /* \"#utility.yul\":5356:5392   */\n    tag_161:\n        /* \"#utility.yul\":5208:5399   */\n      swap3\n      swap2\n      pop\n      pop\n      jump\t// out\n        /* \"#utility.yul\":5405:5574   */\n    tag_89:\n        /* \"#utility.yul\":5489:5500   */\n      0x00\n        /* \"#utility.yul\":5523:5529   */\n      dup3\n        /* \"#utility.yul\":5518:5521   */\n      dup3\n        /* \"#utility.yul\":5511:5530   */\n      mstore\n        /* \"#utility.yul\":5563:5567   */\n      0x20\n        /* \"#utility.yul\":5558:5561   */\n      dup3\n        /* \"#utility.yul\":5554:5568   */\n      add\n        /* \"#utility.yul\":5539:5568   */\n      swap1\n      pop\n        /* \"#utility.yul\":5405:5574   */\n      swap3\n      swap2\n      pop\n      pop\n      jump\t// out\n        /* \"#utility.yul\":5580:5753   */\n    tag_90:\n        /* \"#utility.yul\":5720:5745   */\n      0x4e6f74206120676f7665726e616e6365206d656d626572000000000000000000\n        /* \"#utility.yul\":5716:5717   */\n      0x00\n        /* \"#utility.yul\":5708:5714   */\n      dup3\n        /* \"#utility.yul\":5704:5718   */\n      add\n        /* \"#utility.yul\":5697:5746   */\n      mstore\n        /* \"#utility.yul\":5580:5753   */\n      pop\n      jump\t// out\n        /* \"#utility.yul\":5759:6125   */\n    tag_91:\n        /* \"#utility.yul\":5901:5904   */\n      0x00\n        /* \"#utility.yul\":5922:5989   */\n      tag_166\n        /* \"#utility.yul\":5986:5988   */\n      0x17\n        /* \"#utility.yul\":5981:5984   */\n      dup4\n        /* \"#utility.yul\":5922:5989   */\n      tag_89\n      jump\t// in\n    tag_166:\n        /* \"#utility.yul\":5915:5989   */\n      swap2\n      pop\n        /* \"#utility.yul\":5998:6091   */\n      tag_167\n        /* \"#utility.yul\":6087:6090   */\n      dup3\n        /* \"#utility.yul\":5998:6091   */\n      tag_90\n      jump\t// in\n    tag_167:\n        /* \"#utility.yul\":6116:6118   */\n      0x20\n        /* \"#utility.yul\":6111:6114   */\n      dup3\n        /* \"#utility.yul\":6107:6119   */\n      add\n        /* \"#utility.yul\":6100:6119   */\n      swap1\n      pop\n        /* \"#utility.yul\":5759:6125   */\n      swap2\n      swap1\n      pop\n      jump\t// out\n        /* \"#utility.yul\":6131:6550   */\n    tag_59:\n        /* \"#utility.yul\":6297:6301   */\n      0x00\n        /* \"#utility.yul\":6335:6337   */\n      0x20\n        /* \"#utility.yul\":6324:6333   */\n      dup3\n        /* \"#utility.yul\":6320:6338   */\n      add\n        /* \"#utility.yul\":6312:6338   */\n      swap1\n      pop\n        /* \"#utility.yul\":6384:6393   */\n      dup2\n        /* \"#utility.yul\":6378:6382   */\n      dup2\n        /* \"#utility.yul\":6374:6394   */\n      sub\n        /* \"#utility.yul\":6370:6371   */\n      0x00\n        /* \"#utility.yul\":6359:6368   */\n      dup4\n        /* \"#utility.yul\":6355:6372   */\n      add\n        /* \"#utility.yul\":6348:6395   */\n      mstore\n        /* \"#utility.yul\":6412:6543   */\n      tag_169\n        /* \"#utility.yul\":6538:6542   */\n      dup2\n        /* \"#utility.yul\":6412:6543   */\n      tag_91\n      jump\t// in\n    tag_169:\n        /* \"#utility.yul\":6404:6543   */\n      swap1\n      pop\n        /* \"#utility.yul\":6131:6550   */\n      swap2\n      swap1\n      pop\n      jump\t// out\n        /* \"#utility.yul\":6556:6718   */\n    tag_92:\n        /* \"#utility.yul\":6696:6710   */\n      0x46656520746f6f20686967680000000000000000000000000000000000000000\n        /* \"#utility.yul\":6692:6693   */\n      0x00\n        /* \"#utility.yul\":6684:6690   */\n      dup3\n        /* \"#utility.yul\":6680:6694   */\n      add\n        /* \"#utility.yul\":6673:6711   */\n      mstore\n        /* \"#utility.yul\":6556:6718   */\n      pop\n      jump\t// out\n        /* \"#utility.yul\":6724:7090   */\n    tag_93:\n        /* \"#utility.yul\":6866:6869   */\n      0x00\n        /* \"#utility.yul\":6887:6954   */\n      tag_172\n        /* \"#utility.yul\":6951:6953   */\n      0x0c\n        /* \"#utility.yul\":6946:6949   */\n      dup4\n        /* \"#utility.yul\":6887:6954   */\n      tag_89\n      jump\t// in\n    tag_172:\n        /* \"#utility.yul\":6880:6954   */\n      swap2\n      pop\n        /* \"#utility.yul\":6963:7056   */\n      tag_173\n        /* \"#utility.yul\":7052:7055   */\n      dup3\n        /* \"#utility.yul\":6963:7056   */\n      tag_92\n      jump\t// in\n    tag_173:\n        /* \"#utility.yul\":7081:7083   */\n      0x20\n        /* \"#utility.yul\":7076:7079   */\n      dup3\n        /* \"#utility.yul\":7072:7084   */\n      add\n        /* \"#utility.yul\":7065:7084   */\n      swap1\n      pop\n        /* \"#utility.yul\":6724:7090   */\n      swap2\n      swap1\n      pop\n      jump\t// out\n        /* \"#utility.yul\":7096:7515   */\n    tag_63:\n        /* \"#utility.yul\":7262:7266   */\n      0x00\n        /* \"#utility.yul\":7300:7302   */\n      0x20\n        /* \"#utility.yul\":7289:7298   */\n      dup3\n        /* \"#utility.yul\":7285:7303   */\n      add\n        /* \"#utility.yul\":7277:7303   */\n      swap1\n      pop\n        /* \"#utility.yul\":7349:7358   */\n      dup2\n        /* \"#utility.yul\":7343:7347   */\n      dup2\n        /* \"#utility.yul\":7339:7359   */\n      sub\n        /* \"#utility.yul\":7335:7336   */\n      0x00\n        /* \"#utility.yul\":7324:7333   */\n      dup4\n        /* \"#utility.yul\":7320:7337   */\n      add\n        /* \"#utility.yul\":7313:7360   */\n      mstore\n        /* \"#utility.yul\":7377:7508   */\n      tag_175\n        /* \"#utility.yul\":7503:7507   */\n      dup2\n        /* \"#utility.yul\":7377:7508   */\n      tag_93\n      jump\t// in\n    tag_175:\n        /* \"#utility.yul\":7369:7508   */\n      swap1\n      pop\n        /* \"#utility.yul\":7096:7515   */\n      swap2\n      swap1\n      pop\n      jump\t// out\n        /* \"#utility.yul\":7521:7853   */\n    tag_67:\n        /* \"#utility.yul\":7642:7646   */\n      0x00\n        /* \"#utility.yul\":7680:7682   */\n      0x40\n        /* \"#utility.yul\":7669:7678   */\n      dup3\n        /* \"#utility.yul\":7665:7683   */\n      add\n        /* \"#utility.yul\":7657:7683   */\n      swap1\n      pop\n        /* \"#utility.yul\":7693:7764   */\n      tag_177\n        /* \"#utility.yul\":7761:7762   */\n      0x00\n        /* \"#utility.yul\":7750:7759   */\n      dup4\n        /* \"#utility.yul\":7746:7763   */\n      add\n        /* \"#utility.yul\":7737:7743   */\n      dup6\n        /* \"#utility.yul\":7693:7764   */\n      tag_85\n      jump\t// in\n    tag_177:\n        /* \"#utility.yul\":7774:7846   */\n      tag_178\n        /* \"#utility.yul\":7842:7844   */\n      0x20\n        /* \"#utility.yul\":7831:7840   */\n      dup4\n        /* \"#utility.yul\":7827:7845   */\n      add\n        /* \"#utility.yul\":7818:7824   */\n      dup5\n        /* \"#utility.yul\":7774:7846   */\n      tag_85\n      jump\t// in\n    tag_178:\n        /* \"#utility.yul\":7521:7853   */\n      swap4\n      swap3\n      pop\n      pop\n      pop\n      jump\t// out\n        /* \"#utility.yul\":7859:8002   */\n    tag_94:\n        /* \"#utility.yul\":7916:7921   */\n      0x00\n        /* \"#utility.yul\":7947:7953   */\n      dup2\n        /* \"#utility.yul\":7941:7954   */\n      mload\n        /* \"#utility.yul\":7932:7954   */\n      swap1\n      pop\n        /* \"#utility.yul\":7963:7996   */\n      tag_180\n        /* \"#utility.yul\":7990:7995   */\n      dup2\n        /* \"#utility.yul\":7963:7996   */\n      tag_77\n      jump\t// in\n    tag_180:\n        /* \"#utility.yul\":7859:8002   */\n      swap3\n      swap2\n      pop\n      pop\n      jump\t// out\n        /* \"#utility.yul\":8008:8359   */\n    tag_71:\n        /* \"#utility.yul\":8078:8084   */\n      0x00\n        /* \"#utility.yul\":8127:8129   */\n      0x20\n        /* \"#utility.yul\":8115:8124   */\n      dup3\n        /* \"#utility.yul\":8106:8113   */\n      dup5\n        /* \"#utility.yul\":8102:8125   */\n      sub\n        /* \"#utility.yul\":8098:8130   */\n      slt\n        /* \"#utility.yul\":8095:8214   */\n      iszero\n      tag_182\n      jumpi\n        /* \"#utility.yul\":8133:8212   */\n      tag_183\n      tag_73\n      jump\t// in\n    tag_183:\n        /* \"#utility.yul\":8095:8214   */\n    tag_182:\n        /* \"#utility.yul\":8253:8254   */\n      0x00\n        /* \"#utility.yul\":8278:8342   */\n      tag_184\n        /* \"#utility.yul\":8334:8341   */\n      dup5\n        /* \"#utility.yul\":8325:8331   */\n      dup3\n        /* \"#utility.yul\":8314:8323   */\n      dup6\n        /* \"#utility.yul\":8310:8332   */\n      add\n        /* \"#utility.yul\":8278:8342   */\n      tag_94\n      jump\t// in\n    tag_184:\n        /* \"#utility.yul\":8268:8342   */\n      swap2\n      pop\n        /* \"#utility.yul\":8224:8352   */\n      pop\n        /* \"#utility.yul\":8008:8359   */\n      swap3\n      swap2\n      pop\n      pop\n      jump\t// out\n\n    auxdata: 0xa26469706673582212209b1d7e5ee3326bdda0d8013c80d6e1f20aa036dd4ebbb82befa93fb0397eb96964736f6c634300081a0033\n}\n",
				"bytecode": {
					"linkReferences": {},
					"object": "60806040526003600255348015610014575f80fd5b50604051610ad3380380610ad38339818101604052810190610036919061011a565b815f806101000a81548173ffffffffffffffffffffffffffffffffffffffff021916908373ffffffffffffffffffffffffffffffffffffffff1602179055508060015f6101000a81548173ffffffffffffffffffffffffffffffffffffffff021916908373ffffffffffffffffffffffffffffffffffffffff1602179055505050610158565b5f80fd5b5f73ffffffffffffffffffffffffffffffffffffffff82169050919050565b5f6100e9826100c0565b9050919050565b6100f9816100df565b8114610103575f80fd5b50565b5f81519050610114816100f0565b92915050565b5f80604083850312156101305761012f6100bc565b5b5f61013d85828601610106565b925050602061014e85828601610106565b9150509250929050565b61096e806101655f395ff3fe608060405234801561000f575f80fd5b5060043610610086575f3560e01c8063c079c31811610059578063c079c31814610124578063c45a015514610140578063f61ea5711461015e578063f96dae0a1461018e57610086565b806345c442e31461008a5780635a6c72d0146100a657806382224869146100c45780638da7ad23146100f4575b5f80fd5b6100a4600480360381019061009f91906105b3565b6101ac565b005b6100ae6102f0565b6040516100bb9190610600565b60405180910390f35b6100de60048036038101906100d99190610619565b6102f6565b6040516100eb919061065e565b60405180910390f35b61010e60048036038101906101099190610619565b610313565b60405161011b9190610600565b60405180910390f35b61013e60048036038101906101399190610677565b610328565b005b610148610436565b60405161015591906106b1565b60405180910390f35b610178600480360381019061017391906106ca565b610459565b60405161018591906106b1565b60405180910390f35b6101966104fd565b6040516101a391906106b1565b60405180910390f35b60015f9054906101000a900473ffffffffffffffffffffffffffffffffffffffff1673ffffffffffffffffffffffffffffffffffffffff166323b872dd3330846040518463ffffffff1660e01b815260040161020a93929190610708565b6020604051808303815f875af1158015610226573d5f803e3d5ffd5b505050506040513d601f19601f8201168201806040525081019061024a9190610767565b508060035f3373ffffffffffffffffffffffffffffffffffffffff1673ffffffffffffffffffffffffffffffffffffffff1681526020019081526020015f205f82825461029791906107bf565b925050819055503373ffffffffffffffffffffffffffffffffffffffff167f4bb73a9896fa16d063ba06a3803cba6d97a7fb5521820b11842dff98fb3493f1826040516102e49190610600565b60405180910390a25050565b60025481565b6004602052805f5260405f205f915054906101000a900460ff1681565b6003602052805f5260405f205f915090505481565b60045f3373ffffffffffffffffffffffffffffffffffffffff1673ffffffffffffffffffffffffffffffffffffffff1681526020019081526020015f205f9054906101000a900460ff166103b1576040517f08c379a00000000000000000000000000000000000000000000000000000000081526004016103a89061084c565b60405180910390fd5b600a8111156103f5576040517f08c379a00000000000000000000000000000000000000000000000000000000081526004016103ec906108b4565b60405180910390fd5b806002819055507f8f0bb2e9dd4d9e8f7b5a5a5e6ec3ecfb088b85352c3405f9bf7fef9fcf4b50c18160405161042b9190610600565b60405180910390a150565b5f8054906101000a900473ffffffffffffffffffffffffffffffffffffffff1681565b5f805f9054906101000a900473ffffffffffffffffffffffffffffffffffffffff1673ffffffffffffffffffffffffffffffffffffffff1663c9c6539684846040518363ffffffff1660e01b81526004016104b59291906108d2565b6020604051808303815f875af11580156104d1573d5f803e3d5ffd5b505050506040513d601f19601f820116820180604052508101906104f5919061090d565b905092915050565b60015f9054906101000a900473ffffffffffffffffffffffffffffffffffffffff1681565b5f80fd5b5f73ffffffffffffffffffffffffffffffffffffffff82169050919050565b5f61054f82610526565b9050919050565b61055f81610545565b8114610569575f80fd5b50565b5f8135905061057a81610556565b92915050565b5f819050919050565b61059281610580565b811461059c575f80fd5b50565b5f813590506105ad81610589565b92915050565b5f80604083850312156105c9576105c8610522565b5b5f6105d68582860161056c565b92505060206105e78582860161059f565b9150509250929050565b6105fa81610580565b82525050565b5f6020820190506106135f8301846105f1565b92915050565b5f6020828403121561062e5761062d610522565b5b5f61063b8482850161056c565b91505092915050565b5f8115159050919050565b61065881610644565b82525050565b5f6020820190506106715f83018461064f565b92915050565b5f6020828403121561068c5761068b610522565b5b5f6106998482850161059f565b91505092915050565b6106ab81610545565b82525050565b5f6020820190506106c45f8301846106a2565b92915050565b5f80604083850312156106e0576106df610522565b5b5f6106ed8582860161056c565b92505060206106fe8582860161056c565b9150509250929050565b5f60608201905061071b5f8301866106a2565b61072860208301856106a2565b61073560408301846105f1565b949350505050565b61074681610644565b8114610750575f80fd5b50565b5f815190506107618161073d565b92915050565b5f6020828403121561077c5761077b610522565b5b5f61078984828501610753565b91505092915050565b7f4e487b71000000000000000000000000000000000000000000000000000000005f52601160045260245ffd5b5f6107c982610580565b91506107d483610580565b92508282019050808211156107ec576107eb610792565b5b92915050565b5f82825260208201905092915050565b7f4e6f74206120676f7665726e616e6365206d656d6265720000000000000000005f82015250565b5f6108366017836107f2565b915061084182610802565b602082019050919050565b5f6020820190508181035f8301526108638161082a565b9050919050565b7f46656520746f6f206869676800000000000000000000000000000000000000005f82015250565b5f61089e600c836107f2565b91506108a98261086a565b602082019050919050565b5f6020820190508181035f8301526108cb81610892565b9050919050565b5f6040820190506108e55f8301856106a2565b6108f260208301846106a2565b9392505050565b5f8151905061090781610556565b92915050565b5f6020828403121561092257610921610522565b5b5f61092f848285016108f9565b9150509291505056fea26469706673582212209b1d7e5ee3326bdda0d8013c80d6e1f20aa036dd4ebbb82befa93fb0397eb96964736f6c634300081a0033",
					"opcodes": "PUSH1 0x80 PUSH1 0x40 MSTORE PUSH1 0x3 PUSH1 0x2 SSTORE CALLVALUE DUP1 ISZERO PUSH2 0x14 JUMPI PUSH0 DUP1 REVERT JUMPDEST POP PUSH1 0x40 MLOAD PUSH2 0xAD3 CODESIZE SUB DUP1 PUSH2 0xAD3 DUP4 CODECOPY DUP2 DUP2 ADD PUSH1 0x40 MSTORE DUP2 ADD SWAP1 PUSH2 0x36 SWAP2 SWAP1 PUSH2 0x11A JUMP JUMPDEST DUP2 PUSH0 DUP1 PUSH2 0x100 EXP DUP2 SLOAD DUP2 PUSH20 0xFFFFFFFFFFFFFFFFFFFFFFFFFFFFFFFFFFFFFFFF MUL NOT AND SWAP1 DUP4 PUSH20 0xFFFFFFFFFFFFFFFFFFFFFFFFFFFFFFFFFFFFFFFF AND MUL OR SWAP1 SSTORE POP DUP1 PUSH1 0x1 PUSH0 PUSH2 0x100 EXP DUP2 SLOAD DUP2 PUSH20 0xFFFFFFFFFFFFFFFFFFFFFFFFFFFFFFFFFFFFFFFF MUL NOT AND SWAP1 DUP4 PUSH20 0xFFFFFFFFFFFFFFFFFFFFFFFFFFFFFFFFFFFFFFFF AND MUL OR SWAP1 SSTORE POP POP POP PUSH2 0x158 JUMP JUMPDEST PUSH0 DUP1 REVERT JUMPDEST PUSH0 PUSH20 0xFFFFFFFFFFFFFFFFFFFFFFFFFFFFFFFFFFFFFFFF DUP3 AND SWAP1 POP SWAP2 SWAP1 POP JUMP JUMPDEST PUSH0 PUSH2 0xE9 DUP3 PUSH2 0xC0 JUMP JUMPDEST SWAP1 POP SWAP2 SWAP1 POP JUMP JUMPDEST PUSH2 0xF9 DUP2 PUSH2 0xDF JUMP JUMPDEST DUP2 EQ PUSH2 0x103 JUMPI PUSH0 DUP1 REVERT JUMPDEST POP JUMP JUMPDEST PUSH0 DUP2 MLOAD SWAP1 POP PUSH2 0x114 DUP2 PUSH2 0xF0 JUMP JUMPDEST SWAP3 SWAP2 POP POP JUMP JUMPDEST PUSH0 DUP1 PUSH1 0x40 DUP4 DUP6 SUB SLT ISZERO PUSH2 0x130 JUMPI PUSH2 0x12F PUSH2 0xBC JUMP JUMPDEST JUMPDEST PUSH0 PUSH2 0x13D DUP6 DUP3 DUP7 ADD PUSH2 0x106 JUMP JUMPDEST SWAP3 POP POP PUSH1 0x20 PUSH2 0x14E DUP6 DUP3 DUP7 ADD PUSH2 0x106 JUMP JUMPDEST SWAP2 POP POP SWAP3 POP SWAP3 SWAP1 POP JUMP JUMPDEST PUSH2 0x96E DUP1 PUSH2 0x165 PUSH0 CODECOPY PUSH0 RETURN INVALID PUSH1 0x80 PUSH1 0x40 MSTORE CALLVALUE DUP1 ISZERO PUSH2 0xF JUMPI PUSH0 DUP1 REVERT JUMPDEST POP PUSH1 0x4 CALLDATASIZE LT PUSH2 0x86 JUMPI PUSH0 CALLDATALOAD PUSH1 0xE0 SHR DUP1 PUSH4 0xC079C318 GT PUSH2 0x59 JUMPI DUP1 PUSH4 0xC079C318 EQ PUSH2 0x124 JUMPI DUP1 PUSH4 0xC45A0155 EQ PUSH2 0x140 JUMPI DUP1 PUSH4 0xF61EA571 EQ PUSH2 0x15E JUMPI DUP1 PUSH4 0xF96DAE0A EQ PUSH2 0x18E JUMPI PUSH2 0x86 JUMP JUMPDEST DUP1 PUSH4 0x45C442E3 EQ PUSH2 0x8A JUMPI DUP1 PUSH4 0x5A6C72D0 EQ PUSH2 0xA6 JUMPI DUP1 PUSH4 0x82224869 EQ PUSH2 0xC4 JUMPI DUP1 PUSH4 0x8DA7AD23 EQ PUSH2 0xF4 JUMPI JUMPDEST PUSH0 DUP1 REVERT JUMPDEST PUSH2 0xA4 PUSH1 0x4 DUP1 CALLDATASIZE SUB DUP2 ADD SWAP1 PUSH2 0x9F SWAP2 SWAP1 PUSH2 0x5B3 JUMP JUMPDEST PUSH2 0x1AC JUMP JUMPDEST STOP JUMPDEST PUSH2 0xAE PUSH2 0x2F0 JUMP JUMPDEST PUSH1 0x40 MLOAD PUSH2 0xBB SWAP2 SWAP1 PUSH2 0x600 JUMP JUMPDEST PUSH1 0x40 MLOAD DUP1 SWAP2 SUB SWAP1 RETURN JUMPDEST PUSH2 0xDE PUSH1 0x4 DUP1 CALLDATASIZE SUB DUP2 ADD SWAP1 PUSH2 0xD9 SWAP2 SWAP1 PUSH2 0x619 JUMP JUMPDEST PUSH2 0x2F6 JUMP JUMPDEST PUSH1 0x40 MLOAD PUSH2 0xEB SWAP2 SWAP1 PUSH2 0x65E JUMP JUMPDEST PUSH1 0x40 MLOAD DUP1 SWAP2 SUB SWAP1 RETURN JUMPDEST PUSH2 0x10E PUSH1 0x4 DUP1 CALLDATASIZE SUB DUP2 ADD SWAP1 PUSH2 0x109 SWAP2 SWAP1 PUSH2 0x619 JUMP JUMPDEST PUSH2 0x313 JUMP JUMPDEST PUSH1 0x40 MLOAD PUSH2 0x11B SWAP2 SWAP1 PUSH2 0x600 JUMP JUMPDEST PUSH1 0x40 MLOAD DUP1 SWAP2 SUB SWAP1 RETURN JUMPDEST PUSH2 0x13E PUSH1 0x4 DUP1 CALLDATASIZE SUB DUP2 ADD SWAP1 PUSH2 0x139 SWAP2 SWAP1 PUSH2 0x677 JUMP JUMPDEST PUSH2 0x328 JUMP JUMPDEST STOP JUMPDEST PUSH2 0x148 PUSH2 0x436 JUMP JUMPDEST PUSH1 0x40 MLOAD PUSH2 0x155 SWAP2 SWAP1 PUSH2 0x6B1 JUMP JUMPDEST PUSH1 0x40 MLOAD DUP1 SWAP2 SUB SWAP1 RETURN JUMPDEST PUSH2 0x178 PUSH1 0x4 DUP1 CALLDATASIZE SUB DUP2 ADD SWAP1 PUSH2 0x173 SWAP2 SWAP1 PUSH2 0x6CA JUMP JUMPDEST PUSH2 0x459 JUMP JUMPDEST PUSH1 0x40 MLOAD PUSH2 0x185 SWAP2 SWAP1 PUSH2 0x6B1 JUMP JUMPDEST PUSH1 0x40 MLOAD DUP1 SWAP2 SUB SWAP1 RETURN JUMPDEST PUSH2 0x196 PUSH2 0x4FD JUMP JUMPDEST PUSH1 0x40 MLOAD PUSH2 0x1A3 SWAP2 SWAP1 PUSH2 0x6B1 JUMP JUMPDEST PUSH1 0x40 MLOAD DUP1 SWAP2 SUB SWAP1 RETURN JUMPDEST PUSH1 0x1 PUSH0 SWAP1 SLOAD SWAP1 PUSH2 0x100 EXP SWAP1 DIV PUSH20 0xFFFFFFFFFFFFFFFFFFFFFFFFFFFFFFFFFFFFFFFF AND PUSH20 0xFFFFFFFFFFFFFFFFFFFFFFFFFFFFFFFFFFFFFFFF AND PUSH4 0x23B872DD CALLER ADDRESS DUP5 PUSH1 0x40 MLOAD DUP5 PUSH4 0xFFFFFFFF AND PUSH1 0xE0 SHL DUP2 MSTORE PUSH1 0x4 ADD PUSH2 0x20A SWAP4 SWAP3 SWAP2 SWAP1 PUSH2 0x708 JUMP JUMPDEST PUSH1 0x20 PUSH1 0x40 MLOAD DUP1 DUP4 SUB DUP2 PUSH0 DUP8 GAS CALL ISZERO DUP1 ISZERO PUSH2 0x226 JUMPI RETURNDATASIZE PUSH0 DUP1 RETURNDATACOPY RETURNDATASIZE PUSH0 REVERT JUMPDEST POP POP POP POP PUSH1 0x40 MLOAD RETURNDATASIZE PUSH1 0x1F NOT PUSH1 0x1F DUP3 ADD AND DUP3 ADD DUP1 PUSH1 0x40 MSTORE POP DUP2 ADD SWAP1 PUSH2 0x24A SWAP2 SWAP1 PUSH2 0x767 JUMP JUMPDEST POP DUP1 PUSH1 0x3 PUSH0 CALLER PUSH20 0xFFFFFFFFFFFFFFFFFFFFFFFFFFFFFFFFFFFFFFFF AND PUSH20 0xFFFFFFFFFFFFFFFFFFFFFFFFFFFFFFFFFFFFFFFF AND DUP2 MSTORE PUSH1 0x20 ADD SWAP1 DUP2 MSTORE PUSH1 0x20 ADD PUSH0 KECCAK256 PUSH0 DUP3 DUP3 SLOAD PUSH2 0x297 SWAP2 SWAP1 PUSH2 0x7BF JUMP JUMPDEST SWAP3 POP POP DUP2 SWAP1 SSTORE POP CALLER PUSH20 0xFFFFFFFFFFFFFFFFFFFFFFFFFFFFFFFFFFFFFFFF AND PUSH32 0x4BB73A9896FA16D063BA06A3803CBA6D97A7FB5521820B11842DFF98FB3493F1 DUP3 PUSH1 0x40 MLOAD PUSH2 0x2E4 SWAP2 SWAP1 PUSH2 0x600 JUMP JUMPDEST PUSH1 0x40 MLOAD DUP1 SWAP2 SUB SWAP1 LOG2 POP POP JUMP JUMPDEST PUSH1 0x2 SLOAD DUP2 JUMP JUMPDEST PUSH1 0x4 PUSH1 0x20 MSTORE DUP1 PUSH0 MSTORE PUSH1 0x40 PUSH0 KECCAK256 PUSH0 SWAP2 POP SLOAD SWAP1 PUSH2 0x100 EXP SWAP1 DIV PUSH1 0xFF AND DUP2 JUMP JUMPDEST PUSH1 0x3 PUSH1 0x20 MSTORE DUP1 PUSH0 MSTORE PUSH1 0x40 PUSH0 KECCAK256 PUSH0 SWAP2 POP SWAP1 POP SLOAD DUP2 JUMP JUMPDEST PUSH1 0x4 PUSH0 CALLER PUSH20 0xFFFFFFFFFFFFFFFFFFFFFFFFFFFFFFFFFFFFFFFF AND PUSH20 0xFFFFFFFFFFFFFFFFFFFFFFFFFFFFFFFFFFFFFFFF AND DUP2 MSTORE PUSH1 0x20 ADD SWAP1 DUP2 MSTORE PUSH1 0x20 ADD PUSH0 KECCAK256 PUSH0 SWAP1 SLOAD SWAP1 PUSH2 0x100 EXP SWAP1 DIV PUSH1 0xFF AND PUSH2 0x3B1 JUMPI PUSH1 0x40 MLOAD PUSH32 0x8C379A000000000000000000000000000000000000000000000000000000000 DUP2 MSTORE PUSH1 0x4 ADD PUSH2 0x3A8 SWAP1 PUSH2 0x84C JUMP JUMPDEST PUSH1 0x40 MLOAD DUP1 SWAP2 SUB SWAP1 REVERT JUMPDEST PUSH1 0xA DUP2 GT ISZERO PUSH2 0x3F5 JUMPI PUSH1 0x40 MLOAD PUSH32 0x8C379A000000000000000000000000000000000000000000000000000000000 DUP2 MSTORE PUSH1 0x4 ADD PUSH2 0x3EC SWAP1 PUSH2 0x8B4 JUMP JUMPDEST PUSH1 0x40 MLOAD DUP1 SWAP2 SUB SWAP1 REVERT JUMPDEST DUP1 PUSH1 0x2 DUP2 SWAP1 SSTORE POP PUSH32 0x8F0BB2E9DD4D9E8F7B5A5A5E6EC3ECFB088B85352C3405F9BF7FEF9FCF4B50C1 DUP2 PUSH1 0x40 MLOAD PUSH2 0x42B SWAP2 SWAP1 PUSH2 0x600 JUMP JUMPDEST PUSH1 0x40 MLOAD DUP1 SWAP2 SUB SWAP1 LOG1 POP JUMP JUMPDEST PUSH0 DUP1 SLOAD SWAP1 PUSH2 0x100 EXP SWAP1 DIV PUSH20 0xFFFFFFFFFFFFFFFFFFFFFFFFFFFFFFFFFFFFFFFF AND DUP2 JUMP JUMPDEST PUSH0 DUP1 PUSH0 SWAP1 SLOAD SWAP1 PUSH2 0x100 EXP SWAP1 DIV PUSH20 0xFFFFFFFFFFFFFFFFFFFFFFFFFFFFFFFFFFFFFFFF AND PUSH20 0xFFFFFFFFFFFFFFFFFFFFFFFFFFFFFFFFFFFFFFFF AND PUSH4 0xC9C65396 DUP5 DUP5 PUSH1 0x40 MLOAD DUP4 PUSH4 0xFFFFFFFF AND PUSH1 0xE0 SHL DUP2 MSTORE PUSH1 0x4 ADD PUSH2 0x4B5 SWAP3 SWAP2 SWAP1 PUSH2 0x8D2 JUMP JUMPDEST PUSH1 0x20 PUSH1 0x40 MLOAD DUP1 DUP4 SUB DUP2 PUSH0 DUP8 GAS CALL ISZERO DUP1 ISZERO PUSH2 0x4D1 JUMPI RETURNDATASIZE PUSH0 DUP1 RETURNDATACOPY RETURNDATASIZE PUSH0 REVERT JUMPDEST POP POP POP POP PUSH1 0x40 MLOAD RETURNDATASIZE PUSH1 0x1F NOT PUSH1 0x1F DUP3 ADD AND DUP3 ADD DUP1 PUSH1 0x40 MSTORE POP DUP2 ADD SWAP1 PUSH2 0x4F5 SWAP2 SWAP1 PUSH2 0x90D JUMP JUMPDEST SWAP1 POP SWAP3 SWAP2 POP POP JUMP JUMPDEST PUSH1 0x1 PUSH0 SWAP1 SLOAD SWAP1 PUSH2 0x100 EXP SWAP1 DIV PUSH20 0xFFFFFFFFFFFFFFFFFFFFFFFFFFFFFFFFFFFFFFFF AND DUP2 JUMP JUMPDEST PUSH0 DUP1 REVERT JUMPDEST PUSH0 PUSH20 0xFFFFFFFFFFFFFFFFFFFFFFFFFFFFFFFFFFFFFFFF DUP3 AND SWAP1 POP SWAP2 SWAP1 POP JUMP JUMPDEST PUSH0 PUSH2 0x54F DUP3 PUSH2 0x526 JUMP JUMPDEST SWAP1 POP SWAP2 SWAP1 POP JUMP JUMPDEST PUSH2 0x55F DUP2 PUSH2 0x545 JUMP JUMPDEST DUP2 EQ PUSH2 0x569 JUMPI PUSH0 DUP1 REVERT JUMPDEST POP JUMP JUMPDEST PUSH0 DUP2 CALLDATALOAD SWAP1 POP PUSH2 0x57A DUP2 PUSH2 0x556 JUMP JUMPDEST SWAP3 SWAP2 POP POP JUMP JUMPDEST PUSH0 DUP2 SWAP1 POP SWAP2 SWAP1 POP JUMP JUMPDEST PUSH2 0x592 DUP2 PUSH2 0x580 JUMP JUMPDEST DUP2 EQ PUSH2 0x59C JUMPI PUSH0 DUP1 REVERT JUMPDEST POP JUMP JUMPDEST PUSH0 DUP2 CALLDATALOAD SWAP1 POP PUSH2 0x5AD DUP2 PUSH2 0x589 JUMP JUMPDEST SWAP3 SWAP2 POP POP JUMP JUMPDEST PUSH0 DUP1 PUSH1 0x40 DUP4 DUP6 SUB SLT ISZERO PUSH2 0x5C9 JUMPI PUSH2 0x5C8 PUSH2 0x522 JUMP JUMPDEST JUMPDEST PUSH0 PUSH2 0x5D6 DUP6 DUP3 DUP7 ADD PUSH2 0x56C JUMP JUMPDEST SWAP3 POP POP PUSH1 0x20 PUSH2 0x5E7 DUP6 DUP3 DUP7 ADD PUSH2 0x59F JUMP JUMPDEST SWAP2 POP POP SWAP3 POP SWAP3 SWAP1 POP JUMP JUMPDEST PUSH2 0x5FA DUP2 PUSH2 0x580 JUMP JUMPDEST DUP3 MSTORE POP POP JUMP JUMPDEST PUSH0 PUSH1 0x20 DUP3 ADD SWAP1 POP PUSH2 0x613 PUSH0 DUP4 ADD DUP5 PUSH2 0x5F1 JUMP JUMPDEST SWAP3 SWAP2 POP POP JUMP JUMPDEST PUSH0 PUSH1 0x20 DUP3 DUP5 SUB SLT ISZERO PUSH2 0x62E JUMPI PUSH2 0x62D PUSH2 0x522 JUMP JUMPDEST JUMPDEST PUSH0 PUSH2 0x63B DUP5 DUP3 DUP6 ADD PUSH2 0x56C JUMP JUMPDEST SWAP2 POP POP SWAP3 SWAP2 POP POP JUMP JUMPDEST PUSH0 DUP2 ISZERO ISZERO SWAP1 POP SWAP2 SWAP1 POP JUMP JUMPDEST PUSH2 0x658 DUP2 PUSH2 0x644 JUMP JUMPDEST DUP3 MSTORE POP POP JUMP JUMPDEST PUSH0 PUSH1 0x20 DUP3 ADD SWAP1 POP PUSH2 0x671 PUSH0 DUP4 ADD DUP5 PUSH2 0x64F JUMP JUMPDEST SWAP3 SWAP2 POP POP JUMP JUMPDEST PUSH0 PUSH1 0x20 DUP3 DUP5 SUB SLT ISZERO PUSH2 0x68C JUMPI PUSH2 0x68B PUSH2 0x522 JUMP JUMPDEST JUMPDEST PUSH0 PUSH2 0x699 DUP5 DUP3 DUP6 ADD PUSH2 0x59F JUMP JUMPDEST SWAP2 POP POP SWAP3 SWAP2 POP POP JUMP JUMPDEST PUSH2 0x6AB DUP2 PUSH2 0x545 JUMP JUMPDEST DUP3 MSTORE POP POP JUMP JUMPDEST PUSH0 PUSH1 0x20 DUP3 ADD SWAP1 POP PUSH2 0x6C4 PUSH0 DUP4 ADD DUP5 PUSH2 0x6A2 JUMP JUMPDEST SWAP3 SWAP2 POP POP JUMP JUMPDEST PUSH0 DUP1 PUSH1 0x40 DUP4 DUP6 SUB SLT ISZERO PUSH2 0x6E0 JUMPI PUSH2 0x6DF PUSH2 0x522 JUMP JUMPDEST JUMPDEST PUSH0 PUSH2 0x6ED DUP6 DUP3 DUP7 ADD PUSH2 0x56C JUMP JUMPDEST SWAP3 POP POP PUSH1 0x20 PUSH2 0x6FE DUP6 DUP3 DUP7 ADD PUSH2 0x56C JUMP JUMPDEST SWAP2 POP POP SWAP3 POP SWAP3 SWAP1 POP JUMP JUMPDEST PUSH0 PUSH1 0x60 DUP3 ADD SWAP1 POP PUSH2 0x71B PUSH0 DUP4 ADD DUP7 PUSH2 0x6A2 JUMP JUMPDEST PUSH2 0x728 PUSH1 0x20 DUP4 ADD DUP6 PUSH2 0x6A2 JUMP JUMPDEST PUSH2 0x735 PUSH1 0x40 DUP4 ADD DUP5 PUSH2 0x5F1 JUMP JUMPDEST SWAP5 SWAP4 POP POP POP POP JUMP JUMPDEST PUSH2 0x746 DUP2 PUSH2 0x644 JUMP JUMPDEST DUP2 EQ PUSH2 0x750 JUMPI PUSH0 DUP1 REVERT JUMPDEST POP JUMP JUMPDEST PUSH0 DUP2 MLOAD SWAP1 POP PUSH2 0x761 DUP2 PUSH2 0x73D JUMP JUMPDEST SWAP3 SWAP2 POP POP JUMP JUMPDEST PUSH0 PUSH1 0x20 DUP3 DUP5 SUB SLT ISZERO PUSH2 0x77C JUMPI PUSH2 0x77B PUSH2 0x522 JUMP JUMPDEST JUMPDEST PUSH0 PUSH2 0x789 DUP5 DUP3 DUP6 ADD PUSH2 0x753 JUMP JUMPDEST SWAP2 POP POP SWAP3 SWAP2 POP POP JUMP JUMPDEST PUSH32 0x4E487B7100000000000000000000000000000000000000000000000000000000 PUSH0 MSTORE PUSH1 0x11 PUSH1 0x4 MSTORE PUSH1 0x24 PUSH0 REVERT JUMPDEST PUSH0 PUSH2 0x7C9 DUP3 PUSH2 0x580 JUMP JUMPDEST SWAP2 POP PUSH2 0x7D4 DUP4 PUSH2 0x580 JUMP JUMPDEST SWAP3 POP DUP3 DUP3 ADD SWAP1 POP DUP1 DUP3 GT ISZERO PUSH2 0x7EC JUMPI PUSH2 0x7EB PUSH2 0x792 JUMP JUMPDEST JUMPDEST SWAP3 SWAP2 POP POP JUMP JUMPDEST PUSH0 DUP3 DUP3 MSTORE PUSH1 0x20 DUP3 ADD SWAP1 POP SWAP3 SWAP2 POP POP JUMP JUMPDEST PUSH32 0x4E6F74206120676F7665726E616E6365206D656D626572000000000000000000 PUSH0 DUP3 ADD MSTORE POP JUMP JUMPDEST PUSH0 PUSH2 0x836 PUSH1 0x17 DUP4 PUSH2 0x7F2 JUMP JUMPDEST SWAP2 POP PUSH2 0x841 DUP3 PUSH2 0x802 JUMP JUMPDEST PUSH1 0x20 DUP3 ADD SWAP1 POP SWAP2 SWAP1 POP JUMP JUMPDEST PUSH0 PUSH1 0x20 DUP3 ADD SWAP1 POP DUP2 DUP2 SUB PUSH0 DUP4 ADD MSTORE PUSH2 0x863 DUP2 PUSH2 0x82A JUMP JUMPDEST SWAP1 POP SWAP2 SWAP1 POP JUMP JUMPDEST PUSH32 0x46656520746F6F20686967680000000000000000000000000000000000000000 PUSH0 DUP3 ADD MSTORE POP JUMP JUMPDEST PUSH0 PUSH2 0x89E PUSH1 0xC DUP4 PUSH2 0x7F2 JUMP JUMPDEST SWAP2 POP PUSH2 0x8A9 DUP3 PUSH2 0x86A JUMP JUMPDEST PUSH1 0x20 DUP3 ADD SWAP1 POP SWAP2 SWAP1 POP JUMP JUMPDEST PUSH0 PUSH1 0x20 DUP3 ADD SWAP1 POP DUP2 DUP2 SUB PUSH0 DUP4 ADD MSTORE PUSH2 0x8CB DUP2 PUSH2 0x892 JUMP JUMPDEST SWAP1 POP SWAP2 SWAP1 POP JUMP JUMPDEST PUSH0 PUSH1 0x40 DUP3 ADD SWAP1 POP PUSH2 0x8E5 PUSH0 DUP4 ADD DUP6 PUSH2 0x6A2 JUMP JUMPDEST PUSH2 0x8F2 PUSH1 0x20 DUP4 ADD DUP5 PUSH2 0x6A2 JUMP JUMPDEST SWAP4 SWAP3 POP POP POP JUMP JUMPDEST PUSH0 DUP2 MLOAD SWAP1 POP PUSH2 0x907 DUP2 PUSH2 0x556 JUMP JUMPDEST SWAP3 SWAP2 POP POP JUMP JUMPDEST PUSH0 PUSH1 0x20 DUP3 DUP5 SUB SLT ISZERO PUSH2 0x922 JUMPI PUSH2 0x921 PUSH2 0x522 JUMP JUMPDEST JUMPDEST PUSH0 PUSH2 0x92F DUP5 DUP3 DUP6 ADD PUSH2 0x8F9 JUMP JUMPDEST SWAP2 POP POP SWAP3 SWAP2 POP POP JUMP INVALID LOG2 PUSH5 0x6970667358 0x22 SLT KECCAK256 SWAP12 SAR PUSH31 0x5EE3326BDDA0D8013C80D6E1F20AA036DD4EBBB82BEFA93FB0397EB9696473 PUSH16 0x6C634300081A00330000000000000000 "
				},
				"gasEstimates": {
					"creation": {
						"codeDepositCost": "482800",
						"executionCost": "infinite",
						"totalCost": "infinite"
					},
					"external": {
						"adjustFee(uint256)": "infinite",
						"createCustomPair(address,address)": "infinite",
						"defaultFee()": "2448",
						"factory()": "2527",
						"governanceToken()": "2574",
						"isGovernanceMember(address)": "2878",
						"provideLiquidityIncentive(address,uint256)": "infinite",
						"userStakes(address)": "2869"
					}
				},
				"methodIdentifiers": {
					"adjustFee(uint256)": "c079c318",
					"createCustomPair(address,address)": "f61ea571",
					"defaultFee()": "5a6c72d0",
					"factory()": "c45a0155",
					"governanceToken()": "f96dae0a",
					"isGovernanceMember(address)": "82224869",
					"provideLiquidityIncentive(address,uint256)": "45c442e3",
					"userStakes(address)": "8da7ad23"
				}
			},
			"storageLayout": {
				"storage": [
					{
						"astId": 389,
						"contract": "contracts/Yield.sol:OpenDex",
						"label": "factory",
						"offset": 0,
						"slot": "0",
						"type": "t_address"
					},
					{
						"astId": 391,
						"contract": "contracts/Yield.sol:OpenDex",
						"label": "governanceToken",
						"offset": 0,
						"slot": "1",
						"type": "t_address"
					},
					{
						"astId": 394,
						"contract": "contracts/Yield.sol:OpenDex",
						"label": "defaultFee",
						"offset": 0,
						"slot": "2",
						"type": "t_uint256"
					},
					{
						"astId": 398,
						"contract": "contracts/Yield.sol:OpenDex",
						"label": "userStakes",
						"offset": 0,
						"slot": "3",
						"type": "t_mapping(t_address,t_uint256)"
					},
					{
						"astId": 402,
						"contract": "contracts/Yield.sol:OpenDex",
						"label": "isGovernanceMember",
						"offset": 0,
						"slot": "4",
						"type": "t_mapping(t_address,t_bool)"
					}
				],
				"types": {
					"t_address": {
						"encoding": "inplace",
						"label": "address",
						"numberOfBytes": "20"
					},
					"t_bool": {
						"encoding": "inplace",
						"label": "bool",
						"numberOfBytes": "1"
					},
					"t_mapping(t_address,t_bool)": {
						"encoding": "mapping",
						"key": "t_address",
						"label": "mapping(address => bool)",
						"numberOfBytes": "32",
						"value": "t_bool"
					},
					"t_mapping(t_address,t_uint256)": {
						"encoding": "mapping",
						"key": "t_address",
						"label": "mapping(address => uint256)",
						"numberOfBytes": "32",
						"value": "t_uint256"
					},
					"t_uint256": {
						"encoding": "inplace",
						"label": "uint256",
						"numberOfBytes": "32"
					}
				}
			},
			"userdoc": {
				"kind": "user",
				"methods": {},
				"version": 1
			}
		}
	}
}