{
	"contracts/DynamicFee.sol": {
		"DynamicFee": {
			"abi": [
				{
					"inputs": [
						{
							"internalType": "address",
							"name": "oracleAddress",
							"type": "address"
						},
						{
							"internalType": "uint256",
							"name": "_baseFee",
							"type": "uint256"
						},
						{
							"internalType": "uint256",
							"name": "_minFee",
							"type": "uint256"
						},
						{
							"internalType": "uint256",
							"name": "_maxFee",
							"type": "uint256"
						},
						{
							"internalType": "uint256",
							"name": "_volatilityFactor",
							"type": "uint256"
						}
					],
					"stateMutability": "nonpayable",
					"type": "constructor"
				},
				{
					"anonymous": false,
					"inputs": [
						{
							"indexed": false,
							"internalType": "uint256",
							"name": "newFee",
							"type": "uint256"
						}
					],
					"name": "FeeAdjusted",
					"type": "event"
				},
				{
					"inputs": [
						{
							"internalType": "string",
							"name": "tokenPair",
							"type": "string"
						}
					],
					"name": "adjustFee",
					"outputs": [],
					"stateMutability": "nonpayable",
					"type": "function"
				},
				{
					"inputs": [],
					"name": "baseFee",
					"outputs": [
						{
							"internalType": "uint256",
							"name": "",
							"type": "uint256"
						}
					],
					"stateMutability": "view",
					"type": "function"
				},
				{
					"inputs": [],
					"name": "getTradingFee",
					"outputs": [
						{
							"internalType": "uint256",
							"name": "",
							"type": "uint256"
						}
					],
					"stateMutability": "view",
					"type": "function"
				},
				{
					"inputs": [],
					"name": "maxFee",
					"outputs": [
						{
							"internalType": "uint256",
							"name": "",
							"type": "uint256"
						}
					],
					"stateMutability": "view",
					"type": "function"
				},
				{
					"inputs": [],
					"name": "minFee",
					"outputs": [
						{
							"internalType": "uint256",
							"name": "",
							"type": "uint256"
						}
					],
					"stateMutability": "view",
					"type": "function"
				},
				{
					"inputs": [],
					"name": "priceOracle",
					"outputs": [
						{
							"internalType": "contract Oracle",
							"name": "",
							"type": "address"
						}
					],
					"stateMutability": "view",
					"type": "function"
				},
				{
					"inputs": [],
					"name": "volatilityFactor",
					"outputs": [
						{
							"internalType": "uint256",
							"name": "",
							"type": "uint256"
						}
					],
					"stateMutability": "view",
					"type": "function"
				}
			],
			"devdoc": {
				"kind": "dev",
				"methods": {},
				"version": 1
			},
			"evm": {
				"assembly": "    /* \"contracts/DynamicFee.sol\":86:1697  contract DynamicFee {... */\n  mstore(0x40, 0x80)\n    /* \"contracts/DynamicFee.sol\":456:754  constructor(address oracleAddress, uint256 _baseFee, uint256 _minFee, uint256 _maxFee, uint256 _volatilityFactor) {... */\n  callvalue\n  dup1\n  iszero\n  tag_1\n  jumpi\n  0x00\n  dup1\n  revert\ntag_1:\n  pop\n  mload(0x40)\n  sub(codesize, bytecodeSize)\n  dup1\n  bytecodeSize\n  dup4\n  codecopy\n  dup2\n  dup2\n  add\n  0x40\n  mstore\n  dup2\n  add\n  swap1\n  tag_2\n  swap2\n  swap1\n  tag_3\n  jump\t// in\ntag_2:\n    /* \"contracts/DynamicFee.sol\":602:615  oracleAddress */\n  dup5\n    /* \"contracts/DynamicFee.sol\":581:592  priceOracle */\n  0x00\n  dup1\n    /* \"contracts/DynamicFee.sol\":581:616  priceOracle = Oracle(oracleAddress) */\n  0x0100\n  exp\n  dup2\n  sload\n  dup2\n  0xffffffffffffffffffffffffffffffffffffffff\n  mul\n  not\n  and\n  swap1\n  dup4\n  0xffffffffffffffffffffffffffffffffffffffff\n  and\n  mul\n  or\n  swap1\n  sstore\n  pop\n    /* \"contracts/DynamicFee.sol\":637:645  _baseFee */\n  dup4\n    /* \"contracts/DynamicFee.sol\":627:634  baseFee */\n  0x01\n    /* \"contracts/DynamicFee.sol\":627:645  baseFee = _baseFee */\n  dup2\n  swap1\n  sstore\n  pop\n    /* \"contracts/DynamicFee.sol\":665:672  _minFee */\n  dup3\n    /* \"contracts/DynamicFee.sol\":656:662  minFee */\n  0x02\n    /* \"contracts/DynamicFee.sol\":656:672  minFee = _minFee */\n  dup2\n  swap1\n  sstore\n  pop\n    /* \"contracts/DynamicFee.sol\":692:699  _maxFee */\n  dup2\n    /* \"contracts/DynamicFee.sol\":683:689  maxFee */\n  0x03\n    /* \"contracts/DynamicFee.sol\":683:699  maxFee = _maxFee */\n  dup2\n  swap1\n  sstore\n  pop\n    /* \"contracts/DynamicFee.sol\":729:746  _volatilityFactor */\n  dup1\n    /* \"contracts/DynamicFee.sol\":710:726  volatilityFactor */\n  0x04\n    /* \"contracts/DynamicFee.sol\":710:746  volatilityFactor = _volatilityFactor */\n  dup2\n  swap1\n  sstore\n  pop\n    /* \"contracts/DynamicFee.sol\":456:754  constructor(address oracleAddress, uint256 _baseFee, uint256 _minFee, uint256 _maxFee, uint256 _volatilityFactor) {... */\n  pop\n  pop\n  pop\n  pop\n  pop\n    /* \"contracts/DynamicFee.sol\":86:1697  contract DynamicFee {... */\n  jump(tag_6)\n    /* \"#utility.yul\":88:205   */\ntag_8:\n    /* \"#utility.yul\":197:198   */\n  0x00\n    /* \"#utility.yul\":194:195   */\n  dup1\n    /* \"#utility.yul\":187:199   */\n  revert\n    /* \"#utility.yul\":334:460   */\ntag_10:\n    /* \"#utility.yul\":371:378   */\n  0x00\n    /* \"#utility.yul\":411:453   */\n  0xffffffffffffffffffffffffffffffffffffffff\n    /* \"#utility.yul\":404:409   */\n  dup3\n    /* \"#utility.yul\":400:454   */\n  and\n    /* \"#utility.yul\":389:454   */\n  swap1\n  pop\n    /* \"#utility.yul\":334:460   */\n  swap2\n  swap1\n  pop\n  jump\t// out\n    /* \"#utility.yul\":466:562   */\ntag_11:\n    /* \"#utility.yul\":503:510   */\n  0x00\n    /* \"#utility.yul\":532:556   */\n  tag_23\n    /* \"#utility.yul\":550:555   */\n  dup3\n    /* \"#utility.yul\":532:556   */\n  tag_10\n  jump\t// in\ntag_23:\n    /* \"#utility.yul\":521:556   */\n  swap1\n  pop\n    /* \"#utility.yul\":466:562   */\n  swap2\n  swap1\n  pop\n  jump\t// out\n    /* \"#utility.yul\":568:690   */\ntag_12:\n    /* \"#utility.yul\":641:665   */\n  tag_25\n    /* \"#utility.yul\":659:664   */\n  dup2\n    /* \"#utility.yul\":641:665   */\n  tag_11\n  jump\t// in\ntag_25:\n    /* \"#utility.yul\":634:639   */\n  dup2\n    /* \"#utility.yul\":631:666   */\n  eq\n    /* \"#utility.yul\":621:684   */\n  tag_26\n  jumpi\n    /* \"#utility.yul\":680:681   */\n  0x00\n    /* \"#utility.yul\":677:678   */\n  dup1\n    /* \"#utility.yul\":670:682   */\n  revert\n    /* \"#utility.yul\":621:684   */\ntag_26:\n    /* \"#utility.yul\":568:690   */\n  pop\n  jump\t// out\n    /* \"#utility.yul\":696:839   */\ntag_13:\n    /* \"#utility.yul\":753:758   */\n  0x00\n    /* \"#utility.yul\":784:790   */\n  dup2\n    /* \"#utility.yul\":778:791   */\n  mload\n    /* \"#utility.yul\":769:791   */\n  swap1\n  pop\n    /* \"#utility.yul\":800:833   */\n  tag_28\n    /* \"#utility.yul\":827:832   */\n  dup2\n    /* \"#utility.yul\":800:833   */\n  tag_12\n  jump\t// in\ntag_28:\n    /* \"#utility.yul\":696:839   */\n  swap3\n  swap2\n  pop\n  pop\n  jump\t// out\n    /* \"#utility.yul\":845:922   */\ntag_14:\n    /* \"#utility.yul\":882:889   */\n  0x00\n    /* \"#utility.yul\":911:916   */\n  dup2\n    /* \"#utility.yul\":900:916   */\n  swap1\n  pop\n    /* \"#utility.yul\":845:922   */\n  swap2\n  swap1\n  pop\n  jump\t// out\n    /* \"#utility.yul\":928:1050   */\ntag_15:\n    /* \"#utility.yul\":1001:1025   */\n  tag_31\n    /* \"#utility.yul\":1019:1024   */\n  dup2\n    /* \"#utility.yul\":1001:1025   */\n  tag_14\n  jump\t// in\ntag_31:\n    /* \"#utility.yul\":994:999   */\n  dup2\n    /* \"#utility.yul\":991:1026   */\n  eq\n    /* \"#utility.yul\":981:1044   */\n  tag_32\n  jumpi\n    /* \"#utility.yul\":1040:1041   */\n  0x00\n    /* \"#utility.yul\":1037:1038   */\n  dup1\n    /* \"#utility.yul\":1030:1042   */\n  revert\n    /* \"#utility.yul\":981:1044   */\ntag_32:\n    /* \"#utility.yul\":928:1050   */\n  pop\n  jump\t// out\n    /* \"#utility.yul\":1056:1199   */\ntag_16:\n    /* \"#utility.yul\":1113:1118   */\n  0x00\n    /* \"#utility.yul\":1144:1150   */\n  dup2\n    /* \"#utility.yul\":1138:1151   */\n  mload\n    /* \"#utility.yul\":1129:1151   */\n  swap1\n  pop\n    /* \"#utility.yul\":1160:1193   */\n  tag_34\n    /* \"#utility.yul\":1187:1192   */\n  dup2\n    /* \"#utility.yul\":1160:1193   */\n  tag_15\n  jump\t// in\ntag_34:\n    /* \"#utility.yul\":1056:1199   */\n  swap3\n  swap2\n  pop\n  pop\n  jump\t// out\n    /* \"#utility.yul\":1205:2182   */\ntag_3:\n    /* \"#utility.yul\":1311:1317   */\n  0x00\n    /* \"#utility.yul\":1319:1325   */\n  dup1\n    /* \"#utility.yul\":1327:1333   */\n  0x00\n    /* \"#utility.yul\":1335:1341   */\n  dup1\n    /* \"#utility.yul\":1343:1349   */\n  0x00\n    /* \"#utility.yul\":1392:1395   */\n  0xa0\n    /* \"#utility.yul\":1380:1389   */\n  dup7\n    /* \"#utility.yul\":1371:1378   */\n  dup9\n    /* \"#utility.yul\":1367:1390   */\n  sub\n    /* \"#utility.yul\":1363:1396   */\n  slt\n    /* \"#utility.yul\":1360:1480   */\n  iszero\n  tag_36\n  jumpi\n    /* \"#utility.yul\":1399:1478   */\n  tag_37\n  tag_8\n  jump\t// in\ntag_37:\n    /* \"#utility.yul\":1360:1480   */\ntag_36:\n    /* \"#utility.yul\":1519:1520   */\n  0x00\n    /* \"#utility.yul\":1544:1608   */\n  tag_38\n    /* \"#utility.yul\":1600:1607   */\n  dup9\n    /* \"#utility.yul\":1591:1597   */\n  dup3\n    /* \"#utility.yul\":1580:1589   */\n  dup10\n    /* \"#utility.yul\":1576:1598   */\n  add\n    /* \"#utility.yul\":1544:1608   */\n  tag_13\n  jump\t// in\ntag_38:\n    /* \"#utility.yul\":1534:1608   */\n  swap6\n  pop\n    /* \"#utility.yul\":1490:1618   */\n  pop\n    /* \"#utility.yul\":1657:1659   */\n  0x20\n    /* \"#utility.yul\":1683:1747   */\n  tag_39\n    /* \"#utility.yul\":1739:1746   */\n  dup9\n    /* \"#utility.yul\":1730:1736   */\n  dup3\n    /* \"#utility.yul\":1719:1728   */\n  dup10\n    /* \"#utility.yul\":1715:1737   */\n  add\n    /* \"#utility.yul\":1683:1747   */\n  tag_16\n  jump\t// in\ntag_39:\n    /* \"#utility.yul\":1673:1747   */\n  swap5\n  pop\n    /* \"#utility.yul\":1628:1757   */\n  pop\n    /* \"#utility.yul\":1796:1798   */\n  0x40\n    /* \"#utility.yul\":1822:1886   */\n  tag_40\n    /* \"#utility.yul\":1878:1885   */\n  dup9\n    /* \"#utility.yul\":1869:1875   */\n  dup3\n    /* \"#utility.yul\":1858:1867   */\n  dup10\n    /* \"#utility.yul\":1854:1876   */\n  add\n    /* \"#utility.yul\":1822:1886   */\n  tag_16\n  jump\t// in\ntag_40:\n    /* \"#utility.yul\":1812:1886   */\n  swap4\n  pop\n    /* \"#utility.yul\":1767:1896   */\n  pop\n    /* \"#utility.yul\":1935:1937   */\n  0x60\n    /* \"#utility.yul\":1961:2025   */\n  tag_41\n    /* \"#utility.yul\":2017:2024   */\n  dup9\n    /* \"#utility.yul\":2008:2014   */\n  dup3\n    /* \"#utility.yul\":1997:2006   */\n  dup10\n    /* \"#utility.yul\":1993:2015   */\n  add\n    /* \"#utility.yul\":1961:2025   */\n  tag_16\n  jump\t// in\ntag_41:\n    /* \"#utility.yul\":1951:2025   */\n  swap3\n  pop\n    /* \"#utility.yul\":1906:2035   */\n  pop\n    /* \"#utility.yul\":2074:2077   */\n  0x80\n    /* \"#utility.yul\":2101:2165   */\n  tag_42\n    /* \"#utility.yul\":2157:2164   */\n  dup9\n    /* \"#utility.yul\":2148:2154   */\n  dup3\n    /* \"#utility.yul\":2137:2146   */\n  dup10\n    /* \"#utility.yul\":2133:2155   */\n  add\n    /* \"#utility.yul\":2101:2165   */\n  tag_16\n  jump\t// in\ntag_42:\n    /* \"#utility.yul\":2091:2165   */\n  swap2\n  pop\n    /* \"#utility.yul\":2045:2175   */\n  pop\n    /* \"#utility.yul\":1205:2182   */\n  swap3\n  swap6\n  pop\n  swap3\n  swap6\n  swap1\n  swap4\n  pop\n  jump\t// out\n    /* \"contracts/DynamicFee.sol\":86:1697  contract DynamicFee {... */\ntag_6:\n  dataSize(sub_0)\n  dup1\n  dataOffset(sub_0)\n  0x00\n  codecopy\n  0x00\n  return\nstop\n\nsub_0: assembly {\n        /* \"contracts/DynamicFee.sol\":86:1697  contract DynamicFee {... */\n      mstore(0x40, 0x80)\n      callvalue\n      dup1\n      iszero\n      tag_1\n      jumpi\n      0x00\n      dup1\n      revert\n    tag_1:\n      pop\n      jumpi(tag_2, lt(calldatasize, 0x04))\n      shr(0xe0, calldataload(0x00))\n      dup1\n      0x2630c12f\n      gt\n      tag_10\n      jumpi\n      dup1\n      0x2630c12f\n      eq\n      tag_6\n      jumpi\n      dup1\n      0x6ef25c3a\n      eq\n      tag_7\n      jumpi\n      dup1\n      0x7e507742\n      eq\n      tag_8\n      jumpi\n      dup1\n      0xc097b36f\n      eq\n      tag_9\n      jumpi\n      jump(tag_2)\n    tag_10:\n      dup1\n      0x01f59d16\n      eq\n      tag_3\n      jumpi\n      dup1\n      0x1bd8db03\n      eq\n      tag_4\n      jumpi\n      dup1\n      0x24ec7590\n      eq\n      tag_5\n      jumpi\n    tag_2:\n      0x00\n      dup1\n      revert\n        /* \"contracts/DynamicFee.sol\":273:294  uint256 public maxFee */\n    tag_3:\n      tag_11\n      tag_12\n      jump\t// in\n    tag_11:\n      mload(0x40)\n      tag_13\n      swap2\n      swap1\n      tag_14\n      jump\t// in\n    tag_13:\n      mload(0x40)\n      dup1\n      swap2\n      sub\n      swap1\n      return\n        /* \"contracts/DynamicFee.sol\":1604:1694  function getTradingFee() external view returns (uint256) {... */\n    tag_4:\n      tag_15\n      tag_16\n      jump\t// in\n    tag_15:\n      mload(0x40)\n      tag_17\n      swap2\n      swap1\n      tag_14\n      jump\t// in\n    tag_17:\n      mload(0x40)\n      dup1\n      swap2\n      sub\n      swap1\n      return\n        /* \"contracts/DynamicFee.sol\":222:243  uint256 public minFee */\n    tag_5:\n      tag_18\n      tag_19\n      jump\t// in\n    tag_18:\n      mload(0x40)\n      tag_20\n      swap2\n      swap1\n      tag_14\n      jump\t// in\n    tag_20:\n      mload(0x40)\n      dup1\n      swap2\n      sub\n      swap1\n      return\n        /* \"contracts/DynamicFee.sol\":113:138  Oracle public priceOracle */\n    tag_6:\n      tag_21\n      tag_22\n      jump\t// in\n    tag_21:\n      mload(0x40)\n      tag_23\n      swap2\n      swap1\n      tag_24\n      jump\t// in\n    tag_23:\n      mload(0x40)\n      dup1\n      swap2\n      sub\n      swap1\n      return\n        /* \"contracts/DynamicFee.sol\":145:167  uint256 public baseFee */\n    tag_7:\n      tag_25\n      tag_26\n      jump\t// in\n    tag_25:\n      mload(0x40)\n      tag_27\n      swap2\n      swap1\n      tag_14\n      jump\t// in\n    tag_27:\n      mload(0x40)\n      dup1\n      swap2\n      sub\n      swap1\n      return\n        /* \"contracts/DynamicFee.sol\":324:355  uint256 public volatilityFactor */\n    tag_8:\n      tag_28\n      tag_29\n      jump\t// in\n    tag_28:\n      mload(0x40)\n      tag_30\n      swap2\n      swap1\n      tag_14\n      jump\t// in\n    tag_30:\n      mload(0x40)\n      dup1\n      swap2\n      sub\n      swap1\n      return\n        /* \"contracts/DynamicFee.sol\":762:1156  function adjustFee(string memory tokenPair) external {... */\n    tag_9:\n      tag_31\n      0x04\n      dup1\n      calldatasize\n      sub\n      dup2\n      add\n      swap1\n      tag_32\n      swap2\n      swap1\n      tag_33\n      jump\t// in\n    tag_32:\n      tag_34\n      jump\t// in\n    tag_31:\n      stop\n        /* \"contracts/DynamicFee.sol\":273:294  uint256 public maxFee */\n    tag_12:\n      sload(0x03)\n      dup2\n      jump\t// out\n        /* \"contracts/DynamicFee.sol\":1604:1694  function getTradingFee() external view returns (uint256) {... */\n    tag_16:\n        /* \"contracts/DynamicFee.sol\":1652:1659  uint256 */\n      0x00\n        /* \"contracts/DynamicFee.sol\":1679:1686  baseFee */\n      sload(0x01)\n        /* \"contracts/DynamicFee.sol\":1672:1686  return baseFee */\n      swap1\n      pop\n        /* \"contracts/DynamicFee.sol\":1604:1694  function getTradingFee() external view returns (uint256) {... */\n      swap1\n      jump\t// out\n        /* \"contracts/DynamicFee.sol\":222:243  uint256 public minFee */\n    tag_19:\n      sload(0x02)\n      dup2\n      jump\t// out\n        /* \"contracts/DynamicFee.sol\":113:138  Oracle public priceOracle */\n    tag_22:\n      0x00\n      dup1\n      sload\n      swap1\n      0x0100\n      exp\n      swap1\n      div\n      0xffffffffffffffffffffffffffffffffffffffff\n      and\n      dup2\n      jump\t// out\n        /* \"contracts/DynamicFee.sol\":145:167  uint256 public baseFee */\n    tag_26:\n      sload(0x01)\n      dup2\n      jump\t// out\n        /* \"contracts/DynamicFee.sol\":324:355  uint256 public volatilityFactor */\n    tag_29:\n      sload(0x04)\n      dup2\n      jump\t// out\n        /* \"contracts/DynamicFee.sol\":762:1156  function adjustFee(string memory tokenPair) external {... */\n    tag_34:\n        /* \"contracts/DynamicFee.sol\":826:844  uint256 volatility */\n      0x00\n        /* \"contracts/DynamicFee.sol\":847:871  getVolatility(tokenPair) */\n      tag_37\n        /* \"contracts/DynamicFee.sol\":861:870  tokenPair */\n      dup3\n        /* \"contracts/DynamicFee.sol\":847:860  getVolatility */\n      tag_38\n        /* \"contracts/DynamicFee.sol\":847:871  getVolatility(tokenPair) */\n      jump\t// in\n    tag_37:\n        /* \"contracts/DynamicFee.sol\":826:871  uint256 volatility = getVolatility(tokenPair) */\n      swap1\n      pop\n        /* \"contracts/DynamicFee.sol\":882:896  uint256 newFee */\n      0x00\n        /* \"contracts/DynamicFee.sol\":923:939  volatilityFactor */\n      sload(0x04)\n        /* \"contracts/DynamicFee.sol\":910:920  volatility */\n      dup3\n        /* \"contracts/DynamicFee.sol\":910:939  volatility * volatilityFactor */\n      tag_39\n      swap2\n      swap1\n      tag_40\n      jump\t// in\n    tag_39:\n        /* \"contracts/DynamicFee.sol\":899:906  baseFee */\n      sload(0x01)\n        /* \"contracts/DynamicFee.sol\":899:940  baseFee + (volatility * volatilityFactor) */\n      tag_41\n      swap2\n      swap1\n      tag_42\n      jump\t// in\n    tag_41:\n        /* \"contracts/DynamicFee.sol\":882:940  uint256 newFee = baseFee + (volatility * volatilityFactor) */\n      swap1\n      pop\n        /* \"contracts/DynamicFee.sol\":966:972  maxFee */\n      sload(0x03)\n        /* \"contracts/DynamicFee.sol\":957:963  newFee */\n      dup2\n        /* \"contracts/DynamicFee.sol\":957:972  newFee > maxFee */\n      gt\n        /* \"contracts/DynamicFee.sol\":953:1085  if (newFee > maxFee) {... */\n      iszero\n      tag_43\n      jumpi\n        /* \"contracts/DynamicFee.sol\":998:1004  maxFee */\n      sload(0x03)\n        /* \"contracts/DynamicFee.sol\":989:1004  newFee = maxFee */\n      swap1\n      pop\n        /* \"contracts/DynamicFee.sol\":953:1085  if (newFee > maxFee) {... */\n      jump(tag_44)\n    tag_43:\n        /* \"contracts/DynamicFee.sol\":1035:1041  minFee */\n      sload(0x02)\n        /* \"contracts/DynamicFee.sol\":1026:1032  newFee */\n      dup2\n        /* \"contracts/DynamicFee.sol\":1026:1041  newFee < minFee */\n      lt\n        /* \"contracts/DynamicFee.sol\":1022:1085  if (newFee < minFee) {... */\n      iszero\n      tag_45\n      jumpi\n        /* \"contracts/DynamicFee.sol\":1067:1073  minFee */\n      sload(0x02)\n        /* \"contracts/DynamicFee.sol\":1058:1073  newFee = minFee */\n      swap1\n      pop\n        /* \"contracts/DynamicFee.sol\":1022:1085  if (newFee < minFee) {... */\n    tag_45:\n        /* \"contracts/DynamicFee.sol\":953:1085  if (newFee > maxFee) {... */\n    tag_44:\n        /* \"contracts/DynamicFee.sol\":1107:1113  newFee */\n      dup1\n        /* \"contracts/DynamicFee.sol\":1097:1104  baseFee */\n      0x01\n        /* \"contracts/DynamicFee.sol\":1097:1113  baseFee = newFee */\n      dup2\n      swap1\n      sstore\n      pop\n        /* \"contracts/DynamicFee.sol\":1129:1148  FeeAdjusted(newFee) */\n      0x8f0bb2e9dd4d9e8f7b5a5a5e6ec3ecfb088b85352c3405f9bf7fef9fcf4b50c1\n        /* \"contracts/DynamicFee.sol\":1141:1147  newFee */\n      dup2\n        /* \"contracts/DynamicFee.sol\":1129:1148  FeeAdjusted(newFee) */\n      mload(0x40)\n      tag_46\n      swap2\n      swap1\n      tag_14\n      jump\t// in\n    tag_46:\n      mload(0x40)\n      dup1\n      swap2\n      sub\n      swap1\n      log1\n        /* \"contracts/DynamicFee.sol\":815:1156  {... */\n      pop\n      pop\n        /* \"contracts/DynamicFee.sol\":762:1156  function adjustFee(string memory tokenPair) external {... */\n      pop\n      jump\t// out\n        /* \"contracts/DynamicFee.sol\":1164:1596  function getVolatility(string memory tokenPair) internal view returns (uint256) {... */\n    tag_38:\n        /* \"contracts/DynamicFee.sol\":1235:1242  uint256 */\n      0x00\n        /* \"contracts/DynamicFee.sol\":1426:1439  uint256 price */\n      dup1\n        /* \"contracts/DynamicFee.sol\":1442:1453  priceOracle */\n      0x00\n      dup1\n      sload\n      swap1\n      0x0100\n      exp\n      swap1\n      div\n      0xffffffffffffffffffffffffffffffffffffffff\n      and\n        /* \"contracts/DynamicFee.sol\":1442:1462  priceOracle.getPrice */\n      0xffffffffffffffffffffffffffffffffffffffff\n      and\n      0x524f3889\n        /* \"contracts/DynamicFee.sol\":1463:1472  tokenPair */\n      dup5\n        /* \"contracts/DynamicFee.sol\":1442:1473  priceOracle.getPrice(tokenPair) */\n      mload(0x40)\n      dup3\n      0xffffffff\n      and\n      0xe0\n      shl\n      dup2\n      mstore\n      0x04\n      add\n      tag_48\n      swap2\n      swap1\n      tag_49\n      jump\t// in\n    tag_48:\n      0x20\n      mload(0x40)\n      dup1\n      dup4\n      sub\n      dup2\n      dup7\n      gas\n      staticcall\n      iszero\n      dup1\n      iszero\n      tag_51\n      jumpi\n      returndatasize\n      0x00\n      dup1\n      returndatacopy\n      revert(0x00, returndatasize)\n    tag_51:\n      pop\n      pop\n      pop\n      pop\n      mload(0x40)\n      returndatasize\n      not(0x1f)\n      0x1f\n      dup3\n      add\n      and\n      dup3\n      add\n      dup1\n      0x40\n      mstore\n      pop\n      dup2\n      add\n      swap1\n      tag_52\n      swap2\n      swap1\n      tag_53\n      jump\t// in\n    tag_52:\n        /* \"contracts/DynamicFee.sol\":1426:1473  uint256 price = priceOracle.getPrice(tokenPair) */\n      swap1\n      pop\n        /* \"contracts/DynamicFee.sol\":1484:1502  uint256 volatility */\n      0x00\n        /* \"contracts/DynamicFee.sol\":1520:1523  100 */\n      0x64\n        /* \"contracts/DynamicFee.sol\":1514:1516  10 */\n      0x0a\n        /* \"contracts/DynamicFee.sol\":1506:1511  price */\n      dup4\n        /* \"contracts/DynamicFee.sol\":1506:1516  price * 10 */\n      tag_54\n      swap2\n      swap1\n      tag_40\n      jump\t// in\n    tag_54:\n        /* \"contracts/DynamicFee.sol\":1505:1523  (price * 10) / 100 */\n      tag_55\n      swap2\n      swap1\n      tag_56\n      jump\t// in\n    tag_55:\n        /* \"contracts/DynamicFee.sol\":1484:1523  uint256 volatility = (price * 10) / 100 */\n      swap1\n      pop\n        /* \"contracts/DynamicFee.sol\":1578:1588  volatility */\n      dup1\n        /* \"contracts/DynamicFee.sol\":1571:1588  return volatility */\n      swap3\n      pop\n      pop\n      pop\n        /* \"contracts/DynamicFee.sol\":1164:1596  function getVolatility(string memory tokenPair) internal view returns (uint256) {... */\n      swap2\n      swap1\n      pop\n      jump\t// out\n        /* \"#utility.yul\":7:84   */\n    tag_57:\n        /* \"#utility.yul\":44:51   */\n      0x00\n        /* \"#utility.yul\":73:78   */\n      dup2\n        /* \"#utility.yul\":62:78   */\n      swap1\n      pop\n        /* \"#utility.yul\":7:84   */\n      swap2\n      swap1\n      pop\n      jump\t// out\n        /* \"#utility.yul\":90:208   */\n    tag_58:\n        /* \"#utility.yul\":177:201   */\n      tag_89\n        /* \"#utility.yul\":195:200   */\n      dup2\n        /* \"#utility.yul\":177:201   */\n      tag_57\n      jump\t// in\n    tag_89:\n        /* \"#utility.yul\":172:175   */\n      dup3\n        /* \"#utility.yul\":165:202   */\n      mstore\n        /* \"#utility.yul\":90:208   */\n      pop\n      pop\n      jump\t// out\n        /* \"#utility.yul\":214:436   */\n    tag_14:\n        /* \"#utility.yul\":307:311   */\n      0x00\n        /* \"#utility.yul\":345:347   */\n      0x20\n        /* \"#utility.yul\":334:343   */\n      dup3\n        /* \"#utility.yul\":330:348   */\n      add\n        /* \"#utility.yul\":322:348   */\n      swap1\n      pop\n        /* \"#utility.yul\":358:429   */\n      tag_91\n        /* \"#utility.yul\":426:427   */\n      0x00\n        /* \"#utility.yul\":415:424   */\n      dup4\n        /* \"#utility.yul\":411:428   */\n      add\n        /* \"#utility.yul\":402:408   */\n      dup5\n        /* \"#utility.yul\":358:429   */\n      tag_58\n      jump\t// in\n    tag_91:\n        /* \"#utility.yul\":214:436   */\n      swap3\n      swap2\n      pop\n      pop\n      jump\t// out\n        /* \"#utility.yul\":442:568   */\n    tag_59:\n        /* \"#utility.yul\":479:486   */\n      0x00\n        /* \"#utility.yul\":519:561   */\n      0xffffffffffffffffffffffffffffffffffffffff\n        /* \"#utility.yul\":512:517   */\n      dup3\n        /* \"#utility.yul\":508:562   */\n      and\n        /* \"#utility.yul\":497:562   */\n      swap1\n      pop\n        /* \"#utility.yul\":442:568   */\n      swap2\n      swap1\n      pop\n      jump\t// out\n        /* \"#utility.yul\":574:634   */\n    tag_60:\n        /* \"#utility.yul\":602:605   */\n      0x00\n        /* \"#utility.yul\":623:628   */\n      dup2\n        /* \"#utility.yul\":616:628   */\n      swap1\n      pop\n        /* \"#utility.yul\":574:634   */\n      swap2\n      swap1\n      pop\n      jump\t// out\n        /* \"#utility.yul\":640:782   */\n    tag_61:\n        /* \"#utility.yul\":690:699   */\n      0x00\n        /* \"#utility.yul\":723:776   */\n      tag_95\n        /* \"#utility.yul\":741:775   */\n      tag_96\n        /* \"#utility.yul\":750:774   */\n      tag_97\n        /* \"#utility.yul\":768:773   */\n      dup5\n        /* \"#utility.yul\":750:774   */\n      tag_59\n      jump\t// in\n    tag_97:\n        /* \"#utility.yul\":741:775   */\n      tag_60\n      jump\t// in\n    tag_96:\n        /* \"#utility.yul\":723:776   */\n      tag_59\n      jump\t// in\n    tag_95:\n        /* \"#utility.yul\":710:776   */\n      swap1\n      pop\n        /* \"#utility.yul\":640:782   */\n      swap2\n      swap1\n      pop\n      jump\t// out\n        /* \"#utility.yul\":788:914   */\n    tag_62:\n        /* \"#utility.yul\":838:847   */\n      0x00\n        /* \"#utility.yul\":871:908   */\n      tag_99\n        /* \"#utility.yul\":902:907   */\n      dup3\n        /* \"#utility.yul\":871:908   */\n      tag_61\n      jump\t// in\n    tag_99:\n        /* \"#utility.yul\":858:908   */\n      swap1\n      pop\n        /* \"#utility.yul\":788:914   */\n      swap2\n      swap1\n      pop\n      jump\t// out\n        /* \"#utility.yul\":920:1060   */\n    tag_63:\n        /* \"#utility.yul\":984:993   */\n      0x00\n        /* \"#utility.yul\":1017:1054   */\n      tag_101\n        /* \"#utility.yul\":1048:1053   */\n      dup3\n        /* \"#utility.yul\":1017:1054   */\n      tag_62\n      jump\t// in\n    tag_101:\n        /* \"#utility.yul\":1004:1054   */\n      swap1\n      pop\n        /* \"#utility.yul\":920:1060   */\n      swap2\n      swap1\n      pop\n      jump\t// out\n        /* \"#utility.yul\":1066:1225   */\n    tag_64:\n        /* \"#utility.yul\":1167:1218   */\n      tag_103\n        /* \"#utility.yul\":1212:1217   */\n      dup2\n        /* \"#utility.yul\":1167:1218   */\n      tag_63\n      jump\t// in\n    tag_103:\n        /* \"#utility.yul\":1162:1165   */\n      dup3\n        /* \"#utility.yul\":1155:1219   */\n      mstore\n        /* \"#utility.yul\":1066:1225   */\n      pop\n      pop\n      jump\t// out\n        /* \"#utility.yul\":1231:1481   */\n    tag_24:\n        /* \"#utility.yul\":1338:1342   */\n      0x00\n        /* \"#utility.yul\":1376:1378   */\n      0x20\n        /* \"#utility.yul\":1365:1374   */\n      dup3\n        /* \"#utility.yul\":1361:1379   */\n      add\n        /* \"#utility.yul\":1353:1379   */\n      swap1\n      pop\n        /* \"#utility.yul\":1389:1474   */\n      tag_105\n        /* \"#utility.yul\":1471:1472   */\n      0x00\n        /* \"#utility.yul\":1460:1469   */\n      dup4\n        /* \"#utility.yul\":1456:1473   */\n      add\n        /* \"#utility.yul\":1447:1453   */\n      dup5\n        /* \"#utility.yul\":1389:1474   */\n      tag_64\n      jump\t// in\n    tag_105:\n        /* \"#utility.yul\":1231:1481   */\n      swap3\n      swap2\n      pop\n      pop\n      jump\t// out\n        /* \"#utility.yul\":1487:1562   */\n    tag_65:\n        /* \"#utility.yul\":1520:1526   */\n      0x00\n        /* \"#utility.yul\":1553:1555   */\n      0x40\n        /* \"#utility.yul\":1547:1556   */\n      mload\n        /* \"#utility.yul\":1537:1556   */\n      swap1\n      pop\n        /* \"#utility.yul\":1487:1562   */\n      swap1\n      jump\t// out\n        /* \"#utility.yul\":1568:1685   */\n    tag_66:\n        /* \"#utility.yul\":1677:1678   */\n      0x00\n        /* \"#utility.yul\":1674:1675   */\n      dup1\n        /* \"#utility.yul\":1667:1679   */\n      revert\n        /* \"#utility.yul\":1691:1808   */\n    tag_67:\n        /* \"#utility.yul\":1800:1801   */\n      0x00\n        /* \"#utility.yul\":1797:1798   */\n      dup1\n        /* \"#utility.yul\":1790:1802   */\n      revert\n        /* \"#utility.yul\":1814:1931   */\n    tag_68:\n        /* \"#utility.yul\":1923:1924   */\n      0x00\n        /* \"#utility.yul\":1920:1921   */\n      dup1\n        /* \"#utility.yul\":1913:1925   */\n      revert\n        /* \"#utility.yul\":1937:2054   */\n    tag_69:\n        /* \"#utility.yul\":2046:2047   */\n      0x00\n        /* \"#utility.yul\":2043:2044   */\n      dup1\n        /* \"#utility.yul\":2036:2048   */\n      revert\n        /* \"#utility.yul\":2060:2162   */\n    tag_70:\n        /* \"#utility.yul\":2101:2107   */\n      0x00\n        /* \"#utility.yul\":2152:2154   */\n      0x1f\n        /* \"#utility.yul\":2148:2155   */\n      not\n        /* \"#utility.yul\":2143:2145   */\n      0x1f\n        /* \"#utility.yul\":2136:2141   */\n      dup4\n        /* \"#utility.yul\":2132:2146   */\n      add\n        /* \"#utility.yul\":2128:2156   */\n      and\n        /* \"#utility.yul\":2118:2156   */\n      swap1\n      pop\n        /* \"#utility.yul\":2060:2162   */\n      swap2\n      swap1\n      pop\n      jump\t// out\n        /* \"#utility.yul\":2168:2348   */\n    tag_71:\n        /* \"#utility.yul\":2216:2293   */\n      0x4e487b7100000000000000000000000000000000000000000000000000000000\n        /* \"#utility.yul\":2213:2214   */\n      0x00\n        /* \"#utility.yul\":2206:2294   */\n      mstore\n        /* \"#utility.yul\":2313:2317   */\n      0x41\n        /* \"#utility.yul\":2310:2311   */\n      0x04\n        /* \"#utility.yul\":2303:2318   */\n      mstore\n        /* \"#utility.yul\":2337:2341   */\n      0x24\n        /* \"#utility.yul\":2334:2335   */\n      0x00\n        /* \"#utility.yul\":2327:2342   */\n      revert\n        /* \"#utility.yul\":2354:2635   */\n    tag_72:\n        /* \"#utility.yul\":2437:2464   */\n      tag_114\n        /* \"#utility.yul\":2459:2463   */\n      dup3\n        /* \"#utility.yul\":2437:2464   */\n      tag_70\n      jump\t// in\n    tag_114:\n        /* \"#utility.yul\":2429:2435   */\n      dup2\n        /* \"#utility.yul\":2425:2465   */\n      add\n        /* \"#utility.yul\":2567:2573   */\n      dup2\n        /* \"#utility.yul\":2555:2565   */\n      dup2\n        /* \"#utility.yul\":2552:2574   */\n      lt\n        /* \"#utility.yul\":2531:2549   */\n      0xffffffffffffffff\n        /* \"#utility.yul\":2519:2529   */\n      dup3\n        /* \"#utility.yul\":2516:2550   */\n      gt\n        /* \"#utility.yul\":2513:2575   */\n      or\n        /* \"#utility.yul\":2510:2598   */\n      iszero\n      tag_115\n      jumpi\n        /* \"#utility.yul\":2578:2596   */\n      tag_116\n      tag_71\n      jump\t// in\n    tag_116:\n        /* \"#utility.yul\":2510:2598   */\n    tag_115:\n        /* \"#utility.yul\":2618:2628   */\n      dup1\n        /* \"#utility.yul\":2614:2616   */\n      0x40\n        /* \"#utility.yul\":2607:2629   */\n      mstore\n        /* \"#utility.yul\":2397:2635   */\n      pop\n        /* \"#utility.yul\":2354:2635   */\n      pop\n      pop\n      jump\t// out\n        /* \"#utility.yul\":2641:2770   */\n    tag_73:\n        /* \"#utility.yul\":2675:2681   */\n      0x00\n        /* \"#utility.yul\":2702:2722   */\n      tag_118\n      tag_65\n      jump\t// in\n    tag_118:\n        /* \"#utility.yul\":2692:2722   */\n      swap1\n      pop\n        /* \"#utility.yul\":2731:2764   */\n      tag_119\n        /* \"#utility.yul\":2759:2763   */\n      dup3\n        /* \"#utility.yul\":2751:2757   */\n      dup3\n        /* \"#utility.yul\":2731:2764   */\n      tag_72\n      jump\t// in\n    tag_119:\n        /* \"#utility.yul\":2641:2770   */\n      swap2\n      swap1\n      pop\n      jump\t// out\n        /* \"#utility.yul\":2776:3084   */\n    tag_74:\n        /* \"#utility.yul\":2838:2842   */\n      0x00\n        /* \"#utility.yul\":2928:2946   */\n      0xffffffffffffffff\n        /* \"#utility.yul\":2920:2926   */\n      dup3\n        /* \"#utility.yul\":2917:2947   */\n      gt\n        /* \"#utility.yul\":2914:2970   */\n      iszero\n      tag_121\n      jumpi\n        /* \"#utility.yul\":2950:2968   */\n      tag_122\n      tag_71\n      jump\t// in\n    tag_122:\n        /* \"#utility.yul\":2914:2970   */\n    tag_121:\n        /* \"#utility.yul\":2988:3017   */\n      tag_123\n        /* \"#utility.yul\":3010:3016   */\n      dup3\n        /* \"#utility.yul\":2988:3017   */\n      tag_70\n      jump\t// in\n    tag_123:\n        /* \"#utility.yul\":2980:3017   */\n      swap1\n      pop\n        /* \"#utility.yul\":3072:3076   */\n      0x20\n        /* \"#utility.yul\":3066:3070   */\n      dup2\n        /* \"#utility.yul\":3062:3077   */\n      add\n        /* \"#utility.yul\":3054:3077   */\n      swap1\n      pop\n        /* \"#utility.yul\":2776:3084   */\n      swap2\n      swap1\n      pop\n      jump\t// out\n        /* \"#utility.yul\":3090:3238   */\n    tag_75:\n        /* \"#utility.yul\":3188:3194   */\n      dup3\n        /* \"#utility.yul\":3183:3186   */\n      dup2\n        /* \"#utility.yul\":3178:3181   */\n      dup4\n        /* \"#utility.yul\":3165:3195   */\n      calldatacopy\n        /* \"#utility.yul\":3229:3230   */\n      0x00\n        /* \"#utility.yul\":3220:3226   */\n      dup4\n        /* \"#utility.yul\":3215:3218   */\n      dup4\n        /* \"#utility.yul\":3211:3227   */\n      add\n        /* \"#utility.yul\":3204:3231   */\n      mstore\n        /* \"#utility.yul\":3090:3238   */\n      pop\n      pop\n      pop\n      jump\t// out\n        /* \"#utility.yul\":3244:3669   */\n    tag_76:\n        /* \"#utility.yul\":3322:3327   */\n      0x00\n        /* \"#utility.yul\":3347:3413   */\n      tag_126\n        /* \"#utility.yul\":3363:3412   */\n      tag_127\n        /* \"#utility.yul\":3405:3411   */\n      dup5\n        /* \"#utility.yul\":3363:3412   */\n      tag_74\n      jump\t// in\n    tag_127:\n        /* \"#utility.yul\":3347:3413   */\n      tag_73\n      jump\t// in\n    tag_126:\n        /* \"#utility.yul\":3338:3413   */\n      swap1\n      pop\n        /* \"#utility.yul\":3436:3442   */\n      dup3\n        /* \"#utility.yul\":3429:3434   */\n      dup2\n        /* \"#utility.yul\":3422:3443   */\n      mstore\n        /* \"#utility.yul\":3474:3478   */\n      0x20\n        /* \"#utility.yul\":3467:3472   */\n      dup2\n        /* \"#utility.yul\":3463:3479   */\n      add\n        /* \"#utility.yul\":3512:3515   */\n      dup5\n        /* \"#utility.yul\":3503:3509   */\n      dup5\n        /* \"#utility.yul\":3498:3501   */\n      dup5\n        /* \"#utility.yul\":3494:3510   */\n      add\n        /* \"#utility.yul\":3491:3516   */\n      gt\n        /* \"#utility.yul\":3488:3600   */\n      iszero\n      tag_128\n      jumpi\n        /* \"#utility.yul\":3519:3598   */\n      tag_129\n      tag_69\n      jump\t// in\n    tag_129:\n        /* \"#utility.yul\":3488:3600   */\n    tag_128:\n        /* \"#utility.yul\":3609:3663   */\n      tag_130\n        /* \"#utility.yul\":3656:3662   */\n      dup5\n        /* \"#utility.yul\":3651:3654   */\n      dup3\n        /* \"#utility.yul\":3646:3649   */\n      dup6\n        /* \"#utility.yul\":3609:3663   */\n      tag_75\n      jump\t// in\n    tag_130:\n        /* \"#utility.yul\":3328:3669   */\n      pop\n        /* \"#utility.yul\":3244:3669   */\n      swap4\n      swap3\n      pop\n      pop\n      pop\n      jump\t// out\n        /* \"#utility.yul\":3689:4029   */\n    tag_77:\n        /* \"#utility.yul\":3745:3750   */\n      0x00\n        /* \"#utility.yul\":3794:3797   */\n      dup3\n        /* \"#utility.yul\":3787:3791   */\n      0x1f\n        /* \"#utility.yul\":3779:3785   */\n      dup4\n        /* \"#utility.yul\":3775:3792   */\n      add\n        /* \"#utility.yul\":3771:3798   */\n      slt\n        /* \"#utility.yul\":3761:3883   */\n      tag_132\n      jumpi\n        /* \"#utility.yul\":3802:3881   */\n      tag_133\n      tag_68\n      jump\t// in\n    tag_133:\n        /* \"#utility.yul\":3761:3883   */\n    tag_132:\n        /* \"#utility.yul\":3919:3925   */\n      dup2\n        /* \"#utility.yul\":3906:3926   */\n      calldataload\n        /* \"#utility.yul\":3944:4023   */\n      tag_134\n        /* \"#utility.yul\":4019:4022   */\n      dup5\n        /* \"#utility.yul\":4011:4017   */\n      dup3\n        /* \"#utility.yul\":4004:4008   */\n      0x20\n        /* \"#utility.yul\":3996:4002   */\n      dup7\n        /* \"#utility.yul\":3992:4009   */\n      add\n        /* \"#utility.yul\":3944:4023   */\n      tag_76\n      jump\t// in\n    tag_134:\n        /* \"#utility.yul\":3935:4023   */\n      swap2\n      pop\n        /* \"#utility.yul\":3751:4029   */\n      pop\n        /* \"#utility.yul\":3689:4029   */\n      swap3\n      swap2\n      pop\n      pop\n      jump\t// out\n        /* \"#utility.yul\":4035:4544   */\n    tag_33:\n        /* \"#utility.yul\":4104:4110   */\n      0x00\n        /* \"#utility.yul\":4153:4155   */\n      0x20\n        /* \"#utility.yul\":4141:4150   */\n      dup3\n        /* \"#utility.yul\":4132:4139   */\n      dup5\n        /* \"#utility.yul\":4128:4151   */\n      sub\n        /* \"#utility.yul\":4124:4156   */\n      slt\n        /* \"#utility.yul\":4121:4240   */\n      iszero\n      tag_136\n      jumpi\n        /* \"#utility.yul\":4159:4238   */\n      tag_137\n      tag_66\n      jump\t// in\n    tag_137:\n        /* \"#utility.yul\":4121:4240   */\n    tag_136:\n        /* \"#utility.yul\":4307:4308   */\n      0x00\n        /* \"#utility.yul\":4296:4305   */\n      dup3\n        /* \"#utility.yul\":4292:4309   */\n      add\n        /* \"#utility.yul\":4279:4310   */\n      calldataload\n        /* \"#utility.yul\":4337:4355   */\n      0xffffffffffffffff\n        /* \"#utility.yul\":4329:4335   */\n      dup2\n        /* \"#utility.yul\":4326:4356   */\n      gt\n        /* \"#utility.yul\":4323:4440   */\n      iszero\n      tag_138\n      jumpi\n        /* \"#utility.yul\":4359:4438   */\n      tag_139\n      tag_67\n      jump\t// in\n    tag_139:\n        /* \"#utility.yul\":4323:4440   */\n    tag_138:\n        /* \"#utility.yul\":4464:4527   */\n      tag_140\n        /* \"#utility.yul\":4519:4526   */\n      dup5\n        /* \"#utility.yul\":4510:4516   */\n      dup3\n        /* \"#utility.yul\":4499:4508   */\n      dup6\n        /* \"#utility.yul\":4495:4517   */\n      add\n        /* \"#utility.yul\":4464:4527   */\n      tag_77\n      jump\t// in\n    tag_140:\n        /* \"#utility.yul\":4454:4527   */\n      swap2\n      pop\n        /* \"#utility.yul\":4250:4537   */\n      pop\n        /* \"#utility.yul\":4035:4544   */\n      swap3\n      swap2\n      pop\n      pop\n      jump\t// out\n        /* \"#utility.yul\":4550:4730   */\n    tag_78:\n        /* \"#utility.yul\":4598:4675   */\n      0x4e487b7100000000000000000000000000000000000000000000000000000000\n        /* \"#utility.yul\":4595:4596   */\n      0x00\n        /* \"#utility.yul\":4588:4676   */\n      mstore\n        /* \"#utility.yul\":4695:4699   */\n      0x11\n        /* \"#utility.yul\":4692:4693   */\n      0x04\n        /* \"#utility.yul\":4685:4700   */\n      mstore\n        /* \"#utility.yul\":4719:4723   */\n      0x24\n        /* \"#utility.yul\":4716:4717   */\n      0x00\n        /* \"#utility.yul\":4709:4724   */\n      revert\n        /* \"#utility.yul\":4736:5146   */\n    tag_40:\n        /* \"#utility.yul\":4776:4783   */\n      0x00\n        /* \"#utility.yul\":4799:4819   */\n      tag_143\n        /* \"#utility.yul\":4817:4818   */\n      dup3\n        /* \"#utility.yul\":4799:4819   */\n      tag_57\n      jump\t// in\n    tag_143:\n        /* \"#utility.yul\":4794:4819   */\n      swap2\n      pop\n        /* \"#utility.yul\":4833:4853   */\n      tag_144\n        /* \"#utility.yul\":4851:4852   */\n      dup4\n        /* \"#utility.yul\":4833:4853   */\n      tag_57\n      jump\t// in\n    tag_144:\n        /* \"#utility.yul\":4828:4853   */\n      swap3\n      pop\n        /* \"#utility.yul\":4888:4889   */\n      dup3\n        /* \"#utility.yul\":4885:4886   */\n      dup3\n        /* \"#utility.yul\":4881:4890   */\n      mul\n        /* \"#utility.yul\":4910:4940   */\n      tag_145\n        /* \"#utility.yul\":4928:4939   */\n      dup2\n        /* \"#utility.yul\":4910:4940   */\n      tag_57\n      jump\t// in\n    tag_145:\n        /* \"#utility.yul\":4899:4940   */\n      swap2\n      pop\n        /* \"#utility.yul\":5089:5090   */\n      dup3\n        /* \"#utility.yul\":5080:5087   */\n      dup3\n        /* \"#utility.yul\":5076:5091   */\n      div\n        /* \"#utility.yul\":5073:5074   */\n      dup5\n        /* \"#utility.yul\":5070:5092   */\n      eq\n        /* \"#utility.yul\":5050:5051   */\n      dup4\n        /* \"#utility.yul\":5043:5052   */\n      iszero\n        /* \"#utility.yul\":5023:5106   */\n      or\n        /* \"#utility.yul\":5000:5139   */\n      tag_146\n      jumpi\n        /* \"#utility.yul\":5119:5137   */\n      tag_147\n      tag_78\n      jump\t// in\n    tag_147:\n        /* \"#utility.yul\":5000:5139   */\n    tag_146:\n        /* \"#utility.yul\":4784:5146   */\n      pop\n        /* \"#utility.yul\":4736:5146   */\n      swap3\n      swap2\n      pop\n      pop\n      jump\t// out\n        /* \"#utility.yul\":5152:5343   */\n    tag_42:\n        /* \"#utility.yul\":5192:5195   */\n      0x00\n        /* \"#utility.yul\":5211:5231   */\n      tag_149\n        /* \"#utility.yul\":5229:5230   */\n      dup3\n        /* \"#utility.yul\":5211:5231   */\n      tag_57\n      jump\t// in\n    tag_149:\n        /* \"#utility.yul\":5206:5231   */\n      swap2\n      pop\n        /* \"#utility.yul\":5245:5265   */\n      tag_150\n        /* \"#utility.yul\":5263:5264   */\n      dup4\n        /* \"#utility.yul\":5245:5265   */\n      tag_57\n      jump\t// in\n    tag_150:\n        /* \"#utility.yul\":5240:5265   */\n      swap3\n      pop\n        /* \"#utility.yul\":5288:5289   */\n      dup3\n        /* \"#utility.yul\":5285:5286   */\n      dup3\n        /* \"#utility.yul\":5281:5290   */\n      add\n        /* \"#utility.yul\":5274:5290   */\n      swap1\n      pop\n        /* \"#utility.yul\":5309:5312   */\n      dup1\n        /* \"#utility.yul\":5306:5307   */\n      dup3\n        /* \"#utility.yul\":5303:5313   */\n      gt\n        /* \"#utility.yul\":5300:5336   */\n      iszero\n      tag_151\n      jumpi\n        /* \"#utility.yul\":5316:5334   */\n      tag_152\n      tag_78\n      jump\t// in\n    tag_152:\n        /* \"#utility.yul\":5300:5336   */\n    tag_151:\n        /* \"#utility.yul\":5152:5343   */\n      swap3\n      swap2\n      pop\n      pop\n      jump\t// out\n        /* \"#utility.yul\":5349:5448   */\n    tag_79:\n        /* \"#utility.yul\":5401:5407   */\n      0x00\n        /* \"#utility.yul\":5435:5440   */\n      dup2\n        /* \"#utility.yul\":5429:5441   */\n      mload\n        /* \"#utility.yul\":5419:5441   */\n      swap1\n      pop\n        /* \"#utility.yul\":5349:5448   */\n      swap2\n      swap1\n      pop\n      jump\t// out\n        /* \"#utility.yul\":5454:5623   */\n    tag_80:\n        /* \"#utility.yul\":5538:5549   */\n      0x00\n        /* \"#utility.yul\":5572:5578   */\n      dup3\n        /* \"#utility.yul\":5567:5570   */\n      dup3\n        /* \"#utility.yul\":5560:5579   */\n      mstore\n        /* \"#utility.yul\":5612:5616   */\n      0x20\n        /* \"#utility.yul\":5607:5610   */\n      dup3\n        /* \"#utility.yul\":5603:5617   */\n      add\n        /* \"#utility.yul\":5588:5617   */\n      swap1\n      pop\n        /* \"#utility.yul\":5454:5623   */\n      swap3\n      swap2\n      pop\n      pop\n      jump\t// out\n        /* \"#utility.yul\":5629:5768   */\n    tag_81:\n        /* \"#utility.yul\":5718:5724   */\n      dup3\n        /* \"#utility.yul\":5713:5716   */\n      dup2\n        /* \"#utility.yul\":5708:5711   */\n      dup4\n        /* \"#utility.yul\":5702:5725   */\n      mcopy\n        /* \"#utility.yul\":5759:5760   */\n      0x00\n        /* \"#utility.yul\":5750:5756   */\n      dup4\n        /* \"#utility.yul\":5745:5748   */\n      dup4\n        /* \"#utility.yul\":5741:5757   */\n      add\n        /* \"#utility.yul\":5734:5761   */\n      mstore\n        /* \"#utility.yul\":5629:5768   */\n      pop\n      pop\n      pop\n      jump\t// out\n        /* \"#utility.yul\":5774:6151   */\n    tag_82:\n        /* \"#utility.yul\":5862:5865   */\n      0x00\n        /* \"#utility.yul\":5890:5929   */\n      tag_157\n        /* \"#utility.yul\":5923:5928   */\n      dup3\n        /* \"#utility.yul\":5890:5929   */\n      tag_79\n      jump\t// in\n    tag_157:\n        /* \"#utility.yul\":5945:6016   */\n      tag_158\n        /* \"#utility.yul\":6009:6015   */\n      dup2\n        /* \"#utility.yul\":6004:6007   */\n      dup6\n        /* \"#utility.yul\":5945:6016   */\n      tag_80\n      jump\t// in\n    tag_158:\n        /* \"#utility.yul\":5938:6016   */\n      swap4\n      pop\n        /* \"#utility.yul\":6025:6090   */\n      tag_159\n        /* \"#utility.yul\":6083:6089   */\n      dup2\n        /* \"#utility.yul\":6078:6081   */\n      dup6\n        /* \"#utility.yul\":6071:6075   */\n      0x20\n        /* \"#utility.yul\":6064:6069   */\n      dup7\n        /* \"#utility.yul\":6060:6076   */\n      add\n        /* \"#utility.yul\":6025:6090   */\n      tag_81\n      jump\t// in\n    tag_159:\n        /* \"#utility.yul\":6115:6144   */\n      tag_160\n        /* \"#utility.yul\":6137:6143   */\n      dup2\n        /* \"#utility.yul\":6115:6144   */\n      tag_70\n      jump\t// in\n    tag_160:\n        /* \"#utility.yul\":6110:6113   */\n      dup5\n        /* \"#utility.yul\":6106:6145   */\n      add\n        /* \"#utility.yul\":6099:6145   */\n      swap2\n      pop\n        /* \"#utility.yul\":5866:6151   */\n      pop\n        /* \"#utility.yul\":5774:6151   */\n      swap3\n      swap2\n      pop\n      pop\n      jump\t// out\n        /* \"#utility.yul\":6157:6470   */\n    tag_49:\n        /* \"#utility.yul\":6270:6274   */\n      0x00\n        /* \"#utility.yul\":6308:6310   */\n      0x20\n        /* \"#utility.yul\":6297:6306   */\n      dup3\n        /* \"#utility.yul\":6293:6311   */\n      add\n        /* \"#utility.yul\":6285:6311   */\n      swap1\n      pop\n        /* \"#utility.yul\":6357:6366   */\n      dup2\n        /* \"#utility.yul\":6351:6355   */\n      dup2\n        /* \"#utility.yul\":6347:6367   */\n      sub\n        /* \"#utility.yul\":6343:6344   */\n      0x00\n        /* \"#utility.yul\":6332:6341   */\n      dup4\n        /* \"#utility.yul\":6328:6345   */\n      add\n        /* \"#utility.yul\":6321:6368   */\n      mstore\n        /* \"#utility.yul\":6385:6463   */\n      tag_162\n        /* \"#utility.yul\":6458:6462   */\n      dup2\n        /* \"#utility.yul\":6449:6455   */\n      dup5\n        /* \"#utility.yul\":6385:6463   */\n      tag_82\n      jump\t// in\n    tag_162:\n        /* \"#utility.yul\":6377:6463   */\n      swap1\n      pop\n        /* \"#utility.yul\":6157:6470   */\n      swap3\n      swap2\n      pop\n      pop\n      jump\t// out\n        /* \"#utility.yul\":6476:6598   */\n    tag_83:\n        /* \"#utility.yul\":6549:6573   */\n      tag_164\n        /* \"#utility.yul\":6567:6572   */\n      dup2\n        /* \"#utility.yul\":6549:6573   */\n      tag_57\n      jump\t// in\n    tag_164:\n        /* \"#utility.yul\":6542:6547   */\n      dup2\n        /* \"#utility.yul\":6539:6574   */\n      eq\n        /* \"#utility.yul\":6529:6592   */\n      tag_165\n      jumpi\n        /* \"#utility.yul\":6588:6589   */\n      0x00\n        /* \"#utility.yul\":6585:6586   */\n      dup1\n        /* \"#utility.yul\":6578:6590   */\n      revert\n        /* \"#utility.yul\":6529:6592   */\n    tag_165:\n        /* \"#utility.yul\":6476:6598   */\n      pop\n      jump\t// out\n        /* \"#utility.yul\":6604:6747   */\n    tag_84:\n        /* \"#utility.yul\":6661:6666   */\n      0x00\n        /* \"#utility.yul\":6692:6698   */\n      dup2\n        /* \"#utility.yul\":6686:6699   */\n      mload\n        /* \"#utility.yul\":6677:6699   */\n      swap1\n      pop\n        /* \"#utility.yul\":6708:6741   */\n      tag_167\n        /* \"#utility.yul\":6735:6740   */\n      dup2\n        /* \"#utility.yul\":6708:6741   */\n      tag_83\n      jump\t// in\n    tag_167:\n        /* \"#utility.yul\":6604:6747   */\n      swap3\n      swap2\n      pop\n      pop\n      jump\t// out\n        /* \"#utility.yul\":6753:7104   */\n    tag_53:\n        /* \"#utility.yul\":6823:6829   */\n      0x00\n        /* \"#utility.yul\":6872:6874   */\n      0x20\n        /* \"#utility.yul\":6860:6869   */\n      dup3\n        /* \"#utility.yul\":6851:6858   */\n      dup5\n        /* \"#utility.yul\":6847:6870   */\n      sub\n        /* \"#utility.yul\":6843:6875   */\n      slt\n        /* \"#utility.yul\":6840:6959   */\n      iszero\n      tag_169\n      jumpi\n        /* \"#utility.yul\":6878:6957   */\n      tag_170\n      tag_66\n      jump\t// in\n    tag_170:\n        /* \"#utility.yul\":6840:6959   */\n    tag_169:\n        /* \"#utility.yul\":6998:6999   */\n      0x00\n        /* \"#utility.yul\":7023:7087   */\n      tag_171\n        /* \"#utility.yul\":7079:7086   */\n      dup5\n        /* \"#utility.yul\":7070:7076   */\n      dup3\n        /* \"#utility.yul\":7059:7068   */\n      dup6\n        /* \"#utility.yul\":7055:7077   */\n      add\n        /* \"#utility.yul\":7023:7087   */\n      tag_84\n      jump\t// in\n    tag_171:\n        /* \"#utility.yul\":7013:7087   */\n      swap2\n      pop\n        /* \"#utility.yul\":6969:7097   */\n      pop\n        /* \"#utility.yul\":6753:7104   */\n      swap3\n      swap2\n      pop\n      pop\n      jump\t// out\n        /* \"#utility.yul\":7110:7290   */\n    tag_85:\n        /* \"#utility.yul\":7158:7235   */\n      0x4e487b7100000000000000000000000000000000000000000000000000000000\n        /* \"#utility.yul\":7155:7156   */\n      0x00\n        /* \"#utility.yul\":7148:7236   */\n      mstore\n        /* \"#utility.yul\":7255:7259   */\n      0x12\n        /* \"#utility.yul\":7252:7253   */\n      0x04\n        /* \"#utility.yul\":7245:7260   */\n      mstore\n        /* \"#utility.yul\":7279:7283   */\n      0x24\n        /* \"#utility.yul\":7276:7277   */\n      0x00\n        /* \"#utility.yul\":7269:7284   */\n      revert\n        /* \"#utility.yul\":7296:7481   */\n    tag_56:\n        /* \"#utility.yul\":7336:7337   */\n      0x00\n        /* \"#utility.yul\":7353:7373   */\n      tag_174\n        /* \"#utility.yul\":7371:7372   */\n      dup3\n        /* \"#utility.yul\":7353:7373   */\n      tag_57\n      jump\t// in\n    tag_174:\n        /* \"#utility.yul\":7348:7373   */\n      swap2\n      pop\n        /* \"#utility.yul\":7387:7407   */\n      tag_175\n        /* \"#utility.yul\":7405:7406   */\n      dup4\n        /* \"#utility.yul\":7387:7407   */\n      tag_57\n      jump\t// in\n    tag_175:\n        /* \"#utility.yul\":7382:7407   */\n      swap3\n      pop\n        /* \"#utility.yul\":7426:7427   */\n      dup3\n        /* \"#utility.yul\":7416:7451   */\n      tag_176\n      jumpi\n        /* \"#utility.yul\":7431:7449   */\n      tag_177\n      tag_85\n      jump\t// in\n    tag_177:\n        /* \"#utility.yul\":7416:7451   */\n    tag_176:\n        /* \"#utility.yul\":7473:7474   */\n      dup3\n        /* \"#utility.yul\":7470:7471   */\n      dup3\n        /* \"#utility.yul\":7466:7475   */\n      div\n        /* \"#utility.yul\":7461:7475   */\n      swap1\n      pop\n        /* \"#utility.yul\":7296:7481   */\n      swap3\n      swap2\n      pop\n      pop\n      jump\t// out\n\n    auxdata: 0xa264697066735822122021606790ec1c56be00132757da8de203b99b9da379b8c96c4da6532048d83b4b64736f6c634300081a0033\n}\n",
				"bytecode": {
					"linkReferences": {},
					"object": "608060405234801561000f575f80fd5b506040516108f23803806108f283398181016040528101906100319190610127565b845f806101000a81548173ffffffffffffffffffffffffffffffffffffffff021916908373ffffffffffffffffffffffffffffffffffffffff16021790555083600181905550826002819055508160038190555080600481905550505050505061019e565b5f80fd5b5f73ffffffffffffffffffffffffffffffffffffffff82169050919050565b5f6100c38261009a565b9050919050565b6100d3816100b9565b81146100dd575f80fd5b50565b5f815190506100ee816100ca565b92915050565b5f819050919050565b610106816100f4565b8114610110575f80fd5b50565b5f81519050610121816100fd565b92915050565b5f805f805f60a086880312156101405761013f610096565b5b5f61014d888289016100e0565b955050602061015e88828901610113565b945050604061016f88828901610113565b935050606061018088828901610113565b925050608061019188828901610113565b9150509295509295909350565b610747806101ab5f395ff3fe608060405234801561000f575f80fd5b506004361061007b575f3560e01c80632630c12f116100595780632630c12f146100d95780636ef25c3a146100f75780637e50774214610115578063c097b36f146101335761007b565b806301f59d161461007f5780631bd8db031461009d57806324ec7590146100bb575b5f80fd5b61008761014f565b60405161009491906102fe565b60405180910390f35b6100a5610155565b6040516100b291906102fe565b60405180910390f35b6100c361015e565b6040516100d091906102fe565b60405180910390f35b6100e1610164565b6040516100ee9190610391565b60405180910390f35b6100ff610187565b60405161010c91906102fe565b60405180910390f35b61011d61018d565b60405161012a91906102fe565b60405180910390f35b61014d600480360381019061014891906104f7565b610193565b005b60035481565b5f600154905090565b60025481565b5f8054906101000a900473ffffffffffffffffffffffffffffffffffffffff1681565b60015481565b60045481565b5f61019d82610225565b90505f600454826101ae919061056b565b6001546101bb91906105ac565b90506003548111156101d15760035490506101e2565b6002548110156101e15760025490505b5b806001819055507f8f0bb2e9dd4d9e8f7b5a5a5e6ec3ecfb088b85352c3405f9bf7fef9fcf4b50c18160405161021891906102fe565b60405180910390a1505050565b5f805f8054906101000a900473ffffffffffffffffffffffffffffffffffffffff1673ffffffffffffffffffffffffffffffffffffffff1663524f3889846040518263ffffffff1660e01b815260040161027f919061063f565b602060405180830381865afa15801561029a573d5f803e3d5ffd5b505050506040513d601f19601f820116820180604052508101906102be9190610689565b90505f6064600a836102d0919061056b565b6102da91906106e1565b90508092505050919050565b5f819050919050565b6102f8816102e6565b82525050565b5f6020820190506103115f8301846102ef565b92915050565b5f73ffffffffffffffffffffffffffffffffffffffff82169050919050565b5f819050919050565b5f61035961035461034f84610317565b610336565b610317565b9050919050565b5f61036a8261033f565b9050919050565b5f61037b82610360565b9050919050565b61038b81610371565b82525050565b5f6020820190506103a45f830184610382565b92915050565b5f604051905090565b5f80fd5b5f80fd5b5f80fd5b5f80fd5b5f601f19601f8301169050919050565b7f4e487b71000000000000000000000000000000000000000000000000000000005f52604160045260245ffd5b610409826103c3565b810181811067ffffffffffffffff82111715610428576104276103d3565b5b80604052505050565b5f61043a6103aa565b90506104468282610400565b919050565b5f67ffffffffffffffff821115610465576104646103d3565b5b61046e826103c3565b9050602081019050919050565b828183375f83830152505050565b5f61049b6104968461044b565b610431565b9050828152602081018484840111156104b7576104b66103bf565b5b6104c284828561047b565b509392505050565b5f82601f8301126104de576104dd6103bb565b5b81356104ee848260208601610489565b91505092915050565b5f6020828403121561050c5761050b6103b3565b5b5f82013567ffffffffffffffff811115610529576105286103b7565b5b610535848285016104ca565b91505092915050565b7f4e487b71000000000000000000000000000000000000000000000000000000005f52601160045260245ffd5b5f610575826102e6565b9150610580836102e6565b925082820261058e816102e6565b915082820484148315176105a5576105a461053e565b5b5092915050565b5f6105b6826102e6565b91506105c1836102e6565b92508282019050808211156105d9576105d861053e565b5b92915050565b5f81519050919050565b5f82825260208201905092915050565b8281835e5f83830152505050565b5f610611826105df565b61061b81856105e9565b935061062b8185602086016105f9565b610634816103c3565b840191505092915050565b5f6020820190508181035f8301526106578184610607565b905092915050565b610668816102e6565b8114610672575f80fd5b50565b5f815190506106838161065f565b92915050565b5f6020828403121561069e5761069d6103b3565b5b5f6106ab84828501610675565b91505092915050565b7f4e487b71000000000000000000000000000000000000000000000000000000005f52601260045260245ffd5b5f6106eb826102e6565b91506106f6836102e6565b925082610706576107056106b4565b5b82820490509291505056fea264697066735822122021606790ec1c56be00132757da8de203b99b9da379b8c96c4da6532048d83b4b64736f6c634300081a0033",
					"opcodes": "PUSH1 0x80 PUSH1 0x40 MSTORE CALLVALUE DUP1 ISZERO PUSH2 0xF JUMPI PUSH0 DUP1 REVERT JUMPDEST POP PUSH1 0x40 MLOAD PUSH2 0x8F2 CODESIZE SUB DUP1 PUSH2 0x8F2 DUP4 CODECOPY DUP2 DUP2 ADD PUSH1 0x40 MSTORE DUP2 ADD SWAP1 PUSH2 0x31 SWAP2 SWAP1 PUSH2 0x127 JUMP JUMPDEST DUP5 PUSH0 DUP1 PUSH2 0x100 EXP DUP2 SLOAD DUP2 PUSH20 0xFFFFFFFFFFFFFFFFFFFFFFFFFFFFFFFFFFFFFFFF MUL NOT AND SWAP1 DUP4 PUSH20 0xFFFFFFFFFFFFFFFFFFFFFFFFFFFFFFFFFFFFFFFF AND MUL OR SWAP1 SSTORE POP DUP4 PUSH1 0x1 DUP2 SWAP1 SSTORE POP DUP3 PUSH1 0x2 DUP2 SWAP1 SSTORE POP DUP2 PUSH1 0x3 DUP2 SWAP1 SSTORE POP DUP1 PUSH1 0x4 DUP2 SWAP1 SSTORE POP POP POP POP POP POP PUSH2 0x19E JUMP JUMPDEST PUSH0 DUP1 REVERT JUMPDEST PUSH0 PUSH20 0xFFFFFFFFFFFFFFFFFFFFFFFFFFFFFFFFFFFFFFFF DUP3 AND SWAP1 POP SWAP2 SWAP1 POP JUMP JUMPDEST PUSH0 PUSH2 0xC3 DUP3 PUSH2 0x9A JUMP JUMPDEST SWAP1 POP SWAP2 SWAP1 POP JUMP JUMPDEST PUSH2 0xD3 DUP2 PUSH2 0xB9 JUMP JUMPDEST DUP2 EQ PUSH2 0xDD JUMPI PUSH0 DUP1 REVERT JUMPDEST POP JUMP JUMPDEST PUSH0 DUP2 MLOAD SWAP1 POP PUSH2 0xEE DUP2 PUSH2 0xCA JUMP JUMPDEST SWAP3 SWAP2 POP POP JUMP JUMPDEST PUSH0 DUP2 SWAP1 POP SWAP2 SWAP1 POP JUMP JUMPDEST PUSH2 0x106 DUP2 PUSH2 0xF4 JUMP JUMPDEST DUP2 EQ PUSH2 0x110 JUMPI PUSH0 DUP1 REVERT JUMPDEST POP JUMP JUMPDEST PUSH0 DUP2 MLOAD SWAP1 POP PUSH2 0x121 DUP2 PUSH2 0xFD JUMP JUMPDEST SWAP3 SWAP2 POP POP JUMP JUMPDEST PUSH0 DUP1 PUSH0 DUP1 PUSH0 PUSH1 0xA0 DUP7 DUP9 SUB SLT ISZERO PUSH2 0x140 JUMPI PUSH2 0x13F PUSH2 0x96 JUMP JUMPDEST JUMPDEST PUSH0 PUSH2 0x14D DUP9 DUP3 DUP10 ADD PUSH2 0xE0 JUMP JUMPDEST SWAP6 POP POP PUSH1 0x20 PUSH2 0x15E DUP9 DUP3 DUP10 ADD PUSH2 0x113 JUMP JUMPDEST SWAP5 POP POP PUSH1 0x40 PUSH2 0x16F DUP9 DUP3 DUP10 ADD PUSH2 0x113 JUMP JUMPDEST SWAP4 POP POP PUSH1 0x60 PUSH2 0x180 DUP9 DUP3 DUP10 ADD PUSH2 0x113 JUMP JUMPDEST SWAP3 POP POP PUSH1 0x80 PUSH2 0x191 DUP9 DUP3 DUP10 ADD PUSH2 0x113 JUMP JUMPDEST SWAP2 POP POP SWAP3 SWAP6 POP SWAP3 SWAP6 SWAP1 SWAP4 POP JUMP JUMPDEST PUSH2 0x747 DUP1 PUSH2 0x1AB PUSH0 CODECOPY PUSH0 RETURN INVALID PUSH1 0x80 PUSH1 0x40 MSTORE CALLVALUE DUP1 ISZERO PUSH2 0xF JUMPI PUSH0 DUP1 REVERT JUMPDEST POP PUSH1 0x4 CALLDATASIZE LT PUSH2 0x7B JUMPI PUSH0 CALLDATALOAD PUSH1 0xE0 SHR DUP1 PUSH4 0x2630C12F GT PUSH2 0x59 JUMPI DUP1 PUSH4 0x2630C12F EQ PUSH2 0xD9 JUMPI DUP1 PUSH4 0x6EF25C3A EQ PUSH2 0xF7 JUMPI DUP1 PUSH4 0x7E507742 EQ PUSH2 0x115 JUMPI DUP1 PUSH4 0xC097B36F EQ PUSH2 0x133 JUMPI PUSH2 0x7B JUMP JUMPDEST DUP1 PUSH4 0x1F59D16 EQ PUSH2 0x7F JUMPI DUP1 PUSH4 0x1BD8DB03 EQ PUSH2 0x9D JUMPI DUP1 PUSH4 0x24EC7590 EQ PUSH2 0xBB JUMPI JUMPDEST PUSH0 DUP1 REVERT JUMPDEST PUSH2 0x87 PUSH2 0x14F JUMP JUMPDEST PUSH1 0x40 MLOAD PUSH2 0x94 SWAP2 SWAP1 PUSH2 0x2FE JUMP JUMPDEST PUSH1 0x40 MLOAD DUP1 SWAP2 SUB SWAP1 RETURN JUMPDEST PUSH2 0xA5 PUSH2 0x155 JUMP JUMPDEST PUSH1 0x40 MLOAD PUSH2 0xB2 SWAP2 SWAP1 PUSH2 0x2FE JUMP JUMPDEST PUSH1 0x40 MLOAD DUP1 SWAP2 SUB SWAP1 RETURN JUMPDEST PUSH2 0xC3 PUSH2 0x15E JUMP JUMPDEST PUSH1 0x40 MLOAD PUSH2 0xD0 SWAP2 SWAP1 PUSH2 0x2FE JUMP JUMPDEST PUSH1 0x40 MLOAD DUP1 SWAP2 SUB SWAP1 RETURN JUMPDEST PUSH2 0xE1 PUSH2 0x164 JUMP JUMPDEST PUSH1 0x40 MLOAD PUSH2 0xEE SWAP2 SWAP1 PUSH2 0x391 JUMP JUMPDEST PUSH1 0x40 MLOAD DUP1 SWAP2 SUB SWAP1 RETURN JUMPDEST PUSH2 0xFF PUSH2 0x187 JUMP JUMPDEST PUSH1 0x40 MLOAD PUSH2 0x10C SWAP2 SWAP1 PUSH2 0x2FE JUMP JUMPDEST PUSH1 0x40 MLOAD DUP1 SWAP2 SUB SWAP1 RETURN JUMPDEST PUSH2 0x11D PUSH2 0x18D JUMP JUMPDEST PUSH1 0x40 MLOAD PUSH2 0x12A SWAP2 SWAP1 PUSH2 0x2FE JUMP JUMPDEST PUSH1 0x40 MLOAD DUP1 SWAP2 SUB SWAP1 RETURN JUMPDEST PUSH2 0x14D PUSH1 0x4 DUP1 CALLDATASIZE SUB DUP2 ADD SWAP1 PUSH2 0x148 SWAP2 SWAP1 PUSH2 0x4F7 JUMP JUMPDEST PUSH2 0x193 JUMP JUMPDEST STOP JUMPDEST PUSH1 0x3 SLOAD DUP2 JUMP JUMPDEST PUSH0 PUSH1 0x1 SLOAD SWAP1 POP SWAP1 JUMP JUMPDEST PUSH1 0x2 SLOAD DUP2 JUMP JUMPDEST PUSH0 DUP1 SLOAD SWAP1 PUSH2 0x100 EXP SWAP1 DIV PUSH20 0xFFFFFFFFFFFFFFFFFFFFFFFFFFFFFFFFFFFFFFFF AND DUP2 JUMP JUMPDEST PUSH1 0x1 SLOAD DUP2 JUMP JUMPDEST PUSH1 0x4 SLOAD DUP2 JUMP JUMPDEST PUSH0 PUSH2 0x19D DUP3 PUSH2 0x225 JUMP JUMPDEST SWAP1 POP PUSH0 PUSH1 0x4 SLOAD DUP3 PUSH2 0x1AE SWAP2 SWAP1 PUSH2 0x56B JUMP JUMPDEST PUSH1 0x1 SLOAD PUSH2 0x1BB SWAP2 SWAP1 PUSH2 0x5AC JUMP JUMPDEST SWAP1 POP PUSH1 0x3 SLOAD DUP2 GT ISZERO PUSH2 0x1D1 JUMPI PUSH1 0x3 SLOAD SWAP1 POP PUSH2 0x1E2 JUMP JUMPDEST PUSH1 0x2 SLOAD DUP2 LT ISZERO PUSH2 0x1E1 JUMPI PUSH1 0x2 SLOAD SWAP1 POP JUMPDEST JUMPDEST DUP1 PUSH1 0x1 DUP2 SWAP1 SSTORE POP PUSH32 0x8F0BB2E9DD4D9E8F7B5A5A5E6EC3ECFB088B85352C3405F9BF7FEF9FCF4B50C1 DUP2 PUSH1 0x40 MLOAD PUSH2 0x218 SWAP2 SWAP1 PUSH2 0x2FE JUMP JUMPDEST PUSH1 0x40 MLOAD DUP1 SWAP2 SUB SWAP1 LOG1 POP POP POP JUMP JUMPDEST PUSH0 DUP1 PUSH0 DUP1 SLOAD SWAP1 PUSH2 0x100 EXP SWAP1 DIV PUSH20 0xFFFFFFFFFFFFFFFFFFFFFFFFFFFFFFFFFFFFFFFF AND PUSH20 0xFFFFFFFFFFFFFFFFFFFFFFFFFFFFFFFFFFFFFFFF AND PUSH4 0x524F3889 DUP5 PUSH1 0x40 MLOAD DUP3 PUSH4 0xFFFFFFFF AND PUSH1 0xE0 SHL DUP2 MSTORE PUSH1 0x4 ADD PUSH2 0x27F SWAP2 SWAP1 PUSH2 0x63F JUMP JUMPDEST PUSH1 0x20 PUSH1 0x40 MLOAD DUP1 DUP4 SUB DUP2 DUP7 GAS STATICCALL ISZERO DUP1 ISZERO PUSH2 0x29A JUMPI RETURNDATASIZE PUSH0 DUP1 RETURNDATACOPY RETURNDATASIZE PUSH0 REVERT JUMPDEST POP POP POP POP PUSH1 0x40 MLOAD RETURNDATASIZE PUSH1 0x1F NOT PUSH1 0x1F DUP3 ADD AND DUP3 ADD DUP1 PUSH1 0x40 MSTORE POP DUP2 ADD SWAP1 PUSH2 0x2BE SWAP2 SWAP1 PUSH2 0x689 JUMP JUMPDEST SWAP1 POP PUSH0 PUSH1 0x64 PUSH1 0xA DUP4 PUSH2 0x2D0 SWAP2 SWAP1 PUSH2 0x56B JUMP JUMPDEST PUSH2 0x2DA SWAP2 SWAP1 PUSH2 0x6E1 JUMP JUMPDEST SWAP1 POP DUP1 SWAP3 POP POP POP SWAP2 SWAP1 POP JUMP JUMPDEST PUSH0 DUP2 SWAP1 POP SWAP2 SWAP1 POP JUMP JUMPDEST PUSH2 0x2F8 DUP2 PUSH2 0x2E6 JUMP JUMPDEST DUP3 MSTORE POP POP JUMP JUMPDEST PUSH0 PUSH1 0x20 DUP3 ADD SWAP1 POP PUSH2 0x311 PUSH0 DUP4 ADD DUP5 PUSH2 0x2EF JUMP JUMPDEST SWAP3 SWAP2 POP POP JUMP JUMPDEST PUSH0 PUSH20 0xFFFFFFFFFFFFFFFFFFFFFFFFFFFFFFFFFFFFFFFF DUP3 AND SWAP1 POP SWAP2 SWAP1 POP JUMP JUMPDEST PUSH0 DUP2 SWAP1 POP SWAP2 SWAP1 POP JUMP JUMPDEST PUSH0 PUSH2 0x359 PUSH2 0x354 PUSH2 0x34F DUP5 PUSH2 0x317 JUMP JUMPDEST PUSH2 0x336 JUMP JUMPDEST PUSH2 0x317 JUMP JUMPDEST SWAP1 POP SWAP2 SWAP1 POP JUMP JUMPDEST PUSH0 PUSH2 0x36A DUP3 PUSH2 0x33F JUMP JUMPDEST SWAP1 POP SWAP2 SWAP1 POP JUMP JUMPDEST PUSH0 PUSH2 0x37B DUP3 PUSH2 0x360 JUMP JUMPDEST SWAP1 POP SWAP2 SWAP1 POP JUMP JUMPDEST PUSH2 0x38B DUP2 PUSH2 0x371 JUMP JUMPDEST DUP3 MSTORE POP POP JUMP JUMPDEST PUSH0 PUSH1 0x20 DUP3 ADD SWAP1 POP PUSH2 0x3A4 PUSH0 DUP4 ADD DUP5 PUSH2 0x382 JUMP JUMPDEST SWAP3 SWAP2 POP POP JUMP JUMPDEST PUSH0 PUSH1 0x40 MLOAD SWAP1 POP SWAP1 JUMP JUMPDEST PUSH0 DUP1 REVERT JUMPDEST PUSH0 DUP1 REVERT JUMPDEST PUSH0 DUP1 REVERT JUMPDEST PUSH0 DUP1 REVERT JUMPDEST PUSH0 PUSH1 0x1F NOT PUSH1 0x1F DUP4 ADD AND SWAP1 POP SWAP2 SWAP1 POP JUMP JUMPDEST PUSH32 0x4E487B7100000000000000000000000000000000000000000000000000000000 PUSH0 MSTORE PUSH1 0x41 PUSH1 0x4 MSTORE PUSH1 0x24 PUSH0 REVERT JUMPDEST PUSH2 0x409 DUP3 PUSH2 0x3C3 JUMP JUMPDEST DUP2 ADD DUP2 DUP2 LT PUSH8 0xFFFFFFFFFFFFFFFF DUP3 GT OR ISZERO PUSH2 0x428 JUMPI PUSH2 0x427 PUSH2 0x3D3 JUMP JUMPDEST JUMPDEST DUP1 PUSH1 0x40 MSTORE POP POP POP JUMP JUMPDEST PUSH0 PUSH2 0x43A PUSH2 0x3AA JUMP JUMPDEST SWAP1 POP PUSH2 0x446 DUP3 DUP3 PUSH2 0x400 JUMP JUMPDEST SWAP2 SWAP1 POP JUMP JUMPDEST PUSH0 PUSH8 0xFFFFFFFFFFFFFFFF DUP3 GT ISZERO PUSH2 0x465 JUMPI PUSH2 0x464 PUSH2 0x3D3 JUMP JUMPDEST JUMPDEST PUSH2 0x46E DUP3 PUSH2 0x3C3 JUMP JUMPDEST SWAP1 POP PUSH1 0x20 DUP2 ADD SWAP1 POP SWAP2 SWAP1 POP JUMP JUMPDEST DUP3 DUP2 DUP4 CALLDATACOPY PUSH0 DUP4 DUP4 ADD MSTORE POP POP POP JUMP JUMPDEST PUSH0 PUSH2 0x49B PUSH2 0x496 DUP5 PUSH2 0x44B JUMP JUMPDEST PUSH2 0x431 JUMP JUMPDEST SWAP1 POP DUP3 DUP2 MSTORE PUSH1 0x20 DUP2 ADD DUP5 DUP5 DUP5 ADD GT ISZERO PUSH2 0x4B7 JUMPI PUSH2 0x4B6 PUSH2 0x3BF JUMP JUMPDEST JUMPDEST PUSH2 0x4C2 DUP5 DUP3 DUP6 PUSH2 0x47B JUMP JUMPDEST POP SWAP4 SWAP3 POP POP POP JUMP JUMPDEST PUSH0 DUP3 PUSH1 0x1F DUP4 ADD SLT PUSH2 0x4DE JUMPI PUSH2 0x4DD PUSH2 0x3BB JUMP JUMPDEST JUMPDEST DUP2 CALLDATALOAD PUSH2 0x4EE DUP5 DUP3 PUSH1 0x20 DUP7 ADD PUSH2 0x489 JUMP JUMPDEST SWAP2 POP POP SWAP3 SWAP2 POP POP JUMP JUMPDEST PUSH0 PUSH1 0x20 DUP3 DUP5 SUB SLT ISZERO PUSH2 0x50C JUMPI PUSH2 0x50B PUSH2 0x3B3 JUMP JUMPDEST JUMPDEST PUSH0 DUP3 ADD CALLDATALOAD PUSH8 0xFFFFFFFFFFFFFFFF DUP2 GT ISZERO PUSH2 0x529 JUMPI PUSH2 0x528 PUSH2 0x3B7 JUMP JUMPDEST JUMPDEST PUSH2 0x535 DUP5 DUP3 DUP6 ADD PUSH2 0x4CA JUMP JUMPDEST SWAP2 POP POP SWAP3 SWAP2 POP POP JUMP JUMPDEST PUSH32 0x4E487B7100000000000000000000000000000000000000000000000000000000 PUSH0 MSTORE PUSH1 0x11 PUSH1 0x4 MSTORE PUSH1 0x24 PUSH0 REVERT JUMPDEST PUSH0 PUSH2 0x575 DUP3 PUSH2 0x2E6 JUMP JUMPDEST SWAP2 POP PUSH2 0x580 DUP4 PUSH2 0x2E6 JUMP JUMPDEST SWAP3 POP DUP3 DUP3 MUL PUSH2 0x58E DUP2 PUSH2 0x2E6 JUMP JUMPDEST SWAP2 POP DUP3 DUP3 DIV DUP5 EQ DUP4 ISZERO OR PUSH2 0x5A5 JUMPI PUSH2 0x5A4 PUSH2 0x53E JUMP JUMPDEST JUMPDEST POP SWAP3 SWAP2 POP POP JUMP JUMPDEST PUSH0 PUSH2 0x5B6 DUP3 PUSH2 0x2E6 JUMP JUMPDEST SWAP2 POP PUSH2 0x5C1 DUP4 PUSH2 0x2E6 JUMP JUMPDEST SWAP3 POP DUP3 DUP3 ADD SWAP1 POP DUP1 DUP3 GT ISZERO PUSH2 0x5D9 JUMPI PUSH2 0x5D8 PUSH2 0x53E JUMP JUMPDEST JUMPDEST SWAP3 SWAP2 POP POP JUMP JUMPDEST PUSH0 DUP2 MLOAD SWAP1 POP SWAP2 SWAP1 POP JUMP JUMPDEST PUSH0 DUP3 DUP3 MSTORE PUSH1 0x20 DUP3 ADD SWAP1 POP SWAP3 SWAP2 POP POP JUMP JUMPDEST DUP3 DUP2 DUP4 MCOPY PUSH0 DUP4 DUP4 ADD MSTORE POP POP POP JUMP JUMPDEST PUSH0 PUSH2 0x611 DUP3 PUSH2 0x5DF JUMP JUMPDEST PUSH2 0x61B DUP2 DUP6 PUSH2 0x5E9 JUMP JUMPDEST SWAP4 POP PUSH2 0x62B DUP2 DUP6 PUSH1 0x20 DUP7 ADD PUSH2 0x5F9 JUMP JUMPDEST PUSH2 0x634 DUP2 PUSH2 0x3C3 JUMP JUMPDEST DUP5 ADD SWAP2 POP POP SWAP3 SWAP2 POP POP JUMP JUMPDEST PUSH0 PUSH1 0x20 DUP3 ADD SWAP1 POP DUP2 DUP2 SUB PUSH0 DUP4 ADD MSTORE PUSH2 0x657 DUP2 DUP5 PUSH2 0x607 JUMP JUMPDEST SWAP1 POP SWAP3 SWAP2 POP POP JUMP JUMPDEST PUSH2 0x668 DUP2 PUSH2 0x2E6 JUMP JUMPDEST DUP2 EQ PUSH2 0x672 JUMPI PUSH0 DUP1 REVERT JUMPDEST POP JUMP JUMPDEST PUSH0 DUP2 MLOAD SWAP1 POP PUSH2 0x683 DUP2 PUSH2 0x65F JUMP JUMPDEST SWAP3 SWAP2 POP POP JUMP JUMPDEST PUSH0 PUSH1 0x20 DUP3 DUP5 SUB SLT ISZERO PUSH2 0x69E JUMPI PUSH2 0x69D PUSH2 0x3B3 JUMP JUMPDEST JUMPDEST PUSH0 PUSH2 0x6AB DUP5 DUP3 DUP6 ADD PUSH2 0x675 JUMP JUMPDEST SWAP2 POP POP SWAP3 SWAP2 POP POP JUMP JUMPDEST PUSH32 0x4E487B7100000000000000000000000000000000000000000000000000000000 PUSH0 MSTORE PUSH1 0x12 PUSH1 0x4 MSTORE PUSH1 0x24 PUSH0 REVERT JUMPDEST PUSH0 PUSH2 0x6EB DUP3 PUSH2 0x2E6 JUMP JUMPDEST SWAP2 POP PUSH2 0x6F6 DUP4 PUSH2 0x2E6 JUMP JUMPDEST SWAP3 POP DUP3 PUSH2 0x706 JUMPI PUSH2 0x705 PUSH2 0x6B4 JUMP JUMPDEST JUMPDEST DUP3 DUP3 DIV SWAP1 POP SWAP3 SWAP2 POP POP JUMP INVALID LOG2 PUSH5 0x6970667358 0x22 SLT KECCAK256 0x21 PUSH1 0x67 SWAP1 0xEC SHR JUMP 0xBE STOP SGT 0x27 JUMPI 0xDA DUP14 0xE2 SUB 0xB9 SWAP12 SWAP14 LOG3 PUSH26 0xB8C96C4DA6532048D83B4B64736F6C634300081A003300000000 "
				},
				"gasEstimates": {
					"creation": {
						"codeDepositCost": "372600",
						"executionCost": "infinite",
						"totalCost": "infinite"
					},
					"external": {
						"adjustFee(string)": "infinite",
						"baseFee()": "2447",
						"getTradingFee()": "2455",
						"maxFee()": "2426",
						"minFee()": "2470",
						"priceOracle()": "infinite",
						"volatilityFactor()": "2469"
					},
					"internal": {
						"getVolatility(string memory)": "infinite"
					}
				},
				"methodIdentifiers": {
					"adjustFee(string)": "c097b36f",
					"baseFee()": "6ef25c3a",
					"getTradingFee()": "1bd8db03",
					"maxFee()": "01f59d16",
					"minFee()": "24ec7590",
					"priceOracle()": "2630c12f",
					"volatilityFactor()": "7e507742"
				}
			},
			"storageLayout": {
				"storage": [
					{
						"astId": 388,
						"contract": "contracts/DynamicFee.sol:DynamicFee",
						"label": "priceOracle",
						"offset": 0,
						"slot": "0",
						"type": "t_contract(Oracle)855"
					},
					{
						"astId": 390,
						"contract": "contracts/DynamicFee.sol:DynamicFee",
						"label": "baseFee",
						"offset": 0,
						"slot": "1",
						"type": "t_uint256"
					},
					{
						"astId": 392,
						"contract": "contracts/DynamicFee.sol:DynamicFee",
						"label": "minFee",
						"offset": 0,
						"slot": "2",
						"type": "t_uint256"
					},
					{
						"astId": 394,
						"contract": "contracts/DynamicFee.sol:DynamicFee",
						"label": "maxFee",
						"offset": 0,
						"slot": "3",
						"type": "t_uint256"
					},
					{
						"astId": 396,
						"contract": "contracts/DynamicFee.sol:DynamicFee",
						"label": "volatilityFactor",
						"offset": 0,
						"slot": "4",
						"type": "t_uint256"
					}
				],
				"types": {
					"t_contract(Oracle)855": {
						"encoding": "inplace",
						"label": "contract Oracle",
						"numberOfBytes": "20"
					},
					"t_uint256": {
						"encoding": "inplace",
						"label": "uint256",
						"numberOfBytes": "32"
					}
				}
			},
			"userdoc": {
				"kind": "user",
				"methods": {},
				"version": 1
			}
		}
	}
}