{
	"contracts/Oracle.sol": {
		"Oracle": {
			"abi": [
				{
					"inputs": [],
					"stateMutability": "nonpayable",
					"type": "constructor"
				},
				{
					"anonymous": false,
					"inputs": [
						{
							"indexed": false,
							"internalType": "string",
							"name": "asset",
							"type": "string"
						},
						{
							"indexed": false,
							"internalType": "uint256",
							"name": "price",
							"type": "uint256"
						}
					],
					"name": "PriceUpdated",
					"type": "event"
				},
				{
					"inputs": [],
					"name": "admin",
					"outputs": [
						{
							"internalType": "address",
							"name": "",
							"type": "address"
						}
					],
					"stateMutability": "view",
					"type": "function"
				},
				{
					"inputs": [
						{
							"internalType": "string",
							"name": "asset",
							"type": "string"
						}
					],
					"name": "getPrice",
					"outputs": [
						{
							"internalType": "uint256",
							"name": "",
							"type": "uint256"
						}
					],
					"stateMutability": "view",
					"type": "function"
				},
				{
					"inputs": [
						{
							"internalType": "string",
							"name": "",
							"type": "string"
						}
					],
					"name": "prices",
					"outputs": [
						{
							"internalType": "uint256",
							"name": "",
							"type": "uint256"
						}
					],
					"stateMutability": "view",
					"type": "function"
				},
				{
					"inputs": [
						{
							"internalType": "string",
							"name": "asset",
							"type": "string"
						},
						{
							"internalType": "uint256",
							"name": "price",
							"type": "uint256"
						}
					],
					"name": "setPrice",
					"outputs": [],
					"stateMutability": "nonpayable",
					"type": "function"
				}
			],
			"devdoc": {
				"kind": "dev",
				"methods": {},
				"version": 1
			},
			"evm": {
				"assembly": "    /* \"contracts/Oracle.sol\":60:654  contract Oracle {... */\n  mstore(0x40, 0x80)\n    /* \"contracts/Oracle.sol\":319:370  constructor() {... */\n  callvalue\n  dup1\n  iszero\n  tag_1\n  jumpi\n  0x00\n  dup1\n  revert\ntag_1:\n  pop\n    /* \"contracts/Oracle.sol\":352:362  msg.sender */\n  caller\n    /* \"contracts/Oracle.sol\":344:349  admin */\n  0x00\n  dup1\n    /* \"contracts/Oracle.sol\":344:362  admin = msg.sender */\n  0x0100\n  exp\n  dup2\n  sload\n  dup2\n  0xffffffffffffffffffffffffffffffffffffffff\n  mul\n  not\n  and\n  swap1\n  dup4\n  0xffffffffffffffffffffffffffffffffffffffff\n  and\n  mul\n  or\n  swap1\n  sstore\n  pop\n    /* \"contracts/Oracle.sol\":60:654  contract Oracle {... */\n  dataSize(sub_0)\n  dup1\n  dataOffset(sub_0)\n  0x00\n  codecopy\n  0x00\n  return\nstop\n\nsub_0: assembly {\n        /* \"contracts/Oracle.sol\":60:654  contract Oracle {... */\n      mstore(0x40, 0x80)\n      callvalue\n      dup1\n      iszero\n      tag_1\n      jumpi\n      0x00\n      dup1\n      revert\n    tag_1:\n      pop\n      jumpi(tag_2, lt(calldatasize, 0x04))\n      shr(0xe0, calldataload(0x00))\n      dup1\n      0x22e01192\n      eq\n      tag_3\n      jumpi\n      dup1\n      0x524f3889\n      eq\n      tag_4\n      jumpi\n      dup1\n      0xc3825f4b\n      eq\n      tag_5\n      jumpi\n      dup1\n      0xf851a440\n      eq\n      tag_6\n      jumpi\n    tag_2:\n      0x00\n      dup1\n      revert\n        /* \"contracts/Oracle.sol\":378:533  function setPrice(string memory asset, uint256 price) external onlyAdmin {... */\n    tag_3:\n      tag_7\n      0x04\n      dup1\n      calldatasize\n      sub\n      dup2\n      add\n      swap1\n      tag_8\n      swap2\n      swap1\n      tag_9\n      jump\t// in\n    tag_8:\n      tag_10\n      jump\t// in\n    tag_7:\n      stop\n        /* \"contracts/Oracle.sol\":541:651  function getPrice(string memory asset) external view returns (uint256) {... */\n    tag_4:\n      tag_11\n      0x04\n      dup1\n      calldatasize\n      sub\n      dup2\n      add\n      swap1\n      tag_12\n      swap2\n      swap1\n      tag_13\n      jump\t// in\n    tag_12:\n      tag_14\n      jump\t// in\n    tag_11:\n      mload(0x40)\n      tag_15\n      swap2\n      swap1\n      tag_16\n      jump\t// in\n    tag_15:\n      mload(0x40)\n      dup1\n      swap2\n      sub\n      swap1\n      return\n        /* \"contracts/Oracle.sol\":110:150  mapping(string => uint256) public prices */\n    tag_5:\n      tag_17\n      0x04\n      dup1\n      calldatasize\n      sub\n      dup2\n      add\n      swap1\n      tag_18\n      swap2\n      swap1\n      tag_13\n      jump\t// in\n    tag_18:\n      tag_19\n      jump\t// in\n    tag_17:\n      mload(0x40)\n      tag_20\n      swap2\n      swap1\n      tag_16\n      jump\t// in\n    tag_20:\n      mload(0x40)\n      dup1\n      swap2\n      sub\n      swap1\n      return\n        /* \"contracts/Oracle.sol\":83:103  address public admin */\n    tag_6:\n      tag_21\n      tag_22\n      jump\t// in\n    tag_21:\n      mload(0x40)\n      tag_23\n      swap2\n      swap1\n      tag_24\n      jump\t// in\n    tag_23:\n      mload(0x40)\n      dup1\n      swap2\n      sub\n      swap1\n      return\n        /* \"contracts/Oracle.sol\":378:533  function setPrice(string memory asset, uint256 price) external onlyAdmin {... */\n    tag_10:\n        /* \"contracts/Oracle.sol\":269:274  admin */\n      0x00\n      dup1\n      sload\n      swap1\n      0x0100\n      exp\n      swap1\n      div\n      0xffffffffffffffffffffffffffffffffffffffff\n      and\n        /* \"contracts/Oracle.sol\":255:274  msg.sender == admin */\n      0xffffffffffffffffffffffffffffffffffffffff\n      and\n        /* \"contracts/Oracle.sol\":255:265  msg.sender */\n      caller\n        /* \"contracts/Oracle.sol\":255:274  msg.sender == admin */\n      0xffffffffffffffffffffffffffffffffffffffff\n      and\n      eq\n        /* \"contracts/Oracle.sol\":247:291  require(msg.sender == admin, \"Not an admin\") */\n      tag_26\n      jumpi\n      mload(0x40)\n      0x08c379a000000000000000000000000000000000000000000000000000000000\n      dup2\n      mstore\n      0x04\n      add\n      tag_27\n      swap1\n      tag_28\n      jump\t// in\n    tag_27:\n      mload(0x40)\n      dup1\n      swap2\n      sub\n      swap1\n      revert\n    tag_26:\n        /* \"contracts/Oracle.sol\":478:483  price */\n      dup1\n        /* \"contracts/Oracle.sol\":462:468  prices */\n      0x01\n        /* \"contracts/Oracle.sol\":469:474  asset */\n      dup4\n        /* \"contracts/Oracle.sol\":462:475  prices[asset] */\n      mload(0x40)\n      tag_30\n      swap2\n      swap1\n      tag_31\n      jump\t// in\n    tag_30:\n      swap1\n      dup2\n      mstore\n      0x20\n      add\n      mload(0x40)\n      dup1\n      swap2\n      sub\n      swap1\n      keccak256\n        /* \"contracts/Oracle.sol\":462:483  prices[asset] = price */\n      dup2\n      swap1\n      sstore\n      pop\n        /* \"contracts/Oracle.sol\":499:525  PriceUpdated(asset, price) */\n      0x159e83f4712ba2552e68be9d848e49bf6dd35c24f19564ffd523b6549450a2f4\n        /* \"contracts/Oracle.sol\":512:517  asset */\n      dup3\n        /* \"contracts/Oracle.sol\":519:524  price */\n      dup3\n        /* \"contracts/Oracle.sol\":499:525  PriceUpdated(asset, price) */\n      mload(0x40)\n      tag_32\n      swap3\n      swap2\n      swap1\n      tag_33\n      jump\t// in\n    tag_32:\n      mload(0x40)\n      dup1\n      swap2\n      sub\n      swap1\n      log1\n        /* \"contracts/Oracle.sol\":378:533  function setPrice(string memory asset, uint256 price) external onlyAdmin {... */\n      pop\n      pop\n      jump\t// out\n        /* \"contracts/Oracle.sol\":541:651  function getPrice(string memory asset) external view returns (uint256) {... */\n    tag_14:\n        /* \"contracts/Oracle.sol\":603:610  uint256 */\n      0x00\n        /* \"contracts/Oracle.sol\":630:636  prices */\n      0x01\n        /* \"contracts/Oracle.sol\":637:642  asset */\n      dup3\n        /* \"contracts/Oracle.sol\":630:643  prices[asset] */\n      mload(0x40)\n      tag_35\n      swap2\n      swap1\n      tag_31\n      jump\t// in\n    tag_35:\n      swap1\n      dup2\n      mstore\n      0x20\n      add\n      mload(0x40)\n      dup1\n      swap2\n      sub\n      swap1\n      keccak256\n      sload\n        /* \"contracts/Oracle.sol\":623:643  return prices[asset] */\n      swap1\n      pop\n        /* \"contracts/Oracle.sol\":541:651  function getPrice(string memory asset) external view returns (uint256) {... */\n      swap2\n      swap1\n      pop\n      jump\t// out\n        /* \"contracts/Oracle.sol\":110:150  mapping(string => uint256) public prices */\n    tag_19:\n      0x01\n      dup2\n      dup1\n      mload\n      0x20\n      dup2\n      add\n      dup3\n      add\n      dup1\n      mload\n      dup5\n      dup3\n      mstore\n      0x20\n      dup4\n      add\n      0x20\n      dup6\n      add\n      keccak256\n      dup2\n      dup4\n      mstore\n      dup1\n      swap6\n      pop\n      pop\n      pop\n      pop\n      pop\n      pop\n      0x00\n      swap2\n      pop\n      swap1\n      pop\n      sload\n      dup2\n      jump\t// out\n        /* \"contracts/Oracle.sol\":83:103  address public admin */\n    tag_22:\n      0x00\n      dup1\n      sload\n      swap1\n      0x0100\n      exp\n      swap1\n      div\n      0xffffffffffffffffffffffffffffffffffffffff\n      and\n      dup2\n      jump\t// out\n        /* \"#utility.yul\":7:82   */\n    tag_36:\n        /* \"#utility.yul\":40:46   */\n      0x00\n        /* \"#utility.yul\":73:75   */\n      0x40\n        /* \"#utility.yul\":67:76   */\n      mload\n        /* \"#utility.yul\":57:76   */\n      swap1\n      pop\n        /* \"#utility.yul\":7:82   */\n      swap1\n      jump\t// out\n        /* \"#utility.yul\":88:205   */\n    tag_37:\n        /* \"#utility.yul\":197:198   */\n      0x00\n        /* \"#utility.yul\":194:195   */\n      dup1\n        /* \"#utility.yul\":187:199   */\n      revert\n        /* \"#utility.yul\":211:328   */\n    tag_38:\n        /* \"#utility.yul\":320:321   */\n      0x00\n        /* \"#utility.yul\":317:318   */\n      dup1\n        /* \"#utility.yul\":310:322   */\n      revert\n        /* \"#utility.yul\":334:451   */\n    tag_39:\n        /* \"#utility.yul\":443:444   */\n      0x00\n        /* \"#utility.yul\":440:441   */\n      dup1\n        /* \"#utility.yul\":433:445   */\n      revert\n        /* \"#utility.yul\":457:574   */\n    tag_40:\n        /* \"#utility.yul\":566:567   */\n      0x00\n        /* \"#utility.yul\":563:564   */\n      dup1\n        /* \"#utility.yul\":556:568   */\n      revert\n        /* \"#utility.yul\":580:682   */\n    tag_41:\n        /* \"#utility.yul\":621:627   */\n      0x00\n        /* \"#utility.yul\":672:674   */\n      0x1f\n        /* \"#utility.yul\":668:675   */\n      not\n        /* \"#utility.yul\":663:665   */\n      0x1f\n        /* \"#utility.yul\":656:661   */\n      dup4\n        /* \"#utility.yul\":652:666   */\n      add\n        /* \"#utility.yul\":648:676   */\n      and\n        /* \"#utility.yul\":638:676   */\n      swap1\n      pop\n        /* \"#utility.yul\":580:682   */\n      swap2\n      swap1\n      pop\n      jump\t// out\n        /* \"#utility.yul\":688:868   */\n    tag_42:\n        /* \"#utility.yul\":736:813   */\n      0x4e487b7100000000000000000000000000000000000000000000000000000000\n        /* \"#utility.yul\":733:734   */\n      0x00\n        /* \"#utility.yul\":726:814   */\n      mstore\n        /* \"#utility.yul\":833:837   */\n      0x41\n        /* \"#utility.yul\":830:831   */\n      0x04\n        /* \"#utility.yul\":823:838   */\n      mstore\n        /* \"#utility.yul\":857:861   */\n      0x24\n        /* \"#utility.yul\":854:855   */\n      0x00\n        /* \"#utility.yul\":847:862   */\n      revert\n        /* \"#utility.yul\":874:1155   */\n    tag_43:\n        /* \"#utility.yul\":957:984   */\n      tag_73\n        /* \"#utility.yul\":979:983   */\n      dup3\n        /* \"#utility.yul\":957:984   */\n      tag_41\n      jump\t// in\n    tag_73:\n        /* \"#utility.yul\":949:955   */\n      dup2\n        /* \"#utility.yul\":945:985   */\n      add\n        /* \"#utility.yul\":1087:1093   */\n      dup2\n        /* \"#utility.yul\":1075:1085   */\n      dup2\n        /* \"#utility.yul\":1072:1094   */\n      lt\n        /* \"#utility.yul\":1051:1069   */\n      0xffffffffffffffff\n        /* \"#utility.yul\":1039:1049   */\n      dup3\n        /* \"#utility.yul\":1036:1070   */\n      gt\n        /* \"#utility.yul\":1033:1095   */\n      or\n        /* \"#utility.yul\":1030:1118   */\n      iszero\n      tag_74\n      jumpi\n        /* \"#utility.yul\":1098:1116   */\n      tag_75\n      tag_42\n      jump\t// in\n    tag_75:\n        /* \"#utility.yul\":1030:1118   */\n    tag_74:\n        /* \"#utility.yul\":1138:1148   */\n      dup1\n        /* \"#utility.yul\":1134:1136   */\n      0x40\n        /* \"#utility.yul\":1127:1149   */\n      mstore\n        /* \"#utility.yul\":917:1155   */\n      pop\n        /* \"#utility.yul\":874:1155   */\n      pop\n      pop\n      jump\t// out\n        /* \"#utility.yul\":1161:1290   */\n    tag_44:\n        /* \"#utility.yul\":1195:1201   */\n      0x00\n        /* \"#utility.yul\":1222:1242   */\n      tag_77\n      tag_36\n      jump\t// in\n    tag_77:\n        /* \"#utility.yul\":1212:1242   */\n      swap1\n      pop\n        /* \"#utility.yul\":1251:1284   */\n      tag_78\n        /* \"#utility.yul\":1279:1283   */\n      dup3\n        /* \"#utility.yul\":1271:1277   */\n      dup3\n        /* \"#utility.yul\":1251:1284   */\n      tag_43\n      jump\t// in\n    tag_78:\n        /* \"#utility.yul\":1161:1290   */\n      swap2\n      swap1\n      pop\n      jump\t// out\n        /* \"#utility.yul\":1296:1604   */\n    tag_45:\n        /* \"#utility.yul\":1358:1362   */\n      0x00\n        /* \"#utility.yul\":1448:1466   */\n      0xffffffffffffffff\n        /* \"#utility.yul\":1440:1446   */\n      dup3\n        /* \"#utility.yul\":1437:1467   */\n      gt\n        /* \"#utility.yul\":1434:1490   */\n      iszero\n      tag_80\n      jumpi\n        /* \"#utility.yul\":1470:1488   */\n      tag_81\n      tag_42\n      jump\t// in\n    tag_81:\n        /* \"#utility.yul\":1434:1490   */\n    tag_80:\n        /* \"#utility.yul\":1508:1537   */\n      tag_82\n        /* \"#utility.yul\":1530:1536   */\n      dup3\n        /* \"#utility.yul\":1508:1537   */\n      tag_41\n      jump\t// in\n    tag_82:\n        /* \"#utility.yul\":1500:1537   */\n      swap1\n      pop\n        /* \"#utility.yul\":1592:1596   */\n      0x20\n        /* \"#utility.yul\":1586:1590   */\n      dup2\n        /* \"#utility.yul\":1582:1597   */\n      add\n        /* \"#utility.yul\":1574:1597   */\n      swap1\n      pop\n        /* \"#utility.yul\":1296:1604   */\n      swap2\n      swap1\n      pop\n      jump\t// out\n        /* \"#utility.yul\":1610:1758   */\n    tag_46:\n        /* \"#utility.yul\":1708:1714   */\n      dup3\n        /* \"#utility.yul\":1703:1706   */\n      dup2\n        /* \"#utility.yul\":1698:1701   */\n      dup4\n        /* \"#utility.yul\":1685:1715   */\n      calldatacopy\n        /* \"#utility.yul\":1749:1750   */\n      0x00\n        /* \"#utility.yul\":1740:1746   */\n      dup4\n        /* \"#utility.yul\":1735:1738   */\n      dup4\n        /* \"#utility.yul\":1731:1747   */\n      add\n        /* \"#utility.yul\":1724:1751   */\n      mstore\n        /* \"#utility.yul\":1610:1758   */\n      pop\n      pop\n      pop\n      jump\t// out\n        /* \"#utility.yul\":1764:2189   */\n    tag_47:\n        /* \"#utility.yul\":1842:1847   */\n      0x00\n        /* \"#utility.yul\":1867:1933   */\n      tag_85\n        /* \"#utility.yul\":1883:1932   */\n      tag_86\n        /* \"#utility.yul\":1925:1931   */\n      dup5\n        /* \"#utility.yul\":1883:1932   */\n      tag_45\n      jump\t// in\n    tag_86:\n        /* \"#utility.yul\":1867:1933   */\n      tag_44\n      jump\t// in\n    tag_85:\n        /* \"#utility.yul\":1858:1933   */\n      swap1\n      pop\n        /* \"#utility.yul\":1956:1962   */\n      dup3\n        /* \"#utility.yul\":1949:1954   */\n      dup2\n        /* \"#utility.yul\":1942:1963   */\n      mstore\n        /* \"#utility.yul\":1994:1998   */\n      0x20\n        /* \"#utility.yul\":1987:1992   */\n      dup2\n        /* \"#utility.yul\":1983:1999   */\n      add\n        /* \"#utility.yul\":2032:2035   */\n      dup5\n        /* \"#utility.yul\":2023:2029   */\n      dup5\n        /* \"#utility.yul\":2018:2021   */\n      dup5\n        /* \"#utility.yul\":2014:2030   */\n      add\n        /* \"#utility.yul\":2011:2036   */\n      gt\n        /* \"#utility.yul\":2008:2120   */\n      iszero\n      tag_87\n      jumpi\n        /* \"#utility.yul\":2039:2118   */\n      tag_88\n      tag_40\n      jump\t// in\n    tag_88:\n        /* \"#utility.yul\":2008:2120   */\n    tag_87:\n        /* \"#utility.yul\":2129:2183   */\n      tag_89\n        /* \"#utility.yul\":2176:2182   */\n      dup5\n        /* \"#utility.yul\":2171:2174   */\n      dup3\n        /* \"#utility.yul\":2166:2169   */\n      dup6\n        /* \"#utility.yul\":2129:2183   */\n      tag_46\n      jump\t// in\n    tag_89:\n        /* \"#utility.yul\":1848:2189   */\n      pop\n        /* \"#utility.yul\":1764:2189   */\n      swap4\n      swap3\n      pop\n      pop\n      pop\n      jump\t// out\n        /* \"#utility.yul\":2209:2549   */\n    tag_48:\n        /* \"#utility.yul\":2265:2270   */\n      0x00\n        /* \"#utility.yul\":2314:2317   */\n      dup3\n        /* \"#utility.yul\":2307:2311   */\n      0x1f\n        /* \"#utility.yul\":2299:2305   */\n      dup4\n        /* \"#utility.yul\":2295:2312   */\n      add\n        /* \"#utility.yul\":2291:2318   */\n      slt\n        /* \"#utility.yul\":2281:2403   */\n      tag_91\n      jumpi\n        /* \"#utility.yul\":2322:2401   */\n      tag_92\n      tag_39\n      jump\t// in\n    tag_92:\n        /* \"#utility.yul\":2281:2403   */\n    tag_91:\n        /* \"#utility.yul\":2439:2445   */\n      dup2\n        /* \"#utility.yul\":2426:2446   */\n      calldataload\n        /* \"#utility.yul\":2464:2543   */\n      tag_93\n        /* \"#utility.yul\":2539:2542   */\n      dup5\n        /* \"#utility.yul\":2531:2537   */\n      dup3\n        /* \"#utility.yul\":2524:2528   */\n      0x20\n        /* \"#utility.yul\":2516:2522   */\n      dup7\n        /* \"#utility.yul\":2512:2529   */\n      add\n        /* \"#utility.yul\":2464:2543   */\n      tag_47\n      jump\t// in\n    tag_93:\n        /* \"#utility.yul\":2455:2543   */\n      swap2\n      pop\n        /* \"#utility.yul\":2271:2549   */\n      pop\n        /* \"#utility.yul\":2209:2549   */\n      swap3\n      swap2\n      pop\n      pop\n      jump\t// out\n        /* \"#utility.yul\":2555:2632   */\n    tag_49:\n        /* \"#utility.yul\":2592:2599   */\n      0x00\n        /* \"#utility.yul\":2621:2626   */\n      dup2\n        /* \"#utility.yul\":2610:2626   */\n      swap1\n      pop\n        /* \"#utility.yul\":2555:2632   */\n      swap2\n      swap1\n      pop\n      jump\t// out\n        /* \"#utility.yul\":2638:2760   */\n    tag_50:\n        /* \"#utility.yul\":2711:2735   */\n      tag_96\n        /* \"#utility.yul\":2729:2734   */\n      dup2\n        /* \"#utility.yul\":2711:2735   */\n      tag_49\n      jump\t// in\n    tag_96:\n        /* \"#utility.yul\":2704:2709   */\n      dup2\n        /* \"#utility.yul\":2701:2736   */\n      eq\n        /* \"#utility.yul\":2691:2754   */\n      tag_97\n      jumpi\n        /* \"#utility.yul\":2750:2751   */\n      0x00\n        /* \"#utility.yul\":2747:2748   */\n      dup1\n        /* \"#utility.yul\":2740:2752   */\n      revert\n        /* \"#utility.yul\":2691:2754   */\n    tag_97:\n        /* \"#utility.yul\":2638:2760   */\n      pop\n      jump\t// out\n        /* \"#utility.yul\":2766:2905   */\n    tag_51:\n        /* \"#utility.yul\":2812:2817   */\n      0x00\n        /* \"#utility.yul\":2850:2856   */\n      dup2\n        /* \"#utility.yul\":2837:2857   */\n      calldataload\n        /* \"#utility.yul\":2828:2857   */\n      swap1\n      pop\n        /* \"#utility.yul\":2866:2899   */\n      tag_99\n        /* \"#utility.yul\":2893:2898   */\n      dup2\n        /* \"#utility.yul\":2866:2899   */\n      tag_50\n      jump\t// in\n    tag_99:\n        /* \"#utility.yul\":2766:2905   */\n      swap3\n      swap2\n      pop\n      pop\n      jump\t// out\n        /* \"#utility.yul\":2911:3565   */\n    tag_9:\n        /* \"#utility.yul\":2989:2995   */\n      0x00\n        /* \"#utility.yul\":2997:3003   */\n      dup1\n        /* \"#utility.yul\":3046:3048   */\n      0x40\n        /* \"#utility.yul\":3034:3043   */\n      dup4\n        /* \"#utility.yul\":3025:3032   */\n      dup6\n        /* \"#utility.yul\":3021:3044   */\n      sub\n        /* \"#utility.yul\":3017:3049   */\n      slt\n        /* \"#utility.yul\":3014:3133   */\n      iszero\n      tag_101\n      jumpi\n        /* \"#utility.yul\":3052:3131   */\n      tag_102\n      tag_37\n      jump\t// in\n    tag_102:\n        /* \"#utility.yul\":3014:3133   */\n    tag_101:\n        /* \"#utility.yul\":3200:3201   */\n      0x00\n        /* \"#utility.yul\":3189:3198   */\n      dup4\n        /* \"#utility.yul\":3185:3202   */\n      add\n        /* \"#utility.yul\":3172:3203   */\n      calldataload\n        /* \"#utility.yul\":3230:3248   */\n      0xffffffffffffffff\n        /* \"#utility.yul\":3222:3228   */\n      dup2\n        /* \"#utility.yul\":3219:3249   */\n      gt\n        /* \"#utility.yul\":3216:3333   */\n      iszero\n      tag_103\n      jumpi\n        /* \"#utility.yul\":3252:3331   */\n      tag_104\n      tag_38\n      jump\t// in\n    tag_104:\n        /* \"#utility.yul\":3216:3333   */\n    tag_103:\n        /* \"#utility.yul\":3357:3420   */\n      tag_105\n        /* \"#utility.yul\":3412:3419   */\n      dup6\n        /* \"#utility.yul\":3403:3409   */\n      dup3\n        /* \"#utility.yul\":3392:3401   */\n      dup7\n        /* \"#utility.yul\":3388:3410   */\n      add\n        /* \"#utility.yul\":3357:3420   */\n      tag_48\n      jump\t// in\n    tag_105:\n        /* \"#utility.yul\":3347:3420   */\n      swap3\n      pop\n        /* \"#utility.yul\":3143:3430   */\n      pop\n        /* \"#utility.yul\":3469:3471   */\n      0x20\n        /* \"#utility.yul\":3495:3548   */\n      tag_106\n        /* \"#utility.yul\":3540:3547   */\n      dup6\n        /* \"#utility.yul\":3531:3537   */\n      dup3\n        /* \"#utility.yul\":3520:3529   */\n      dup7\n        /* \"#utility.yul\":3516:3538   */\n      add\n        /* \"#utility.yul\":3495:3548   */\n      tag_51\n      jump\t// in\n    tag_106:\n        /* \"#utility.yul\":3485:3548   */\n      swap2\n      pop\n        /* \"#utility.yul\":3440:3558   */\n      pop\n        /* \"#utility.yul\":2911:3565   */\n      swap3\n      pop\n      swap3\n      swap1\n      pop\n      jump\t// out\n        /* \"#utility.yul\":3571:4080   */\n    tag_13:\n        /* \"#utility.yul\":3640:3646   */\n      0x00\n        /* \"#utility.yul\":3689:3691   */\n      0x20\n        /* \"#utility.yul\":3677:3686   */\n      dup3\n        /* \"#utility.yul\":3668:3675   */\n      dup5\n        /* \"#utility.yul\":3664:3687   */\n      sub\n        /* \"#utility.yul\":3660:3692   */\n      slt\n        /* \"#utility.yul\":3657:3776   */\n      iszero\n      tag_108\n      jumpi\n        /* \"#utility.yul\":3695:3774   */\n      tag_109\n      tag_37\n      jump\t// in\n    tag_109:\n        /* \"#utility.yul\":3657:3776   */\n    tag_108:\n        /* \"#utility.yul\":3843:3844   */\n      0x00\n        /* \"#utility.yul\":3832:3841   */\n      dup3\n        /* \"#utility.yul\":3828:3845   */\n      add\n        /* \"#utility.yul\":3815:3846   */\n      calldataload\n        /* \"#utility.yul\":3873:3891   */\n      0xffffffffffffffff\n        /* \"#utility.yul\":3865:3871   */\n      dup2\n        /* \"#utility.yul\":3862:3892   */\n      gt\n        /* \"#utility.yul\":3859:3976   */\n      iszero\n      tag_110\n      jumpi\n        /* \"#utility.yul\":3895:3974   */\n      tag_111\n      tag_38\n      jump\t// in\n    tag_111:\n        /* \"#utility.yul\":3859:3976   */\n    tag_110:\n        /* \"#utility.yul\":4000:4063   */\n      tag_112\n        /* \"#utility.yul\":4055:4062   */\n      dup5\n        /* \"#utility.yul\":4046:4052   */\n      dup3\n        /* \"#utility.yul\":4035:4044   */\n      dup6\n        /* \"#utility.yul\":4031:4053   */\n      add\n        /* \"#utility.yul\":4000:4063   */\n      tag_48\n      jump\t// in\n    tag_112:\n        /* \"#utility.yul\":3990:4063   */\n      swap2\n      pop\n        /* \"#utility.yul\":3786:4073   */\n      pop\n        /* \"#utility.yul\":3571:4080   */\n      swap3\n      swap2\n      pop\n      pop\n      jump\t// out\n        /* \"#utility.yul\":4086:4204   */\n    tag_52:\n        /* \"#utility.yul\":4173:4197   */\n      tag_114\n        /* \"#utility.yul\":4191:4196   */\n      dup2\n        /* \"#utility.yul\":4173:4197   */\n      tag_49\n      jump\t// in\n    tag_114:\n        /* \"#utility.yul\":4168:4171   */\n      dup3\n        /* \"#utility.yul\":4161:4198   */\n      mstore\n        /* \"#utility.yul\":4086:4204   */\n      pop\n      pop\n      jump\t// out\n        /* \"#utility.yul\":4210:4432   */\n    tag_16:\n        /* \"#utility.yul\":4303:4307   */\n      0x00\n        /* \"#utility.yul\":4341:4343   */\n      0x20\n        /* \"#utility.yul\":4330:4339   */\n      dup3\n        /* \"#utility.yul\":4326:4344   */\n      add\n        /* \"#utility.yul\":4318:4344   */\n      swap1\n      pop\n        /* \"#utility.yul\":4354:4425   */\n      tag_116\n        /* \"#utility.yul\":4422:4423   */\n      0x00\n        /* \"#utility.yul\":4411:4420   */\n      dup4\n        /* \"#utility.yul\":4407:4424   */\n      add\n        /* \"#utility.yul\":4398:4404   */\n      dup5\n        /* \"#utility.yul\":4354:4425   */\n      tag_52\n      jump\t// in\n    tag_116:\n        /* \"#utility.yul\":4210:4432   */\n      swap3\n      swap2\n      pop\n      pop\n      jump\t// out\n        /* \"#utility.yul\":4438:4564   */\n    tag_53:\n        /* \"#utility.yul\":4475:4482   */\n      0x00\n        /* \"#utility.yul\":4515:4557   */\n      0xffffffffffffffffffffffffffffffffffffffff\n        /* \"#utility.yul\":4508:4513   */\n      dup3\n        /* \"#utility.yul\":4504:4558   */\n      and\n        /* \"#utility.yul\":4493:4558   */\n      swap1\n      pop\n        /* \"#utility.yul\":4438:4564   */\n      swap2\n      swap1\n      pop\n      jump\t// out\n        /* \"#utility.yul\":4570:4666   */\n    tag_54:\n        /* \"#utility.yul\":4607:4614   */\n      0x00\n        /* \"#utility.yul\":4636:4660   */\n      tag_119\n        /* \"#utility.yul\":4654:4659   */\n      dup3\n        /* \"#utility.yul\":4636:4660   */\n      tag_53\n      jump\t// in\n    tag_119:\n        /* \"#utility.yul\":4625:4660   */\n      swap1\n      pop\n        /* \"#utility.yul\":4570:4666   */\n      swap2\n      swap1\n      pop\n      jump\t// out\n        /* \"#utility.yul\":4672:4790   */\n    tag_55:\n        /* \"#utility.yul\":4759:4783   */\n      tag_121\n        /* \"#utility.yul\":4777:4782   */\n      dup2\n        /* \"#utility.yul\":4759:4783   */\n      tag_54\n      jump\t// in\n    tag_121:\n        /* \"#utility.yul\":4754:4757   */\n      dup3\n        /* \"#utility.yul\":4747:4784   */\n      mstore\n        /* \"#utility.yul\":4672:4790   */\n      pop\n      pop\n      jump\t// out\n        /* \"#utility.yul\":4796:5018   */\n    tag_24:\n        /* \"#utility.yul\":4889:4893   */\n      0x00\n        /* \"#utility.yul\":4927:4929   */\n      0x20\n        /* \"#utility.yul\":4916:4925   */\n      dup3\n        /* \"#utility.yul\":4912:4930   */\n      add\n        /* \"#utility.yul\":4904:4930   */\n      swap1\n      pop\n        /* \"#utility.yul\":4940:5011   */\n      tag_123\n        /* \"#utility.yul\":5008:5009   */\n      0x00\n        /* \"#utility.yul\":4997:5006   */\n      dup4\n        /* \"#utility.yul\":4993:5010   */\n      add\n        /* \"#utility.yul\":4984:4990   */\n      dup5\n        /* \"#utility.yul\":4940:5011   */\n      tag_55\n      jump\t// in\n    tag_123:\n        /* \"#utility.yul\":4796:5018   */\n      swap3\n      swap2\n      pop\n      pop\n      jump\t// out\n        /* \"#utility.yul\":5024:5193   */\n    tag_56:\n        /* \"#utility.yul\":5108:5119   */\n      0x00\n        /* \"#utility.yul\":5142:5148   */\n      dup3\n        /* \"#utility.yul\":5137:5140   */\n      dup3\n        /* \"#utility.yul\":5130:5149   */\n      mstore\n        /* \"#utility.yul\":5182:5186   */\n      0x20\n        /* \"#utility.yul\":5177:5180   */\n      dup3\n        /* \"#utility.yul\":5173:5187   */\n      add\n        /* \"#utility.yul\":5158:5187   */\n      swap1\n      pop\n        /* \"#utility.yul\":5024:5193   */\n      swap3\n      swap2\n      pop\n      pop\n      jump\t// out\n        /* \"#utility.yul\":5199:5361   */\n    tag_57:\n        /* \"#utility.yul\":5339:5353   */\n      0x4e6f7420616e2061646d696e0000000000000000000000000000000000000000\n        /* \"#utility.yul\":5335:5336   */\n      0x00\n        /* \"#utility.yul\":5327:5333   */\n      dup3\n        /* \"#utility.yul\":5323:5337   */\n      add\n        /* \"#utility.yul\":5316:5354   */\n      mstore\n        /* \"#utility.yul\":5199:5361   */\n      pop\n      jump\t// out\n        /* \"#utility.yul\":5367:5733   */\n    tag_58:\n        /* \"#utility.yul\":5509:5512   */\n      0x00\n        /* \"#utility.yul\":5530:5597   */\n      tag_127\n        /* \"#utility.yul\":5594:5596   */\n      0x0c\n        /* \"#utility.yul\":5589:5592   */\n      dup4\n        /* \"#utility.yul\":5530:5597   */\n      tag_56\n      jump\t// in\n    tag_127:\n        /* \"#utility.yul\":5523:5597   */\n      swap2\n      pop\n        /* \"#utility.yul\":5606:5699   */\n      tag_128\n        /* \"#utility.yul\":5695:5698   */\n      dup3\n        /* \"#utility.yul\":5606:5699   */\n      tag_57\n      jump\t// in\n    tag_128:\n        /* \"#utility.yul\":5724:5726   */\n      0x20\n        /* \"#utility.yul\":5719:5722   */\n      dup3\n        /* \"#utility.yul\":5715:5727   */\n      add\n        /* \"#utility.yul\":5708:5727   */\n      swap1\n      pop\n        /* \"#utility.yul\":5367:5733   */\n      swap2\n      swap1\n      pop\n      jump\t// out\n        /* \"#utility.yul\":5739:6158   */\n    tag_28:\n        /* \"#utility.yul\":5905:5909   */\n      0x00\n        /* \"#utility.yul\":5943:5945   */\n      0x20\n        /* \"#utility.yul\":5932:5941   */\n      dup3\n        /* \"#utility.yul\":5928:5946   */\n      add\n        /* \"#utility.yul\":5920:5946   */\n      swap1\n      pop\n        /* \"#utility.yul\":5992:6001   */\n      dup2\n        /* \"#utility.yul\":5986:5990   */\n      dup2\n        /* \"#utility.yul\":5982:6002   */\n      sub\n        /* \"#utility.yul\":5978:5979   */\n      0x00\n        /* \"#utility.yul\":5967:5976   */\n      dup4\n        /* \"#utility.yul\":5963:5980   */\n      add\n        /* \"#utility.yul\":5956:6003   */\n      mstore\n        /* \"#utility.yul\":6020:6151   */\n      tag_130\n        /* \"#utility.yul\":6146:6150   */\n      dup2\n        /* \"#utility.yul\":6020:6151   */\n      tag_58\n      jump\t// in\n    tag_130:\n        /* \"#utility.yul\":6012:6151   */\n      swap1\n      pop\n        /* \"#utility.yul\":5739:6158   */\n      swap2\n      swap1\n      pop\n      jump\t// out\n        /* \"#utility.yul\":6164:6263   */\n    tag_59:\n        /* \"#utility.yul\":6216:6222   */\n      0x00\n        /* \"#utility.yul\":6250:6255   */\n      dup2\n        /* \"#utility.yul\":6244:6256   */\n      mload\n        /* \"#utility.yul\":6234:6256   */\n      swap1\n      pop\n        /* \"#utility.yul\":6164:6263   */\n      swap2\n      swap1\n      pop\n      jump\t// out\n        /* \"#utility.yul\":6269:6417   */\n    tag_60:\n        /* \"#utility.yul\":6371:6382   */\n      0x00\n        /* \"#utility.yul\":6408:6411   */\n      dup2\n        /* \"#utility.yul\":6393:6411   */\n      swap1\n      pop\n        /* \"#utility.yul\":6269:6417   */\n      swap3\n      swap2\n      pop\n      pop\n      jump\t// out\n        /* \"#utility.yul\":6423:6562   */\n    tag_61:\n        /* \"#utility.yul\":6512:6518   */\n      dup3\n        /* \"#utility.yul\":6507:6510   */\n      dup2\n        /* \"#utility.yul\":6502:6505   */\n      dup4\n        /* \"#utility.yul\":6496:6519   */\n      mcopy\n        /* \"#utility.yul\":6553:6554   */\n      0x00\n        /* \"#utility.yul\":6544:6550   */\n      dup4\n        /* \"#utility.yul\":6539:6542   */\n      dup4\n        /* \"#utility.yul\":6535:6551   */\n      add\n        /* \"#utility.yul\":6528:6555   */\n      mstore\n        /* \"#utility.yul\":6423:6562   */\n      pop\n      pop\n      pop\n      jump\t// out\n        /* \"#utility.yul\":6568:6958   */\n    tag_62:\n        /* \"#utility.yul\":6674:6677   */\n      0x00\n        /* \"#utility.yul\":6702:6741   */\n      tag_135\n        /* \"#utility.yul\":6735:6740   */\n      dup3\n        /* \"#utility.yul\":6702:6741   */\n      tag_59\n      jump\t// in\n    tag_135:\n        /* \"#utility.yul\":6757:6846   */\n      tag_136\n        /* \"#utility.yul\":6839:6845   */\n      dup2\n        /* \"#utility.yul\":6834:6837   */\n      dup6\n        /* \"#utility.yul\":6757:6846   */\n      tag_60\n      jump\t// in\n    tag_136:\n        /* \"#utility.yul\":6750:6846   */\n      swap4\n      pop\n        /* \"#utility.yul\":6855:6920   */\n      tag_137\n        /* \"#utility.yul\":6913:6919   */\n      dup2\n        /* \"#utility.yul\":6908:6911   */\n      dup6\n        /* \"#utility.yul\":6901:6905   */\n      0x20\n        /* \"#utility.yul\":6894:6899   */\n      dup7\n        /* \"#utility.yul\":6890:6906   */\n      add\n        /* \"#utility.yul\":6855:6920   */\n      tag_61\n      jump\t// in\n    tag_137:\n        /* \"#utility.yul\":6945:6951   */\n      dup1\n        /* \"#utility.yul\":6940:6943   */\n      dup5\n        /* \"#utility.yul\":6936:6952   */\n      add\n        /* \"#utility.yul\":6929:6952   */\n      swap2\n      pop\n        /* \"#utility.yul\":6678:6958   */\n      pop\n        /* \"#utility.yul\":6568:6958   */\n      swap3\n      swap2\n      pop\n      pop\n      jump\t// out\n        /* \"#utility.yul\":6964:7239   */\n    tag_31:\n        /* \"#utility.yul\":7096:7099   */\n      0x00\n        /* \"#utility.yul\":7118:7213   */\n      tag_139\n        /* \"#utility.yul\":7209:7212   */\n      dup3\n        /* \"#utility.yul\":7200:7206   */\n      dup5\n        /* \"#utility.yul\":7118:7213   */\n      tag_62\n      jump\t// in\n    tag_139:\n        /* \"#utility.yul\":7111:7213   */\n      swap2\n      pop\n        /* \"#utility.yul\":7230:7233   */\n      dup2\n        /* \"#utility.yul\":7223:7233   */\n      swap1\n      pop\n        /* \"#utility.yul\":6964:7239   */\n      swap3\n      swap2\n      pop\n      pop\n      jump\t// out\n        /* \"#utility.yul\":7245:7622   */\n    tag_63:\n        /* \"#utility.yul\":7333:7336   */\n      0x00\n        /* \"#utility.yul\":7361:7400   */\n      tag_141\n        /* \"#utility.yul\":7394:7399   */\n      dup3\n        /* \"#utility.yul\":7361:7400   */\n      tag_59\n      jump\t// in\n    tag_141:\n        /* \"#utility.yul\":7416:7487   */\n      tag_142\n        /* \"#utility.yul\":7480:7486   */\n      dup2\n        /* \"#utility.yul\":7475:7478   */\n      dup6\n        /* \"#utility.yul\":7416:7487   */\n      tag_56\n      jump\t// in\n    tag_142:\n        /* \"#utility.yul\":7409:7487   */\n      swap4\n      pop\n        /* \"#utility.yul\":7496:7561   */\n      tag_143\n        /* \"#utility.yul\":7554:7560   */\n      dup2\n        /* \"#utility.yul\":7549:7552   */\n      dup6\n        /* \"#utility.yul\":7542:7546   */\n      0x20\n        /* \"#utility.yul\":7535:7540   */\n      dup7\n        /* \"#utility.yul\":7531:7547   */\n      add\n        /* \"#utility.yul\":7496:7561   */\n      tag_61\n      jump\t// in\n    tag_143:\n        /* \"#utility.yul\":7586:7615   */\n      tag_144\n        /* \"#utility.yul\":7608:7614   */\n      dup2\n        /* \"#utility.yul\":7586:7615   */\n      tag_41\n      jump\t// in\n    tag_144:\n        /* \"#utility.yul\":7581:7584   */\n      dup5\n        /* \"#utility.yul\":7577:7616   */\n      add\n        /* \"#utility.yul\":7570:7616   */\n      swap2\n      pop\n        /* \"#utility.yul\":7337:7622   */\n      pop\n        /* \"#utility.yul\":7245:7622   */\n      swap3\n      swap2\n      pop\n      pop\n      jump\t// out\n        /* \"#utility.yul\":7628:8051   */\n    tag_33:\n        /* \"#utility.yul\":7769:7773   */\n      0x00\n        /* \"#utility.yul\":7807:7809   */\n      0x40\n        /* \"#utility.yul\":7796:7805   */\n      dup3\n        /* \"#utility.yul\":7792:7810   */\n      add\n        /* \"#utility.yul\":7784:7810   */\n      swap1\n      pop\n        /* \"#utility.yul\":7856:7865   */\n      dup2\n        /* \"#utility.yul\":7850:7854   */\n      dup2\n        /* \"#utility.yul\":7846:7866   */\n      sub\n        /* \"#utility.yul\":7842:7843   */\n      0x00\n        /* \"#utility.yul\":7831:7840   */\n      dup4\n        /* \"#utility.yul\":7827:7844   */\n      add\n        /* \"#utility.yul\":7820:7867   */\n      mstore\n        /* \"#utility.yul\":7884:7962   */\n      tag_146\n        /* \"#utility.yul\":7957:7961   */\n      dup2\n        /* \"#utility.yul\":7948:7954   */\n      dup6\n        /* \"#utility.yul\":7884:7962   */\n      tag_63\n      jump\t// in\n    tag_146:\n        /* \"#utility.yul\":7876:7962   */\n      swap1\n      pop\n        /* \"#utility.yul\":7972:8044   */\n      tag_147\n        /* \"#utility.yul\":8040:8042   */\n      0x20\n        /* \"#utility.yul\":8029:8038   */\n      dup4\n        /* \"#utility.yul\":8025:8043   */\n      add\n        /* \"#utility.yul\":8016:8022   */\n      dup5\n        /* \"#utility.yul\":7972:8044   */\n      tag_52\n      jump\t// in\n    tag_147:\n        /* \"#utility.yul\":7628:8051   */\n      swap4\n      swap3\n      pop\n      pop\n      pop\n      jump\t// out\n\n    auxdata: 0xa26469706673582212201dc437f3540da1259a8484cd4ada9858a7f6deb6deb44f4fcb2992f37643d7d964736f6c634300081a0033\n}\n",
				"bytecode": {
					"linkReferences": {},
					"object": "6080604052348015600e575f80fd5b50335f806101000a81548173ffffffffffffffffffffffffffffffffffffffff021916908373ffffffffffffffffffffffffffffffffffffffff1602179055506106698061005b5f395ff3fe608060405234801561000f575f80fd5b506004361061004a575f3560e01c806322e011921461004e578063524f38891461006a578063c3825f4b1461009a578063f851a440146100ca575b5f80fd5b610068600480360381019061006391906103cc565b6100e8565b005b610084600480360381019061007f9190610426565b6101d5565b604051610091919061047c565b60405180910390f35b6100b460048036038101906100af9190610426565b6101fc565b6040516100c1919061047c565b60405180910390f35b6100d2610229565b6040516100df91906104d4565b60405180910390f35b5f8054906101000a900473ffffffffffffffffffffffffffffffffffffffff1673ffffffffffffffffffffffffffffffffffffffff163373ffffffffffffffffffffffffffffffffffffffff1614610175576040517f08c379a000000000000000000000000000000000000000000000000000000000815260040161016c90610547565b60405180910390fd5b8060018360405161018691906105b7565b9081526020016040518091039020819055507f159e83f4712ba2552e68be9d848e49bf6dd35c24f19564ffd523b6549450a2f482826040516101c9929190610605565b60405180910390a15050565b5f6001826040516101e691906105b7565b9081526020016040518091039020549050919050565b6001818051602081018201805184825260208301602085012081835280955050505050505f915090505481565b5f8054906101000a900473ffffffffffffffffffffffffffffffffffffffff1681565b5f604051905090565b5f80fd5b5f80fd5b5f80fd5b5f80fd5b5f601f19601f8301169050919050565b7f4e487b71000000000000000000000000000000000000000000000000000000005f52604160045260245ffd5b6102ab82610265565b810181811067ffffffffffffffff821117156102ca576102c9610275565b5b80604052505050565b5f6102dc61024c565b90506102e882826102a2565b919050565b5f67ffffffffffffffff82111561030757610306610275565b5b61031082610265565b9050602081019050919050565b828183375f83830152505050565b5f61033d610338846102ed565b6102d3565b90508281526020810184848401111561035957610358610261565b5b61036484828561031d565b509392505050565b5f82601f8301126103805761037f61025d565b5b813561039084826020860161032b565b91505092915050565b5f819050919050565b6103ab81610399565b81146103b5575f80fd5b50565b5f813590506103c6816103a2565b92915050565b5f80604083850312156103e2576103e1610255565b5b5f83013567ffffffffffffffff8111156103ff576103fe610259565b5b61040b8582860161036c565b925050602061041c858286016103b8565b9150509250929050565b5f6020828403121561043b5761043a610255565b5b5f82013567ffffffffffffffff81111561045857610457610259565b5b6104648482850161036c565b91505092915050565b61047681610399565b82525050565b5f60208201905061048f5f83018461046d565b92915050565b5f73ffffffffffffffffffffffffffffffffffffffff82169050919050565b5f6104be82610495565b9050919050565b6104ce816104b4565b82525050565b5f6020820190506104e75f8301846104c5565b92915050565b5f82825260208201905092915050565b7f4e6f7420616e2061646d696e00000000000000000000000000000000000000005f82015250565b5f610531600c836104ed565b915061053c826104fd565b602082019050919050565b5f6020820190508181035f83015261055e81610525565b9050919050565b5f81519050919050565b5f81905092915050565b8281835e5f83830152505050565b5f61059182610565565b61059b818561056f565b93506105ab818560208601610579565b80840191505092915050565b5f6105c28284610587565b915081905092915050565b5f6105d782610565565b6105e181856104ed565b93506105f1818560208601610579565b6105fa81610265565b840191505092915050565b5f6040820190508181035f83015261061d81856105cd565b905061062c602083018461046d565b939250505056fea26469706673582212201dc437f3540da1259a8484cd4ada9858a7f6deb6deb44f4fcb2992f37643d7d964736f6c634300081a0033",
					"opcodes": "PUSH1 0x80 PUSH1 0x40 MSTORE CALLVALUE DUP1 ISZERO PUSH1 0xE JUMPI PUSH0 DUP1 REVERT JUMPDEST POP CALLER PUSH0 DUP1 PUSH2 0x100 EXP DUP2 SLOAD DUP2 PUSH20 0xFFFFFFFFFFFFFFFFFFFFFFFFFFFFFFFFFFFFFFFF MUL NOT AND SWAP1 DUP4 PUSH20 0xFFFFFFFFFFFFFFFFFFFFFFFFFFFFFFFFFFFFFFFF AND MUL OR SWAP1 SSTORE POP PUSH2 0x669 DUP1 PUSH2 0x5B PUSH0 CODECOPY PUSH0 RETURN INVALID PUSH1 0x80 PUSH1 0x40 MSTORE CALLVALUE DUP1 ISZERO PUSH2 0xF JUMPI PUSH0 DUP1 REVERT JUMPDEST POP PUSH1 0x4 CALLDATASIZE LT PUSH2 0x4A JUMPI PUSH0 CALLDATALOAD PUSH1 0xE0 SHR DUP1 PUSH4 0x22E01192 EQ PUSH2 0x4E JUMPI DUP1 PUSH4 0x524F3889 EQ PUSH2 0x6A JUMPI DUP1 PUSH4 0xC3825F4B EQ PUSH2 0x9A JUMPI DUP1 PUSH4 0xF851A440 EQ PUSH2 0xCA JUMPI JUMPDEST PUSH0 DUP1 REVERT JUMPDEST PUSH2 0x68 PUSH1 0x4 DUP1 CALLDATASIZE SUB DUP2 ADD SWAP1 PUSH2 0x63 SWAP2 SWAP1 PUSH2 0x3CC JUMP JUMPDEST PUSH2 0xE8 JUMP JUMPDEST STOP JUMPDEST PUSH2 0x84 PUSH1 0x4 DUP1 CALLDATASIZE SUB DUP2 ADD SWAP1 PUSH2 0x7F SWAP2 SWAP1 PUSH2 0x426 JUMP JUMPDEST PUSH2 0x1D5 JUMP JUMPDEST PUSH1 0x40 MLOAD PUSH2 0x91 SWAP2 SWAP1 PUSH2 0x47C JUMP JUMPDEST PUSH1 0x40 MLOAD DUP1 SWAP2 SUB SWAP1 RETURN JUMPDEST PUSH2 0xB4 PUSH1 0x4 DUP1 CALLDATASIZE SUB DUP2 ADD SWAP1 PUSH2 0xAF SWAP2 SWAP1 PUSH2 0x426 JUMP JUMPDEST PUSH2 0x1FC JUMP JUMPDEST PUSH1 0x40 MLOAD PUSH2 0xC1 SWAP2 SWAP1 PUSH2 0x47C JUMP JUMPDEST PUSH1 0x40 MLOAD DUP1 SWAP2 SUB SWAP1 RETURN JUMPDEST PUSH2 0xD2 PUSH2 0x229 JUMP JUMPDEST PUSH1 0x40 MLOAD PUSH2 0xDF SWAP2 SWAP1 PUSH2 0x4D4 JUMP JUMPDEST PUSH1 0x40 MLOAD DUP1 SWAP2 SUB SWAP1 RETURN JUMPDEST PUSH0 DUP1 SLOAD SWAP1 PUSH2 0x100 EXP SWAP1 DIV PUSH20 0xFFFFFFFFFFFFFFFFFFFFFFFFFFFFFFFFFFFFFFFF AND PUSH20 0xFFFFFFFFFFFFFFFFFFFFFFFFFFFFFFFFFFFFFFFF AND CALLER PUSH20 0xFFFFFFFFFFFFFFFFFFFFFFFFFFFFFFFFFFFFFFFF AND EQ PUSH2 0x175 JUMPI PUSH1 0x40 MLOAD PUSH32 0x8C379A000000000000000000000000000000000000000000000000000000000 DUP2 MSTORE PUSH1 0x4 ADD PUSH2 0x16C SWAP1 PUSH2 0x547 JUMP JUMPDEST PUSH1 0x40 MLOAD DUP1 SWAP2 SUB SWAP1 REVERT JUMPDEST DUP1 PUSH1 0x1 DUP4 PUSH1 0x40 MLOAD PUSH2 0x186 SWAP2 SWAP1 PUSH2 0x5B7 JUMP JUMPDEST SWAP1 DUP2 MSTORE PUSH1 0x20 ADD PUSH1 0x40 MLOAD DUP1 SWAP2 SUB SWAP1 KECCAK256 DUP2 SWAP1 SSTORE POP PUSH32 0x159E83F4712BA2552E68BE9D848E49BF6DD35C24F19564FFD523B6549450A2F4 DUP3 DUP3 PUSH1 0x40 MLOAD PUSH2 0x1C9 SWAP3 SWAP2 SWAP1 PUSH2 0x605 JUMP JUMPDEST PUSH1 0x40 MLOAD DUP1 SWAP2 SUB SWAP1 LOG1 POP POP JUMP JUMPDEST PUSH0 PUSH1 0x1 DUP3 PUSH1 0x40 MLOAD PUSH2 0x1E6 SWAP2 SWAP1 PUSH2 0x5B7 JUMP JUMPDEST SWAP1 DUP2 MSTORE PUSH1 0x20 ADD PUSH1 0x40 MLOAD DUP1 SWAP2 SUB SWAP1 KECCAK256 SLOAD SWAP1 POP SWAP2 SWAP1 POP JUMP JUMPDEST PUSH1 0x1 DUP2 DUP1 MLOAD PUSH1 0x20 DUP2 ADD DUP3 ADD DUP1 MLOAD DUP5 DUP3 MSTORE PUSH1 0x20 DUP4 ADD PUSH1 0x20 DUP6 ADD KECCAK256 DUP2 DUP4 MSTORE DUP1 SWAP6 POP POP POP POP POP POP PUSH0 SWAP2 POP SWAP1 POP SLOAD DUP2 JUMP JUMPDEST PUSH0 DUP1 SLOAD SWAP1 PUSH2 0x100 EXP SWAP1 DIV PUSH20 0xFFFFFFFFFFFFFFFFFFFFFFFFFFFFFFFFFFFFFFFF AND DUP2 JUMP JUMPDEST PUSH0 PUSH1 0x40 MLOAD SWAP1 POP SWAP1 JUMP JUMPDEST PUSH0 DUP1 REVERT JUMPDEST PUSH0 DUP1 REVERT JUMPDEST PUSH0 DUP1 REVERT JUMPDEST PUSH0 DUP1 REVERT JUMPDEST PUSH0 PUSH1 0x1F NOT PUSH1 0x1F DUP4 ADD AND SWAP1 POP SWAP2 SWAP1 POP JUMP JUMPDEST PUSH32 0x4E487B7100000000000000000000000000000000000000000000000000000000 PUSH0 MSTORE PUSH1 0x41 PUSH1 0x4 MSTORE PUSH1 0x24 PUSH0 REVERT JUMPDEST PUSH2 0x2AB DUP3 PUSH2 0x265 JUMP JUMPDEST DUP2 ADD DUP2 DUP2 LT PUSH8 0xFFFFFFFFFFFFFFFF DUP3 GT OR ISZERO PUSH2 0x2CA JUMPI PUSH2 0x2C9 PUSH2 0x275 JUMP JUMPDEST JUMPDEST DUP1 PUSH1 0x40 MSTORE POP POP POP JUMP JUMPDEST PUSH0 PUSH2 0x2DC PUSH2 0x24C JUMP JUMPDEST SWAP1 POP PUSH2 0x2E8 DUP3 DUP3 PUSH2 0x2A2 JUMP JUMPDEST SWAP2 SWAP1 POP JUMP JUMPDEST PUSH0 PUSH8 0xFFFFFFFFFFFFFFFF DUP3 GT ISZERO PUSH2 0x307 JUMPI PUSH2 0x306 PUSH2 0x275 JUMP JUMPDEST JUMPDEST PUSH2 0x310 DUP3 PUSH2 0x265 JUMP JUMPDEST SWAP1 POP PUSH1 0x20 DUP2 ADD SWAP1 POP SWAP2 SWAP1 POP JUMP JUMPDEST DUP3 DUP2 DUP4 CALLDATACOPY PUSH0 DUP4 DUP4 ADD MSTORE POP POP POP JUMP JUMPDEST PUSH0 PUSH2 0x33D PUSH2 0x338 DUP5 PUSH2 0x2ED JUMP JUMPDEST PUSH2 0x2D3 JUMP JUMPDEST SWAP1 POP DUP3 DUP2 MSTORE PUSH1 0x20 DUP2 ADD DUP5 DUP5 DUP5 ADD GT ISZERO PUSH2 0x359 JUMPI PUSH2 0x358 PUSH2 0x261 JUMP JUMPDEST JUMPDEST PUSH2 0x364 DUP5 DUP3 DUP6 PUSH2 0x31D JUMP JUMPDEST POP SWAP4 SWAP3 POP POP POP JUMP JUMPDEST PUSH0 DUP3 PUSH1 0x1F DUP4 ADD SLT PUSH2 0x380 JUMPI PUSH2 0x37F PUSH2 0x25D JUMP JUMPDEST JUMPDEST DUP2 CALLDATALOAD PUSH2 0x390 DUP5 DUP3 PUSH1 0x20 DUP7 ADD PUSH2 0x32B JUMP JUMPDEST SWAP2 POP POP SWAP3 SWAP2 POP POP JUMP JUMPDEST PUSH0 DUP2 SWAP1 POP SWAP2 SWAP1 POP JUMP JUMPDEST PUSH2 0x3AB DUP2 PUSH2 0x399 JUMP JUMPDEST DUP2 EQ PUSH2 0x3B5 JUMPI PUSH0 DUP1 REVERT JUMPDEST POP JUMP JUMPDEST PUSH0 DUP2 CALLDATALOAD SWAP1 POP PUSH2 0x3C6 DUP2 PUSH2 0x3A2 JUMP JUMPDEST SWAP3 SWAP2 POP POP JUMP JUMPDEST PUSH0 DUP1 PUSH1 0x40 DUP4 DUP6 SUB SLT ISZERO PUSH2 0x3E2 JUMPI PUSH2 0x3E1 PUSH2 0x255 JUMP JUMPDEST JUMPDEST PUSH0 DUP4 ADD CALLDATALOAD PUSH8 0xFFFFFFFFFFFFFFFF DUP2 GT ISZERO PUSH2 0x3FF JUMPI PUSH2 0x3FE PUSH2 0x259 JUMP JUMPDEST JUMPDEST PUSH2 0x40B DUP6 DUP3 DUP7 ADD PUSH2 0x36C JUMP JUMPDEST SWAP3 POP POP PUSH1 0x20 PUSH2 0x41C DUP6 DUP3 DUP7 ADD PUSH2 0x3B8 JUMP JUMPDEST SWAP2 POP POP SWAP3 POP SWAP3 SWAP1 POP JUMP JUMPDEST PUSH0 PUSH1 0x20 DUP3 DUP5 SUB SLT ISZERO PUSH2 0x43B JUMPI PUSH2 0x43A PUSH2 0x255 JUMP JUMPDEST JUMPDEST PUSH0 DUP3 ADD CALLDATALOAD PUSH8 0xFFFFFFFFFFFFFFFF DUP2 GT ISZERO PUSH2 0x458 JUMPI PUSH2 0x457 PUSH2 0x259 JUMP JUMPDEST JUMPDEST PUSH2 0x464 DUP5 DUP3 DUP6 ADD PUSH2 0x36C JUMP JUMPDEST SWAP2 POP POP SWAP3 SWAP2 POP POP JUMP JUMPDEST PUSH2 0x476 DUP2 PUSH2 0x399 JUMP JUMPDEST DUP3 MSTORE POP POP JUMP JUMPDEST PUSH0 PUSH1 0x20 DUP3 ADD SWAP1 POP PUSH2 0x48F PUSH0 DUP4 ADD DUP5 PUSH2 0x46D JUMP JUMPDEST SWAP3 SWAP2 POP POP JUMP JUMPDEST PUSH0 PUSH20 0xFFFFFFFFFFFFFFFFFFFFFFFFFFFFFFFFFFFFFFFF DUP3 AND SWAP1 POP SWAP2 SWAP1 POP JUMP JUMPDEST PUSH0 PUSH2 0x4BE DUP3 PUSH2 0x495 JUMP JUMPDEST SWAP1 POP SWAP2 SWAP1 POP JUMP JUMPDEST PUSH2 0x4CE DUP2 PUSH2 0x4B4 JUMP JUMPDEST DUP3 MSTORE POP POP JUMP JUMPDEST PUSH0 PUSH1 0x20 DUP3 ADD SWAP1 POP PUSH2 0x4E7 PUSH0 DUP4 ADD DUP5 PUSH2 0x4C5 JUMP JUMPDEST SWAP3 SWAP2 POP POP JUMP JUMPDEST PUSH0 DUP3 DUP3 MSTORE PUSH1 0x20 DUP3 ADD SWAP1 POP SWAP3 SWAP2 POP POP JUMP JUMPDEST PUSH32 0x4E6F7420616E2061646D696E0000000000000000000000000000000000000000 PUSH0 DUP3 ADD MSTORE POP JUMP JUMPDEST PUSH0 PUSH2 0x531 PUSH1 0xC DUP4 PUSH2 0x4ED JUMP JUMPDEST SWAP2 POP PUSH2 0x53C DUP3 PUSH2 0x4FD JUMP JUMPDEST PUSH1 0x20 DUP3 ADD SWAP1 POP SWAP2 SWAP1 POP JUMP JUMPDEST PUSH0 PUSH1 0x20 DUP3 ADD SWAP1 POP DUP2 DUP2 SUB PUSH0 DUP4 ADD MSTORE PUSH2 0x55E DUP2 PUSH2 0x525 JUMP JUMPDEST SWAP1 POP SWAP2 SWAP1 POP JUMP JUMPDEST PUSH0 DUP2 MLOAD SWAP1 POP SWAP2 SWAP1 POP JUMP JUMPDEST PUSH0 DUP2 SWAP1 POP SWAP3 SWAP2 POP POP JUMP JUMPDEST DUP3 DUP2 DUP4 MCOPY PUSH0 DUP4 DUP4 ADD MSTORE POP POP POP JUMP JUMPDEST PUSH0 PUSH2 0x591 DUP3 PUSH2 0x565 JUMP JUMPDEST PUSH2 0x59B DUP2 DUP6 PUSH2 0x56F JUMP JUMPDEST SWAP4 POP PUSH2 0x5AB DUP2 DUP6 PUSH1 0x20 DUP7 ADD PUSH2 0x579 JUMP JUMPDEST DUP1 DUP5 ADD SWAP2 POP POP SWAP3 SWAP2 POP POP JUMP JUMPDEST PUSH0 PUSH2 0x5C2 DUP3 DUP5 PUSH2 0x587 JUMP JUMPDEST SWAP2 POP DUP2 SWAP1 POP SWAP3 SWAP2 POP POP JUMP JUMPDEST PUSH0 PUSH2 0x5D7 DUP3 PUSH2 0x565 JUMP JUMPDEST PUSH2 0x5E1 DUP2 DUP6 PUSH2 0x4ED JUMP JUMPDEST SWAP4 POP PUSH2 0x5F1 DUP2 DUP6 PUSH1 0x20 DUP7 ADD PUSH2 0x579 JUMP JUMPDEST PUSH2 0x5FA DUP2 PUSH2 0x265 JUMP JUMPDEST DUP5 ADD SWAP2 POP POP SWAP3 SWAP2 POP POP JUMP JUMPDEST PUSH0 PUSH1 0x40 DUP3 ADD SWAP1 POP DUP2 DUP2 SUB PUSH0 DUP4 ADD MSTORE PUSH2 0x61D DUP2 DUP6 PUSH2 0x5CD JUMP JUMPDEST SWAP1 POP PUSH2 0x62C PUSH1 0x20 DUP4 ADD DUP5 PUSH2 0x46D JUMP JUMPDEST SWAP4 SWAP3 POP POP POP JUMP INVALID LOG2 PUSH5 0x6970667358 0x22 SLT KECCAK256 SAR 0xC4 CALLDATACOPY RETURN SLOAD 0xD LOG1 0x25 SWAP11 DUP5 DUP5 0xCD BLOBBASEFEE 0xDA SWAP9 PC 0xA7 0xF6 0xDE 0xB6 0xDE 0xB4 0x4F 0x4F 0xCB 0x29 SWAP3 RETURN PUSH23 0x43D7D964736F6C634300081A0033000000000000000000 "
				},
				"gasEstimates": {
					"creation": {
						"codeDepositCost": "328200",
						"executionCost": "24631",
						"totalCost": "352831"
					},
					"external": {
						"admin()": "2549",
						"getPrice(string)": "infinite",
						"prices(string)": "infinite",
						"setPrice(string,uint256)": "infinite"
					}
				},
				"methodIdentifiers": {
					"admin()": "f851a440",
					"getPrice(string)": "524f3889",
					"prices(string)": "c3825f4b",
					"setPrice(string,uint256)": "22e01192"
				}
			},
			"storageLayout": {
				"storage": [
					{
						"astId": 790,
						"contract": "contracts/Oracle.sol:Oracle",
						"label": "admin",
						"offset": 0,
						"slot": "0",
						"type": "t_address"
					},
					{
						"astId": 794,
						"contract": "contracts/Oracle.sol:Oracle",
						"label": "prices",
						"offset": 0,
						"slot": "1",
						"type": "t_mapping(t_string_memory_ptr,t_uint256)"
					}
				],
				"types": {
					"t_address": {
						"encoding": "inplace",
						"label": "address",
						"numberOfBytes": "20"
					},
					"t_mapping(t_string_memory_ptr,t_uint256)": {
						"encoding": "mapping",
						"key": "t_string_memory_ptr",
						"label": "mapping(string => uint256)",
						"numberOfBytes": "32",
						"value": "t_uint256"
					},
					"t_string_memory_ptr": {
						"encoding": "bytes",
						"label": "string",
						"numberOfBytes": "32"
					},
					"t_uint256": {
						"encoding": "inplace",
						"label": "uint256",
						"numberOfBytes": "32"
					}
				}
			},
			"userdoc": {
				"kind": "user",
				"methods": {},
				"version": 1
			}
		}
	}
}