{
	"contracts/OpenDex.sol": {
		"OpenDex": {
			"abi": [
				{
					"inputs": [
						{
							"internalType": "address",
							"name": "_tokenA",
							"type": "address"
						},
						{
							"internalType": "address",
							"name": "_tokenB",
							"type": "address"
						},
						{
							"internalType": "address",
							"name": "dynamicFeeAddress",
							"type": "address"
						}
					],
					"stateMutability": "nonpayable",
					"type": "constructor"
				},
				{
					"anonymous": false,
					"inputs": [
						{
							"indexed": false,
							"internalType": "uint256",
							"name": "newFee",
							"type": "uint256"
						}
					],
					"name": "FeeAdjusted",
					"type": "event"
				},
				{
					"anonymous": false,
					"inputs": [
						{
							"indexed": true,
							"internalType": "address",
							"name": "user",
							"type": "address"
						},
						{
							"indexed": false,
							"internalType": "uint256",
							"name": "amount",
							"type": "uint256"
						}
					],
					"name": "LiquidityIncentive",
					"type": "event"
				},
				{
					"anonymous": false,
					"inputs": [
						{
							"indexed": true,
							"internalType": "address",
							"name": "user",
							"type": "address"
						},
						{
							"indexed": false,
							"internalType": "uint256",
							"name": "amountIn",
							"type": "uint256"
						},
						{
							"indexed": false,
							"internalType": "uint256",
							"name": "amountOut",
							"type": "uint256"
						},
						{
							"indexed": false,
							"internalType": "uint256",
							"name": "fee",
							"type": "uint256"
						}
					],
					"name": "SwapExecuted",
					"type": "event"
				},
				{
					"inputs": [
						{
							"internalType": "uint256",
							"name": "_newFee",
							"type": "uint256"
						}
					],
					"name": "adjustFee",
					"outputs": [],
					"stateMutability": "nonpayable",
					"type": "function"
				},
				{
					"inputs": [
						{
							"internalType": "address",
							"name": "tokenA",
							"type": "address"
						},
						{
							"internalType": "address",
							"name": "tokenB",
							"type": "address"
						}
					],
					"name": "createCustomPair",
					"outputs": [
						{
							"internalType": "address",
							"name": "pair",
							"type": "address"
						}
					],
					"stateMutability": "nonpayable",
					"type": "function"
				},
				{
					"inputs": [],
					"name": "defaultFee",
					"outputs": [
						{
							"internalType": "uint256",
							"name": "",
							"type": "uint256"
						}
					],
					"stateMutability": "view",
					"type": "function"
				},
				{
					"inputs": [],
					"name": "dynamicFeeContract",
					"outputs": [
						{
							"internalType": "contract DynamicFee",
							"name": "",
							"type": "address"
						}
					],
					"stateMutability": "view",
					"type": "function"
				},
				{
					"inputs": [],
					"name": "factory",
					"outputs": [
						{
							"internalType": "address",
							"name": "",
							"type": "address"
						}
					],
					"stateMutability": "view",
					"type": "function"
				},
				{
					"inputs": [],
					"name": "governanceToken",
					"outputs": [
						{
							"internalType": "address",
							"name": "",
							"type": "address"
						}
					],
					"stateMutability": "view",
					"type": "function"
				},
				{
					"inputs": [
						{
							"internalType": "address",
							"name": "",
							"type": "address"
						}
					],
					"name": "isGovernanceMember",
					"outputs": [
						{
							"internalType": "bool",
							"name": "",
							"type": "bool"
						}
					],
					"stateMutability": "view",
					"type": "function"
				},
				{
					"inputs": [
						{
							"internalType": "address",
							"name": "_pair",
							"type": "address"
						},
						{
							"internalType": "uint256",
							"name": "_amount",
							"type": "uint256"
						}
					],
					"name": "provideLiquidityIncentive",
					"outputs": [],
					"stateMutability": "nonpayable",
					"type": "function"
				},
				{
					"inputs": [
						{
							"internalType": "uint256",
							"name": "amountIn",
							"type": "uint256"
						},
						{
							"internalType": "bool",
							"name": "isAToB",
							"type": "bool"
						}
					],
					"name": "swap",
					"outputs": [],
					"stateMutability": "nonpayable",
					"type": "function"
				},
				{
					"inputs": [],
					"name": "tokenA",
					"outputs": [
						{
							"internalType": "contract IERC20",
							"name": "",
							"type": "address"
						}
					],
					"stateMutability": "view",
					"type": "function"
				},
				{
					"inputs": [],
					"name": "tokenB",
					"outputs": [
						{
							"internalType": "contract IERC20",
							"name": "",
							"type": "address"
						}
					],
					"stateMutability": "view",
					"type": "function"
				},
				{
					"inputs": [
						{
							"internalType": "address",
							"name": "",
							"type": "address"
						}
					],
					"name": "userStakes",
					"outputs": [
						{
							"internalType": "uint256",
							"name": "",
							"type": "uint256"
						}
					],
					"stateMutability": "view",
					"type": "function"
				}
			],
			"devdoc": {
				"kind": "dev",
				"methods": {},
				"version": 1
			},
			"evm": {
				"assembly": "    /* \"contracts/OpenDex.sol\":289:2863  contract OpenDex {... */\n  mstore(0x40, 0x80)\n    /* \"contracts/OpenDex.sol\":450:451  3 */\n  0x03\n    /* \"contracts/OpenDex.sol\":425:451  uint public defaultFee = 3 */\n  0x02\n  sstore\n    /* \"contracts/OpenDex.sol\":668:880  constructor(address _tokenA, address _tokenB, address dynamicFeeAddress) {... */\n  callvalue\n  dup1\n  iszero\n  tag_1\n  jumpi\n  0x00\n  dup1\n  revert\ntag_1:\n  pop\n  mload(0x40)\n  sub(codesize, bytecodeSize)\n  dup1\n  bytecodeSize\n  dup4\n  codecopy\n  dup2\n  dup2\n  add\n  0x40\n  mstore\n  dup2\n  add\n  swap1\n  tag_2\n  swap2\n  swap1\n  tag_3\n  jump\t// in\ntag_2:\n    /* \"contracts/OpenDex.sol\":768:775  _tokenA */\n  dup3\n    /* \"contracts/OpenDex.sol\":752:758  tokenA */\n  0x03\n  0x00\n    /* \"contracts/OpenDex.sol\":752:776  tokenA = IERC20(_tokenA) */\n  0x0100\n  exp\n  dup2\n  sload\n  dup2\n  0xffffffffffffffffffffffffffffffffffffffff\n  mul\n  not\n  and\n  swap1\n  dup4\n  0xffffffffffffffffffffffffffffffffffffffff\n  and\n  mul\n  or\n  swap1\n  sstore\n  pop\n    /* \"contracts/OpenDex.sol\":803:810  _tokenB */\n  dup2\n    /* \"contracts/OpenDex.sol\":787:793  tokenB */\n  0x04\n  0x00\n    /* \"contracts/OpenDex.sol\":787:811  tokenB = IERC20(_tokenB) */\n  0x0100\n  exp\n  dup2\n  sload\n  dup2\n  0xffffffffffffffffffffffffffffffffffffffff\n  mul\n  not\n  and\n  swap1\n  dup4\n  0xffffffffffffffffffffffffffffffffffffffff\n  and\n  mul\n  or\n  swap1\n  sstore\n  pop\n    /* \"contracts/OpenDex.sol\":854:871  dynamicFeeAddress */\n  dup1\n    /* \"contracts/OpenDex.sol\":822:840  dynamicFeeContract */\n  0x05\n  0x00\n    /* \"contracts/OpenDex.sol\":822:872  dynamicFeeContract = DynamicFee(dynamicFeeAddress) */\n  0x0100\n  exp\n  dup2\n  sload\n  dup2\n  0xffffffffffffffffffffffffffffffffffffffff\n  mul\n  not\n  and\n  swap1\n  dup4\n  0xffffffffffffffffffffffffffffffffffffffff\n  and\n  mul\n  or\n  swap1\n  sstore\n  pop\n    /* \"contracts/OpenDex.sol\":668:880  constructor(address _tokenA, address _tokenB, address dynamicFeeAddress) {... */\n  pop\n  pop\n  pop\n    /* \"contracts/OpenDex.sol\":289:2863  contract OpenDex {... */\n  jump(tag_6)\n    /* \"#utility.yul\":88:205   */\ntag_8:\n    /* \"#utility.yul\":197:198   */\n  0x00\n    /* \"#utility.yul\":194:195   */\n  dup1\n    /* \"#utility.yul\":187:199   */\n  revert\n    /* \"#utility.yul\":334:460   */\ntag_10:\n    /* \"#utility.yul\":371:378   */\n  0x00\n    /* \"#utility.yul\":411:453   */\n  0xffffffffffffffffffffffffffffffffffffffff\n    /* \"#utility.yul\":404:409   */\n  dup3\n    /* \"#utility.yul\":400:454   */\n  and\n    /* \"#utility.yul\":389:454   */\n  swap1\n  pop\n    /* \"#utility.yul\":334:460   */\n  swap2\n  swap1\n  pop\n  jump\t// out\n    /* \"#utility.yul\":466:562   */\ntag_11:\n    /* \"#utility.yul\":503:510   */\n  0x00\n    /* \"#utility.yul\":532:556   */\n  tag_20\n    /* \"#utility.yul\":550:555   */\n  dup3\n    /* \"#utility.yul\":532:556   */\n  tag_10\n  jump\t// in\ntag_20:\n    /* \"#utility.yul\":521:556   */\n  swap1\n  pop\n    /* \"#utility.yul\":466:562   */\n  swap2\n  swap1\n  pop\n  jump\t// out\n    /* \"#utility.yul\":568:690   */\ntag_12:\n    /* \"#utility.yul\":641:665   */\n  tag_22\n    /* \"#utility.yul\":659:664   */\n  dup2\n    /* \"#utility.yul\":641:665   */\n  tag_11\n  jump\t// in\ntag_22:\n    /* \"#utility.yul\":634:639   */\n  dup2\n    /* \"#utility.yul\":631:666   */\n  eq\n    /* \"#utility.yul\":621:684   */\n  tag_23\n  jumpi\n    /* \"#utility.yul\":680:681   */\n  0x00\n    /* \"#utility.yul\":677:678   */\n  dup1\n    /* \"#utility.yul\":670:682   */\n  revert\n    /* \"#utility.yul\":621:684   */\ntag_23:\n    /* \"#utility.yul\":568:690   */\n  pop\n  jump\t// out\n    /* \"#utility.yul\":696:839   */\ntag_13:\n    /* \"#utility.yul\":753:758   */\n  0x00\n    /* \"#utility.yul\":784:790   */\n  dup2\n    /* \"#utility.yul\":778:791   */\n  mload\n    /* \"#utility.yul\":769:791   */\n  swap1\n  pop\n    /* \"#utility.yul\":800:833   */\n  tag_25\n    /* \"#utility.yul\":827:832   */\n  dup2\n    /* \"#utility.yul\":800:833   */\n  tag_12\n  jump\t// in\ntag_25:\n    /* \"#utility.yul\":696:839   */\n  swap3\n  swap2\n  pop\n  pop\n  jump\t// out\n    /* \"#utility.yul\":845:1508   */\ntag_3:\n    /* \"#utility.yul\":933:939   */\n  0x00\n    /* \"#utility.yul\":941:947   */\n  dup1\n    /* \"#utility.yul\":949:955   */\n  0x00\n    /* \"#utility.yul\":998:1000   */\n  0x60\n    /* \"#utility.yul\":986:995   */\n  dup5\n    /* \"#utility.yul\":977:984   */\n  dup7\n    /* \"#utility.yul\":973:996   */\n  sub\n    /* \"#utility.yul\":969:1001   */\n  slt\n    /* \"#utility.yul\":966:1085   */\n  iszero\n  tag_27\n  jumpi\n    /* \"#utility.yul\":1004:1083   */\n  tag_28\n  tag_8\n  jump\t// in\ntag_28:\n    /* \"#utility.yul\":966:1085   */\ntag_27:\n    /* \"#utility.yul\":1124:1125   */\n  0x00\n    /* \"#utility.yul\":1149:1213   */\n  tag_29\n    /* \"#utility.yul\":1205:1212   */\n  dup7\n    /* \"#utility.yul\":1196:1202   */\n  dup3\n    /* \"#utility.yul\":1185:1194   */\n  dup8\n    /* \"#utility.yul\":1181:1203   */\n  add\n    /* \"#utility.yul\":1149:1213   */\n  tag_13\n  jump\t// in\ntag_29:\n    /* \"#utility.yul\":1139:1213   */\n  swap4\n  pop\n    /* \"#utility.yul\":1095:1223   */\n  pop\n    /* \"#utility.yul\":1262:1264   */\n  0x20\n    /* \"#utility.yul\":1288:1352   */\n  tag_30\n    /* \"#utility.yul\":1344:1351   */\n  dup7\n    /* \"#utility.yul\":1335:1341   */\n  dup3\n    /* \"#utility.yul\":1324:1333   */\n  dup8\n    /* \"#utility.yul\":1320:1342   */\n  add\n    /* \"#utility.yul\":1288:1352   */\n  tag_13\n  jump\t// in\ntag_30:\n    /* \"#utility.yul\":1278:1352   */\n  swap3\n  pop\n    /* \"#utility.yul\":1233:1362   */\n  pop\n    /* \"#utility.yul\":1401:1403   */\n  0x40\n    /* \"#utility.yul\":1427:1491   */\n  tag_31\n    /* \"#utility.yul\":1483:1490   */\n  dup7\n    /* \"#utility.yul\":1474:1480   */\n  dup3\n    /* \"#utility.yul\":1463:1472   */\n  dup8\n    /* \"#utility.yul\":1459:1481   */\n  add\n    /* \"#utility.yul\":1427:1491   */\n  tag_13\n  jump\t// in\ntag_31:\n    /* \"#utility.yul\":1417:1491   */\n  swap2\n  pop\n    /* \"#utility.yul\":1372:1501   */\n  pop\n    /* \"#utility.yul\":845:1508   */\n  swap3\n  pop\n  swap3\n  pop\n  swap3\n  jump\t// out\n    /* \"contracts/OpenDex.sol\":289:2863  contract OpenDex {... */\ntag_6:\n  dataSize(sub_0)\n  dup1\n  dataOffset(sub_0)\n  0x00\n  codecopy\n  0x00\n  return\nstop\n\nsub_0: assembly {\n        /* \"contracts/OpenDex.sol\":289:2863  contract OpenDex {... */\n      mstore(0x40, 0x80)\n      callvalue\n      dup1\n      iszero\n      tag_1\n      jumpi\n      0x00\n      dup1\n      revert\n    tag_1:\n      pop\n      jumpi(tag_2, lt(calldatasize, 0x04))\n      shr(0xe0, calldataload(0x00))\n      dup1\n      0x8da7ad23\n      gt\n      tag_15\n      jumpi\n      dup1\n      0x8da7ad23\n      eq\n      tag_9\n      jumpi\n      dup1\n      0xc079c318\n      eq\n      tag_10\n      jumpi\n      dup1\n      0xc45a0155\n      eq\n      tag_11\n      jumpi\n      dup1\n      0xf61ea571\n      eq\n      tag_12\n      jumpi\n      dup1\n      0xf7655d56\n      eq\n      tag_13\n      jumpi\n      dup1\n      0xf96dae0a\n      eq\n      tag_14\n      jumpi\n      jump(tag_2)\n    tag_15:\n      dup1\n      0x0fc63d10\n      eq\n      tag_3\n      jumpi\n      dup1\n      0x2aea6605\n      eq\n      tag_4\n      jumpi\n      dup1\n      0x45c442e3\n      eq\n      tag_5\n      jumpi\n      dup1\n      0x5a6c72d0\n      eq\n      tag_6\n      jumpi\n      dup1\n      0x5f64b55b\n      eq\n      tag_7\n      jumpi\n      dup1\n      0x82224869\n      eq\n      tag_8\n      jumpi\n    tag_2:\n      0x00\n      dup1\n      revert\n        /* \"contracts/OpenDex.sol\":470:490  IERC20 public tokenA */\n    tag_3:\n      tag_16\n      tag_17\n      jump\t// in\n    tag_16:\n      mload(0x40)\n      tag_18\n      swap2\n      swap1\n      tag_19\n      jump\t// in\n    tag_18:\n      mload(0x40)\n      dup1\n      swap2\n      sub\n      swap1\n      return\n        /* \"contracts/OpenDex.sol\":888:1445  function swap(uint256 amountIn, bool isAToB) external {... */\n    tag_4:\n      tag_20\n      0x04\n      dup1\n      calldatasize\n      sub\n      dup2\n      add\n      swap1\n      tag_21\n      swap2\n      swap1\n      tag_22\n      jump\t// in\n    tag_21:\n      tag_23\n      jump\t// in\n    tag_20:\n      stop\n        /* \"contracts/OpenDex.sol\":2386:2649  function provideLiquidityIncentive(address _pair, uint _amount) external {... */\n    tag_5:\n      tag_24\n      0x04\n      dup1\n      calldatasize\n      sub\n      dup2\n      add\n      swap1\n      tag_25\n      swap2\n      swap1\n      tag_26\n      jump\t// in\n    tag_25:\n      tag_27\n      jump\t// in\n    tag_24:\n      stop\n        /* \"contracts/OpenDex.sol\":425:451  uint public defaultFee = 3 */\n    tag_6:\n      tag_28\n      tag_29\n      jump\t// in\n    tag_28:\n      mload(0x40)\n      tag_30\n      swap2\n      swap1\n      tag_31\n      jump\t// in\n    tag_30:\n      mload(0x40)\n      dup1\n      swap2\n      sub\n      swap1\n      return\n        /* \"contracts/OpenDex.sol\":497:517  IERC20 public tokenB */\n    tag_7:\n      tag_32\n      tag_33\n      jump\t// in\n    tag_32:\n      mload(0x40)\n      tag_34\n      swap2\n      swap1\n      tag_19\n      jump\t// in\n    tag_34:\n      mload(0x40)\n      dup1\n      swap2\n      sub\n      swap1\n      return\n        /* \"contracts/OpenDex.sol\":1764:1814  mapping(address => bool) public isGovernanceMember */\n    tag_8:\n      tag_35\n      0x04\n      dup1\n      calldatasize\n      sub\n      dup2\n      add\n      swap1\n      tag_36\n      swap2\n      swap1\n      tag_37\n      jump\t// in\n    tag_36:\n      tag_38\n      jump\t// in\n    tag_35:\n      mload(0x40)\n      tag_39\n      swap2\n      swap1\n      tag_40\n      jump\t// in\n    tag_39:\n      mload(0x40)\n      dup1\n      swap2\n      sub\n      swap1\n      return\n        /* \"contracts/OpenDex.sol\":1715:1757  mapping(address => uint) public userStakes */\n    tag_9:\n      tag_41\n      0x04\n      dup1\n      calldatasize\n      sub\n      dup2\n      add\n      swap1\n      tag_42\n      swap2\n      swap1\n      tag_37\n      jump\t// in\n    tag_42:\n      tag_43\n      jump\t// in\n    tag_41:\n      mload(0x40)\n      tag_44\n      swap2\n      swap1\n      tag_31\n      jump\t// in\n    tag_44:\n      mload(0x40)\n      dup1\n      swap2\n      sub\n      swap1\n      return\n        /* \"contracts/OpenDex.sol\":2124:2315  function adjustFee(uint _newFee) external onlyGovernance {... */\n    tag_10:\n      tag_45\n      0x04\n      dup1\n      calldatasize\n      sub\n      dup2\n      add\n      swap1\n      tag_46\n      swap2\n      swap1\n      tag_47\n      jump\t// in\n    tag_46:\n      tag_48\n      jump\t// in\n    tag_45:\n      stop\n        /* \"contracts/OpenDex.sol\":313:335  address public factory */\n    tag_11:\n      tag_49\n      tag_50\n      jump\t// in\n    tag_49:\n      mload(0x40)\n      tag_51\n      swap2\n      swap1\n      tag_52\n      jump\t// in\n    tag_51:\n      mload(0x40)\n      dup1\n      swap2\n      sub\n      swap1\n      return\n        /* \"contracts/OpenDex.sol\":2691:2860  function createCustomPair(address tokenA, address tokenB) external returns (address pair) {... */\n    tag_12:\n      tag_53\n      0x04\n      dup1\n      calldatasize\n      sub\n      dup2\n      add\n      swap1\n      tag_54\n      swap2\n      swap1\n      tag_55\n      jump\t// in\n    tag_54:\n      tag_56\n      jump\t// in\n    tag_53:\n      mload(0x40)\n      tag_57\n      swap2\n      swap1\n      tag_52\n      jump\t// in\n    tag_57:\n      mload(0x40)\n      dup1\n      swap2\n      sub\n      swap1\n      return\n        /* \"contracts/OpenDex.sol\":524:560  DynamicFee public dynamicFeeContract */\n    tag_13:\n      tag_58\n      tag_59\n      jump\t// in\n    tag_58:\n      mload(0x40)\n      tag_60\n      swap2\n      swap1\n      tag_61\n      jump\t// in\n    tag_60:\n      mload(0x40)\n      dup1\n      swap2\n      sub\n      swap1\n      return\n        /* \"contracts/OpenDex.sol\":342:372  address public governanceToken */\n    tag_14:\n      tag_62\n      tag_63\n      jump\t// in\n    tag_62:\n      mload(0x40)\n      tag_64\n      swap2\n      swap1\n      tag_52\n      jump\t// in\n    tag_64:\n      mload(0x40)\n      dup1\n      swap2\n      sub\n      swap1\n      return\n        /* \"contracts/OpenDex.sol\":470:490  IERC20 public tokenA */\n    tag_17:\n      0x03\n      0x00\n      swap1\n      sload\n      swap1\n      0x0100\n      exp\n      swap1\n      div\n      0xffffffffffffffffffffffffffffffffffffffff\n      and\n      dup2\n      jump\t// out\n        /* \"contracts/OpenDex.sol\":888:1445  function swap(uint256 amountIn, bool isAToB) external {... */\n    tag_23:\n        /* \"contracts/OpenDex.sol\":953:964  uint256 fee */\n      0x00\n        /* \"contracts/OpenDex.sol\":967:985  dynamicFeeContract */\n      0x05\n      0x00\n      swap1\n      sload\n      swap1\n      0x0100\n      exp\n      swap1\n      div\n      0xffffffffffffffffffffffffffffffffffffffff\n      and\n        /* \"contracts/OpenDex.sol\":967:999  dynamicFeeContract.getTradingFee */\n      0xffffffffffffffffffffffffffffffffffffffff\n      and\n      0x1bd8db03\n        /* \"contracts/OpenDex.sol\":967:1001  dynamicFeeContract.getTradingFee() */\n      mload(0x40)\n      dup2\n      0xffffffff\n      and\n      0xe0\n      shl\n      dup2\n      mstore\n      0x04\n      add\n      0x20\n      mload(0x40)\n      dup1\n      dup4\n      sub\n      dup2\n      dup7\n      gas\n      staticcall\n      iszero\n      dup1\n      iszero\n      tag_67\n      jumpi\n      returndatasize\n      0x00\n      dup1\n      returndatacopy\n      revert(0x00, returndatasize)\n    tag_67:\n      pop\n      pop\n      pop\n      pop\n      mload(0x40)\n      returndatasize\n      not(0x1f)\n      0x1f\n      dup3\n      add\n      and\n      dup3\n      add\n      dup1\n      0x40\n      mstore\n      pop\n      dup2\n      add\n      swap1\n      tag_68\n      swap2\n      swap1\n      tag_69\n      jump\t// in\n    tag_68:\n        /* \"contracts/OpenDex.sol\":953:1001  uint256 fee = dynamicFeeContract.getTradingFee() */\n      swap1\n      pop\n        /* \"contracts/OpenDex.sol\":1012:1029  uint256 amountOut */\n      0x00\n        /* \"contracts/OpenDex.sol\":1032:1067  getAmountOut(amountIn, fee, isAToB) */\n      tag_70\n        /* \"contracts/OpenDex.sol\":1045:1053  amountIn */\n      dup5\n        /* \"contracts/OpenDex.sol\":1055:1058  fee */\n      dup4\n        /* \"contracts/OpenDex.sol\":1060:1066  isAToB */\n      dup6\n        /* \"contracts/OpenDex.sol\":1032:1044  getAmountOut */\n      tag_71\n        /* \"contracts/OpenDex.sol\":1032:1067  getAmountOut(amountIn, fee, isAToB) */\n      jump\t// in\n    tag_70:\n        /* \"contracts/OpenDex.sol\":1012:1067  uint256 amountOut = getAmountOut(amountIn, fee, isAToB) */\n      swap1\n      pop\n        /* \"contracts/OpenDex.sol\":1084:1090  isAToB */\n      dup3\n        /* \"contracts/OpenDex.sol\":1080:1370  if (isAToB) {... */\n      iszero\n      tag_72\n      jumpi\n        /* \"contracts/OpenDex.sol\":1107:1113  tokenA */\n      0x03\n      0x00\n      swap1\n      sload\n      swap1\n      0x0100\n      exp\n      swap1\n      div\n      0xffffffffffffffffffffffffffffffffffffffff\n      and\n        /* \"contracts/OpenDex.sol\":1107:1126  tokenA.transferFrom */\n      0xffffffffffffffffffffffffffffffffffffffff\n      and\n      0x23b872dd\n        /* \"contracts/OpenDex.sol\":1127:1137  msg.sender */\n      caller\n        /* \"contracts/OpenDex.sol\":1147:1151  this */\n      address\n        /* \"contracts/OpenDex.sol\":1154:1162  amountIn */\n      dup8\n        /* \"contracts/OpenDex.sol\":1107:1163  tokenA.transferFrom(msg.sender, address(this), amountIn) */\n      mload(0x40)\n      dup5\n      0xffffffff\n      and\n      0xe0\n      shl\n      dup2\n      mstore\n      0x04\n      add\n      tag_73\n      swap4\n      swap3\n      swap2\n      swap1\n      tag_74\n      jump\t// in\n    tag_73:\n      0x20\n      mload(0x40)\n      dup1\n      dup4\n      sub\n      dup2\n      0x00\n      dup8\n      gas\n      call\n      iszero\n      dup1\n      iszero\n      tag_76\n      jumpi\n      returndatasize\n      0x00\n      dup1\n      returndatacopy\n      revert(0x00, returndatasize)\n    tag_76:\n      pop\n      pop\n      pop\n      pop\n      mload(0x40)\n      returndatasize\n      not(0x1f)\n      0x1f\n      dup3\n      add\n      and\n      dup3\n      add\n      dup1\n      0x40\n      mstore\n      pop\n      dup2\n      add\n      swap1\n      tag_77\n      swap2\n      swap1\n      tag_78\n      jump\t// in\n    tag_77:\n      pop\n        /* \"contracts/OpenDex.sol\":1178:1184  tokenB */\n      0x04\n      0x00\n      swap1\n      sload\n      swap1\n      0x0100\n      exp\n      swap1\n      div\n      0xffffffffffffffffffffffffffffffffffffffff\n      and\n        /* \"contracts/OpenDex.sol\":1178:1193  tokenB.transfer */\n      0xffffffffffffffffffffffffffffffffffffffff\n      and\n      0xa9059cbb\n        /* \"contracts/OpenDex.sol\":1194:1204  msg.sender */\n      caller\n        /* \"contracts/OpenDex.sol\":1206:1215  amountOut */\n      dup4\n        /* \"contracts/OpenDex.sol\":1178:1216  tokenB.transfer(msg.sender, amountOut) */\n      mload(0x40)\n      dup4\n      0xffffffff\n      and\n      0xe0\n      shl\n      dup2\n      mstore\n      0x04\n      add\n      tag_79\n      swap3\n      swap2\n      swap1\n      tag_80\n      jump\t// in\n    tag_79:\n      0x20\n      mload(0x40)\n      dup1\n      dup4\n      sub\n      dup2\n      0x00\n      dup8\n      gas\n      call\n      iszero\n      dup1\n      iszero\n      tag_82\n      jumpi\n      returndatasize\n      0x00\n      dup1\n      returndatacopy\n      revert(0x00, returndatasize)\n    tag_82:\n      pop\n      pop\n      pop\n      pop\n      mload(0x40)\n      returndatasize\n      not(0x1f)\n      0x1f\n      dup3\n      add\n      and\n      dup3\n      add\n      dup1\n      0x40\n      mstore\n      pop\n      dup2\n      add\n      swap1\n      tag_83\n      swap2\n      swap1\n      tag_78\n      jump\t// in\n    tag_83:\n      pop\n        /* \"contracts/OpenDex.sol\":1080:1370  if (isAToB) {... */\n      jump(tag_84)\n    tag_72:\n        /* \"contracts/OpenDex.sol\":1249:1255  tokenB */\n      0x04\n      0x00\n      swap1\n      sload\n      swap1\n      0x0100\n      exp\n      swap1\n      div\n      0xffffffffffffffffffffffffffffffffffffffff\n      and\n        /* \"contracts/OpenDex.sol\":1249:1268  tokenB.transferFrom */\n      0xffffffffffffffffffffffffffffffffffffffff\n      and\n      0x23b872dd\n        /* \"contracts/OpenDex.sol\":1269:1279  msg.sender */\n      caller\n        /* \"contracts/OpenDex.sol\":1289:1293  this */\n      address\n        /* \"contracts/OpenDex.sol\":1296:1304  amountIn */\n      dup8\n        /* \"contracts/OpenDex.sol\":1249:1305  tokenB.transferFrom(msg.sender, address(this), amountIn) */\n      mload(0x40)\n      dup5\n      0xffffffff\n      and\n      0xe0\n      shl\n      dup2\n      mstore\n      0x04\n      add\n      tag_85\n      swap4\n      swap3\n      swap2\n      swap1\n      tag_74\n      jump\t// in\n    tag_85:\n      0x20\n      mload(0x40)\n      dup1\n      dup4\n      sub\n      dup2\n      0x00\n      dup8\n      gas\n      call\n      iszero\n      dup1\n      iszero\n      tag_87\n      jumpi\n      returndatasize\n      0x00\n      dup1\n      returndatacopy\n      revert(0x00, returndatasize)\n    tag_87:\n      pop\n      pop\n      pop\n      pop\n      mload(0x40)\n      returndatasize\n      not(0x1f)\n      0x1f\n      dup3\n      add\n      and\n      dup3\n      add\n      dup1\n      0x40\n      mstore\n      pop\n      dup2\n      add\n      swap1\n      tag_88\n      swap2\n      swap1\n      tag_78\n      jump\t// in\n    tag_88:\n      pop\n        /* \"contracts/OpenDex.sol\":1320:1326  tokenA */\n      0x03\n      0x00\n      swap1\n      sload\n      swap1\n      0x0100\n      exp\n      swap1\n      div\n      0xffffffffffffffffffffffffffffffffffffffff\n      and\n        /* \"contracts/OpenDex.sol\":1320:1335  tokenA.transfer */\n      0xffffffffffffffffffffffffffffffffffffffff\n      and\n      0xa9059cbb\n        /* \"contracts/OpenDex.sol\":1336:1346  msg.sender */\n      caller\n        /* \"contracts/OpenDex.sol\":1348:1357  amountOut */\n      dup4\n        /* \"contracts/OpenDex.sol\":1320:1358  tokenA.transfer(msg.sender, amountOut) */\n      mload(0x40)\n      dup4\n      0xffffffff\n      and\n      0xe0\n      shl\n      dup2\n      mstore\n      0x04\n      add\n      tag_89\n      swap3\n      swap2\n      swap1\n      tag_80\n      jump\t// in\n    tag_89:\n      0x20\n      mload(0x40)\n      dup1\n      dup4\n      sub\n      dup2\n      0x00\n      dup8\n      gas\n      call\n      iszero\n      dup1\n      iszero\n      tag_91\n      jumpi\n      returndatasize\n      0x00\n      dup1\n      returndatacopy\n      revert(0x00, returndatasize)\n    tag_91:\n      pop\n      pop\n      pop\n      pop\n      mload(0x40)\n      returndatasize\n      not(0x1f)\n      0x1f\n      dup3\n      add\n      and\n      dup3\n      add\n      dup1\n      0x40\n      mstore\n      pop\n      dup2\n      add\n      swap1\n      tag_92\n      swap2\n      swap1\n      tag_78\n      jump\t// in\n    tag_92:\n      pop\n        /* \"contracts/OpenDex.sol\":1080:1370  if (isAToB) {... */\n    tag_84:\n        /* \"contracts/OpenDex.sol\":1400:1410  msg.sender */\n      caller\n        /* \"contracts/OpenDex.sol\":1387:1437  SwapExecuted(msg.sender, amountIn, amountOut, fee) */\n      0xffffffffffffffffffffffffffffffffffffffff\n      and\n      0xe3a277e9dc82afe4d40533f81d7299e0d9ca6d4ed93e2bbe5d94a93eaf0a5b5f\n        /* \"contracts/OpenDex.sol\":1412:1420  amountIn */\n      dup6\n        /* \"contracts/OpenDex.sol\":1422:1431  amountOut */\n      dup4\n        /* \"contracts/OpenDex.sol\":1433:1436  fee */\n      dup6\n        /* \"contracts/OpenDex.sol\":1387:1437  SwapExecuted(msg.sender, amountIn, amountOut, fee) */\n      mload(0x40)\n      tag_93\n      swap4\n      swap3\n      swap2\n      swap1\n      tag_94\n      jump\t// in\n    tag_93:\n      mload(0x40)\n      dup1\n      swap2\n      sub\n      swap1\n      log2\n        /* \"contracts/OpenDex.sol\":942:1445  {... */\n      pop\n      pop\n        /* \"contracts/OpenDex.sol\":888:1445  function swap(uint256 amountIn, bool isAToB) external {... */\n      pop\n      pop\n      jump\t// out\n        /* \"contracts/OpenDex.sol\":2386:2649  function provideLiquidityIncentive(address _pair, uint _amount) external {... */\n    tag_27:\n        /* \"contracts/OpenDex.sol\":2477:2492  governanceToken */\n      0x01\n      0x00\n      swap1\n      sload\n      swap1\n      0x0100\n      exp\n      swap1\n      div\n      0xffffffffffffffffffffffffffffffffffffffff\n      and\n        /* \"contracts/OpenDex.sol\":2470:2506  IERC20(governanceToken).transferFrom */\n      0xffffffffffffffffffffffffffffffffffffffff\n      and\n      0x23b872dd\n        /* \"contracts/OpenDex.sol\":2507:2517  msg.sender */\n      caller\n        /* \"contracts/OpenDex.sol\":2527:2531  this */\n      address\n        /* \"contracts/OpenDex.sol\":2534:2541  _amount */\n      dup5\n        /* \"contracts/OpenDex.sol\":2470:2542  IERC20(governanceToken).transferFrom(msg.sender, address(this), _amount) */\n      mload(0x40)\n      dup5\n      0xffffffff\n      and\n      0xe0\n      shl\n      dup2\n      mstore\n      0x04\n      add\n      tag_96\n      swap4\n      swap3\n      swap2\n      swap1\n      tag_74\n      jump\t// in\n    tag_96:\n      0x20\n      mload(0x40)\n      dup1\n      dup4\n      sub\n      dup2\n      0x00\n      dup8\n      gas\n      call\n      iszero\n      dup1\n      iszero\n      tag_98\n      jumpi\n      returndatasize\n      0x00\n      dup1\n      returndatacopy\n      revert(0x00, returndatasize)\n    tag_98:\n      pop\n      pop\n      pop\n      pop\n      mload(0x40)\n      returndatasize\n      not(0x1f)\n      0x1f\n      dup3\n      add\n      and\n      dup3\n      add\n      dup1\n      0x40\n      mstore\n      pop\n      dup2\n      add\n      swap1\n      tag_99\n      swap2\n      swap1\n      tag_78\n      jump\t// in\n    tag_99:\n      pop\n        /* \"contracts/OpenDex.sol\":2579:2586  _amount */\n      dup1\n        /* \"contracts/OpenDex.sol\":2553:2563  userStakes */\n      0x06\n        /* \"contracts/OpenDex.sol\":2553:2575  userStakes[msg.sender] */\n      0x00\n        /* \"contracts/OpenDex.sol\":2564:2574  msg.sender */\n      caller\n        /* \"contracts/OpenDex.sol\":2553:2575  userStakes[msg.sender] */\n      0xffffffffffffffffffffffffffffffffffffffff\n      and\n      0xffffffffffffffffffffffffffffffffffffffff\n      and\n      dup2\n      mstore\n      0x20\n      add\n      swap1\n      dup2\n      mstore\n      0x20\n      add\n      0x00\n      keccak256\n      0x00\n        /* \"contracts/OpenDex.sol\":2553:2586  userStakes[msg.sender] += _amount */\n      dup3\n      dup3\n      sload\n      tag_100\n      swap2\n      swap1\n      tag_101\n      jump\t// in\n    tag_100:\n      swap3\n      pop\n      pop\n      dup2\n      swap1\n      sstore\n      pop\n        /* \"contracts/OpenDex.sol\":2621:2631  msg.sender */\n      caller\n        /* \"contracts/OpenDex.sol\":2602:2641  LiquidityIncentive(msg.sender, _amount) */\n      0xffffffffffffffffffffffffffffffffffffffff\n      and\n      0x4bb73a9896fa16d063ba06a3803cba6d97a7fb5521820b11842dff98fb3493f1\n        /* \"contracts/OpenDex.sol\":2633:2640  _amount */\n      dup3\n        /* \"contracts/OpenDex.sol\":2602:2641  LiquidityIncentive(msg.sender, _amount) */\n      mload(0x40)\n      tag_102\n      swap2\n      swap1\n      tag_31\n      jump\t// in\n    tag_102:\n      mload(0x40)\n      dup1\n      swap2\n      sub\n      swap1\n      log2\n        /* \"contracts/OpenDex.sol\":2386:2649  function provideLiquidityIncentive(address _pair, uint _amount) external {... */\n      pop\n      pop\n      jump\t// out\n        /* \"contracts/OpenDex.sol\":425:451  uint public defaultFee = 3 */\n    tag_29:\n      sload(0x02)\n      dup2\n      jump\t// out\n        /* \"contracts/OpenDex.sol\":497:517  IERC20 public tokenB */\n    tag_33:\n      0x04\n      0x00\n      swap1\n      sload\n      swap1\n      0x0100\n      exp\n      swap1\n      div\n      0xffffffffffffffffffffffffffffffffffffffff\n      and\n      dup2\n      jump\t// out\n        /* \"contracts/OpenDex.sol\":1764:1814  mapping(address => bool) public isGovernanceMember */\n    tag_38:\n      mstore(0x20, 0x07)\n      dup1\n      0x00\n      mstore\n      keccak256(0x00, 0x40)\n      0x00\n      swap2\n      pop\n      sload\n      swap1\n      0x0100\n      exp\n      swap1\n      div\n      0xff\n      and\n      dup2\n      jump\t// out\n        /* \"contracts/OpenDex.sol\":1715:1757  mapping(address => uint) public userStakes */\n    tag_43:\n      mstore(0x20, 0x06)\n      dup1\n      0x00\n      mstore\n      keccak256(0x00, 0x40)\n      0x00\n      swap2\n      pop\n      swap1\n      pop\n      sload\n      dup2\n      jump\t// out\n        /* \"contracts/OpenDex.sol\":2124:2315  function adjustFee(uint _newFee) external onlyGovernance {... */\n    tag_48:\n        /* \"contracts/OpenDex.sol\":1981:1999  isGovernanceMember */\n      0x07\n        /* \"contracts/OpenDex.sol\":1981:2011  isGovernanceMember[msg.sender] */\n      0x00\n        /* \"contracts/OpenDex.sol\":2000:2010  msg.sender */\n      caller\n        /* \"contracts/OpenDex.sol\":1981:2011  isGovernanceMember[msg.sender] */\n      0xffffffffffffffffffffffffffffffffffffffff\n      and\n      0xffffffffffffffffffffffffffffffffffffffff\n      and\n      dup2\n      mstore\n      0x20\n      add\n      swap1\n      dup2\n      mstore\n      0x20\n      add\n      0x00\n      keccak256\n      0x00\n      swap1\n      sload\n      swap1\n      0x0100\n      exp\n      swap1\n      div\n      0xff\n      and\n        /* \"contracts/OpenDex.sol\":1973:2039  require(isGovernanceMember[msg.sender], \"Not a governance member\") */\n      tag_104\n      jumpi\n      mload(0x40)\n      0x08c379a000000000000000000000000000000000000000000000000000000000\n      dup2\n      mstore\n      0x04\n      add\n      tag_105\n      swap1\n      tag_106\n      jump\t// in\n    tag_105:\n      mload(0x40)\n      dup1\n      swap2\n      sub\n      swap1\n      revert\n    tag_104:\n        /* \"contracts/OpenDex.sol\":2211:2213  10 */\n      0x0a\n        /* \"contracts/OpenDex.sol\":2200:2207  _newFee */\n      dup2\n        /* \"contracts/OpenDex.sol\":2200:2213  _newFee <= 10 */\n      gt\n      iszero\n        /* \"contracts/OpenDex.sol\":2192:2230  require(_newFee <= 10, \"Fee too high\") */\n      tag_108\n      jumpi\n      mload(0x40)\n      0x08c379a000000000000000000000000000000000000000000000000000000000\n      dup2\n      mstore\n      0x04\n      add\n      tag_109\n      swap1\n      tag_110\n      jump\t// in\n    tag_109:\n      mload(0x40)\n      dup1\n      swap2\n      sub\n      swap1\n      revert\n    tag_108:\n        /* \"contracts/OpenDex.sol\":2264:2271  _newFee */\n      dup1\n        /* \"contracts/OpenDex.sol\":2251:2261  defaultFee */\n      0x02\n        /* \"contracts/OpenDex.sol\":2251:2271  defaultFee = _newFee */\n      dup2\n      swap1\n      sstore\n      pop\n        /* \"contracts/OpenDex.sol\":2287:2307  FeeAdjusted(_newFee) */\n      0x8f0bb2e9dd4d9e8f7b5a5a5e6ec3ecfb088b85352c3405f9bf7fef9fcf4b50c1\n        /* \"contracts/OpenDex.sol\":2299:2306  _newFee */\n      dup2\n        /* \"contracts/OpenDex.sol\":2287:2307  FeeAdjusted(_newFee) */\n      mload(0x40)\n      tag_111\n      swap2\n      swap1\n      tag_31\n      jump\t// in\n    tag_111:\n      mload(0x40)\n      dup1\n      swap2\n      sub\n      swap1\n      log1\n        /* \"contracts/OpenDex.sol\":2124:2315  function adjustFee(uint _newFee) external onlyGovernance {... */\n      pop\n      jump\t// out\n        /* \"contracts/OpenDex.sol\":313:335  address public factory */\n    tag_50:\n      0x00\n      dup1\n      sload\n      swap1\n      0x0100\n      exp\n      swap1\n      div\n      0xffffffffffffffffffffffffffffffffffffffff\n      and\n      dup2\n      jump\t// out\n        /* \"contracts/OpenDex.sol\":2691:2860  function createCustomPair(address tokenA, address tokenB) external returns (address pair) {... */\n    tag_56:\n        /* \"contracts/OpenDex.sol\":2767:2779  address pair */\n      0x00\n        /* \"contracts/OpenDex.sol\":2817:2824  factory */\n      dup1\n      0x00\n      swap1\n      sload\n      swap1\n      0x0100\n      exp\n      swap1\n      div\n      0xffffffffffffffffffffffffffffffffffffffff\n      and\n        /* \"contracts/OpenDex.sol\":2799:2836  IUniswapV2Factory(factory).createPair */\n      0xffffffffffffffffffffffffffffffffffffffff\n      and\n      0xc9c65396\n        /* \"contracts/OpenDex.sol\":2837:2843  tokenA */\n      dup5\n        /* \"contracts/OpenDex.sol\":2845:2851  tokenB */\n      dup5\n        /* \"contracts/OpenDex.sol\":2799:2852  IUniswapV2Factory(factory).createPair(tokenA, tokenB) */\n      mload(0x40)\n      dup4\n      0xffffffff\n      and\n      0xe0\n      shl\n      dup2\n      mstore\n      0x04\n      add\n      tag_113\n      swap3\n      swap2\n      swap1\n      tag_114\n      jump\t// in\n    tag_113:\n      0x20\n      mload(0x40)\n      dup1\n      dup4\n      sub\n      dup2\n      0x00\n      dup8\n      gas\n      call\n      iszero\n      dup1\n      iszero\n      tag_116\n      jumpi\n      returndatasize\n      0x00\n      dup1\n      returndatacopy\n      revert(0x00, returndatasize)\n    tag_116:\n      pop\n      pop\n      pop\n      pop\n      mload(0x40)\n      returndatasize\n      not(0x1f)\n      0x1f\n      dup3\n      add\n      and\n      dup3\n      add\n      dup1\n      0x40\n      mstore\n      pop\n      dup2\n      add\n      swap1\n      tag_117\n      swap2\n      swap1\n      tag_118\n      jump\t// in\n    tag_117:\n        /* \"contracts/OpenDex.sol\":2792:2852  pair = IUniswapV2Factory(factory).createPair(tokenA, tokenB) */\n      swap1\n      pop\n        /* \"contracts/OpenDex.sol\":2691:2860  function createCustomPair(address tokenA, address tokenB) external returns (address pair) {... */\n      swap3\n      swap2\n      pop\n      pop\n      jump\t// out\n        /* \"contracts/OpenDex.sol\":524:560  DynamicFee public dynamicFeeContract */\n    tag_59:\n      0x05\n      0x00\n      swap1\n      sload\n      swap1\n      0x0100\n      exp\n      swap1\n      div\n      0xffffffffffffffffffffffffffffffffffffffff\n      and\n      dup2\n      jump\t// out\n        /* \"contracts/OpenDex.sol\":342:372  address public governanceToken */\n    tag_63:\n      0x01\n      0x00\n      swap1\n      sload\n      swap1\n      0x0100\n      exp\n      swap1\n      div\n      0xffffffffffffffffffffffffffffffffffffffff\n      and\n      dup2\n      jump\t// out\n        /* \"contracts/OpenDex.sol\":1453:1709  function getAmountOut(uint256 amountIn, uint256 fee, bool isAToB) internal view returns (uint256) {... */\n    tag_71:\n        /* \"contracts/OpenDex.sol\":1542:1549  uint256 */\n      0x00\n        /* \"contracts/OpenDex.sol\":1620:1637  uint256 amountOut */\n      dup1\n        /* \"contracts/OpenDex.sol\":1669:1674  10000 */\n      0x2710\n        /* \"contracts/OpenDex.sol\":1661:1664  fee */\n      dup5\n        /* \"contracts/OpenDex.sol\":1653:1658  10000 */\n      0x2710\n        /* \"contracts/OpenDex.sol\":1653:1664  10000 - fee */\n      tag_120\n      swap2\n      swap1\n      tag_121\n      jump\t// in\n    tag_120:\n        /* \"contracts/OpenDex.sol\":1641:1649  amountIn */\n      dup7\n        /* \"contracts/OpenDex.sol\":1641:1665  amountIn * (10000 - fee) */\n      tag_122\n      swap2\n      swap1\n      tag_123\n      jump\t// in\n    tag_122:\n        /* \"contracts/OpenDex.sol\":1640:1674  (amountIn * (10000 - fee)) / 10000 */\n      tag_124\n      swap2\n      swap1\n      tag_125\n      jump\t// in\n    tag_124:\n        /* \"contracts/OpenDex.sol\":1620:1674  uint256 amountOut = (amountIn * (10000 - fee)) / 10000 */\n      swap1\n      pop\n        /* \"contracts/OpenDex.sol\":1692:1701  amountOut */\n      dup1\n        /* \"contracts/OpenDex.sol\":1685:1701  return amountOut */\n      swap2\n      pop\n      pop\n        /* \"contracts/OpenDex.sol\":1453:1709  function getAmountOut(uint256 amountIn, uint256 fee, bool isAToB) internal view returns (uint256) {... */\n      swap4\n      swap3\n      pop\n      pop\n      pop\n      jump\t// out\n        /* \"#utility.yul\":7:133   */\n    tag_126:\n        /* \"#utility.yul\":44:51   */\n      0x00\n        /* \"#utility.yul\":84:126   */\n      0xffffffffffffffffffffffffffffffffffffffff\n        /* \"#utility.yul\":77:82   */\n      dup3\n        /* \"#utility.yul\":73:127   */\n      and\n        /* \"#utility.yul\":62:127   */\n      swap1\n      pop\n        /* \"#utility.yul\":7:133   */\n      swap2\n      swap1\n      pop\n      jump\t// out\n        /* \"#utility.yul\":139:199   */\n    tag_127:\n        /* \"#utility.yul\":167:170   */\n      0x00\n        /* \"#utility.yul\":188:193   */\n      dup2\n        /* \"#utility.yul\":181:193   */\n      swap1\n      pop\n        /* \"#utility.yul\":139:199   */\n      swap2\n      swap1\n      pop\n      jump\t// out\n        /* \"#utility.yul\":205:347   */\n    tag_128:\n        /* \"#utility.yul\":255:264   */\n      0x00\n        /* \"#utility.yul\":288:341   */\n      tag_163\n        /* \"#utility.yul\":306:340   */\n      tag_164\n        /* \"#utility.yul\":315:339   */\n      tag_165\n        /* \"#utility.yul\":333:338   */\n      dup5\n        /* \"#utility.yul\":315:339   */\n      tag_126\n      jump\t// in\n    tag_165:\n        /* \"#utility.yul\":306:340   */\n      tag_127\n      jump\t// in\n    tag_164:\n        /* \"#utility.yul\":288:341   */\n      tag_126\n      jump\t// in\n    tag_163:\n        /* \"#utility.yul\":275:341   */\n      swap1\n      pop\n        /* \"#utility.yul\":205:347   */\n      swap2\n      swap1\n      pop\n      jump\t// out\n        /* \"#utility.yul\":353:479   */\n    tag_129:\n        /* \"#utility.yul\":403:412   */\n      0x00\n        /* \"#utility.yul\":436:473   */\n      tag_167\n        /* \"#utility.yul\":467:472   */\n      dup3\n        /* \"#utility.yul\":436:473   */\n      tag_128\n      jump\t// in\n    tag_167:\n        /* \"#utility.yul\":423:473   */\n      swap1\n      pop\n        /* \"#utility.yul\":353:479   */\n      swap2\n      swap1\n      pop\n      jump\t// out\n        /* \"#utility.yul\":485:624   */\n    tag_130:\n        /* \"#utility.yul\":548:557   */\n      0x00\n        /* \"#utility.yul\":581:618   */\n      tag_169\n        /* \"#utility.yul\":612:617   */\n      dup3\n        /* \"#utility.yul\":581:618   */\n      tag_129\n      jump\t// in\n    tag_169:\n        /* \"#utility.yul\":568:618   */\n      swap1\n      pop\n        /* \"#utility.yul\":485:624   */\n      swap2\n      swap1\n      pop\n      jump\t// out\n        /* \"#utility.yul\":630:787   */\n    tag_131:\n        /* \"#utility.yul\":730:780   */\n      tag_171\n        /* \"#utility.yul\":774:779   */\n      dup2\n        /* \"#utility.yul\":730:780   */\n      tag_130\n      jump\t// in\n    tag_171:\n        /* \"#utility.yul\":725:728   */\n      dup3\n        /* \"#utility.yul\":718:781   */\n      mstore\n        /* \"#utility.yul\":630:787   */\n      pop\n      pop\n      jump\t// out\n        /* \"#utility.yul\":793:1041   */\n    tag_19:\n        /* \"#utility.yul\":899:903   */\n      0x00\n        /* \"#utility.yul\":937:939   */\n      0x20\n        /* \"#utility.yul\":926:935   */\n      dup3\n        /* \"#utility.yul\":922:940   */\n      add\n        /* \"#utility.yul\":914:940   */\n      swap1\n      pop\n        /* \"#utility.yul\":950:1034   */\n      tag_173\n        /* \"#utility.yul\":1031:1032   */\n      0x00\n        /* \"#utility.yul\":1020:1029   */\n      dup4\n        /* \"#utility.yul\":1016:1033   */\n      add\n        /* \"#utility.yul\":1007:1013   */\n      dup5\n        /* \"#utility.yul\":950:1034   */\n      tag_131\n      jump\t// in\n    tag_173:\n        /* \"#utility.yul\":793:1041   */\n      swap3\n      swap2\n      pop\n      pop\n      jump\t// out\n        /* \"#utility.yul\":1128:1245   */\n    tag_133:\n        /* \"#utility.yul\":1237:1238   */\n      0x00\n        /* \"#utility.yul\":1234:1235   */\n      dup1\n        /* \"#utility.yul\":1227:1239   */\n      revert\n        /* \"#utility.yul\":1374:1451   */\n    tag_135:\n        /* \"#utility.yul\":1411:1418   */\n      0x00\n        /* \"#utility.yul\":1440:1445   */\n      dup2\n        /* \"#utility.yul\":1429:1445   */\n      swap1\n      pop\n        /* \"#utility.yul\":1374:1451   */\n      swap2\n      swap1\n      pop\n      jump\t// out\n        /* \"#utility.yul\":1457:1579   */\n    tag_136:\n        /* \"#utility.yul\":1530:1554   */\n      tag_179\n        /* \"#utility.yul\":1548:1553   */\n      dup2\n        /* \"#utility.yul\":1530:1554   */\n      tag_135\n      jump\t// in\n    tag_179:\n        /* \"#utility.yul\":1523:1528   */\n      dup2\n        /* \"#utility.yul\":1520:1555   */\n      eq\n        /* \"#utility.yul\":1510:1573   */\n      tag_180\n      jumpi\n        /* \"#utility.yul\":1569:1570   */\n      0x00\n        /* \"#utility.yul\":1566:1567   */\n      dup1\n        /* \"#utility.yul\":1559:1571   */\n      revert\n        /* \"#utility.yul\":1510:1573   */\n    tag_180:\n        /* \"#utility.yul\":1457:1579   */\n      pop\n      jump\t// out\n        /* \"#utility.yul\":1585:1724   */\n    tag_137:\n        /* \"#utility.yul\":1631:1636   */\n      0x00\n        /* \"#utility.yul\":1669:1675   */\n      dup2\n        /* \"#utility.yul\":1656:1676   */\n      calldataload\n        /* \"#utility.yul\":1647:1676   */\n      swap1\n      pop\n        /* \"#utility.yul\":1685:1718   */\n      tag_182\n        /* \"#utility.yul\":1712:1717   */\n      dup2\n        /* \"#utility.yul\":1685:1718   */\n      tag_136\n      jump\t// in\n    tag_182:\n        /* \"#utility.yul\":1585:1724   */\n      swap3\n      swap2\n      pop\n      pop\n      jump\t// out\n        /* \"#utility.yul\":1730:1820   */\n    tag_138:\n        /* \"#utility.yul\":1764:1771   */\n      0x00\n        /* \"#utility.yul\":1807:1812   */\n      dup2\n        /* \"#utility.yul\":1800:1813   */\n      iszero\n        /* \"#utility.yul\":1793:1814   */\n      iszero\n        /* \"#utility.yul\":1782:1814   */\n      swap1\n      pop\n        /* \"#utility.yul\":1730:1820   */\n      swap2\n      swap1\n      pop\n      jump\t// out\n        /* \"#utility.yul\":1826:1942   */\n    tag_139:\n        /* \"#utility.yul\":1896:1917   */\n      tag_185\n        /* \"#utility.yul\":1911:1916   */\n      dup2\n        /* \"#utility.yul\":1896:1917   */\n      tag_138\n      jump\t// in\n    tag_185:\n        /* \"#utility.yul\":1889:1894   */\n      dup2\n        /* \"#utility.yul\":1886:1918   */\n      eq\n        /* \"#utility.yul\":1876:1936   */\n      tag_186\n      jumpi\n        /* \"#utility.yul\":1932:1933   */\n      0x00\n        /* \"#utility.yul\":1929:1930   */\n      dup1\n        /* \"#utility.yul\":1922:1934   */\n      revert\n        /* \"#utility.yul\":1876:1936   */\n    tag_186:\n        /* \"#utility.yul\":1826:1942   */\n      pop\n      jump\t// out\n        /* \"#utility.yul\":1948:2081   */\n    tag_140:\n        /* \"#utility.yul\":1991:1996   */\n      0x00\n        /* \"#utility.yul\":2029:2035   */\n      dup2\n        /* \"#utility.yul\":2016:2036   */\n      calldataload\n        /* \"#utility.yul\":2007:2036   */\n      swap1\n      pop\n        /* \"#utility.yul\":2045:2075   */\n      tag_188\n        /* \"#utility.yul\":2069:2074   */\n      dup2\n        /* \"#utility.yul\":2045:2075   */\n      tag_139\n      jump\t// in\n    tag_188:\n        /* \"#utility.yul\":1948:2081   */\n      swap3\n      swap2\n      pop\n      pop\n      jump\t// out\n        /* \"#utility.yul\":2087:2555   */\n    tag_22:\n        /* \"#utility.yul\":2152:2158   */\n      0x00\n        /* \"#utility.yul\":2160:2166   */\n      dup1\n        /* \"#utility.yul\":2209:2211   */\n      0x40\n        /* \"#utility.yul\":2197:2206   */\n      dup4\n        /* \"#utility.yul\":2188:2195   */\n      dup6\n        /* \"#utility.yul\":2184:2207   */\n      sub\n        /* \"#utility.yul\":2180:2212   */\n      slt\n        /* \"#utility.yul\":2177:2296   */\n      iszero\n      tag_190\n      jumpi\n        /* \"#utility.yul\":2215:2294   */\n      tag_191\n      tag_133\n      jump\t// in\n    tag_191:\n        /* \"#utility.yul\":2177:2296   */\n    tag_190:\n        /* \"#utility.yul\":2335:2336   */\n      0x00\n        /* \"#utility.yul\":2360:2413   */\n      tag_192\n        /* \"#utility.yul\":2405:2412   */\n      dup6\n        /* \"#utility.yul\":2396:2402   */\n      dup3\n        /* \"#utility.yul\":2385:2394   */\n      dup7\n        /* \"#utility.yul\":2381:2403   */\n      add\n        /* \"#utility.yul\":2360:2413   */\n      tag_137\n      jump\t// in\n    tag_192:\n        /* \"#utility.yul\":2350:2413   */\n      swap3\n      pop\n        /* \"#utility.yul\":2306:2423   */\n      pop\n        /* \"#utility.yul\":2462:2464   */\n      0x20\n        /* \"#utility.yul\":2488:2538   */\n      tag_193\n        /* \"#utility.yul\":2530:2537   */\n      dup6\n        /* \"#utility.yul\":2521:2527   */\n      dup3\n        /* \"#utility.yul\":2510:2519   */\n      dup7\n        /* \"#utility.yul\":2506:2528   */\n      add\n        /* \"#utility.yul\":2488:2538   */\n      tag_140\n      jump\t// in\n    tag_193:\n        /* \"#utility.yul\":2478:2538   */\n      swap2\n      pop\n        /* \"#utility.yul\":2433:2548   */\n      pop\n        /* \"#utility.yul\":2087:2555   */\n      swap3\n      pop\n      swap3\n      swap1\n      pop\n      jump\t// out\n        /* \"#utility.yul\":2561:2657   */\n    tag_141:\n        /* \"#utility.yul\":2598:2605   */\n      0x00\n        /* \"#utility.yul\":2627:2651   */\n      tag_195\n        /* \"#utility.yul\":2645:2650   */\n      dup3\n        /* \"#utility.yul\":2627:2651   */\n      tag_126\n      jump\t// in\n    tag_195:\n        /* \"#utility.yul\":2616:2651   */\n      swap1\n      pop\n        /* \"#utility.yul\":2561:2657   */\n      swap2\n      swap1\n      pop\n      jump\t// out\n        /* \"#utility.yul\":2663:2785   */\n    tag_142:\n        /* \"#utility.yul\":2736:2760   */\n      tag_197\n        /* \"#utility.yul\":2754:2759   */\n      dup2\n        /* \"#utility.yul\":2736:2760   */\n      tag_141\n      jump\t// in\n    tag_197:\n        /* \"#utility.yul\":2729:2734   */\n      dup2\n        /* \"#utility.yul\":2726:2761   */\n      eq\n        /* \"#utility.yul\":2716:2779   */\n      tag_198\n      jumpi\n        /* \"#utility.yul\":2775:2776   */\n      0x00\n        /* \"#utility.yul\":2772:2773   */\n      dup1\n        /* \"#utility.yul\":2765:2777   */\n      revert\n        /* \"#utility.yul\":2716:2779   */\n    tag_198:\n        /* \"#utility.yul\":2663:2785   */\n      pop\n      jump\t// out\n        /* \"#utility.yul\":2791:2930   */\n    tag_143:\n        /* \"#utility.yul\":2837:2842   */\n      0x00\n        /* \"#utility.yul\":2875:2881   */\n      dup2\n        /* \"#utility.yul\":2862:2882   */\n      calldataload\n        /* \"#utility.yul\":2853:2882   */\n      swap1\n      pop\n        /* \"#utility.yul\":2891:2924   */\n      tag_200\n        /* \"#utility.yul\":2918:2923   */\n      dup2\n        /* \"#utility.yul\":2891:2924   */\n      tag_142\n      jump\t// in\n    tag_200:\n        /* \"#utility.yul\":2791:2930   */\n      swap3\n      swap2\n      pop\n      pop\n      jump\t// out\n        /* \"#utility.yul\":2936:3410   */\n    tag_26:\n        /* \"#utility.yul\":3004:3010   */\n      0x00\n        /* \"#utility.yul\":3012:3018   */\n      dup1\n        /* \"#utility.yul\":3061:3063   */\n      0x40\n        /* \"#utility.yul\":3049:3058   */\n      dup4\n        /* \"#utility.yul\":3040:3047   */\n      dup6\n        /* \"#utility.yul\":3036:3059   */\n      sub\n        /* \"#utility.yul\":3032:3064   */\n      slt\n        /* \"#utility.yul\":3029:3148   */\n      iszero\n      tag_202\n      jumpi\n        /* \"#utility.yul\":3067:3146   */\n      tag_203\n      tag_133\n      jump\t// in\n    tag_203:\n        /* \"#utility.yul\":3029:3148   */\n    tag_202:\n        /* \"#utility.yul\":3187:3188   */\n      0x00\n        /* \"#utility.yul\":3212:3265   */\n      tag_204\n        /* \"#utility.yul\":3257:3264   */\n      dup6\n        /* \"#utility.yul\":3248:3254   */\n      dup3\n        /* \"#utility.yul\":3237:3246   */\n      dup7\n        /* \"#utility.yul\":3233:3255   */\n      add\n        /* \"#utility.yul\":3212:3265   */\n      tag_143\n      jump\t// in\n    tag_204:\n        /* \"#utility.yul\":3202:3265   */\n      swap3\n      pop\n        /* \"#utility.yul\":3158:3275   */\n      pop\n        /* \"#utility.yul\":3314:3316   */\n      0x20\n        /* \"#utility.yul\":3340:3393   */\n      tag_205\n        /* \"#utility.yul\":3385:3392   */\n      dup6\n        /* \"#utility.yul\":3376:3382   */\n      dup3\n        /* \"#utility.yul\":3365:3374   */\n      dup7\n        /* \"#utility.yul\":3361:3383   */\n      add\n        /* \"#utility.yul\":3340:3393   */\n      tag_137\n      jump\t// in\n    tag_205:\n        /* \"#utility.yul\":3330:3393   */\n      swap2\n      pop\n        /* \"#utility.yul\":3285:3403   */\n      pop\n        /* \"#utility.yul\":2936:3410   */\n      swap3\n      pop\n      swap3\n      swap1\n      pop\n      jump\t// out\n        /* \"#utility.yul\":3416:3534   */\n    tag_144:\n        /* \"#utility.yul\":3503:3527   */\n      tag_207\n        /* \"#utility.yul\":3521:3526   */\n      dup2\n        /* \"#utility.yul\":3503:3527   */\n      tag_135\n      jump\t// in\n    tag_207:\n        /* \"#utility.yul\":3498:3501   */\n      dup3\n        /* \"#utility.yul\":3491:3528   */\n      mstore\n        /* \"#utility.yul\":3416:3534   */\n      pop\n      pop\n      jump\t// out\n        /* \"#utility.yul\":3540:3762   */\n    tag_31:\n        /* \"#utility.yul\":3633:3637   */\n      0x00\n        /* \"#utility.yul\":3671:3673   */\n      0x20\n        /* \"#utility.yul\":3660:3669   */\n      dup3\n        /* \"#utility.yul\":3656:3674   */\n      add\n        /* \"#utility.yul\":3648:3674   */\n      swap1\n      pop\n        /* \"#utility.yul\":3684:3755   */\n      tag_209\n        /* \"#utility.yul\":3752:3753   */\n      0x00\n        /* \"#utility.yul\":3741:3750   */\n      dup4\n        /* \"#utility.yul\":3737:3754   */\n      add\n        /* \"#utility.yul\":3728:3734   */\n      dup5\n        /* \"#utility.yul\":3684:3755   */\n      tag_144\n      jump\t// in\n    tag_209:\n        /* \"#utility.yul\":3540:3762   */\n      swap3\n      swap2\n      pop\n      pop\n      jump\t// out\n        /* \"#utility.yul\":3768:4097   */\n    tag_37:\n        /* \"#utility.yul\":3827:3833   */\n      0x00\n        /* \"#utility.yul\":3876:3878   */\n      0x20\n        /* \"#utility.yul\":3864:3873   */\n      dup3\n        /* \"#utility.yul\":3855:3862   */\n      dup5\n        /* \"#utility.yul\":3851:3874   */\n      sub\n        /* \"#utility.yul\":3847:3879   */\n      slt\n        /* \"#utility.yul\":3844:3963   */\n      iszero\n      tag_211\n      jumpi\n        /* \"#utility.yul\":3882:3961   */\n      tag_212\n      tag_133\n      jump\t// in\n    tag_212:\n        /* \"#utility.yul\":3844:3963   */\n    tag_211:\n        /* \"#utility.yul\":4002:4003   */\n      0x00\n        /* \"#utility.yul\":4027:4080   */\n      tag_213\n        /* \"#utility.yul\":4072:4079   */\n      dup5\n        /* \"#utility.yul\":4063:4069   */\n      dup3\n        /* \"#utility.yul\":4052:4061   */\n      dup6\n        /* \"#utility.yul\":4048:4070   */\n      add\n        /* \"#utility.yul\":4027:4080   */\n      tag_143\n      jump\t// in\n    tag_213:\n        /* \"#utility.yul\":4017:4080   */\n      swap2\n      pop\n        /* \"#utility.yul\":3973:4090   */\n      pop\n        /* \"#utility.yul\":3768:4097   */\n      swap3\n      swap2\n      pop\n      pop\n      jump\t// out\n        /* \"#utility.yul\":4103:4212   */\n    tag_145:\n        /* \"#utility.yul\":4184:4205   */\n      tag_215\n        /* \"#utility.yul\":4199:4204   */\n      dup2\n        /* \"#utility.yul\":4184:4205   */\n      tag_138\n      jump\t// in\n    tag_215:\n        /* \"#utility.yul\":4179:4182   */\n      dup3\n        /* \"#utility.yul\":4172:4206   */\n      mstore\n        /* \"#utility.yul\":4103:4212   */\n      pop\n      pop\n      jump\t// out\n        /* \"#utility.yul\":4218:4428   */\n    tag_40:\n        /* \"#utility.yul\":4305:4309   */\n      0x00\n        /* \"#utility.yul\":4343:4345   */\n      0x20\n        /* \"#utility.yul\":4332:4341   */\n      dup3\n        /* \"#utility.yul\":4328:4346   */\n      add\n        /* \"#utility.yul\":4320:4346   */\n      swap1\n      pop\n        /* \"#utility.yul\":4356:4421   */\n      tag_217\n        /* \"#utility.yul\":4418:4419   */\n      0x00\n        /* \"#utility.yul\":4407:4416   */\n      dup4\n        /* \"#utility.yul\":4403:4420   */\n      add\n        /* \"#utility.yul\":4394:4400   */\n      dup5\n        /* \"#utility.yul\":4356:4421   */\n      tag_145\n      jump\t// in\n    tag_217:\n        /* \"#utility.yul\":4218:4428   */\n      swap3\n      swap2\n      pop\n      pop\n      jump\t// out\n        /* \"#utility.yul\":4434:4763   */\n    tag_47:\n        /* \"#utility.yul\":4493:4499   */\n      0x00\n        /* \"#utility.yul\":4542:4544   */\n      0x20\n        /* \"#utility.yul\":4530:4539   */\n      dup3\n        /* \"#utility.yul\":4521:4528   */\n      dup5\n        /* \"#utility.yul\":4517:4540   */\n      sub\n        /* \"#utility.yul\":4513:4545   */\n      slt\n        /* \"#utility.yul\":4510:4629   */\n      iszero\n      tag_219\n      jumpi\n        /* \"#utility.yul\":4548:4627   */\n      tag_220\n      tag_133\n      jump\t// in\n    tag_220:\n        /* \"#utility.yul\":4510:4629   */\n    tag_219:\n        /* \"#utility.yul\":4668:4669   */\n      0x00\n        /* \"#utility.yul\":4693:4746   */\n      tag_221\n        /* \"#utility.yul\":4738:4745   */\n      dup5\n        /* \"#utility.yul\":4729:4735   */\n      dup3\n        /* \"#utility.yul\":4718:4727   */\n      dup6\n        /* \"#utility.yul\":4714:4736   */\n      add\n        /* \"#utility.yul\":4693:4746   */\n      tag_137\n      jump\t// in\n    tag_221:\n        /* \"#utility.yul\":4683:4746   */\n      swap2\n      pop\n        /* \"#utility.yul\":4639:4756   */\n      pop\n        /* \"#utility.yul\":4434:4763   */\n      swap3\n      swap2\n      pop\n      pop\n      jump\t// out\n        /* \"#utility.yul\":4769:4887   */\n    tag_146:\n        /* \"#utility.yul\":4856:4880   */\n      tag_223\n        /* \"#utility.yul\":4874:4879   */\n      dup2\n        /* \"#utility.yul\":4856:4880   */\n      tag_141\n      jump\t// in\n    tag_223:\n        /* \"#utility.yul\":4851:4854   */\n      dup3\n        /* \"#utility.yul\":4844:4881   */\n      mstore\n        /* \"#utility.yul\":4769:4887   */\n      pop\n      pop\n      jump\t// out\n        /* \"#utility.yul\":4893:5115   */\n    tag_52:\n        /* \"#utility.yul\":4986:4990   */\n      0x00\n        /* \"#utility.yul\":5024:5026   */\n      0x20\n        /* \"#utility.yul\":5013:5022   */\n      dup3\n        /* \"#utility.yul\":5009:5027   */\n      add\n        /* \"#utility.yul\":5001:5027   */\n      swap1\n      pop\n        /* \"#utility.yul\":5037:5108   */\n      tag_225\n        /* \"#utility.yul\":5105:5106   */\n      0x00\n        /* \"#utility.yul\":5094:5103   */\n      dup4\n        /* \"#utility.yul\":5090:5107   */\n      add\n        /* \"#utility.yul\":5081:5087   */\n      dup5\n        /* \"#utility.yul\":5037:5108   */\n      tag_146\n      jump\t// in\n    tag_225:\n        /* \"#utility.yul\":4893:5115   */\n      swap3\n      swap2\n      pop\n      pop\n      jump\t// out\n        /* \"#utility.yul\":5121:5595   */\n    tag_55:\n        /* \"#utility.yul\":5189:5195   */\n      0x00\n        /* \"#utility.yul\":5197:5203   */\n      dup1\n        /* \"#utility.yul\":5246:5248   */\n      0x40\n        /* \"#utility.yul\":5234:5243   */\n      dup4\n        /* \"#utility.yul\":5225:5232   */\n      dup6\n        /* \"#utility.yul\":5221:5244   */\n      sub\n        /* \"#utility.yul\":5217:5249   */\n      slt\n        /* \"#utility.yul\":5214:5333   */\n      iszero\n      tag_227\n      jumpi\n        /* \"#utility.yul\":5252:5331   */\n      tag_228\n      tag_133\n      jump\t// in\n    tag_228:\n        /* \"#utility.yul\":5214:5333   */\n    tag_227:\n        /* \"#utility.yul\":5372:5373   */\n      0x00\n        /* \"#utility.yul\":5397:5450   */\n      tag_229\n        /* \"#utility.yul\":5442:5449   */\n      dup6\n        /* \"#utility.yul\":5433:5439   */\n      dup3\n        /* \"#utility.yul\":5422:5431   */\n      dup7\n        /* \"#utility.yul\":5418:5440   */\n      add\n        /* \"#utility.yul\":5397:5450   */\n      tag_143\n      jump\t// in\n    tag_229:\n        /* \"#utility.yul\":5387:5450   */\n      swap3\n      pop\n        /* \"#utility.yul\":5343:5460   */\n      pop\n        /* \"#utility.yul\":5499:5501   */\n      0x20\n        /* \"#utility.yul\":5525:5578   */\n      tag_230\n        /* \"#utility.yul\":5570:5577   */\n      dup6\n        /* \"#utility.yul\":5561:5567   */\n      dup3\n        /* \"#utility.yul\":5550:5559   */\n      dup7\n        /* \"#utility.yul\":5546:5568   */\n      add\n        /* \"#utility.yul\":5525:5578   */\n      tag_143\n      jump\t// in\n    tag_230:\n        /* \"#utility.yul\":5515:5578   */\n      swap2\n      pop\n        /* \"#utility.yul\":5470:5588   */\n      pop\n        /* \"#utility.yul\":5121:5595   */\n      swap3\n      pop\n      swap3\n      swap1\n      pop\n      jump\t// out\n        /* \"#utility.yul\":5601:5745   */\n    tag_147:\n        /* \"#utility.yul\":5669:5678   */\n      0x00\n        /* \"#utility.yul\":5702:5739   */\n      tag_232\n        /* \"#utility.yul\":5733:5738   */\n      dup3\n        /* \"#utility.yul\":5702:5739   */\n      tag_129\n      jump\t// in\n    tag_232:\n        /* \"#utility.yul\":5689:5739   */\n      swap1\n      pop\n        /* \"#utility.yul\":5601:5745   */\n      swap2\n      swap1\n      pop\n      jump\t// out\n        /* \"#utility.yul\":5751:5918   */\n    tag_148:\n        /* \"#utility.yul\":5856:5911   */\n      tag_234\n        /* \"#utility.yul\":5905:5910   */\n      dup2\n        /* \"#utility.yul\":5856:5911   */\n      tag_147\n      jump\t// in\n    tag_234:\n        /* \"#utility.yul\":5851:5854   */\n      dup3\n        /* \"#utility.yul\":5844:5912   */\n      mstore\n        /* \"#utility.yul\":5751:5918   */\n      pop\n      pop\n      jump\t// out\n        /* \"#utility.yul\":5924:6182   */\n    tag_61:\n        /* \"#utility.yul\":6035:6039   */\n      0x00\n        /* \"#utility.yul\":6073:6075   */\n      0x20\n        /* \"#utility.yul\":6062:6071   */\n      dup3\n        /* \"#utility.yul\":6058:6076   */\n      add\n        /* \"#utility.yul\":6050:6076   */\n      swap1\n      pop\n        /* \"#utility.yul\":6086:6175   */\n      tag_236\n        /* \"#utility.yul\":6172:6173   */\n      0x00\n        /* \"#utility.yul\":6161:6170   */\n      dup4\n        /* \"#utility.yul\":6157:6174   */\n      add\n        /* \"#utility.yul\":6148:6154   */\n      dup5\n        /* \"#utility.yul\":6086:6175   */\n      tag_148\n      jump\t// in\n    tag_236:\n        /* \"#utility.yul\":5924:6182   */\n      swap3\n      swap2\n      pop\n      pop\n      jump\t// out\n        /* \"#utility.yul\":6188:6331   */\n    tag_149:\n        /* \"#utility.yul\":6245:6250   */\n      0x00\n        /* \"#utility.yul\":6276:6282   */\n      dup2\n        /* \"#utility.yul\":6270:6283   */\n      mload\n        /* \"#utility.yul\":6261:6283   */\n      swap1\n      pop\n        /* \"#utility.yul\":6292:6325   */\n      tag_238\n        /* \"#utility.yul\":6319:6324   */\n      dup2\n        /* \"#utility.yul\":6292:6325   */\n      tag_136\n      jump\t// in\n    tag_238:\n        /* \"#utility.yul\":6188:6331   */\n      swap3\n      swap2\n      pop\n      pop\n      jump\t// out\n        /* \"#utility.yul\":6337:6688   */\n    tag_69:\n        /* \"#utility.yul\":6407:6413   */\n      0x00\n        /* \"#utility.yul\":6456:6458   */\n      0x20\n        /* \"#utility.yul\":6444:6453   */\n      dup3\n        /* \"#utility.yul\":6435:6442   */\n      dup5\n        /* \"#utility.yul\":6431:6454   */\n      sub\n        /* \"#utility.yul\":6427:6459   */\n      slt\n        /* \"#utility.yul\":6424:6543   */\n      iszero\n      tag_240\n      jumpi\n        /* \"#utility.yul\":6462:6541   */\n      tag_241\n      tag_133\n      jump\t// in\n    tag_241:\n        /* \"#utility.yul\":6424:6543   */\n    tag_240:\n        /* \"#utility.yul\":6582:6583   */\n      0x00\n        /* \"#utility.yul\":6607:6671   */\n      tag_242\n        /* \"#utility.yul\":6663:6670   */\n      dup5\n        /* \"#utility.yul\":6654:6660   */\n      dup3\n        /* \"#utility.yul\":6643:6652   */\n      dup6\n        /* \"#utility.yul\":6639:6661   */\n      add\n        /* \"#utility.yul\":6607:6671   */\n      tag_149\n      jump\t// in\n    tag_242:\n        /* \"#utility.yul\":6597:6671   */\n      swap2\n      pop\n        /* \"#utility.yul\":6553:6681   */\n      pop\n        /* \"#utility.yul\":6337:6688   */\n      swap3\n      swap2\n      pop\n      pop\n      jump\t// out\n        /* \"#utility.yul\":6694:7136   */\n    tag_74:\n        /* \"#utility.yul\":6843:6847   */\n      0x00\n        /* \"#utility.yul\":6881:6883   */\n      0x60\n        /* \"#utility.yul\":6870:6879   */\n      dup3\n        /* \"#utility.yul\":6866:6884   */\n      add\n        /* \"#utility.yul\":6858:6884   */\n      swap1\n      pop\n        /* \"#utility.yul\":6894:6965   */\n      tag_244\n        /* \"#utility.yul\":6962:6963   */\n      0x00\n        /* \"#utility.yul\":6951:6960   */\n      dup4\n        /* \"#utility.yul\":6947:6964   */\n      add\n        /* \"#utility.yul\":6938:6944   */\n      dup7\n        /* \"#utility.yul\":6894:6965   */\n      tag_146\n      jump\t// in\n    tag_244:\n        /* \"#utility.yul\":6975:7047   */\n      tag_245\n        /* \"#utility.yul\":7043:7045   */\n      0x20\n        /* \"#utility.yul\":7032:7041   */\n      dup4\n        /* \"#utility.yul\":7028:7046   */\n      add\n        /* \"#utility.yul\":7019:7025   */\n      dup6\n        /* \"#utility.yul\":6975:7047   */\n      tag_146\n      jump\t// in\n    tag_245:\n        /* \"#utility.yul\":7057:7129   */\n      tag_246\n        /* \"#utility.yul\":7125:7127   */\n      0x40\n        /* \"#utility.yul\":7114:7123   */\n      dup4\n        /* \"#utility.yul\":7110:7128   */\n      add\n        /* \"#utility.yul\":7101:7107   */\n      dup5\n        /* \"#utility.yul\":7057:7129   */\n      tag_144\n      jump\t// in\n    tag_246:\n        /* \"#utility.yul\":6694:7136   */\n      swap5\n      swap4\n      pop\n      pop\n      pop\n      pop\n      jump\t// out\n        /* \"#utility.yul\":7142:7279   */\n    tag_150:\n        /* \"#utility.yul\":7196:7201   */\n      0x00\n        /* \"#utility.yul\":7227:7233   */\n      dup2\n        /* \"#utility.yul\":7221:7234   */\n      mload\n        /* \"#utility.yul\":7212:7234   */\n      swap1\n      pop\n        /* \"#utility.yul\":7243:7273   */\n      tag_248\n        /* \"#utility.yul\":7267:7272   */\n      dup2\n        /* \"#utility.yul\":7243:7273   */\n      tag_139\n      jump\t// in\n    tag_248:\n        /* \"#utility.yul\":7142:7279   */\n      swap3\n      swap2\n      pop\n      pop\n      jump\t// out\n        /* \"#utility.yul\":7285:7630   */\n    tag_78:\n        /* \"#utility.yul\":7352:7358   */\n      0x00\n        /* \"#utility.yul\":7401:7403   */\n      0x20\n        /* \"#utility.yul\":7389:7398   */\n      dup3\n        /* \"#utility.yul\":7380:7387   */\n      dup5\n        /* \"#utility.yul\":7376:7399   */\n      sub\n        /* \"#utility.yul\":7372:7404   */\n      slt\n        /* \"#utility.yul\":7369:7488   */\n      iszero\n      tag_250\n      jumpi\n        /* \"#utility.yul\":7407:7486   */\n      tag_251\n      tag_133\n      jump\t// in\n    tag_251:\n        /* \"#utility.yul\":7369:7488   */\n    tag_250:\n        /* \"#utility.yul\":7527:7528   */\n      0x00\n        /* \"#utility.yul\":7552:7613   */\n      tag_252\n        /* \"#utility.yul\":7605:7612   */\n      dup5\n        /* \"#utility.yul\":7596:7602   */\n      dup3\n        /* \"#utility.yul\":7585:7594   */\n      dup6\n        /* \"#utility.yul\":7581:7603   */\n      add\n        /* \"#utility.yul\":7552:7613   */\n      tag_150\n      jump\t// in\n    tag_252:\n        /* \"#utility.yul\":7542:7613   */\n      swap2\n      pop\n        /* \"#utility.yul\":7498:7623   */\n      pop\n        /* \"#utility.yul\":7285:7630   */\n      swap3\n      swap2\n      pop\n      pop\n      jump\t// out\n        /* \"#utility.yul\":7636:7968   */\n    tag_80:\n        /* \"#utility.yul\":7757:7761   */\n      0x00\n        /* \"#utility.yul\":7795:7797   */\n      0x40\n        /* \"#utility.yul\":7784:7793   */\n      dup3\n        /* \"#utility.yul\":7780:7798   */\n      add\n        /* \"#utility.yul\":7772:7798   */\n      swap1\n      pop\n        /* \"#utility.yul\":7808:7879   */\n      tag_254\n        /* \"#utility.yul\":7876:7877   */\n      0x00\n        /* \"#utility.yul\":7865:7874   */\n      dup4\n        /* \"#utility.yul\":7861:7878   */\n      add\n        /* \"#utility.yul\":7852:7858   */\n      dup6\n        /* \"#utility.yul\":7808:7879   */\n      tag_146\n      jump\t// in\n    tag_254:\n        /* \"#utility.yul\":7889:7961   */\n      tag_255\n        /* \"#utility.yul\":7957:7959   */\n      0x20\n        /* \"#utility.yul\":7946:7955   */\n      dup4\n        /* \"#utility.yul\":7942:7960   */\n      add\n        /* \"#utility.yul\":7933:7939   */\n      dup5\n        /* \"#utility.yul\":7889:7961   */\n      tag_144\n      jump\t// in\n    tag_255:\n        /* \"#utility.yul\":7636:7968   */\n      swap4\n      swap3\n      pop\n      pop\n      pop\n      jump\t// out\n        /* \"#utility.yul\":7974:8416   */\n    tag_94:\n        /* \"#utility.yul\":8123:8127   */\n      0x00\n        /* \"#utility.yul\":8161:8163   */\n      0x60\n        /* \"#utility.yul\":8150:8159   */\n      dup3\n        /* \"#utility.yul\":8146:8164   */\n      add\n        /* \"#utility.yul\":8138:8164   */\n      swap1\n      pop\n        /* \"#utility.yul\":8174:8245   */\n      tag_257\n        /* \"#utility.yul\":8242:8243   */\n      0x00\n        /* \"#utility.yul\":8231:8240   */\n      dup4\n        /* \"#utility.yul\":8227:8244   */\n      add\n        /* \"#utility.yul\":8218:8224   */\n      dup7\n        /* \"#utility.yul\":8174:8245   */\n      tag_144\n      jump\t// in\n    tag_257:\n        /* \"#utility.yul\":8255:8327   */\n      tag_258\n        /* \"#utility.yul\":8323:8325   */\n      0x20\n        /* \"#utility.yul\":8312:8321   */\n      dup4\n        /* \"#utility.yul\":8308:8326   */\n      add\n        /* \"#utility.yul\":8299:8305   */\n      dup6\n        /* \"#utility.yul\":8255:8327   */\n      tag_144\n      jump\t// in\n    tag_258:\n        /* \"#utility.yul\":8337:8409   */\n      tag_259\n        /* \"#utility.yul\":8405:8407   */\n      0x40\n        /* \"#utility.yul\":8394:8403   */\n      dup4\n        /* \"#utility.yul\":8390:8408   */\n      add\n        /* \"#utility.yul\":8381:8387   */\n      dup5\n        /* \"#utility.yul\":8337:8409   */\n      tag_144\n      jump\t// in\n    tag_259:\n        /* \"#utility.yul\":7974:8416   */\n      swap5\n      swap4\n      pop\n      pop\n      pop\n      pop\n      jump\t// out\n        /* \"#utility.yul\":8422:8602   */\n    tag_151:\n        /* \"#utility.yul\":8470:8547   */\n      0x4e487b7100000000000000000000000000000000000000000000000000000000\n        /* \"#utility.yul\":8467:8468   */\n      0x00\n        /* \"#utility.yul\":8460:8548   */\n      mstore\n        /* \"#utility.yul\":8567:8571   */\n      0x11\n        /* \"#utility.yul\":8564:8565   */\n      0x04\n        /* \"#utility.yul\":8557:8572   */\n      mstore\n        /* \"#utility.yul\":8591:8595   */\n      0x24\n        /* \"#utility.yul\":8588:8589   */\n      0x00\n        /* \"#utility.yul\":8581:8596   */\n      revert\n        /* \"#utility.yul\":8608:8799   */\n    tag_101:\n        /* \"#utility.yul\":8648:8651   */\n      0x00\n        /* \"#utility.yul\":8667:8687   */\n      tag_262\n        /* \"#utility.yul\":8685:8686   */\n      dup3\n        /* \"#utility.yul\":8667:8687   */\n      tag_135\n      jump\t// in\n    tag_262:\n        /* \"#utility.yul\":8662:8687   */\n      swap2\n      pop\n        /* \"#utility.yul\":8701:8721   */\n      tag_263\n        /* \"#utility.yul\":8719:8720   */\n      dup4\n        /* \"#utility.yul\":8701:8721   */\n      tag_135\n      jump\t// in\n    tag_263:\n        /* \"#utility.yul\":8696:8721   */\n      swap3\n      pop\n        /* \"#utility.yul\":8744:8745   */\n      dup3\n        /* \"#utility.yul\":8741:8742   */\n      dup3\n        /* \"#utility.yul\":8737:8746   */\n      add\n        /* \"#utility.yul\":8730:8746   */\n      swap1\n      pop\n        /* \"#utility.yul\":8765:8768   */\n      dup1\n        /* \"#utility.yul\":8762:8763   */\n      dup3\n        /* \"#utility.yul\":8759:8769   */\n      gt\n        /* \"#utility.yul\":8756:8792   */\n      iszero\n      tag_264\n      jumpi\n        /* \"#utility.yul\":8772:8790   */\n      tag_265\n      tag_151\n      jump\t// in\n    tag_265:\n        /* \"#utility.yul\":8756:8792   */\n    tag_264:\n        /* \"#utility.yul\":8608:8799   */\n      swap3\n      swap2\n      pop\n      pop\n      jump\t// out\n        /* \"#utility.yul\":8805:8974   */\n    tag_152:\n        /* \"#utility.yul\":8889:8900   */\n      0x00\n        /* \"#utility.yul\":8923:8929   */\n      dup3\n        /* \"#utility.yul\":8918:8921   */\n      dup3\n        /* \"#utility.yul\":8911:8930   */\n      mstore\n        /* \"#utility.yul\":8963:8967   */\n      0x20\n        /* \"#utility.yul\":8958:8961   */\n      dup3\n        /* \"#utility.yul\":8954:8968   */\n      add\n        /* \"#utility.yul\":8939:8968   */\n      swap1\n      pop\n        /* \"#utility.yul\":8805:8974   */\n      swap3\n      swap2\n      pop\n      pop\n      jump\t// out\n        /* \"#utility.yul\":8980:9153   */\n    tag_153:\n        /* \"#utility.yul\":9120:9145   */\n      0x4e6f74206120676f7665726e616e6365206d656d626572000000000000000000\n        /* \"#utility.yul\":9116:9117   */\n      0x00\n        /* \"#utility.yul\":9108:9114   */\n      dup3\n        /* \"#utility.yul\":9104:9118   */\n      add\n        /* \"#utility.yul\":9097:9146   */\n      mstore\n        /* \"#utility.yul\":8980:9153   */\n      pop\n      jump\t// out\n        /* \"#utility.yul\":9159:9525   */\n    tag_154:\n        /* \"#utility.yul\":9301:9304   */\n      0x00\n        /* \"#utility.yul\":9322:9389   */\n      tag_269\n        /* \"#utility.yul\":9386:9388   */\n      0x17\n        /* \"#utility.yul\":9381:9384   */\n      dup4\n        /* \"#utility.yul\":9322:9389   */\n      tag_152\n      jump\t// in\n    tag_269:\n        /* \"#utility.yul\":9315:9389   */\n      swap2\n      pop\n        /* \"#utility.yul\":9398:9491   */\n      tag_270\n        /* \"#utility.yul\":9487:9490   */\n      dup3\n        /* \"#utility.yul\":9398:9491   */\n      tag_153\n      jump\t// in\n    tag_270:\n        /* \"#utility.yul\":9516:9518   */\n      0x20\n        /* \"#utility.yul\":9511:9514   */\n      dup3\n        /* \"#utility.yul\":9507:9519   */\n      add\n        /* \"#utility.yul\":9500:9519   */\n      swap1\n      pop\n        /* \"#utility.yul\":9159:9525   */\n      swap2\n      swap1\n      pop\n      jump\t// out\n        /* \"#utility.yul\":9531:9950   */\n    tag_106:\n        /* \"#utility.yul\":9697:9701   */\n      0x00\n        /* \"#utility.yul\":9735:9737   */\n      0x20\n        /* \"#utility.yul\":9724:9733   */\n      dup3\n        /* \"#utility.yul\":9720:9738   */\n      add\n        /* \"#utility.yul\":9712:9738   */\n      swap1\n      pop\n        /* \"#utility.yul\":9784:9793   */\n      dup2\n        /* \"#utility.yul\":9778:9782   */\n      dup2\n        /* \"#utility.yul\":9774:9794   */\n      sub\n        /* \"#utility.yul\":9770:9771   */\n      0x00\n        /* \"#utility.yul\":9759:9768   */\n      dup4\n        /* \"#utility.yul\":9755:9772   */\n      add\n        /* \"#utility.yul\":9748:9795   */\n      mstore\n        /* \"#utility.yul\":9812:9943   */\n      tag_272\n        /* \"#utility.yul\":9938:9942   */\n      dup2\n        /* \"#utility.yul\":9812:9943   */\n      tag_154\n      jump\t// in\n    tag_272:\n        /* \"#utility.yul\":9804:9943   */\n      swap1\n      pop\n        /* \"#utility.yul\":9531:9950   */\n      swap2\n      swap1\n      pop\n      jump\t// out\n        /* \"#utility.yul\":9956:10118   */\n    tag_155:\n        /* \"#utility.yul\":10096:10110   */\n      0x46656520746f6f20686967680000000000000000000000000000000000000000\n        /* \"#utility.yul\":10092:10093   */\n      0x00\n        /* \"#utility.yul\":10084:10090   */\n      dup3\n        /* \"#utility.yul\":10080:10094   */\n      add\n        /* \"#utility.yul\":10073:10111   */\n      mstore\n        /* \"#utility.yul\":9956:10118   */\n      pop\n      jump\t// out\n        /* \"#utility.yul\":10124:10490   */\n    tag_156:\n        /* \"#utility.yul\":10266:10269   */\n      0x00\n        /* \"#utility.yul\":10287:10354   */\n      tag_275\n        /* \"#utility.yul\":10351:10353   */\n      0x0c\n        /* \"#utility.yul\":10346:10349   */\n      dup4\n        /* \"#utility.yul\":10287:10354   */\n      tag_152\n      jump\t// in\n    tag_275:\n        /* \"#utility.yul\":10280:10354   */\n      swap2\n      pop\n        /* \"#utility.yul\":10363:10456   */\n      tag_276\n        /* \"#utility.yul\":10452:10455   */\n      dup3\n        /* \"#utility.yul\":10363:10456   */\n      tag_155\n      jump\t// in\n    tag_276:\n        /* \"#utility.yul\":10481:10483   */\n      0x20\n        /* \"#utility.yul\":10476:10479   */\n      dup3\n        /* \"#utility.yul\":10472:10484   */\n      add\n        /* \"#utility.yul\":10465:10484   */\n      swap1\n      pop\n        /* \"#utility.yul\":10124:10490   */\n      swap2\n      swap1\n      pop\n      jump\t// out\n        /* \"#utility.yul\":10496:10915   */\n    tag_110:\n        /* \"#utility.yul\":10662:10666   */\n      0x00\n        /* \"#utility.yul\":10700:10702   */\n      0x20\n        /* \"#utility.yul\":10689:10698   */\n      dup3\n        /* \"#utility.yul\":10685:10703   */\n      add\n        /* \"#utility.yul\":10677:10703   */\n      swap1\n      pop\n        /* \"#utility.yul\":10749:10758   */\n      dup2\n        /* \"#utility.yul\":10743:10747   */\n      dup2\n        /* \"#utility.yul\":10739:10759   */\n      sub\n        /* \"#utility.yul\":10735:10736   */\n      0x00\n        /* \"#utility.yul\":10724:10733   */\n      dup4\n        /* \"#utility.yul\":10720:10737   */\n      add\n        /* \"#utility.yul\":10713:10760   */\n      mstore\n        /* \"#utility.yul\":10777:10908   */\n      tag_278\n        /* \"#utility.yul\":10903:10907   */\n      dup2\n        /* \"#utility.yul\":10777:10908   */\n      tag_156\n      jump\t// in\n    tag_278:\n        /* \"#utility.yul\":10769:10908   */\n      swap1\n      pop\n        /* \"#utility.yul\":10496:10915   */\n      swap2\n      swap1\n      pop\n      jump\t// out\n        /* \"#utility.yul\":10921:11253   */\n    tag_114:\n        /* \"#utility.yul\":11042:11046   */\n      0x00\n        /* \"#utility.yul\":11080:11082   */\n      0x40\n        /* \"#utility.yul\":11069:11078   */\n      dup3\n        /* \"#utility.yul\":11065:11083   */\n      add\n        /* \"#utility.yul\":11057:11083   */\n      swap1\n      pop\n        /* \"#utility.yul\":11093:11164   */\n      tag_280\n        /* \"#utility.yul\":11161:11162   */\n      0x00\n        /* \"#utility.yul\":11150:11159   */\n      dup4\n        /* \"#utility.yul\":11146:11163   */\n      add\n        /* \"#utility.yul\":11137:11143   */\n      dup6\n        /* \"#utility.yul\":11093:11164   */\n      tag_146\n      jump\t// in\n    tag_280:\n        /* \"#utility.yul\":11174:11246   */\n      tag_281\n        /* \"#utility.yul\":11242:11244   */\n      0x20\n        /* \"#utility.yul\":11231:11240   */\n      dup4\n        /* \"#utility.yul\":11227:11245   */\n      add\n        /* \"#utility.yul\":11218:11224   */\n      dup5\n        /* \"#utility.yul\":11174:11246   */\n      tag_146\n      jump\t// in\n    tag_281:\n        /* \"#utility.yul\":10921:11253   */\n      swap4\n      swap3\n      pop\n      pop\n      pop\n      jump\t// out\n        /* \"#utility.yul\":11259:11402   */\n    tag_157:\n        /* \"#utility.yul\":11316:11321   */\n      0x00\n        /* \"#utility.yul\":11347:11353   */\n      dup2\n        /* \"#utility.yul\":11341:11354   */\n      mload\n        /* \"#utility.yul\":11332:11354   */\n      swap1\n      pop\n        /* \"#utility.yul\":11363:11396   */\n      tag_283\n        /* \"#utility.yul\":11390:11395   */\n      dup2\n        /* \"#utility.yul\":11363:11396   */\n      tag_142\n      jump\t// in\n    tag_283:\n        /* \"#utility.yul\":11259:11402   */\n      swap3\n      swap2\n      pop\n      pop\n      jump\t// out\n        /* \"#utility.yul\":11408:11759   */\n    tag_118:\n        /* \"#utility.yul\":11478:11484   */\n      0x00\n        /* \"#utility.yul\":11527:11529   */\n      0x20\n        /* \"#utility.yul\":11515:11524   */\n      dup3\n        /* \"#utility.yul\":11506:11513   */\n      dup5\n        /* \"#utility.yul\":11502:11525   */\n      sub\n        /* \"#utility.yul\":11498:11530   */\n      slt\n        /* \"#utility.yul\":11495:11614   */\n      iszero\n      tag_285\n      jumpi\n        /* \"#utility.yul\":11533:11612   */\n      tag_286\n      tag_133\n      jump\t// in\n    tag_286:\n        /* \"#utility.yul\":11495:11614   */\n    tag_285:\n        /* \"#utility.yul\":11653:11654   */\n      0x00\n        /* \"#utility.yul\":11678:11742   */\n      tag_287\n        /* \"#utility.yul\":11734:11741   */\n      dup5\n        /* \"#utility.yul\":11725:11731   */\n      dup3\n        /* \"#utility.yul\":11714:11723   */\n      dup6\n        /* \"#utility.yul\":11710:11732   */\n      add\n        /* \"#utility.yul\":11678:11742   */\n      tag_157\n      jump\t// in\n    tag_287:\n        /* \"#utility.yul\":11668:11742   */\n      swap2\n      pop\n        /* \"#utility.yul\":11624:11752   */\n      pop\n        /* \"#utility.yul\":11408:11759   */\n      swap3\n      swap2\n      pop\n      pop\n      jump\t// out\n        /* \"#utility.yul\":11765:11959   */\n    tag_121:\n        /* \"#utility.yul\":11805:11809   */\n      0x00\n        /* \"#utility.yul\":11825:11845   */\n      tag_289\n        /* \"#utility.yul\":11843:11844   */\n      dup3\n        /* \"#utility.yul\":11825:11845   */\n      tag_135\n      jump\t// in\n    tag_289:\n        /* \"#utility.yul\":11820:11845   */\n      swap2\n      pop\n        /* \"#utility.yul\":11859:11879   */\n      tag_290\n        /* \"#utility.yul\":11877:11878   */\n      dup4\n        /* \"#utility.yul\":11859:11879   */\n      tag_135\n      jump\t// in\n    tag_290:\n        /* \"#utility.yul\":11854:11879   */\n      swap3\n      pop\n        /* \"#utility.yul\":11903:11904   */\n      dup3\n        /* \"#utility.yul\":11900:11901   */\n      dup3\n        /* \"#utility.yul\":11896:11905   */\n      sub\n        /* \"#utility.yul\":11888:11905   */\n      swap1\n      pop\n        /* \"#utility.yul\":11927:11928   */\n      dup2\n        /* \"#utility.yul\":11921:11925   */\n      dup2\n        /* \"#utility.yul\":11918:11929   */\n      gt\n        /* \"#utility.yul\":11915:11952   */\n      iszero\n      tag_291\n      jumpi\n        /* \"#utility.yul\":11932:11950   */\n      tag_292\n      tag_151\n      jump\t// in\n    tag_292:\n        /* \"#utility.yul\":11915:11952   */\n    tag_291:\n        /* \"#utility.yul\":11765:11959   */\n      swap3\n      swap2\n      pop\n      pop\n      jump\t// out\n        /* \"#utility.yul\":11965:12375   */\n    tag_123:\n        /* \"#utility.yul\":12005:12012   */\n      0x00\n        /* \"#utility.yul\":12028:12048   */\n      tag_294\n        /* \"#utility.yul\":12046:12047   */\n      dup3\n        /* \"#utility.yul\":12028:12048   */\n      tag_135\n      jump\t// in\n    tag_294:\n        /* \"#utility.yul\":12023:12048   */\n      swap2\n      pop\n        /* \"#utility.yul\":12062:12082   */\n      tag_295\n        /* \"#utility.yul\":12080:12081   */\n      dup4\n        /* \"#utility.yul\":12062:12082   */\n      tag_135\n      jump\t// in\n    tag_295:\n        /* \"#utility.yul\":12057:12082   */\n      swap3\n      pop\n        /* \"#utility.yul\":12117:12118   */\n      dup3\n        /* \"#utility.yul\":12114:12115   */\n      dup3\n        /* \"#utility.yul\":12110:12119   */\n      mul\n        /* \"#utility.yul\":12139:12169   */\n      tag_296\n        /* \"#utility.yul\":12157:12168   */\n      dup2\n        /* \"#utility.yul\":12139:12169   */\n      tag_135\n      jump\t// in\n    tag_296:\n        /* \"#utility.yul\":12128:12169   */\n      swap2\n      pop\n        /* \"#utility.yul\":12318:12319   */\n      dup3\n        /* \"#utility.yul\":12309:12316   */\n      dup3\n        /* \"#utility.yul\":12305:12320   */\n      div\n        /* \"#utility.yul\":12302:12303   */\n      dup5\n        /* \"#utility.yul\":12299:12321   */\n      eq\n        /* \"#utility.yul\":12279:12280   */\n      dup4\n        /* \"#utility.yul\":12272:12281   */\n      iszero\n        /* \"#utility.yul\":12252:12335   */\n      or\n        /* \"#utility.yul\":12229:12368   */\n      tag_297\n      jumpi\n        /* \"#utility.yul\":12348:12366   */\n      tag_298\n      tag_151\n      jump\t// in\n    tag_298:\n        /* \"#utility.yul\":12229:12368   */\n    tag_297:\n        /* \"#utility.yul\":12013:12375   */\n      pop\n        /* \"#utility.yul\":11965:12375   */\n      swap3\n      swap2\n      pop\n      pop\n      jump\t// out\n        /* \"#utility.yul\":12381:12561   */\n    tag_158:\n        /* \"#utility.yul\":12429:12506   */\n      0x4e487b7100000000000000000000000000000000000000000000000000000000\n        /* \"#utility.yul\":12426:12427   */\n      0x00\n        /* \"#utility.yul\":12419:12507   */\n      mstore\n        /* \"#utility.yul\":12526:12530   */\n      0x12\n        /* \"#utility.yul\":12523:12524   */\n      0x04\n        /* \"#utility.yul\":12516:12531   */\n      mstore\n        /* \"#utility.yul\":12550:12554   */\n      0x24\n        /* \"#utility.yul\":12547:12548   */\n      0x00\n        /* \"#utility.yul\":12540:12555   */\n      revert\n        /* \"#utility.yul\":12567:12752   */\n    tag_125:\n        /* \"#utility.yul\":12607:12608   */\n      0x00\n        /* \"#utility.yul\":12624:12644   */\n      tag_301\n        /* \"#utility.yul\":12642:12643   */\n      dup3\n        /* \"#utility.yul\":12624:12644   */\n      tag_135\n      jump\t// in\n    tag_301:\n        /* \"#utility.yul\":12619:12644   */\n      swap2\n      pop\n        /* \"#utility.yul\":12658:12678   */\n      tag_302\n        /* \"#utility.yul\":12676:12677   */\n      dup4\n        /* \"#utility.yul\":12658:12678   */\n      tag_135\n      jump\t// in\n    tag_302:\n        /* \"#utility.yul\":12653:12678   */\n      swap3\n      pop\n        /* \"#utility.yul\":12697:12698   */\n      dup3\n        /* \"#utility.yul\":12687:12722   */\n      tag_303\n      jumpi\n        /* \"#utility.yul\":12702:12720   */\n      tag_304\n      tag_158\n      jump\t// in\n    tag_304:\n        /* \"#utility.yul\":12687:12722   */\n    tag_303:\n        /* \"#utility.yul\":12744:12745   */\n      dup3\n        /* \"#utility.yul\":12741:12742   */\n      dup3\n        /* \"#utility.yul\":12737:12746   */\n      div\n        /* \"#utility.yul\":12732:12746   */\n      swap1\n      pop\n        /* \"#utility.yul\":12567:12752   */\n      swap3\n      swap2\n      pop\n      pop\n      jump\t// out\n\n    auxdata: 0xa2646970667358221220f85d1587301580b30bd5bc3a453350f082122669be7778d132f44daa7f89e71164736f6c634300081a0033\n}\n",
				"bytecode": {
					"linkReferences": {},
					"object": "60806040526003600255348015610014575f80fd5b506040516112533803806112538339818101604052810190610036919061015c565b8260035f6101000a81548173ffffffffffffffffffffffffffffffffffffffff021916908373ffffffffffffffffffffffffffffffffffffffff1602179055508160045f6101000a81548173ffffffffffffffffffffffffffffffffffffffff021916908373ffffffffffffffffffffffffffffffffffffffff1602179055508060055f6101000a81548173ffffffffffffffffffffffffffffffffffffffff021916908373ffffffffffffffffffffffffffffffffffffffff1602179055505050506101ac565b5f80fd5b5f73ffffffffffffffffffffffffffffffffffffffff82169050919050565b5f61012b82610102565b9050919050565b61013b81610121565b8114610145575f80fd5b50565b5f8151905061015681610132565b92915050565b5f805f60608486031215610173576101726100fe565b5b5f61018086828701610148565b935050602061019186828701610148565b92505060406101a286828701610148565b9150509250925092565b61109a806101b95f395ff3fe608060405234801561000f575f80fd5b50600436106100b2575f3560e01c80638da7ad231161006f5780638da7ad2314610178578063c079c318146101a8578063c45a0155146101c4578063f61ea571146101e2578063f7655d5614610212578063f96dae0a14610230576100b2565b80630fc63d10146100b65780632aea6605146100d457806345c442e3146100f05780635a6c72d01461010c5780635f64b55b1461012a5780638222486914610148575b5f80fd5b6100be61024e565b6040516100cb9190610a5d565b60405180910390f35b6100ee60048036038101906100e99190610ae2565b610273565b005b61010a60048036038101906101059190610b5b565b6105ee565b005b610114610732565b6040516101219190610ba8565b60405180910390f35b610132610738565b60405161013f9190610a5d565b60405180910390f35b610162600480360381019061015d9190610bc1565b61075d565b60405161016f9190610bfb565b60405180910390f35b610192600480360381019061018d9190610bc1565b61077a565b60405161019f9190610ba8565b60405180910390f35b6101c260048036038101906101bd9190610c14565b61078f565b005b6101cc61089d565b6040516101d99190610c4e565b60405180910390f35b6101fc60048036038101906101f79190610c67565b6108c0565b6040516102099190610c4e565b60405180910390f35b61021a610964565b6040516102279190610cc5565b60405180910390f35b610238610989565b6040516102459190610c4e565b60405180910390f35b60035f9054906101000a900473ffffffffffffffffffffffffffffffffffffffff1681565b5f60055f9054906101000a900473ffffffffffffffffffffffffffffffffffffffff1673ffffffffffffffffffffffffffffffffffffffff16631bd8db036040518163ffffffff1660e01b8152600401602060405180830381865afa1580156102de573d5f803e3d5ffd5b505050506040513d601f19601f820116820180604052508101906103029190610cf2565b90505f6103108483856109ae565b905082156104595760035f9054906101000a900473ffffffffffffffffffffffffffffffffffffffff1673ffffffffffffffffffffffffffffffffffffffff166323b872dd3330876040518463ffffffff1660e01b815260040161037693929190610d1d565b6020604051808303815f875af1158015610392573d5f803e3d5ffd5b505050506040513d601f19601f820116820180604052508101906103b69190610d66565b5060045f9054906101000a900473ffffffffffffffffffffffffffffffffffffffff1673ffffffffffffffffffffffffffffffffffffffff1663a9059cbb33836040518363ffffffff1660e01b8152600401610413929190610d91565b6020604051808303815f875af115801561042f573d5f803e3d5ffd5b505050506040513d601f19601f820116820180604052508101906104539190610d66565b50610596565b60045f9054906101000a900473ffffffffffffffffffffffffffffffffffffffff1673ffffffffffffffffffffffffffffffffffffffff166323b872dd3330876040518463ffffffff1660e01b81526004016104b793929190610d1d565b6020604051808303815f875af11580156104d3573d5f803e3d5ffd5b505050506040513d601f19601f820116820180604052508101906104f79190610d66565b5060035f9054906101000a900473ffffffffffffffffffffffffffffffffffffffff1673ffffffffffffffffffffffffffffffffffffffff1663a9059cbb33836040518363ffffffff1660e01b8152600401610554929190610d91565b6020604051808303815f875af1158015610570573d5f803e3d5ffd5b505050506040513d601f19601f820116820180604052508101906105949190610d66565b505b3373ffffffffffffffffffffffffffffffffffffffff167fe3a277e9dc82afe4d40533f81d7299e0d9ca6d4ed93e2bbe5d94a93eaf0a5b5f8583856040516105e093929190610db8565b60405180910390a250505050565b60015f9054906101000a900473ffffffffffffffffffffffffffffffffffffffff1673ffffffffffffffffffffffffffffffffffffffff166323b872dd3330846040518463ffffffff1660e01b815260040161064c93929190610d1d565b6020604051808303815f875af1158015610668573d5f803e3d5ffd5b505050506040513d601f19601f8201168201806040525081019061068c9190610d66565b508060065f3373ffffffffffffffffffffffffffffffffffffffff1673ffffffffffffffffffffffffffffffffffffffff1681526020019081526020015f205f8282546106d99190610e1a565b925050819055503373ffffffffffffffffffffffffffffffffffffffff167f4bb73a9896fa16d063ba06a3803cba6d97a7fb5521820b11842dff98fb3493f1826040516107269190610ba8565b60405180910390a25050565b60025481565b60045f9054906101000a900473ffffffffffffffffffffffffffffffffffffffff1681565b6007602052805f5260405f205f915054906101000a900460ff1681565b6006602052805f5260405f205f915090505481565b60075f3373ffffffffffffffffffffffffffffffffffffffff1673ffffffffffffffffffffffffffffffffffffffff1681526020019081526020015f205f9054906101000a900460ff16610818576040517f08c379a000000000000000000000000000000000000000000000000000000000815260040161080f90610ea7565b60405180910390fd5b600a81111561085c576040517f08c379a000000000000000000000000000000000000000000000000000000000815260040161085390610f0f565b60405180910390fd5b806002819055507f8f0bb2e9dd4d9e8f7b5a5a5e6ec3ecfb088b85352c3405f9bf7fef9fcf4b50c1816040516108929190610ba8565b60405180910390a150565b5f8054906101000a900473ffffffffffffffffffffffffffffffffffffffff1681565b5f805f9054906101000a900473ffffffffffffffffffffffffffffffffffffffff1673ffffffffffffffffffffffffffffffffffffffff1663c9c6539684846040518363ffffffff1660e01b815260040161091c929190610f2d565b6020604051808303815f875af1158015610938573d5f803e3d5ffd5b505050506040513d601f19601f8201168201806040525081019061095c9190610f68565b905092915050565b60055f9054906101000a900473ffffffffffffffffffffffffffffffffffffffff1681565b60015f9054906101000a900473ffffffffffffffffffffffffffffffffffffffff1681565b5f80612710846127106109c19190610f93565b866109cc9190610fc6565b6109d69190611034565b9050809150509392505050565b5f73ffffffffffffffffffffffffffffffffffffffff82169050919050565b5f819050919050565b5f610a25610a20610a1b846109e3565b610a02565b6109e3565b9050919050565b5f610a3682610a0b565b9050919050565b5f610a4782610a2c565b9050919050565b610a5781610a3d565b82525050565b5f602082019050610a705f830184610a4e565b92915050565b5f80fd5b5f819050919050565b610a8c81610a7a565b8114610a96575f80fd5b50565b5f81359050610aa781610a83565b92915050565b5f8115159050919050565b610ac181610aad565b8114610acb575f80fd5b50565b5f81359050610adc81610ab8565b92915050565b5f8060408385031215610af857610af7610a76565b5b5f610b0585828601610a99565b9250506020610b1685828601610ace565b9150509250929050565b5f610b2a826109e3565b9050919050565b610b3a81610b20565b8114610b44575f80fd5b50565b5f81359050610b5581610b31565b92915050565b5f8060408385031215610b7157610b70610a76565b5b5f610b7e85828601610b47565b9250506020610b8f85828601610a99565b9150509250929050565b610ba281610a7a565b82525050565b5f602082019050610bbb5f830184610b99565b92915050565b5f60208284031215610bd657610bd5610a76565b5b5f610be384828501610b47565b91505092915050565b610bf581610aad565b82525050565b5f602082019050610c0e5f830184610bec565b92915050565b5f60208284031215610c2957610c28610a76565b5b5f610c3684828501610a99565b91505092915050565b610c4881610b20565b82525050565b5f602082019050610c615f830184610c3f565b92915050565b5f8060408385031215610c7d57610c7c610a76565b5b5f610c8a85828601610b47565b9250506020610c9b85828601610b47565b9150509250929050565b5f610caf82610a2c565b9050919050565b610cbf81610ca5565b82525050565b5f602082019050610cd85f830184610cb6565b92915050565b5f81519050610cec81610a83565b92915050565b5f60208284031215610d0757610d06610a76565b5b5f610d1484828501610cde565b91505092915050565b5f606082019050610d305f830186610c3f565b610d3d6020830185610c3f565b610d4a6040830184610b99565b949350505050565b5f81519050610d6081610ab8565b92915050565b5f60208284031215610d7b57610d7a610a76565b5b5f610d8884828501610d52565b91505092915050565b5f604082019050610da45f830185610c3f565b610db16020830184610b99565b9392505050565b5f606082019050610dcb5f830186610b99565b610dd86020830185610b99565b610de56040830184610b99565b949350505050565b7f4e487b71000000000000000000000000000000000000000000000000000000005f52601160045260245ffd5b5f610e2482610a7a565b9150610e2f83610a7a565b9250828201905080821115610e4757610e46610ded565b5b92915050565b5f82825260208201905092915050565b7f4e6f74206120676f7665726e616e6365206d656d6265720000000000000000005f82015250565b5f610e91601783610e4d565b9150610e9c82610e5d565b602082019050919050565b5f6020820190508181035f830152610ebe81610e85565b9050919050565b7f46656520746f6f206869676800000000000000000000000000000000000000005f82015250565b5f610ef9600c83610e4d565b9150610f0482610ec5565b602082019050919050565b5f6020820190508181035f830152610f2681610eed565b9050919050565b5f604082019050610f405f830185610c3f565b610f4d6020830184610c3f565b9392505050565b5f81519050610f6281610b31565b92915050565b5f60208284031215610f7d57610f7c610a76565b5b5f610f8a84828501610f54565b91505092915050565b5f610f9d82610a7a565b9150610fa883610a7a565b9250828203905081811115610fc057610fbf610ded565b5b92915050565b5f610fd082610a7a565b9150610fdb83610a7a565b9250828202610fe981610a7a565b9150828204841483151761100057610fff610ded565b5b5092915050565b7f4e487b71000000000000000000000000000000000000000000000000000000005f52601260045260245ffd5b5f61103e82610a7a565b915061104983610a7a565b92508261105957611058611007565b5b82820490509291505056fea2646970667358221220f85d1587301580b30bd5bc3a453350f082122669be7778d132f44daa7f89e71164736f6c634300081a0033",
					"opcodes": "PUSH1 0x80 PUSH1 0x40 MSTORE PUSH1 0x3 PUSH1 0x2 SSTORE CALLVALUE DUP1 ISZERO PUSH2 0x14 JUMPI PUSH0 DUP1 REVERT JUMPDEST POP PUSH1 0x40 MLOAD PUSH2 0x1253 CODESIZE SUB DUP1 PUSH2 0x1253 DUP4 CODECOPY DUP2 DUP2 ADD PUSH1 0x40 MSTORE DUP2 ADD SWAP1 PUSH2 0x36 SWAP2 SWAP1 PUSH2 0x15C JUMP JUMPDEST DUP3 PUSH1 0x3 PUSH0 PUSH2 0x100 EXP DUP2 SLOAD DUP2 PUSH20 0xFFFFFFFFFFFFFFFFFFFFFFFFFFFFFFFFFFFFFFFF MUL NOT AND SWAP1 DUP4 PUSH20 0xFFFFFFFFFFFFFFFFFFFFFFFFFFFFFFFFFFFFFFFF AND MUL OR SWAP1 SSTORE POP DUP2 PUSH1 0x4 PUSH0 PUSH2 0x100 EXP DUP2 SLOAD DUP2 PUSH20 0xFFFFFFFFFFFFFFFFFFFFFFFFFFFFFFFFFFFFFFFF MUL NOT AND SWAP1 DUP4 PUSH20 0xFFFFFFFFFFFFFFFFFFFFFFFFFFFFFFFFFFFFFFFF AND MUL OR SWAP1 SSTORE POP DUP1 PUSH1 0x5 PUSH0 PUSH2 0x100 EXP DUP2 SLOAD DUP2 PUSH20 0xFFFFFFFFFFFFFFFFFFFFFFFFFFFFFFFFFFFFFFFF MUL NOT AND SWAP1 DUP4 PUSH20 0xFFFFFFFFFFFFFFFFFFFFFFFFFFFFFFFFFFFFFFFF AND MUL OR SWAP1 SSTORE POP POP POP POP PUSH2 0x1AC JUMP JUMPDEST PUSH0 DUP1 REVERT JUMPDEST PUSH0 PUSH20 0xFFFFFFFFFFFFFFFFFFFFFFFFFFFFFFFFFFFFFFFF DUP3 AND SWAP1 POP SWAP2 SWAP1 POP JUMP JUMPDEST PUSH0 PUSH2 0x12B DUP3 PUSH2 0x102 JUMP JUMPDEST SWAP1 POP SWAP2 SWAP1 POP JUMP JUMPDEST PUSH2 0x13B DUP2 PUSH2 0x121 JUMP JUMPDEST DUP2 EQ PUSH2 0x145 JUMPI PUSH0 DUP1 REVERT JUMPDEST POP JUMP JUMPDEST PUSH0 DUP2 MLOAD SWAP1 POP PUSH2 0x156 DUP2 PUSH2 0x132 JUMP JUMPDEST SWAP3 SWAP2 POP POP JUMP JUMPDEST PUSH0 DUP1 PUSH0 PUSH1 0x60 DUP5 DUP7 SUB SLT ISZERO PUSH2 0x173 JUMPI PUSH2 0x172 PUSH2 0xFE JUMP JUMPDEST JUMPDEST PUSH0 PUSH2 0x180 DUP7 DUP3 DUP8 ADD PUSH2 0x148 JUMP JUMPDEST SWAP4 POP POP PUSH1 0x20 PUSH2 0x191 DUP7 DUP3 DUP8 ADD PUSH2 0x148 JUMP JUMPDEST SWAP3 POP POP PUSH1 0x40 PUSH2 0x1A2 DUP7 DUP3 DUP8 ADD PUSH2 0x148 JUMP JUMPDEST SWAP2 POP POP SWAP3 POP SWAP3 POP SWAP3 JUMP JUMPDEST PUSH2 0x109A DUP1 PUSH2 0x1B9 PUSH0 CODECOPY PUSH0 RETURN INVALID PUSH1 0x80 PUSH1 0x40 MSTORE CALLVALUE DUP1 ISZERO PUSH2 0xF JUMPI PUSH0 DUP1 REVERT JUMPDEST POP PUSH1 0x4 CALLDATASIZE LT PUSH2 0xB2 JUMPI PUSH0 CALLDATALOAD PUSH1 0xE0 SHR DUP1 PUSH4 0x8DA7AD23 GT PUSH2 0x6F JUMPI DUP1 PUSH4 0x8DA7AD23 EQ PUSH2 0x178 JUMPI DUP1 PUSH4 0xC079C318 EQ PUSH2 0x1A8 JUMPI DUP1 PUSH4 0xC45A0155 EQ PUSH2 0x1C4 JUMPI DUP1 PUSH4 0xF61EA571 EQ PUSH2 0x1E2 JUMPI DUP1 PUSH4 0xF7655D56 EQ PUSH2 0x212 JUMPI DUP1 PUSH4 0xF96DAE0A EQ PUSH2 0x230 JUMPI PUSH2 0xB2 JUMP JUMPDEST DUP1 PUSH4 0xFC63D10 EQ PUSH2 0xB6 JUMPI DUP1 PUSH4 0x2AEA6605 EQ PUSH2 0xD4 JUMPI DUP1 PUSH4 0x45C442E3 EQ PUSH2 0xF0 JUMPI DUP1 PUSH4 0x5A6C72D0 EQ PUSH2 0x10C JUMPI DUP1 PUSH4 0x5F64B55B EQ PUSH2 0x12A JUMPI DUP1 PUSH4 0x82224869 EQ PUSH2 0x148 JUMPI JUMPDEST PUSH0 DUP1 REVERT JUMPDEST PUSH2 0xBE PUSH2 0x24E JUMP JUMPDEST PUSH1 0x40 MLOAD PUSH2 0xCB SWAP2 SWAP1 PUSH2 0xA5D JUMP JUMPDEST PUSH1 0x40 MLOAD DUP1 SWAP2 SUB SWAP1 RETURN JUMPDEST PUSH2 0xEE PUSH1 0x4 DUP1 CALLDATASIZE SUB DUP2 ADD SWAP1 PUSH2 0xE9 SWAP2 SWAP1 PUSH2 0xAE2 JUMP JUMPDEST PUSH2 0x273 JUMP JUMPDEST STOP JUMPDEST PUSH2 0x10A PUSH1 0x4 DUP1 CALLDATASIZE SUB DUP2 ADD SWAP1 PUSH2 0x105 SWAP2 SWAP1 PUSH2 0xB5B JUMP JUMPDEST PUSH2 0x5EE JUMP JUMPDEST STOP JUMPDEST PUSH2 0x114 PUSH2 0x732 JUMP JUMPDEST PUSH1 0x40 MLOAD PUSH2 0x121 SWAP2 SWAP1 PUSH2 0xBA8 JUMP JUMPDEST PUSH1 0x40 MLOAD DUP1 SWAP2 SUB SWAP1 RETURN JUMPDEST PUSH2 0x132 PUSH2 0x738 JUMP JUMPDEST PUSH1 0x40 MLOAD PUSH2 0x13F SWAP2 SWAP1 PUSH2 0xA5D JUMP JUMPDEST PUSH1 0x40 MLOAD DUP1 SWAP2 SUB SWAP1 RETURN JUMPDEST PUSH2 0x162 PUSH1 0x4 DUP1 CALLDATASIZE SUB DUP2 ADD SWAP1 PUSH2 0x15D SWAP2 SWAP1 PUSH2 0xBC1 JUMP JUMPDEST PUSH2 0x75D JUMP JUMPDEST PUSH1 0x40 MLOAD PUSH2 0x16F SWAP2 SWAP1 PUSH2 0xBFB JUMP JUMPDEST PUSH1 0x40 MLOAD DUP1 SWAP2 SUB SWAP1 RETURN JUMPDEST PUSH2 0x192 PUSH1 0x4 DUP1 CALLDATASIZE SUB DUP2 ADD SWAP1 PUSH2 0x18D SWAP2 SWAP1 PUSH2 0xBC1 JUMP JUMPDEST PUSH2 0x77A JUMP JUMPDEST PUSH1 0x40 MLOAD PUSH2 0x19F SWAP2 SWAP1 PUSH2 0xBA8 JUMP JUMPDEST PUSH1 0x40 MLOAD DUP1 SWAP2 SUB SWAP1 RETURN JUMPDEST PUSH2 0x1C2 PUSH1 0x4 DUP1 CALLDATASIZE SUB DUP2 ADD SWAP1 PUSH2 0x1BD SWAP2 SWAP1 PUSH2 0xC14 JUMP JUMPDEST PUSH2 0x78F JUMP JUMPDEST STOP JUMPDEST PUSH2 0x1CC PUSH2 0x89D JUMP JUMPDEST PUSH1 0x40 MLOAD PUSH2 0x1D9 SWAP2 SWAP1 PUSH2 0xC4E JUMP JUMPDEST PUSH1 0x40 MLOAD DUP1 SWAP2 SUB SWAP1 RETURN JUMPDEST PUSH2 0x1FC PUSH1 0x4 DUP1 CALLDATASIZE SUB DUP2 ADD SWAP1 PUSH2 0x1F7 SWAP2 SWAP1 PUSH2 0xC67 JUMP JUMPDEST PUSH2 0x8C0 JUMP JUMPDEST PUSH1 0x40 MLOAD PUSH2 0x209 SWAP2 SWAP1 PUSH2 0xC4E JUMP JUMPDEST PUSH1 0x40 MLOAD DUP1 SWAP2 SUB SWAP1 RETURN JUMPDEST PUSH2 0x21A PUSH2 0x964 JUMP JUMPDEST PUSH1 0x40 MLOAD PUSH2 0x227 SWAP2 SWAP1 PUSH2 0xCC5 JUMP JUMPDEST PUSH1 0x40 MLOAD DUP1 SWAP2 SUB SWAP1 RETURN JUMPDEST PUSH2 0x238 PUSH2 0x989 JUMP JUMPDEST PUSH1 0x40 MLOAD PUSH2 0x245 SWAP2 SWAP1 PUSH2 0xC4E JUMP JUMPDEST PUSH1 0x40 MLOAD DUP1 SWAP2 SUB SWAP1 RETURN JUMPDEST PUSH1 0x3 PUSH0 SWAP1 SLOAD SWAP1 PUSH2 0x100 EXP SWAP1 DIV PUSH20 0xFFFFFFFFFFFFFFFFFFFFFFFFFFFFFFFFFFFFFFFF AND DUP2 JUMP JUMPDEST PUSH0 PUSH1 0x5 PUSH0 SWAP1 SLOAD SWAP1 PUSH2 0x100 EXP SWAP1 DIV PUSH20 0xFFFFFFFFFFFFFFFFFFFFFFFFFFFFFFFFFFFFFFFF AND PUSH20 0xFFFFFFFFFFFFFFFFFFFFFFFFFFFFFFFFFFFFFFFF AND PUSH4 0x1BD8DB03 PUSH1 0x40 MLOAD DUP2 PUSH4 0xFFFFFFFF AND PUSH1 0xE0 SHL DUP2 MSTORE PUSH1 0x4 ADD PUSH1 0x20 PUSH1 0x40 MLOAD DUP1 DUP4 SUB DUP2 DUP7 GAS STATICCALL ISZERO DUP1 ISZERO PUSH2 0x2DE JUMPI RETURNDATASIZE PUSH0 DUP1 RETURNDATACOPY RETURNDATASIZE PUSH0 REVERT JUMPDEST POP POP POP POP PUSH1 0x40 MLOAD RETURNDATASIZE PUSH1 0x1F NOT PUSH1 0x1F DUP3 ADD AND DUP3 ADD DUP1 PUSH1 0x40 MSTORE POP DUP2 ADD SWAP1 PUSH2 0x302 SWAP2 SWAP1 PUSH2 0xCF2 JUMP JUMPDEST SWAP1 POP PUSH0 PUSH2 0x310 DUP5 DUP4 DUP6 PUSH2 0x9AE JUMP JUMPDEST SWAP1 POP DUP3 ISZERO PUSH2 0x459 JUMPI PUSH1 0x3 PUSH0 SWAP1 SLOAD SWAP1 PUSH2 0x100 EXP SWAP1 DIV PUSH20 0xFFFFFFFFFFFFFFFFFFFFFFFFFFFFFFFFFFFFFFFF AND PUSH20 0xFFFFFFFFFFFFFFFFFFFFFFFFFFFFFFFFFFFFFFFF AND PUSH4 0x23B872DD CALLER ADDRESS DUP8 PUSH1 0x40 MLOAD DUP5 PUSH4 0xFFFFFFFF AND PUSH1 0xE0 SHL DUP2 MSTORE PUSH1 0x4 ADD PUSH2 0x376 SWAP4 SWAP3 SWAP2 SWAP1 PUSH2 0xD1D JUMP JUMPDEST PUSH1 0x20 PUSH1 0x40 MLOAD DUP1 DUP4 SUB DUP2 PUSH0 DUP8 GAS CALL ISZERO DUP1 ISZERO PUSH2 0x392 JUMPI RETURNDATASIZE PUSH0 DUP1 RETURNDATACOPY RETURNDATASIZE PUSH0 REVERT JUMPDEST POP POP POP POP PUSH1 0x40 MLOAD RETURNDATASIZE PUSH1 0x1F NOT PUSH1 0x1F DUP3 ADD AND DUP3 ADD DUP1 PUSH1 0x40 MSTORE POP DUP2 ADD SWAP1 PUSH2 0x3B6 SWAP2 SWAP1 PUSH2 0xD66 JUMP JUMPDEST POP PUSH1 0x4 PUSH0 SWAP1 SLOAD SWAP1 PUSH2 0x100 EXP SWAP1 DIV PUSH20 0xFFFFFFFFFFFFFFFFFFFFFFFFFFFFFFFFFFFFFFFF AND PUSH20 0xFFFFFFFFFFFFFFFFFFFFFFFFFFFFFFFFFFFFFFFF AND PUSH4 0xA9059CBB CALLER DUP4 PUSH1 0x40 MLOAD DUP4 PUSH4 0xFFFFFFFF AND PUSH1 0xE0 SHL DUP2 MSTORE PUSH1 0x4 ADD PUSH2 0x413 SWAP3 SWAP2 SWAP1 PUSH2 0xD91 JUMP JUMPDEST PUSH1 0x20 PUSH1 0x40 MLOAD DUP1 DUP4 SUB DUP2 PUSH0 DUP8 GAS CALL ISZERO DUP1 ISZERO PUSH2 0x42F JUMPI RETURNDATASIZE PUSH0 DUP1 RETURNDATACOPY RETURNDATASIZE PUSH0 REVERT JUMPDEST POP POP POP POP PUSH1 0x40 MLOAD RETURNDATASIZE PUSH1 0x1F NOT PUSH1 0x1F DUP3 ADD AND DUP3 ADD DUP1 PUSH1 0x40 MSTORE POP DUP2 ADD SWAP1 PUSH2 0x453 SWAP2 SWAP1 PUSH2 0xD66 JUMP JUMPDEST POP PUSH2 0x596 JUMP JUMPDEST PUSH1 0x4 PUSH0 SWAP1 SLOAD SWAP1 PUSH2 0x100 EXP SWAP1 DIV PUSH20 0xFFFFFFFFFFFFFFFFFFFFFFFFFFFFFFFFFFFFFFFF AND PUSH20 0xFFFFFFFFFFFFFFFFFFFFFFFFFFFFFFFFFFFFFFFF AND PUSH4 0x23B872DD CALLER ADDRESS DUP8 PUSH1 0x40 MLOAD DUP5 PUSH4 0xFFFFFFFF AND PUSH1 0xE0 SHL DUP2 MSTORE PUSH1 0x4 ADD PUSH2 0x4B7 SWAP4 SWAP3 SWAP2 SWAP1 PUSH2 0xD1D JUMP JUMPDEST PUSH1 0x20 PUSH1 0x40 MLOAD DUP1 DUP4 SUB DUP2 PUSH0 DUP8 GAS CALL ISZERO DUP1 ISZERO PUSH2 0x4D3 JUMPI RETURNDATASIZE PUSH0 DUP1 RETURNDATACOPY RETURNDATASIZE PUSH0 REVERT JUMPDEST POP POP POP POP PUSH1 0x40 MLOAD RETURNDATASIZE PUSH1 0x1F NOT PUSH1 0x1F DUP3 ADD AND DUP3 ADD DUP1 PUSH1 0x40 MSTORE POP DUP2 ADD SWAP1 PUSH2 0x4F7 SWAP2 SWAP1 PUSH2 0xD66 JUMP JUMPDEST POP PUSH1 0x3 PUSH0 SWAP1 SLOAD SWAP1 PUSH2 0x100 EXP SWAP1 DIV PUSH20 0xFFFFFFFFFFFFFFFFFFFFFFFFFFFFFFFFFFFFFFFF AND PUSH20 0xFFFFFFFFFFFFFFFFFFFFFFFFFFFFFFFFFFFFFFFF AND PUSH4 0xA9059CBB CALLER DUP4 PUSH1 0x40 MLOAD DUP4 PUSH4 0xFFFFFFFF AND PUSH1 0xE0 SHL DUP2 MSTORE PUSH1 0x4 ADD PUSH2 0x554 SWAP3 SWAP2 SWAP1 PUSH2 0xD91 JUMP JUMPDEST PUSH1 0x20 PUSH1 0x40 MLOAD DUP1 DUP4 SUB DUP2 PUSH0 DUP8 GAS CALL ISZERO DUP1 ISZERO PUSH2 0x570 JUMPI RETURNDATASIZE PUSH0 DUP1 RETURNDATACOPY RETURNDATASIZE PUSH0 REVERT JUMPDEST POP POP POP POP PUSH1 0x40 MLOAD RETURNDATASIZE PUSH1 0x1F NOT PUSH1 0x1F DUP3 ADD AND DUP3 ADD DUP1 PUSH1 0x40 MSTORE POP DUP2 ADD SWAP1 PUSH2 0x594 SWAP2 SWAP1 PUSH2 0xD66 JUMP JUMPDEST POP JUMPDEST CALLER PUSH20 0xFFFFFFFFFFFFFFFFFFFFFFFFFFFFFFFFFFFFFFFF AND PUSH32 0xE3A277E9DC82AFE4D40533F81D7299E0D9CA6D4ED93E2BBE5D94A93EAF0A5B5F DUP6 DUP4 DUP6 PUSH1 0x40 MLOAD PUSH2 0x5E0 SWAP4 SWAP3 SWAP2 SWAP1 PUSH2 0xDB8 JUMP JUMPDEST PUSH1 0x40 MLOAD DUP1 SWAP2 SUB SWAP1 LOG2 POP POP POP POP JUMP JUMPDEST PUSH1 0x1 PUSH0 SWAP1 SLOAD SWAP1 PUSH2 0x100 EXP SWAP1 DIV PUSH20 0xFFFFFFFFFFFFFFFFFFFFFFFFFFFFFFFFFFFFFFFF AND PUSH20 0xFFFFFFFFFFFFFFFFFFFFFFFFFFFFFFFFFFFFFFFF AND PUSH4 0x23B872DD CALLER ADDRESS DUP5 PUSH1 0x40 MLOAD DUP5 PUSH4 0xFFFFFFFF AND PUSH1 0xE0 SHL DUP2 MSTORE PUSH1 0x4 ADD PUSH2 0x64C SWAP4 SWAP3 SWAP2 SWAP1 PUSH2 0xD1D JUMP JUMPDEST PUSH1 0x20 PUSH1 0x40 MLOAD DUP1 DUP4 SUB DUP2 PUSH0 DUP8 GAS CALL ISZERO DUP1 ISZERO PUSH2 0x668 JUMPI RETURNDATASIZE PUSH0 DUP1 RETURNDATACOPY RETURNDATASIZE PUSH0 REVERT JUMPDEST POP POP POP POP PUSH1 0x40 MLOAD RETURNDATASIZE PUSH1 0x1F NOT PUSH1 0x1F DUP3 ADD AND DUP3 ADD DUP1 PUSH1 0x40 MSTORE POP DUP2 ADD SWAP1 PUSH2 0x68C SWAP2 SWAP1 PUSH2 0xD66 JUMP JUMPDEST POP DUP1 PUSH1 0x6 PUSH0 CALLER PUSH20 0xFFFFFFFFFFFFFFFFFFFFFFFFFFFFFFFFFFFFFFFF AND PUSH20 0xFFFFFFFFFFFFFFFFFFFFFFFFFFFFFFFFFFFFFFFF AND DUP2 MSTORE PUSH1 0x20 ADD SWAP1 DUP2 MSTORE PUSH1 0x20 ADD PUSH0 KECCAK256 PUSH0 DUP3 DUP3 SLOAD PUSH2 0x6D9 SWAP2 SWAP1 PUSH2 0xE1A JUMP JUMPDEST SWAP3 POP POP DUP2 SWAP1 SSTORE POP CALLER PUSH20 0xFFFFFFFFFFFFFFFFFFFFFFFFFFFFFFFFFFFFFFFF AND PUSH32 0x4BB73A9896FA16D063BA06A3803CBA6D97A7FB5521820B11842DFF98FB3493F1 DUP3 PUSH1 0x40 MLOAD PUSH2 0x726 SWAP2 SWAP1 PUSH2 0xBA8 JUMP JUMPDEST PUSH1 0x40 MLOAD DUP1 SWAP2 SUB SWAP1 LOG2 POP POP JUMP JUMPDEST PUSH1 0x2 SLOAD DUP2 JUMP JUMPDEST PUSH1 0x4 PUSH0 SWAP1 SLOAD SWAP1 PUSH2 0x100 EXP SWAP1 DIV PUSH20 0xFFFFFFFFFFFFFFFFFFFFFFFFFFFFFFFFFFFFFFFF AND DUP2 JUMP JUMPDEST PUSH1 0x7 PUSH1 0x20 MSTORE DUP1 PUSH0 MSTORE PUSH1 0x40 PUSH0 KECCAK256 PUSH0 SWAP2 POP SLOAD SWAP1 PUSH2 0x100 EXP SWAP1 DIV PUSH1 0xFF AND DUP2 JUMP JUMPDEST PUSH1 0x6 PUSH1 0x20 MSTORE DUP1 PUSH0 MSTORE PUSH1 0x40 PUSH0 KECCAK256 PUSH0 SWAP2 POP SWAP1 POP SLOAD DUP2 JUMP JUMPDEST PUSH1 0x7 PUSH0 CALLER PUSH20 0xFFFFFFFFFFFFFFFFFFFFFFFFFFFFFFFFFFFFFFFF AND PUSH20 0xFFFFFFFFFFFFFFFFFFFFFFFFFFFFFFFFFFFFFFFF AND DUP2 MSTORE PUSH1 0x20 ADD SWAP1 DUP2 MSTORE PUSH1 0x20 ADD PUSH0 KECCAK256 PUSH0 SWAP1 SLOAD SWAP1 PUSH2 0x100 EXP SWAP1 DIV PUSH1 0xFF AND PUSH2 0x818 JUMPI PUSH1 0x40 MLOAD PUSH32 0x8C379A000000000000000000000000000000000000000000000000000000000 DUP2 MSTORE PUSH1 0x4 ADD PUSH2 0x80F SWAP1 PUSH2 0xEA7 JUMP JUMPDEST PUSH1 0x40 MLOAD DUP1 SWAP2 SUB SWAP1 REVERT JUMPDEST PUSH1 0xA DUP2 GT ISZERO PUSH2 0x85C JUMPI PUSH1 0x40 MLOAD PUSH32 0x8C379A000000000000000000000000000000000000000000000000000000000 DUP2 MSTORE PUSH1 0x4 ADD PUSH2 0x853 SWAP1 PUSH2 0xF0F JUMP JUMPDEST PUSH1 0x40 MLOAD DUP1 SWAP2 SUB SWAP1 REVERT JUMPDEST DUP1 PUSH1 0x2 DUP2 SWAP1 SSTORE POP PUSH32 0x8F0BB2E9DD4D9E8F7B5A5A5E6EC3ECFB088B85352C3405F9BF7FEF9FCF4B50C1 DUP2 PUSH1 0x40 MLOAD PUSH2 0x892 SWAP2 SWAP1 PUSH2 0xBA8 JUMP JUMPDEST PUSH1 0x40 MLOAD DUP1 SWAP2 SUB SWAP1 LOG1 POP JUMP JUMPDEST PUSH0 DUP1 SLOAD SWAP1 PUSH2 0x100 EXP SWAP1 DIV PUSH20 0xFFFFFFFFFFFFFFFFFFFFFFFFFFFFFFFFFFFFFFFF AND DUP2 JUMP JUMPDEST PUSH0 DUP1 PUSH0 SWAP1 SLOAD SWAP1 PUSH2 0x100 EXP SWAP1 DIV PUSH20 0xFFFFFFFFFFFFFFFFFFFFFFFFFFFFFFFFFFFFFFFF AND PUSH20 0xFFFFFFFFFFFFFFFFFFFFFFFFFFFFFFFFFFFFFFFF AND PUSH4 0xC9C65396 DUP5 DUP5 PUSH1 0x40 MLOAD DUP4 PUSH4 0xFFFFFFFF AND PUSH1 0xE0 SHL DUP2 MSTORE PUSH1 0x4 ADD PUSH2 0x91C SWAP3 SWAP2 SWAP1 PUSH2 0xF2D JUMP JUMPDEST PUSH1 0x20 PUSH1 0x40 MLOAD DUP1 DUP4 SUB DUP2 PUSH0 DUP8 GAS CALL ISZERO DUP1 ISZERO PUSH2 0x938 JUMPI RETURNDATASIZE PUSH0 DUP1 RETURNDATACOPY RETURNDATASIZE PUSH0 REVERT JUMPDEST POP POP POP POP PUSH1 0x40 MLOAD RETURNDATASIZE PUSH1 0x1F NOT PUSH1 0x1F DUP3 ADD AND DUP3 ADD DUP1 PUSH1 0x40 MSTORE POP DUP2 ADD SWAP1 PUSH2 0x95C SWAP2 SWAP1 PUSH2 0xF68 JUMP JUMPDEST SWAP1 POP SWAP3 SWAP2 POP POP JUMP JUMPDEST PUSH1 0x5 PUSH0 SWAP1 SLOAD SWAP1 PUSH2 0x100 EXP SWAP1 DIV PUSH20 0xFFFFFFFFFFFFFFFFFFFFFFFFFFFFFFFFFFFFFFFF AND DUP2 JUMP JUMPDEST PUSH1 0x1 PUSH0 SWAP1 SLOAD SWAP1 PUSH2 0x100 EXP SWAP1 DIV PUSH20 0xFFFFFFFFFFFFFFFFFFFFFFFFFFFFFFFFFFFFFFFF AND DUP2 JUMP JUMPDEST PUSH0 DUP1 PUSH2 0x2710 DUP5 PUSH2 0x2710 PUSH2 0x9C1 SWAP2 SWAP1 PUSH2 0xF93 JUMP JUMPDEST DUP7 PUSH2 0x9CC SWAP2 SWAP1 PUSH2 0xFC6 JUMP JUMPDEST PUSH2 0x9D6 SWAP2 SWAP1 PUSH2 0x1034 JUMP JUMPDEST SWAP1 POP DUP1 SWAP2 POP POP SWAP4 SWAP3 POP POP POP JUMP JUMPDEST PUSH0 PUSH20 0xFFFFFFFFFFFFFFFFFFFFFFFFFFFFFFFFFFFFFFFF DUP3 AND SWAP1 POP SWAP2 SWAP1 POP JUMP JUMPDEST PUSH0 DUP2 SWAP1 POP SWAP2 SWAP1 POP JUMP JUMPDEST PUSH0 PUSH2 0xA25 PUSH2 0xA20 PUSH2 0xA1B DUP5 PUSH2 0x9E3 JUMP JUMPDEST PUSH2 0xA02 JUMP JUMPDEST PUSH2 0x9E3 JUMP JUMPDEST SWAP1 POP SWAP2 SWAP1 POP JUMP JUMPDEST PUSH0 PUSH2 0xA36 DUP3 PUSH2 0xA0B JUMP JUMPDEST SWAP1 POP SWAP2 SWAP1 POP JUMP JUMPDEST PUSH0 PUSH2 0xA47 DUP3 PUSH2 0xA2C JUMP JUMPDEST SWAP1 POP SWAP2 SWAP1 POP JUMP JUMPDEST PUSH2 0xA57 DUP2 PUSH2 0xA3D JUMP JUMPDEST DUP3 MSTORE POP POP JUMP JUMPDEST PUSH0 PUSH1 0x20 DUP3 ADD SWAP1 POP PUSH2 0xA70 PUSH0 DUP4 ADD DUP5 PUSH2 0xA4E JUMP JUMPDEST SWAP3 SWAP2 POP POP JUMP JUMPDEST PUSH0 DUP1 REVERT JUMPDEST PUSH0 DUP2 SWAP1 POP SWAP2 SWAP1 POP JUMP JUMPDEST PUSH2 0xA8C DUP2 PUSH2 0xA7A JUMP JUMPDEST DUP2 EQ PUSH2 0xA96 JUMPI PUSH0 DUP1 REVERT JUMPDEST POP JUMP JUMPDEST PUSH0 DUP2 CALLDATALOAD SWAP1 POP PUSH2 0xAA7 DUP2 PUSH2 0xA83 JUMP JUMPDEST SWAP3 SWAP2 POP POP JUMP JUMPDEST PUSH0 DUP2 ISZERO ISZERO SWAP1 POP SWAP2 SWAP1 POP JUMP JUMPDEST PUSH2 0xAC1 DUP2 PUSH2 0xAAD JUMP JUMPDEST DUP2 EQ PUSH2 0xACB JUMPI PUSH0 DUP1 REVERT JUMPDEST POP JUMP JUMPDEST PUSH0 DUP2 CALLDATALOAD SWAP1 POP PUSH2 0xADC DUP2 PUSH2 0xAB8 JUMP JUMPDEST SWAP3 SWAP2 POP POP JUMP JUMPDEST PUSH0 DUP1 PUSH1 0x40 DUP4 DUP6 SUB SLT ISZERO PUSH2 0xAF8 JUMPI PUSH2 0xAF7 PUSH2 0xA76 JUMP JUMPDEST JUMPDEST PUSH0 PUSH2 0xB05 DUP6 DUP3 DUP7 ADD PUSH2 0xA99 JUMP JUMPDEST SWAP3 POP POP PUSH1 0x20 PUSH2 0xB16 DUP6 DUP3 DUP7 ADD PUSH2 0xACE JUMP JUMPDEST SWAP2 POP POP SWAP3 POP SWAP3 SWAP1 POP JUMP JUMPDEST PUSH0 PUSH2 0xB2A DUP3 PUSH2 0x9E3 JUMP JUMPDEST SWAP1 POP SWAP2 SWAP1 POP JUMP JUMPDEST PUSH2 0xB3A DUP2 PUSH2 0xB20 JUMP JUMPDEST DUP2 EQ PUSH2 0xB44 JUMPI PUSH0 DUP1 REVERT JUMPDEST POP JUMP JUMPDEST PUSH0 DUP2 CALLDATALOAD SWAP1 POP PUSH2 0xB55 DUP2 PUSH2 0xB31 JUMP JUMPDEST SWAP3 SWAP2 POP POP JUMP JUMPDEST PUSH0 DUP1 PUSH1 0x40 DUP4 DUP6 SUB SLT ISZERO PUSH2 0xB71 JUMPI PUSH2 0xB70 PUSH2 0xA76 JUMP JUMPDEST JUMPDEST PUSH0 PUSH2 0xB7E DUP6 DUP3 DUP7 ADD PUSH2 0xB47 JUMP JUMPDEST SWAP3 POP POP PUSH1 0x20 PUSH2 0xB8F DUP6 DUP3 DUP7 ADD PUSH2 0xA99 JUMP JUMPDEST SWAP2 POP POP SWAP3 POP SWAP3 SWAP1 POP JUMP JUMPDEST PUSH2 0xBA2 DUP2 PUSH2 0xA7A JUMP JUMPDEST DUP3 MSTORE POP POP JUMP JUMPDEST PUSH0 PUSH1 0x20 DUP3 ADD SWAP1 POP PUSH2 0xBBB PUSH0 DUP4 ADD DUP5 PUSH2 0xB99 JUMP JUMPDEST SWAP3 SWAP2 POP POP JUMP JUMPDEST PUSH0 PUSH1 0x20 DUP3 DUP5 SUB SLT ISZERO PUSH2 0xBD6 JUMPI PUSH2 0xBD5 PUSH2 0xA76 JUMP JUMPDEST JUMPDEST PUSH0 PUSH2 0xBE3 DUP5 DUP3 DUP6 ADD PUSH2 0xB47 JUMP JUMPDEST SWAP2 POP POP SWAP3 SWAP2 POP POP JUMP JUMPDEST PUSH2 0xBF5 DUP2 PUSH2 0xAAD JUMP JUMPDEST DUP3 MSTORE POP POP JUMP JUMPDEST PUSH0 PUSH1 0x20 DUP3 ADD SWAP1 POP PUSH2 0xC0E PUSH0 DUP4 ADD DUP5 PUSH2 0xBEC JUMP JUMPDEST SWAP3 SWAP2 POP POP JUMP JUMPDEST PUSH0 PUSH1 0x20 DUP3 DUP5 SUB SLT ISZERO PUSH2 0xC29 JUMPI PUSH2 0xC28 PUSH2 0xA76 JUMP JUMPDEST JUMPDEST PUSH0 PUSH2 0xC36 DUP5 DUP3 DUP6 ADD PUSH2 0xA99 JUMP JUMPDEST SWAP2 POP POP SWAP3 SWAP2 POP POP JUMP JUMPDEST PUSH2 0xC48 DUP2 PUSH2 0xB20 JUMP JUMPDEST DUP3 MSTORE POP POP JUMP JUMPDEST PUSH0 PUSH1 0x20 DUP3 ADD SWAP1 POP PUSH2 0xC61 PUSH0 DUP4 ADD DUP5 PUSH2 0xC3F JUMP JUMPDEST SWAP3 SWAP2 POP POP JUMP JUMPDEST PUSH0 DUP1 PUSH1 0x40 DUP4 DUP6 SUB SLT ISZERO PUSH2 0xC7D JUMPI PUSH2 0xC7C PUSH2 0xA76 JUMP JUMPDEST JUMPDEST PUSH0 PUSH2 0xC8A DUP6 DUP3 DUP7 ADD PUSH2 0xB47 JUMP JUMPDEST SWAP3 POP POP PUSH1 0x20 PUSH2 0xC9B DUP6 DUP3 DUP7 ADD PUSH2 0xB47 JUMP JUMPDEST SWAP2 POP POP SWAP3 POP SWAP3 SWAP1 POP JUMP JUMPDEST PUSH0 PUSH2 0xCAF DUP3 PUSH2 0xA2C JUMP JUMPDEST SWAP1 POP SWAP2 SWAP1 POP JUMP JUMPDEST PUSH2 0xCBF DUP2 PUSH2 0xCA5 JUMP JUMPDEST DUP3 MSTORE POP POP JUMP JUMPDEST PUSH0 PUSH1 0x20 DUP3 ADD SWAP1 POP PUSH2 0xCD8 PUSH0 DUP4 ADD DUP5 PUSH2 0xCB6 JUMP JUMPDEST SWAP3 SWAP2 POP POP JUMP JUMPDEST PUSH0 DUP2 MLOAD SWAP1 POP PUSH2 0xCEC DUP2 PUSH2 0xA83 JUMP JUMPDEST SWAP3 SWAP2 POP POP JUMP JUMPDEST PUSH0 PUSH1 0x20 DUP3 DUP5 SUB SLT ISZERO PUSH2 0xD07 JUMPI PUSH2 0xD06 PUSH2 0xA76 JUMP JUMPDEST JUMPDEST PUSH0 PUSH2 0xD14 DUP5 DUP3 DUP6 ADD PUSH2 0xCDE JUMP JUMPDEST SWAP2 POP POP SWAP3 SWAP2 POP POP JUMP JUMPDEST PUSH0 PUSH1 0x60 DUP3 ADD SWAP1 POP PUSH2 0xD30 PUSH0 DUP4 ADD DUP7 PUSH2 0xC3F JUMP JUMPDEST PUSH2 0xD3D PUSH1 0x20 DUP4 ADD DUP6 PUSH2 0xC3F JUMP JUMPDEST PUSH2 0xD4A PUSH1 0x40 DUP4 ADD DUP5 PUSH2 0xB99 JUMP JUMPDEST SWAP5 SWAP4 POP POP POP POP JUMP JUMPDEST PUSH0 DUP2 MLOAD SWAP1 POP PUSH2 0xD60 DUP2 PUSH2 0xAB8 JUMP JUMPDEST SWAP3 SWAP2 POP POP JUMP JUMPDEST PUSH0 PUSH1 0x20 DUP3 DUP5 SUB SLT ISZERO PUSH2 0xD7B JUMPI PUSH2 0xD7A PUSH2 0xA76 JUMP JUMPDEST JUMPDEST PUSH0 PUSH2 0xD88 DUP5 DUP3 DUP6 ADD PUSH2 0xD52 JUMP JUMPDEST SWAP2 POP POP SWAP3 SWAP2 POP POP JUMP JUMPDEST PUSH0 PUSH1 0x40 DUP3 ADD SWAP1 POP PUSH2 0xDA4 PUSH0 DUP4 ADD DUP6 PUSH2 0xC3F JUMP JUMPDEST PUSH2 0xDB1 PUSH1 0x20 DUP4 ADD DUP5 PUSH2 0xB99 JUMP JUMPDEST SWAP4 SWAP3 POP POP POP JUMP JUMPDEST PUSH0 PUSH1 0x60 DUP3 ADD SWAP1 POP PUSH2 0xDCB PUSH0 DUP4 ADD DUP7 PUSH2 0xB99 JUMP JUMPDEST PUSH2 0xDD8 PUSH1 0x20 DUP4 ADD DUP6 PUSH2 0xB99 JUMP JUMPDEST PUSH2 0xDE5 PUSH1 0x40 DUP4 ADD DUP5 PUSH2 0xB99 JUMP JUMPDEST SWAP5 SWAP4 POP POP POP POP JUMP JUMPDEST PUSH32 0x4E487B7100000000000000000000000000000000000000000000000000000000 PUSH0 MSTORE PUSH1 0x11 PUSH1 0x4 MSTORE PUSH1 0x24 PUSH0 REVERT JUMPDEST PUSH0 PUSH2 0xE24 DUP3 PUSH2 0xA7A JUMP JUMPDEST SWAP2 POP PUSH2 0xE2F DUP4 PUSH2 0xA7A JUMP JUMPDEST SWAP3 POP DUP3 DUP3 ADD SWAP1 POP DUP1 DUP3 GT ISZERO PUSH2 0xE47 JUMPI PUSH2 0xE46 PUSH2 0xDED JUMP JUMPDEST JUMPDEST SWAP3 SWAP2 POP POP JUMP JUMPDEST PUSH0 DUP3 DUP3 MSTORE PUSH1 0x20 DUP3 ADD SWAP1 POP SWAP3 SWAP2 POP POP JUMP JUMPDEST PUSH32 0x4E6F74206120676F7665726E616E6365206D656D626572000000000000000000 PUSH0 DUP3 ADD MSTORE POP JUMP JUMPDEST PUSH0 PUSH2 0xE91 PUSH1 0x17 DUP4 PUSH2 0xE4D JUMP JUMPDEST SWAP2 POP PUSH2 0xE9C DUP3 PUSH2 0xE5D JUMP JUMPDEST PUSH1 0x20 DUP3 ADD SWAP1 POP SWAP2 SWAP1 POP JUMP JUMPDEST PUSH0 PUSH1 0x20 DUP3 ADD SWAP1 POP DUP2 DUP2 SUB PUSH0 DUP4 ADD MSTORE PUSH2 0xEBE DUP2 PUSH2 0xE85 JUMP JUMPDEST SWAP1 POP SWAP2 SWAP1 POP JUMP JUMPDEST PUSH32 0x46656520746F6F20686967680000000000000000000000000000000000000000 PUSH0 DUP3 ADD MSTORE POP JUMP JUMPDEST PUSH0 PUSH2 0xEF9 PUSH1 0xC DUP4 PUSH2 0xE4D JUMP JUMPDEST SWAP2 POP PUSH2 0xF04 DUP3 PUSH2 0xEC5 JUMP JUMPDEST PUSH1 0x20 DUP3 ADD SWAP1 POP SWAP2 SWAP1 POP JUMP JUMPDEST PUSH0 PUSH1 0x20 DUP3 ADD SWAP1 POP DUP2 DUP2 SUB PUSH0 DUP4 ADD MSTORE PUSH2 0xF26 DUP2 PUSH2 0xEED JUMP JUMPDEST SWAP1 POP SWAP2 SWAP1 POP JUMP JUMPDEST PUSH0 PUSH1 0x40 DUP3 ADD SWAP1 POP PUSH2 0xF40 PUSH0 DUP4 ADD DUP6 PUSH2 0xC3F JUMP JUMPDEST PUSH2 0xF4D PUSH1 0x20 DUP4 ADD DUP5 PUSH2 0xC3F JUMP JUMPDEST SWAP4 SWAP3 POP POP POP JUMP JUMPDEST PUSH0 DUP2 MLOAD SWAP1 POP PUSH2 0xF62 DUP2 PUSH2 0xB31 JUMP JUMPDEST SWAP3 SWAP2 POP POP JUMP JUMPDEST PUSH0 PUSH1 0x20 DUP3 DUP5 SUB SLT ISZERO PUSH2 0xF7D JUMPI PUSH2 0xF7C PUSH2 0xA76 JUMP JUMPDEST JUMPDEST PUSH0 PUSH2 0xF8A DUP5 DUP3 DUP6 ADD PUSH2 0xF54 JUMP JUMPDEST SWAP2 POP POP SWAP3 SWAP2 POP POP JUMP JUMPDEST PUSH0 PUSH2 0xF9D DUP3 PUSH2 0xA7A JUMP JUMPDEST SWAP2 POP PUSH2 0xFA8 DUP4 PUSH2 0xA7A JUMP JUMPDEST SWAP3 POP DUP3 DUP3 SUB SWAP1 POP DUP2 DUP2 GT ISZERO PUSH2 0xFC0 JUMPI PUSH2 0xFBF PUSH2 0xDED JUMP JUMPDEST JUMPDEST SWAP3 SWAP2 POP POP JUMP JUMPDEST PUSH0 PUSH2 0xFD0 DUP3 PUSH2 0xA7A JUMP JUMPDEST SWAP2 POP PUSH2 0xFDB DUP4 PUSH2 0xA7A JUMP JUMPDEST SWAP3 POP DUP3 DUP3 MUL PUSH2 0xFE9 DUP2 PUSH2 0xA7A JUMP JUMPDEST SWAP2 POP DUP3 DUP3 DIV DUP5 EQ DUP4 ISZERO OR PUSH2 0x1000 JUMPI PUSH2 0xFFF PUSH2 0xDED JUMP JUMPDEST JUMPDEST POP SWAP3 SWAP2 POP POP JUMP JUMPDEST PUSH32 0x4E487B7100000000000000000000000000000000000000000000000000000000 PUSH0 MSTORE PUSH1 0x12 PUSH1 0x4 MSTORE PUSH1 0x24 PUSH0 REVERT JUMPDEST PUSH0 PUSH2 0x103E DUP3 PUSH2 0xA7A JUMP JUMPDEST SWAP2 POP PUSH2 0x1049 DUP4 PUSH2 0xA7A JUMP JUMPDEST SWAP3 POP DUP3 PUSH2 0x1059 JUMPI PUSH2 0x1058 PUSH2 0x1007 JUMP JUMPDEST JUMPDEST DUP3 DUP3 DIV SWAP1 POP SWAP3 SWAP2 POP POP JUMP INVALID LOG2 PUSH5 0x6970667358 0x22 SLT KECCAK256 0xF8 TSTORE ISZERO DUP8 ADDRESS ISZERO DUP1 0xB3 SIGNEXTEND 0xD5 0xBC GASPRICE GASLIMIT CALLER POP CREATE DUP3 SLT 0x26 PUSH10 0xBE7778D132F44DAA7F89 0xE7 GT PUSH5 0x736F6C6343 STOP ADDMOD BYTE STOP CALLER "
				},
				"gasEstimates": {
					"creation": {
						"codeDepositCost": "850000",
						"executionCost": "infinite",
						"totalCost": "infinite"
					},
					"external": {
						"adjustFee(uint256)": "infinite",
						"createCustomPair(address,address)": "infinite",
						"defaultFee()": "2492",
						"dynamicFeeContract()": "infinite",
						"factory()": "2549",
						"governanceToken()": "2618",
						"isGovernanceMember(address)": "2944",
						"provideLiquidityIncentive(address,uint256)": "infinite",
						"swap(uint256,bool)": "infinite",
						"tokenA()": "infinite",
						"tokenB()": "infinite",
						"userStakes(address)": "2802"
					},
					"internal": {
						"getAmountOut(uint256,uint256,bool)": "infinite"
					}
				},
				"methodIdentifiers": {
					"adjustFee(uint256)": "c079c318",
					"createCustomPair(address,address)": "f61ea571",
					"defaultFee()": "5a6c72d0",
					"dynamicFeeContract()": "f7655d56",
					"factory()": "c45a0155",
					"governanceToken()": "f96dae0a",
					"isGovernanceMember(address)": "82224869",
					"provideLiquidityIncentive(address,uint256)": "45c442e3",
					"swap(uint256,bool)": "2aea6605",
					"tokenA()": "0fc63d10",
					"tokenB()": "5f64b55b",
					"userStakes(address)": "8da7ad23"
				}
			},
			"storageLayout": {
				"storage": [
					{
						"astId": 526,
						"contract": "contracts/OpenDex.sol:OpenDex",
						"label": "factory",
						"offset": 0,
						"slot": "0",
						"type": "t_address"
					},
					{
						"astId": 528,
						"contract": "contracts/OpenDex.sol:OpenDex",
						"label": "governanceToken",
						"offset": 0,
						"slot": "1",
						"type": "t_address"
					},
					{
						"astId": 531,
						"contract": "contracts/OpenDex.sol:OpenDex",
						"label": "defaultFee",
						"offset": 0,
						"slot": "2",
						"type": "t_uint256"
					},
					{
						"astId": 534,
						"contract": "contracts/OpenDex.sol:OpenDex",
						"label": "tokenA",
						"offset": 0,
						"slot": "3",
						"type": "t_contract(IERC20)77"
					},
					{
						"astId": 537,
						"contract": "contracts/OpenDex.sol:OpenDex",
						"label": "tokenB",
						"offset": 0,
						"slot": "4",
						"type": "t_contract(IERC20)77"
					},
					{
						"astId": 540,
						"contract": "contracts/OpenDex.sol:OpenDex",
						"label": "dynamicFeeContract",
						"offset": 0,
						"slot": "5",
						"type": "t_contract(DynamicFee)518"
					},
					{
						"astId": 682,
						"contract": "contracts/OpenDex.sol:OpenDex",
						"label": "userStakes",
						"offset": 0,
						"slot": "6",
						"type": "t_mapping(t_address,t_uint256)"
					},
					{
						"astId": 686,
						"contract": "contracts/OpenDex.sol:OpenDex",
						"label": "isGovernanceMember",
						"offset": 0,
						"slot": "7",
						"type": "t_mapping(t_address,t_bool)"
					}
				],
				"types": {
					"t_address": {
						"encoding": "inplace",
						"label": "address",
						"numberOfBytes": "20"
					},
					"t_bool": {
						"encoding": "inplace",
						"label": "bool",
						"numberOfBytes": "1"
					},
					"t_contract(DynamicFee)518": {
						"encoding": "inplace",
						"label": "contract DynamicFee",
						"numberOfBytes": "20"
					},
					"t_contract(IERC20)77": {
						"encoding": "inplace",
						"label": "contract IERC20",
						"numberOfBytes": "20"
					},
					"t_mapping(t_address,t_bool)": {
						"encoding": "mapping",
						"key": "t_address",
						"label": "mapping(address => bool)",
						"numberOfBytes": "32",
						"value": "t_bool"
					},
					"t_mapping(t_address,t_uint256)": {
						"encoding": "mapping",
						"key": "t_address",
						"label": "mapping(address => uint256)",
						"numberOfBytes": "32",
						"value": "t_uint256"
					},
					"t_uint256": {
						"encoding": "inplace",
						"label": "uint256",
						"numberOfBytes": "32"
					}
				}
			},
			"userdoc": {
				"kind": "user",
				"methods": {},
				"version": 1
			}
		}
	}
}