{
	"contracts/MultiTokenPool.sol": {
		"MultiTokenPool": {
			"abi": [
				{
					"inputs": [
						{
							"internalType": "address[]",
							"name": "_tokens",
							"type": "address[]"
						}
					],
					"stateMutability": "nonpayable",
					"type": "constructor"
				},
				{
					"inputs": [
						{
							"internalType": "address",
							"name": "target",
							"type": "address"
						}
					],
					"name": "AddressEmptyCode",
					"type": "error"
				},
				{
					"inputs": [
						{
							"internalType": "address",
							"name": "account",
							"type": "address"
						}
					],
					"name": "AddressInsufficientBalance",
					"type": "error"
				},
				{
					"inputs": [],
					"name": "FailedInnerCall",
					"type": "error"
				},
				{
					"inputs": [
						{
							"internalType": "address",
							"name": "token",
							"type": "address"
						}
					],
					"name": "SafeERC20FailedOperation",
					"type": "error"
				},
				{
					"anonymous": false,
					"inputs": [
						{
							"indexed": true,
							"internalType": "address",
							"name": "provider",
							"type": "address"
						},
						{
							"indexed": false,
							"internalType": "address",
							"name": "token",
							"type": "address"
						},
						{
							"indexed": false,
							"internalType": "uint256",
							"name": "amount",
							"type": "uint256"
						}
					],
					"name": "LiquidityAdded",
					"type": "event"
				},
				{
					"inputs": [
						{
							"internalType": "address",
							"name": "token",
							"type": "address"
						},
						{
							"internalType": "uint256",
							"name": "amount",
							"type": "uint256"
						}
					],
					"name": "addLiquidity",
					"outputs": [],
					"stateMutability": "nonpayable",
					"type": "function"
				},
				{
					"inputs": [
						{
							"internalType": "uint256",
							"name": "",
							"type": "uint256"
						}
					],
					"name": "supportedTokens",
					"outputs": [
						{
							"internalType": "address",
							"name": "",
							"type": "address"
						}
					],
					"stateMutability": "view",
					"type": "function"
				},
				{
					"inputs": [
						{
							"internalType": "address",
							"name": "",
							"type": "address"
						}
					],
					"name": "totalPoolLiquidity",
					"outputs": [
						{
							"internalType": "uint256",
							"name": "",
							"type": "uint256"
						}
					],
					"stateMutability": "view",
					"type": "function"
				}
			],
			"devdoc": {
				"errors": {
					"AddressEmptyCode(address)": [
						{
							"details": "There's no code at `target` (it is not a contract)."
						}
					],
					"AddressInsufficientBalance(address)": [
						{
							"details": "The ETH balance of the account is not enough to perform the operation."
						}
					],
					"FailedInnerCall()": [
						{
							"details": "A call to an address target failed. The target may have reverted."
						}
					],
					"SafeERC20FailedOperation(address)": [
						{
							"details": "An operation with an ERC20 token failed."
						}
					]
				},
				"kind": "dev",
				"methods": {},
				"version": 1
			},
			"evm": {
				"assembly": "    /* \"contracts/MultiTokenPool.sol\":187:1122  contract MultiTokenPool {... */\n  mstore(0x40, 0x80)\n    /* \"contracts/MultiTokenPool.sol\":440:522  constructor(address[] memory _tokens) {... */\n  callvalue\n  dup1\n  iszero\n  tag_1\n  jumpi\n  0x00\n  dup1\n  revert\ntag_1:\n  pop\n  mload(0x40)\n  sub(codesize, bytecodeSize)\n  dup1\n  bytecodeSize\n  dup4\n  codecopy\n  dup2\n  dup2\n  add\n  0x40\n  mstore\n  dup2\n  add\n  swap1\n  tag_2\n  swap2\n  swap1\n  tag_3\n  jump\t// in\ntag_2:\n    /* \"contracts/MultiTokenPool.sol\":507:514  _tokens */\n  dup1\n    /* \"contracts/MultiTokenPool.sol\":489:504  supportedTokens */\n  0x01\n    /* \"contracts/MultiTokenPool.sol\":489:514  supportedTokens = _tokens */\n  swap1\n  dup1\n  mload\n  swap1\n  0x20\n  add\n  swap1\n  tag_6\n  swap3\n  swap2\n  swap1\n  tag_7\n  jump\t// in\ntag_6:\n  pop\n    /* \"contracts/MultiTokenPool.sol\":440:522  constructor(address[] memory _tokens) {... */\n  pop\n    /* \"contracts/MultiTokenPool.sol\":187:1122  contract MultiTokenPool {... */\n  jump(tag_8)\ntag_7:\n  dup3\n  dup1\n  sload\n  dup3\n  dup3\n  sstore\n  swap1\n  0x00\n  mstore\n  keccak256(0x00, 0x20)\n  swap1\n  dup2\n  add\n  swap3\n  dup3\n  iszero\n  tag_9\n  jumpi\n  swap2\n  0x20\n  mul\n  dup3\n  add\ntag_10:\n  dup3\n  dup2\n  gt\n  iszero\n  tag_11\n  jumpi\n  dup3\n  mload\n  dup3\n  exp(0x0100, 0x00)\n  dup2\n  sload\n  dup2\n  0xffffffffffffffffffffffffffffffffffffffff\n  mul\n  not\n  and\n  swap1\n  dup4\n  0xffffffffffffffffffffffffffffffffffffffff\n  and\n  mul\n  or\n  swap1\n  sstore\n  pop\n  swap2\n  0x20\n  add\n  swap2\n  swap1\n  0x01\n  add\n  swap1\n  jump(tag_10)\ntag_11:\ntag_9:\n  pop\n  swap1\n  pop\n  tag_12\n  swap2\n  swap1\n  tag_13\n  jump\t// in\ntag_12:\n  pop\n  swap1\n  jump\t// out\ntag_13:\ntag_14:\n  dup1\n  dup3\n  gt\n  iszero\n  tag_15\n  jumpi\n  0x00\n  dup2\n  0x00\n  swap1\n  sstore\n  pop\n  0x01\n  add\n  jump(tag_14)\ntag_15:\n  pop\n  swap1\n  jump\t// out\n    /* \"#utility.yul\":7:82   */\ntag_16:\n    /* \"#utility.yul\":40:46   */\n  0x00\n    /* \"#utility.yul\":73:75   */\n  0x40\n    /* \"#utility.yul\":67:76   */\n  mload\n    /* \"#utility.yul\":57:76   */\n  swap1\n  pop\n    /* \"#utility.yul\":7:82   */\n  swap1\n  jump\t// out\n    /* \"#utility.yul\":88:205   */\ntag_17:\n    /* \"#utility.yul\":197:198   */\n  0x00\n    /* \"#utility.yul\":194:195   */\n  dup1\n    /* \"#utility.yul\":187:199   */\n  revert\n    /* \"#utility.yul\":211:328   */\ntag_18:\n    /* \"#utility.yul\":320:321   */\n  0x00\n    /* \"#utility.yul\":317:318   */\n  dup1\n    /* \"#utility.yul\":310:322   */\n  revert\n    /* \"#utility.yul\":334:451   */\ntag_19:\n    /* \"#utility.yul\":443:444   */\n  0x00\n    /* \"#utility.yul\":440:441   */\n  dup1\n    /* \"#utility.yul\":433:445   */\n  revert\n    /* \"#utility.yul\":457:559   */\ntag_20:\n    /* \"#utility.yul\":498:504   */\n  0x00\n    /* \"#utility.yul\":549:551   */\n  0x1f\n    /* \"#utility.yul\":545:552   */\n  not\n    /* \"#utility.yul\":540:542   */\n  0x1f\n    /* \"#utility.yul\":533:538   */\n  dup4\n    /* \"#utility.yul\":529:543   */\n  add\n    /* \"#utility.yul\":525:553   */\n  and\n    /* \"#utility.yul\":515:553   */\n  swap1\n  pop\n    /* \"#utility.yul\":457:559   */\n  swap2\n  swap1\n  pop\n  jump\t// out\n    /* \"#utility.yul\":565:745   */\ntag_21:\n    /* \"#utility.yul\":613:690   */\n  0x4e487b7100000000000000000000000000000000000000000000000000000000\n    /* \"#utility.yul\":610:611   */\n  0x00\n    /* \"#utility.yul\":603:691   */\n  mstore\n    /* \"#utility.yul\":710:714   */\n  0x41\n    /* \"#utility.yul\":707:708   */\n  0x04\n    /* \"#utility.yul\":700:715   */\n  mstore\n    /* \"#utility.yul\":734:738   */\n  0x24\n    /* \"#utility.yul\":731:732   */\n  0x00\n    /* \"#utility.yul\":724:739   */\n  revert\n    /* \"#utility.yul\":751:1032   */\ntag_22:\n    /* \"#utility.yul\":834:861   */\n  tag_40\n    /* \"#utility.yul\":856:860   */\n  dup3\n    /* \"#utility.yul\":834:861   */\n  tag_20\n  jump\t// in\ntag_40:\n    /* \"#utility.yul\":826:832   */\n  dup2\n    /* \"#utility.yul\":822:862   */\n  add\n    /* \"#utility.yul\":964:970   */\n  dup2\n    /* \"#utility.yul\":952:962   */\n  dup2\n    /* \"#utility.yul\":949:971   */\n  lt\n    /* \"#utility.yul\":928:946   */\n  0xffffffffffffffff\n    /* \"#utility.yul\":916:926   */\n  dup3\n    /* \"#utility.yul\":913:947   */\n  gt\n    /* \"#utility.yul\":910:972   */\n  or\n    /* \"#utility.yul\":907:995   */\n  iszero\n  tag_41\n  jumpi\n    /* \"#utility.yul\":975:993   */\n  tag_42\n  tag_21\n  jump\t// in\ntag_42:\n    /* \"#utility.yul\":907:995   */\ntag_41:\n    /* \"#utility.yul\":1015:1025   */\n  dup1\n    /* \"#utility.yul\":1011:1013   */\n  0x40\n    /* \"#utility.yul\":1004:1026   */\n  mstore\n    /* \"#utility.yul\":794:1032   */\n  pop\n    /* \"#utility.yul\":751:1032   */\n  pop\n  pop\n  jump\t// out\n    /* \"#utility.yul\":1038:1167   */\ntag_23:\n    /* \"#utility.yul\":1072:1078   */\n  0x00\n    /* \"#utility.yul\":1099:1119   */\n  tag_44\n  tag_16\n  jump\t// in\ntag_44:\n    /* \"#utility.yul\":1089:1119   */\n  swap1\n  pop\n    /* \"#utility.yul\":1128:1161   */\n  tag_45\n    /* \"#utility.yul\":1156:1160   */\n  dup3\n    /* \"#utility.yul\":1148:1154   */\n  dup3\n    /* \"#utility.yul\":1128:1161   */\n  tag_22\n  jump\t// in\ntag_45:\n    /* \"#utility.yul\":1038:1167   */\n  swap2\n  swap1\n  pop\n  jump\t// out\n    /* \"#utility.yul\":1173:1484   */\ntag_24:\n    /* \"#utility.yul\":1250:1254   */\n  0x00\n    /* \"#utility.yul\":1340:1358   */\n  0xffffffffffffffff\n    /* \"#utility.yul\":1332:1338   */\n  dup3\n    /* \"#utility.yul\":1329:1359   */\n  gt\n    /* \"#utility.yul\":1326:1382   */\n  iszero\n  tag_47\n  jumpi\n    /* \"#utility.yul\":1362:1380   */\n  tag_48\n  tag_21\n  jump\t// in\ntag_48:\n    /* \"#utility.yul\":1326:1382   */\ntag_47:\n    /* \"#utility.yul\":1412:1416   */\n  0x20\n    /* \"#utility.yul\":1404:1410   */\n  dup3\n    /* \"#utility.yul\":1400:1417   */\n  mul\n    /* \"#utility.yul\":1392:1417   */\n  swap1\n  pop\n    /* \"#utility.yul\":1472:1476   */\n  0x20\n    /* \"#utility.yul\":1466:1470   */\n  dup2\n    /* \"#utility.yul\":1462:1477   */\n  add\n    /* \"#utility.yul\":1454:1477   */\n  swap1\n  pop\n    /* \"#utility.yul\":1173:1484   */\n  swap2\n  swap1\n  pop\n  jump\t// out\n    /* \"#utility.yul\":1490:1607   */\ntag_25:\n    /* \"#utility.yul\":1599:1600   */\n  0x00\n    /* \"#utility.yul\":1596:1597   */\n  dup1\n    /* \"#utility.yul\":1589:1601   */\n  revert\n    /* \"#utility.yul\":1613:1739   */\ntag_26:\n    /* \"#utility.yul\":1650:1657   */\n  0x00\n    /* \"#utility.yul\":1690:1732   */\n  0xffffffffffffffffffffffffffffffffffffffff\n    /* \"#utility.yul\":1683:1688   */\n  dup3\n    /* \"#utility.yul\":1679:1733   */\n  and\n    /* \"#utility.yul\":1668:1733   */\n  swap1\n  pop\n    /* \"#utility.yul\":1613:1739   */\n  swap2\n  swap1\n  pop\n  jump\t// out\n    /* \"#utility.yul\":1745:1841   */\ntag_27:\n    /* \"#utility.yul\":1782:1789   */\n  0x00\n    /* \"#utility.yul\":1811:1835   */\n  tag_52\n    /* \"#utility.yul\":1829:1834   */\n  dup3\n    /* \"#utility.yul\":1811:1835   */\n  tag_26\n  jump\t// in\ntag_52:\n    /* \"#utility.yul\":1800:1835   */\n  swap1\n  pop\n    /* \"#utility.yul\":1745:1841   */\n  swap2\n  swap1\n  pop\n  jump\t// out\n    /* \"#utility.yul\":1847:1969   */\ntag_28:\n    /* \"#utility.yul\":1920:1944   */\n  tag_54\n    /* \"#utility.yul\":1938:1943   */\n  dup2\n    /* \"#utility.yul\":1920:1944   */\n  tag_27\n  jump\t// in\ntag_54:\n    /* \"#utility.yul\":1913:1918   */\n  dup2\n    /* \"#utility.yul\":1910:1945   */\n  eq\n    /* \"#utility.yul\":1900:1963   */\n  tag_55\n  jumpi\n    /* \"#utility.yul\":1959:1960   */\n  0x00\n    /* \"#utility.yul\":1956:1957   */\n  dup1\n    /* \"#utility.yul\":1949:1961   */\n  revert\n    /* \"#utility.yul\":1900:1963   */\ntag_55:\n    /* \"#utility.yul\":1847:1969   */\n  pop\n  jump\t// out\n    /* \"#utility.yul\":1975:2118   */\ntag_29:\n    /* \"#utility.yul\":2032:2037   */\n  0x00\n    /* \"#utility.yul\":2063:2069   */\n  dup2\n    /* \"#utility.yul\":2057:2070   */\n  mload\n    /* \"#utility.yul\":2048:2070   */\n  swap1\n  pop\n    /* \"#utility.yul\":2079:2112   */\n  tag_57\n    /* \"#utility.yul\":2106:2111   */\n  dup2\n    /* \"#utility.yul\":2079:2112   */\n  tag_28\n  jump\t// in\ntag_57:\n    /* \"#utility.yul\":1975:2118   */\n  swap3\n  swap2\n  pop\n  pop\n  jump\t// out\n    /* \"#utility.yul\":2141:2873   */\ntag_30:\n    /* \"#utility.yul\":2248:2253   */\n  0x00\n    /* \"#utility.yul\":2273:2354   */\n  tag_59\n    /* \"#utility.yul\":2289:2353   */\n  tag_60\n    /* \"#utility.yul\":2346:2352   */\n  dup5\n    /* \"#utility.yul\":2289:2353   */\n  tag_24\n  jump\t// in\ntag_60:\n    /* \"#utility.yul\":2273:2354   */\n  tag_23\n  jump\t// in\ntag_59:\n    /* \"#utility.yul\":2264:2354   */\n  swap1\n  pop\n    /* \"#utility.yul\":2374:2379   */\n  dup1\n    /* \"#utility.yul\":2403:2409   */\n  dup4\n    /* \"#utility.yul\":2396:2401   */\n  dup3\n    /* \"#utility.yul\":2389:2410   */\n  mstore\n    /* \"#utility.yul\":2437:2441   */\n  0x20\n    /* \"#utility.yul\":2430:2435   */\n  dup3\n    /* \"#utility.yul\":2426:2442   */\n  add\n    /* \"#utility.yul\":2419:2442   */\n  swap1\n  pop\n    /* \"#utility.yul\":2490:2494   */\n  0x20\n    /* \"#utility.yul\":2482:2488   */\n  dup5\n    /* \"#utility.yul\":2478:2495   */\n  mul\n    /* \"#utility.yul\":2470:2476   */\n  dup4\n    /* \"#utility.yul\":2466:2496   */\n  add\n    /* \"#utility.yul\":2519:2522   */\n  dup6\n    /* \"#utility.yul\":2511:2517   */\n  dup2\n    /* \"#utility.yul\":2508:2523   */\n  gt\n    /* \"#utility.yul\":2505:2627   */\n  iszero\n  tag_61\n  jumpi\n    /* \"#utility.yul\":2538:2617   */\n  tag_62\n  tag_25\n  jump\t// in\ntag_62:\n    /* \"#utility.yul\":2505:2627   */\ntag_61:\n    /* \"#utility.yul\":2653:2659   */\n  dup4\n    /* \"#utility.yul\":2636:2867   */\ntag_63:\n    /* \"#utility.yul\":2670:2676   */\n  dup2\n    /* \"#utility.yul\":2665:2668   */\n  dup2\n    /* \"#utility.yul\":2662:2677   */\n  lt\n    /* \"#utility.yul\":2636:2867   */\n  iszero\n  tag_65\n  jumpi\n    /* \"#utility.yul\":2745:2748   */\n  dup1\n    /* \"#utility.yul\":2774:2822   */\n  tag_66\n    /* \"#utility.yul\":2818:2821   */\n  dup9\n    /* \"#utility.yul\":2806:2816   */\n  dup3\n    /* \"#utility.yul\":2774:2822   */\n  tag_29\n  jump\t// in\ntag_66:\n    /* \"#utility.yul\":2769:2772   */\n  dup5\n    /* \"#utility.yul\":2762:2823   */\n  mstore\n    /* \"#utility.yul\":2852:2856   */\n  0x20\n    /* \"#utility.yul\":2847:2850   */\n  dup5\n    /* \"#utility.yul\":2843:2857   */\n  add\n    /* \"#utility.yul\":2836:2857   */\n  swap4\n  pop\n    /* \"#utility.yul\":2712:2867   */\n  pop\n    /* \"#utility.yul\":2696:2700   */\n  0x20\n    /* \"#utility.yul\":2691:2694   */\n  dup2\n    /* \"#utility.yul\":2687:2701   */\n  add\n    /* \"#utility.yul\":2680:2701   */\n  swap1\n  pop\n    /* \"#utility.yul\":2636:2867   */\n  jump(tag_63)\ntag_65:\n    /* \"#utility.yul\":2640:2661   */\n  pop\n    /* \"#utility.yul\":2254:2873   */\n  pop\n  pop\n    /* \"#utility.yul\":2141:2873   */\n  swap4\n  swap3\n  pop\n  pop\n  pop\n  jump\t// out\n    /* \"#utility.yul\":2896:3281   */\ntag_31:\n    /* \"#utility.yul\":2978:2983   */\n  0x00\n    /* \"#utility.yul\":3027:3030   */\n  dup3\n    /* \"#utility.yul\":3020:3024   */\n  0x1f\n    /* \"#utility.yul\":3012:3018   */\n  dup4\n    /* \"#utility.yul\":3008:3025   */\n  add\n    /* \"#utility.yul\":3004:3031   */\n  slt\n    /* \"#utility.yul\":2994:3116   */\n  tag_68\n  jumpi\n    /* \"#utility.yul\":3035:3114   */\n  tag_69\n  tag_19\n  jump\t// in\ntag_69:\n    /* \"#utility.yul\":2994:3116   */\ntag_68:\n    /* \"#utility.yul\":3145:3151   */\n  dup2\n    /* \"#utility.yul\":3139:3152   */\n  mload\n    /* \"#utility.yul\":3170:3275   */\n  tag_70\n    /* \"#utility.yul\":3271:3274   */\n  dup5\n    /* \"#utility.yul\":3263:3269   */\n  dup3\n    /* \"#utility.yul\":3256:3260   */\n  0x20\n    /* \"#utility.yul\":3248:3254   */\n  dup7\n    /* \"#utility.yul\":3244:3261   */\n  add\n    /* \"#utility.yul\":3170:3275   */\n  tag_30\n  jump\t// in\ntag_70:\n    /* \"#utility.yul\":3161:3275   */\n  swap2\n  pop\n    /* \"#utility.yul\":2984:3281   */\n  pop\n    /* \"#utility.yul\":2896:3281   */\n  swap3\n  swap2\n  pop\n  pop\n  jump\t// out\n    /* \"#utility.yul\":3287:3841   */\ntag_3:\n    /* \"#utility.yul\":3382:3388   */\n  0x00\n    /* \"#utility.yul\":3431:3433   */\n  0x20\n    /* \"#utility.yul\":3419:3428   */\n  dup3\n    /* \"#utility.yul\":3410:3417   */\n  dup5\n    /* \"#utility.yul\":3406:3429   */\n  sub\n    /* \"#utility.yul\":3402:3434   */\n  slt\n    /* \"#utility.yul\":3399:3518   */\n  iszero\n  tag_72\n  jumpi\n    /* \"#utility.yul\":3437:3516   */\n  tag_73\n  tag_17\n  jump\t// in\ntag_73:\n    /* \"#utility.yul\":3399:3518   */\ntag_72:\n    /* \"#utility.yul\":3578:3579   */\n  0x00\n    /* \"#utility.yul\":3567:3576   */\n  dup3\n    /* \"#utility.yul\":3563:3580   */\n  add\n    /* \"#utility.yul\":3557:3581   */\n  mload\n    /* \"#utility.yul\":3608:3626   */\n  0xffffffffffffffff\n    /* \"#utility.yul\":3600:3606   */\n  dup2\n    /* \"#utility.yul\":3597:3627   */\n  gt\n    /* \"#utility.yul\":3594:3711   */\n  iszero\n  tag_74\n  jumpi\n    /* \"#utility.yul\":3630:3709   */\n  tag_75\n  tag_18\n  jump\t// in\ntag_75:\n    /* \"#utility.yul\":3594:3711   */\ntag_74:\n    /* \"#utility.yul\":3735:3824   */\n  tag_76\n    /* \"#utility.yul\":3816:3823   */\n  dup5\n    /* \"#utility.yul\":3807:3813   */\n  dup3\n    /* \"#utility.yul\":3796:3805   */\n  dup6\n    /* \"#utility.yul\":3792:3814   */\n  add\n    /* \"#utility.yul\":3735:3824   */\n  tag_31\n  jump\t// in\ntag_76:\n    /* \"#utility.yul\":3725:3824   */\n  swap2\n  pop\n    /* \"#utility.yul\":3528:3834   */\n  pop\n    /* \"#utility.yul\":3287:3841   */\n  swap3\n  swap2\n  pop\n  pop\n  jump\t// out\n    /* \"contracts/MultiTokenPool.sol\":187:1122  contract MultiTokenPool {... */\ntag_8:\n  dataSize(sub_0)\n  dup1\n  dataOffset(sub_0)\n  0x00\n  codecopy\n  0x00\n  return\nstop\n\nsub_0: assembly {\n        /* \"contracts/MultiTokenPool.sol\":187:1122  contract MultiTokenPool {... */\n      mstore(0x40, 0x80)\n      callvalue\n      dup1\n      iszero\n      tag_1\n      jumpi\n      0x00\n      dup1\n      revert\n    tag_1:\n      pop\n      jumpi(tag_2, lt(calldatasize, 0x04))\n      shr(0xe0, calldataload(0x00))\n      dup1\n      0x3053f0b2\n      eq\n      tag_3\n      jumpi\n      dup1\n      0x56688700\n      eq\n      tag_4\n      jumpi\n      dup1\n      0xc6255626\n      eq\n      tag_5\n      jumpi\n    tag_2:\n      0x00\n      dup1\n      revert\n        /* \"contracts/MultiTokenPool.sol\":253:306  mapping(address => uint256) public totalPoolLiquidity */\n    tag_3:\n      tag_6\n      0x04\n      dup1\n      calldatasize\n      sub\n      dup2\n      add\n      swap1\n      tag_7\n      swap2\n      swap1\n      tag_8\n      jump\t// in\n    tag_7:\n      tag_9\n      jump\t// in\n    tag_6:\n      mload(0x40)\n      tag_10\n      swap2\n      swap1\n      tag_11\n      jump\t// in\n    tag_10:\n      mload(0x40)\n      dup1\n      swap2\n      sub\n      swap1\n      return\n        /* \"contracts/MultiTokenPool.sol\":530:845  function addLiquidity(address token, uint256 amount) external {... */\n    tag_4:\n      tag_12\n      0x04\n      dup1\n      calldatasize\n      sub\n      dup2\n      add\n      swap1\n      tag_13\n      swap2\n      swap1\n      tag_14\n      jump\t// in\n    tag_13:\n      tag_15\n      jump\t// in\n    tag_12:\n      stop\n        /* \"contracts/MultiTokenPool.sol\":313:345  address[] public supportedTokens */\n    tag_5:\n      tag_16\n      0x04\n      dup1\n      calldatasize\n      sub\n      dup2\n      add\n      swap1\n      tag_17\n      swap2\n      swap1\n      tag_18\n      jump\t// in\n    tag_17:\n      tag_19\n      jump\t// in\n    tag_16:\n      mload(0x40)\n      tag_20\n      swap2\n      swap1\n      tag_21\n      jump\t// in\n    tag_20:\n      mload(0x40)\n      dup1\n      swap2\n      sub\n      swap1\n      return\n        /* \"contracts/MultiTokenPool.sol\":253:306  mapping(address => uint256) public totalPoolLiquidity */\n    tag_9:\n      mstore(0x20, 0x00)\n      dup1\n      0x00\n      mstore\n      keccak256(0x00, 0x40)\n      0x00\n      swap2\n      pop\n      swap1\n      pop\n      sload\n      dup2\n      jump\t// out\n        /* \"contracts/MultiTokenPool.sol\":530:845  function addLiquidity(address token, uint256 amount) external {... */\n    tag_15:\n        /* \"contracts/MultiTokenPool.sol\":611:634  isSupportedToken(token) */\n      tag_23\n        /* \"contracts/MultiTokenPool.sol\":628:633  token */\n      dup3\n        /* \"contracts/MultiTokenPool.sol\":611:627  isSupportedToken */\n      tag_24\n        /* \"contracts/MultiTokenPool.sol\":611:634  isSupportedToken(token) */\n      jump\t// in\n    tag_23:\n        /* \"contracts/MultiTokenPool.sol\":603:658  require(isSupportedToken(token), \"Token not supported\") */\n      tag_25\n      jumpi\n      mload(0x40)\n      0x08c379a000000000000000000000000000000000000000000000000000000000\n      dup2\n      mstore\n      0x04\n      add\n      tag_26\n      swap1\n      tag_27\n      jump\t// in\n    tag_26:\n      mload(0x40)\n      dup1\n      swap2\n      sub\n      swap1\n      revert\n    tag_25:\n        /* \"contracts/MultiTokenPool.sol\":669:734  IERC20(token).safeTransferFrom(msg.sender, address(this), amount) */\n      tag_28\n        /* \"contracts/MultiTokenPool.sol\":700:710  msg.sender */\n      caller\n        /* \"contracts/MultiTokenPool.sol\":720:724  this */\n      address\n        /* \"contracts/MultiTokenPool.sol\":727:733  amount */\n      dup4\n        /* \"contracts/MultiTokenPool.sol\":676:681  token */\n      dup6\n        /* \"contracts/MultiTokenPool.sol\":669:699  IERC20(token).safeTransferFrom */\n      0xffffffffffffffffffffffffffffffffffffffff\n      and\n      tag_29\n      swap1\n        /* \"contracts/MultiTokenPool.sol\":669:734  IERC20(token).safeTransferFrom(msg.sender, address(this), amount) */\n      swap4\n      swap3\n      swap2\n      swap1\n      0xffffffff\n      and\n      jump\t// in\n    tag_28:\n        /* \"contracts/MultiTokenPool.sol\":774:780  amount */\n      dup1\n        /* \"contracts/MultiTokenPool.sol\":745:763  totalPoolLiquidity */\n      0x00\n        /* \"contracts/MultiTokenPool.sol\":745:770  totalPoolLiquidity[token] */\n      dup1\n        /* \"contracts/MultiTokenPool.sol\":764:769  token */\n      dup5\n        /* \"contracts/MultiTokenPool.sol\":745:770  totalPoolLiquidity[token] */\n      0xffffffffffffffffffffffffffffffffffffffff\n      and\n      0xffffffffffffffffffffffffffffffffffffffff\n      and\n      dup2\n      mstore\n      0x20\n      add\n      swap1\n      dup2\n      mstore\n      0x20\n      add\n      0x00\n      keccak256\n      0x00\n        /* \"contracts/MultiTokenPool.sol\":745:780  totalPoolLiquidity[token] += amount */\n      dup3\n      dup3\n      sload\n      tag_30\n      swap2\n      swap1\n      tag_31\n      jump\t// in\n    tag_30:\n      swap3\n      pop\n      pop\n      dup2\n      swap1\n      sstore\n      pop\n        /* \"contracts/MultiTokenPool.sol\":811:821  msg.sender */\n      caller\n        /* \"contracts/MultiTokenPool.sol\":796:837  LiquidityAdded(msg.sender, token, amount) */\n      0xffffffffffffffffffffffffffffffffffffffff\n      and\n      0x9d278c56ba6dc86a12eefe6b43112bd6e06648eb4ec0b950ee2d783d40e2acb4\n        /* \"contracts/MultiTokenPool.sol\":823:828  token */\n      dup4\n        /* \"contracts/MultiTokenPool.sol\":830:836  amount */\n      dup4\n        /* \"contracts/MultiTokenPool.sol\":796:837  LiquidityAdded(msg.sender, token, amount) */\n      mload(0x40)\n      tag_32\n      swap3\n      swap2\n      swap1\n      tag_33\n      jump\t// in\n    tag_32:\n      mload(0x40)\n      dup1\n      swap2\n      sub\n      swap1\n      log2\n        /* \"contracts/MultiTokenPool.sol\":530:845  function addLiquidity(address token, uint256 amount) external {... */\n      pop\n      pop\n      jump\t// out\n        /* \"contracts/MultiTokenPool.sol\":313:345  address[] public supportedTokens */\n    tag_19:\n      0x01\n      dup2\n      dup2\n      sload\n      dup2\n      lt\n      tag_34\n      jumpi\n      0x00\n      dup1\n      revert\n    tag_34:\n      swap1\n      0x00\n      mstore\n      keccak256(0x00, 0x20)\n      add\n      0x00\n      swap2\n      pop\n      sload\n      swap1\n      0x0100\n      exp\n      swap1\n      div\n      0xffffffffffffffffffffffffffffffffffffffff\n      and\n      dup2\n      jump\t// out\n        /* \"contracts/MultiTokenPool.sol\":853:1119  function isSupportedToken(address token) internal view returns (bool) {... */\n    tag_24:\n        /* \"contracts/MultiTokenPool.sol\":917:921  bool */\n      0x00\n        /* \"contracts/MultiTokenPool.sol\":939:945  uint i */\n      dup1\n        /* \"contracts/MultiTokenPool.sol\":948:949  0 */\n      0x00\n        /* \"contracts/MultiTokenPool.sol\":939:949  uint i = 0 */\n      swap1\n      pop\n        /* \"contracts/MultiTokenPool.sol\":934:1089  for (uint i = 0; i < supportedTokens.length; i++) {... */\n    tag_37:\n        /* \"contracts/MultiTokenPool.sol\":955:970  supportedTokens */\n      0x01\n        /* \"contracts/MultiTokenPool.sol\":955:977  supportedTokens.length */\n      dup1\n      sload\n      swap1\n      pop\n        /* \"contracts/MultiTokenPool.sol\":951:952  i */\n      dup2\n        /* \"contracts/MultiTokenPool.sol\":951:977  i < supportedTokens.length */\n      lt\n        /* \"contracts/MultiTokenPool.sol\":934:1089  for (uint i = 0; i < supportedTokens.length; i++) {... */\n      iszero\n      tag_38\n      jumpi\n        /* \"contracts/MultiTokenPool.sol\":1025:1030  token */\n      dup3\n        /* \"contracts/MultiTokenPool.sol\":1003:1030  supportedTokens[i] == token */\n      0xffffffffffffffffffffffffffffffffffffffff\n      and\n        /* \"contracts/MultiTokenPool.sol\":1003:1018  supportedTokens */\n      0x01\n        /* \"contracts/MultiTokenPool.sol\":1019:1020  i */\n      dup3\n        /* \"contracts/MultiTokenPool.sol\":1003:1021  supportedTokens[i] */\n      dup2\n      sload\n      dup2\n      lt\n      tag_40\n      jumpi\n      tag_41\n      tag_42\n      jump\t// in\n    tag_41:\n    tag_40:\n      swap1\n      0x00\n      mstore\n      keccak256(0x00, 0x20)\n      add\n      0x00\n      swap1\n      sload\n      swap1\n      0x0100\n      exp\n      swap1\n      div\n      0xffffffffffffffffffffffffffffffffffffffff\n      and\n        /* \"contracts/MultiTokenPool.sol\":1003:1030  supportedTokens[i] == token */\n      0xffffffffffffffffffffffffffffffffffffffff\n      and\n      sub\n        /* \"contracts/MultiTokenPool.sol\":999:1078  if (supportedTokens[i] == token) {... */\n      tag_44\n      jumpi\n        /* \"contracts/MultiTokenPool.sol\":1058:1062  true */\n      0x01\n        /* \"contracts/MultiTokenPool.sol\":1051:1062  return true */\n      swap2\n      pop\n      pop\n      jump(tag_36)\n        /* \"contracts/MultiTokenPool.sol\":999:1078  if (supportedTokens[i] == token) {... */\n    tag_44:\n        /* \"contracts/MultiTokenPool.sol\":979:982  i++ */\n      dup1\n      dup1\n      0x01\n      add\n      swap2\n      pop\n      pop\n        /* \"contracts/MultiTokenPool.sol\":934:1089  for (uint i = 0; i < supportedTokens.length; i++) {... */\n      jump(tag_37)\n    tag_38:\n      pop\n        /* \"contracts/MultiTokenPool.sol\":1106:1111  false */\n      0x00\n        /* \"contracts/MultiTokenPool.sol\":1099:1111  return false */\n      swap1\n      pop\n        /* \"contracts/MultiTokenPool.sol\":853:1119  function isSupportedToken(address token) internal view returns (bool) {... */\n    tag_36:\n      swap2\n      swap1\n      pop\n      jump\t// out\n        /* \"@openzeppelin/contracts/token/ERC20/utils/SafeERC20.sol\":1702:1890  function safeTransferFrom(IERC20 token, address from, address to, uint256 value) internal {... */\n    tag_29:\n        /* \"@openzeppelin/contracts/token/ERC20/utils/SafeERC20.sol\":1802:1883  _callOptionalReturn(token, abi.encodeCall(token.transferFrom, (from, to, value))) */\n      tag_46\n        /* \"@openzeppelin/contracts/token/ERC20/utils/SafeERC20.sol\":1822:1827  token */\n      dup5\n        /* \"@openzeppelin/contracts/token/ERC20/utils/SafeERC20.sol\":1844:1849  token */\n      dup6\n        /* \"@openzeppelin/contracts/token/ERC20/utils/SafeERC20.sol\":1844:1862  token.transferFrom */\n      0xffffffffffffffffffffffffffffffffffffffff\n      and\n      0x23b872dd\n        /* \"@openzeppelin/contracts/token/ERC20/utils/SafeERC20.sol\":1865:1869  from */\n      dup7\n        /* \"@openzeppelin/contracts/token/ERC20/utils/SafeERC20.sol\":1871:1873  to */\n      dup7\n        /* \"@openzeppelin/contracts/token/ERC20/utils/SafeERC20.sol\":1875:1880  value */\n      dup7\n        /* \"@openzeppelin/contracts/token/ERC20/utils/SafeERC20.sol\":1829:1882  abi.encodeCall(token.transferFrom, (from, to, value)) */\n      add(0x24, mload(0x40))\n      tag_47\n      swap4\n      swap3\n      swap2\n      swap1\n      tag_48\n      jump\t// in\n    tag_47:\n      mload(0x40)\n      0x20\n      dup2\n      dup4\n      sub\n      sub\n      dup2\n      mstore\n      swap1\n      0x40\n      mstore\n      swap2\n      pop\n      0xe0\n      shl\n      0x20\n      dup3\n      add\n      dup1\n      mload\n      0xffffffffffffffffffffffffffffffffffffffffffffffffffffffff\n      dup4\n      dup2\n      dup4\n      and\n      or\n      dup4\n      mstore\n      pop\n      pop\n      pop\n      pop\n        /* \"@openzeppelin/contracts/token/ERC20/utils/SafeERC20.sol\":1802:1821  _callOptionalReturn */\n      tag_49\n        /* \"@openzeppelin/contracts/token/ERC20/utils/SafeERC20.sol\":1802:1883  _callOptionalReturn(token, abi.encodeCall(token.transferFrom, (from, to, value))) */\n      jump\t// in\n    tag_46:\n        /* \"@openzeppelin/contracts/token/ERC20/utils/SafeERC20.sol\":1702:1890  function safeTransferFrom(IERC20 token, address from, address to, uint256 value) internal {... */\n      pop\n      pop\n      pop\n      pop\n      jump\t// out\n        /* \"@openzeppelin/contracts/token/ERC20/utils/SafeERC20.sol\":4059:4688  function _callOptionalReturn(IERC20 token, bytes memory data) private {... */\n    tag_49:\n        /* \"@openzeppelin/contracts/token/ERC20/utils/SafeERC20.sol\":4478:4501  bytes memory returndata */\n      0x00\n        /* \"@openzeppelin/contracts/token/ERC20/utils/SafeERC20.sol\":4504:4537  address(token).functionCall(data) */\n      tag_51\n        /* \"@openzeppelin/contracts/token/ERC20/utils/SafeERC20.sol\":4532:4536  data */\n      dup3\n        /* \"@openzeppelin/contracts/token/ERC20/utils/SafeERC20.sol\":4512:4517  token */\n      dup5\n        /* \"@openzeppelin/contracts/token/ERC20/utils/SafeERC20.sol\":4504:4531  address(token).functionCall */\n      0xffffffffffffffffffffffffffffffffffffffff\n      and\n      tag_52\n      swap1\n        /* \"@openzeppelin/contracts/token/ERC20/utils/SafeERC20.sol\":4504:4537  address(token).functionCall(data) */\n      swap2\n      swap1\n      0xffffffff\n      and\n      jump\t// in\n    tag_51:\n        /* \"@openzeppelin/contracts/token/ERC20/utils/SafeERC20.sol\":4478:4537  bytes memory returndata = address(token).functionCall(data) */\n      swap1\n      pop\n        /* \"@openzeppelin/contracts/token/ERC20/utils/SafeERC20.sol\":4572:4573  0 */\n      0x00\n        /* \"@openzeppelin/contracts/token/ERC20/utils/SafeERC20.sol\":4551:4561  returndata */\n      dup2\n        /* \"@openzeppelin/contracts/token/ERC20/utils/SafeERC20.sol\":4551:4568  returndata.length */\n      mload\n        /* \"@openzeppelin/contracts/token/ERC20/utils/SafeERC20.sol\":4551:4573  returndata.length != 0 */\n      eq\n      iszero\n        /* \"@openzeppelin/contracts/token/ERC20/utils/SafeERC20.sol\":4551:4608  returndata.length != 0 && !abi.decode(returndata, (bool)) */\n      dup1\n      iszero\n      tag_53\n      jumpi\n      pop\n        /* \"@openzeppelin/contracts/token/ERC20/utils/SafeERC20.sol\":4589:4599  returndata */\n      dup1\n        /* \"@openzeppelin/contracts/token/ERC20/utils/SafeERC20.sol\":4578:4608  abi.decode(returndata, (bool)) */\n      dup1\n      0x20\n      add\n      swap1\n      mload\n      dup2\n      add\n      swap1\n      tag_54\n      swap2\n      swap1\n      tag_55\n      jump\t// in\n    tag_54:\n        /* \"@openzeppelin/contracts/token/ERC20/utils/SafeERC20.sol\":4577:4608  !abi.decode(returndata, (bool)) */\n      iszero\n        /* \"@openzeppelin/contracts/token/ERC20/utils/SafeERC20.sol\":4551:4608  returndata.length != 0 && !abi.decode(returndata, (bool)) */\n    tag_53:\n        /* \"@openzeppelin/contracts/token/ERC20/utils/SafeERC20.sol\":4547:4682  if (returndata.length != 0 && !abi.decode(returndata, (bool))) {... */\n      iszero\n      tag_56\n      jumpi\n        /* \"@openzeppelin/contracts/token/ERC20/utils/SafeERC20.sol\":4664:4669  token */\n      dup3\n        /* \"@openzeppelin/contracts/token/ERC20/utils/SafeERC20.sol\":4631:4671  SafeERC20FailedOperation(address(token)) */\n      mload(0x40)\n      0x5274afe700000000000000000000000000000000000000000000000000000000\n      dup2\n      mstore\n      0x04\n      add\n      tag_57\n      swap2\n      swap1\n      tag_21\n      jump\t// in\n    tag_57:\n      mload(0x40)\n      dup1\n      swap2\n      sub\n      swap1\n      revert\n        /* \"@openzeppelin/contracts/token/ERC20/utils/SafeERC20.sol\":4547:4682  if (returndata.length != 0 && !abi.decode(returndata, (bool))) {... */\n    tag_56:\n        /* \"@openzeppelin/contracts/token/ERC20/utils/SafeERC20.sol\":4129:4688  {... */\n      pop\n        /* \"@openzeppelin/contracts/token/ERC20/utils/SafeERC20.sol\":4059:4688  function _callOptionalReturn(IERC20 token, bytes memory data) private {... */\n      pop\n      pop\n      jump\t// out\n        /* \"@openzeppelin/contracts/utils/Address.sol\":2705:2856  function functionCall(address target, bytes memory data) internal returns (bytes memory) {... */\n    tag_52:\n        /* \"@openzeppelin/contracts/utils/Address.sol\":2780:2792  bytes memory */\n      0x60\n        /* \"@openzeppelin/contracts/utils/Address.sol\":2811:2849  functionCallWithValue(target, data, 0) */\n      tag_59\n        /* \"@openzeppelin/contracts/utils/Address.sol\":2833:2839  target */\n      dup4\n        /* \"@openzeppelin/contracts/utils/Address.sol\":2841:2845  data */\n      dup4\n        /* \"@openzeppelin/contracts/utils/Address.sol\":2847:2848  0 */\n      0x00\n        /* \"@openzeppelin/contracts/utils/Address.sol\":2811:2832  functionCallWithValue */\n      tag_60\n        /* \"@openzeppelin/contracts/utils/Address.sol\":2811:2849  functionCallWithValue(target, data, 0) */\n      jump\t// in\n    tag_59:\n        /* \"@openzeppelin/contracts/utils/Address.sol\":2804:2849  return functionCallWithValue(target, data, 0) */\n      swap1\n      pop\n        /* \"@openzeppelin/contracts/utils/Address.sol\":2705:2856  function functionCall(address target, bytes memory data) internal returns (bytes memory) {... */\n      swap3\n      swap2\n      pop\n      pop\n      jump\t// out\n        /* \"@openzeppelin/contracts/utils/Address.sol\":3180:3572  function functionCallWithValue(address target, bytes memory data, uint256 value) internal returns (bytes memory) {... */\n    tag_60:\n        /* \"@openzeppelin/contracts/utils/Address.sol\":3279:3291  bytes memory */\n      0x60\n        /* \"@openzeppelin/contracts/utils/Address.sol\":3331:3336  value */\n      dup2\n        /* \"@openzeppelin/contracts/utils/Address.sol\":3307:3328  address(this).balance */\n      selfbalance\n        /* \"@openzeppelin/contracts/utils/Address.sol\":3307:3336  address(this).balance < value */\n      lt\n        /* \"@openzeppelin/contracts/utils/Address.sol\":3303:3411  if (address(this).balance < value) {... */\n      iszero\n      tag_62\n      jumpi\n        /* \"@openzeppelin/contracts/utils/Address.sol\":3394:3398  this */\n      address\n        /* \"@openzeppelin/contracts/utils/Address.sol\":3359:3400  AddressInsufficientBalance(address(this)) */\n      mload(0x40)\n      0xcd78605900000000000000000000000000000000000000000000000000000000\n      dup2\n      mstore\n      0x04\n      add\n      tag_63\n      swap2\n      swap1\n      tag_21\n      jump\t// in\n    tag_63:\n      mload(0x40)\n      dup1\n      swap2\n      sub\n      swap1\n      revert\n        /* \"@openzeppelin/contracts/utils/Address.sol\":3303:3411  if (address(this).balance < value) {... */\n    tag_62:\n        /* \"@openzeppelin/contracts/utils/Address.sol\":3421:3433  bool success */\n      0x00\n        /* \"@openzeppelin/contracts/utils/Address.sol\":3435:3458  bytes memory returndata */\n      dup1\n        /* \"@openzeppelin/contracts/utils/Address.sol\":3462:3468  target */\n      dup6\n        /* \"@openzeppelin/contracts/utils/Address.sol\":3462:3473  target.call */\n      0xffffffffffffffffffffffffffffffffffffffff\n      and\n        /* \"@openzeppelin/contracts/utils/Address.sol\":3481:3486  value */\n      dup5\n        /* \"@openzeppelin/contracts/utils/Address.sol\":3488:3492  data */\n      dup7\n        /* \"@openzeppelin/contracts/utils/Address.sol\":3462:3493  target.call{value: value}(data) */\n      mload(0x40)\n      tag_64\n      swap2\n      swap1\n      tag_65\n      jump\t// in\n    tag_64:\n      0x00\n      mload(0x40)\n      dup1\n      dup4\n      sub\n      dup2\n      dup6\n      dup8\n      gas\n      call\n      swap3\n      pop\n      pop\n      pop\n      returndatasize\n      dup1\n      0x00\n      dup2\n      eq\n      tag_68\n      jumpi\n      mload(0x40)\n      swap2\n      pop\n      and(add(returndatasize, 0x3f), not(0x1f))\n      dup3\n      add\n      0x40\n      mstore\n      returndatasize\n      dup3\n      mstore\n      returndatasize\n      0x00\n      0x20\n      dup5\n      add\n      returndatacopy\n      jump(tag_67)\n    tag_68:\n      0x60\n      swap2\n      pop\n    tag_67:\n      pop\n        /* \"@openzeppelin/contracts/utils/Address.sol\":3420:3493  (bool success, bytes memory returndata) = target.call{value: value}(data) */\n      swap2\n      pop\n      swap2\n      pop\n        /* \"@openzeppelin/contracts/utils/Address.sol\":3510:3565  verifyCallResultFromTarget(target, success, returndata) */\n      tag_69\n        /* \"@openzeppelin/contracts/utils/Address.sol\":3537:3543  target */\n      dup7\n        /* \"@openzeppelin/contracts/utils/Address.sol\":3545:3552  success */\n      dup4\n        /* \"@openzeppelin/contracts/utils/Address.sol\":3554:3564  returndata */\n      dup4\n        /* \"@openzeppelin/contracts/utils/Address.sol\":3510:3536  verifyCallResultFromTarget */\n      tag_70\n        /* \"@openzeppelin/contracts/utils/Address.sol\":3510:3565  verifyCallResultFromTarget(target, success, returndata) */\n      jump\t// in\n    tag_69:\n        /* \"@openzeppelin/contracts/utils/Address.sol\":3503:3565  return verifyCallResultFromTarget(target, success, returndata) */\n      swap3\n      pop\n      pop\n      pop\n        /* \"@openzeppelin/contracts/utils/Address.sol\":3180:3572  function functionCallWithValue(address target, bytes memory data, uint256 value) internal returns (bytes memory) {... */\n      swap4\n      swap3\n      pop\n      pop\n      pop\n      jump\t// out\n        /* \"@openzeppelin/contracts/utils/Address.sol\":4625:5207  function verifyCallResultFromTarget(... */\n    tag_70:\n        /* \"@openzeppelin/contracts/utils/Address.sol\":4769:4781  bytes memory */\n      0x60\n        /* \"@openzeppelin/contracts/utils/Address.sol\":4798:4805  success */\n      dup3\n        /* \"@openzeppelin/contracts/utils/Address.sol\":4793:5201  if (!success) {... */\n      tag_72\n      jumpi\n        /* \"@openzeppelin/contracts/utils/Address.sol\":4821:4840  _revert(returndata) */\n      tag_73\n        /* \"@openzeppelin/contracts/utils/Address.sol\":4829:4839  returndata */\n      dup3\n        /* \"@openzeppelin/contracts/utils/Address.sol\":4821:4828  _revert */\n      tag_74\n        /* \"@openzeppelin/contracts/utils/Address.sol\":4821:4840  _revert(returndata) */\n      jump\t// in\n    tag_73:\n        /* \"@openzeppelin/contracts/utils/Address.sol\":4793:5201  if (!success) {... */\n      jump(tag_75)\n    tag_72:\n        /* \"@openzeppelin/contracts/utils/Address.sol\":5066:5067  0 */\n      0x00\n        /* \"@openzeppelin/contracts/utils/Address.sol\":5045:5055  returndata */\n      dup3\n        /* \"@openzeppelin/contracts/utils/Address.sol\":5045:5062  returndata.length */\n      mload\n        /* \"@openzeppelin/contracts/utils/Address.sol\":5045:5067  returndata.length == 0 */\n      eq\n        /* \"@openzeppelin/contracts/utils/Address.sol\":5045:5094  returndata.length == 0 && target.code.length == 0 */\n      dup1\n      iszero\n      tag_76\n      jumpi\n      pop\n        /* \"@openzeppelin/contracts/utils/Address.sol\":5093:5094  0 */\n      0x00\n        /* \"@openzeppelin/contracts/utils/Address.sol\":5071:5077  target */\n      dup5\n        /* \"@openzeppelin/contracts/utils/Address.sol\":5071:5089  target.code.length */\n      0xffffffffffffffffffffffffffffffffffffffff\n      and\n      extcodesize\n        /* \"@openzeppelin/contracts/utils/Address.sol\":5071:5094  target.code.length == 0 */\n      eq\n        /* \"@openzeppelin/contracts/utils/Address.sol\":5045:5094  returndata.length == 0 && target.code.length == 0 */\n    tag_76:\n        /* \"@openzeppelin/contracts/utils/Address.sol\":5041:5160  if (returndata.length == 0 && target.code.length == 0) {... */\n      iszero\n      tag_77\n      jumpi\n        /* \"@openzeppelin/contracts/utils/Address.sol\":5138:5144  target */\n      dup4\n        /* \"@openzeppelin/contracts/utils/Address.sol\":5121:5145  AddressEmptyCode(target) */\n      mload(0x40)\n      0x9996b31500000000000000000000000000000000000000000000000000000000\n      dup2\n      mstore\n      0x04\n      add\n      tag_78\n      swap2\n      swap1\n      tag_21\n      jump\t// in\n    tag_78:\n      mload(0x40)\n      dup1\n      swap2\n      sub\n      swap1\n      revert\n        /* \"@openzeppelin/contracts/utils/Address.sol\":5041:5160  if (returndata.length == 0 && target.code.length == 0) {... */\n    tag_77:\n        /* \"@openzeppelin/contracts/utils/Address.sol\":5180:5190  returndata */\n      dup2\n        /* \"@openzeppelin/contracts/utils/Address.sol\":5173:5190  return returndata */\n      swap1\n      pop\n      jump(tag_71)\n        /* \"@openzeppelin/contracts/utils/Address.sol\":4793:5201  if (!success) {... */\n    tag_75:\n        /* \"@openzeppelin/contracts/utils/Address.sol\":4625:5207  function verifyCallResultFromTarget(... */\n    tag_71:\n      swap4\n      swap3\n      pop\n      pop\n      pop\n      jump\t// out\n        /* \"@openzeppelin/contracts/utils/Address.sol\":5743:6259  function _revert(bytes memory returndata) private pure {... */\n    tag_74:\n        /* \"@openzeppelin/contracts/utils/Address.sol\":5894:5895  0 */\n      0x00\n        /* \"@openzeppelin/contracts/utils/Address.sol\":5874:5884  returndata */\n      dup2\n        /* \"@openzeppelin/contracts/utils/Address.sol\":5874:5891  returndata.length */\n      mload\n        /* \"@openzeppelin/contracts/utils/Address.sol\":5874:5895  returndata.length > 0 */\n      gt\n        /* \"@openzeppelin/contracts/utils/Address.sol\":5870:6253  if (returndata.length > 0) {... */\n      iszero\n      tag_80\n      jumpi\n        /* \"@openzeppelin/contracts/utils/Address.sol\":6102:6112  returndata */\n      dup1\n        /* \"@openzeppelin/contracts/utils/Address.sol\":6096:6113  mload(returndata) */\n      mload\n        /* \"@openzeppelin/contracts/utils/Address.sol\":6158:6173  returndata_size */\n      dup1\n        /* \"@openzeppelin/contracts/utils/Address.sol\":6145:6155  returndata */\n      dup3\n        /* \"@openzeppelin/contracts/utils/Address.sol\":6141:6143  32 */\n      0x20\n        /* \"@openzeppelin/contracts/utils/Address.sol\":6137:6156  add(32, returndata) */\n      add\n        /* \"@openzeppelin/contracts/utils/Address.sol\":6130:6174  revert(add(32, returndata), returndata_size) */\n      revert\n        /* \"@openzeppelin/contracts/utils/Address.sol\":5870:6253  if (returndata.length > 0) {... */\n    tag_80:\n        /* \"@openzeppelin/contracts/utils/Address.sol\":6225:6242  FailedInnerCall() */\n      mload(0x40)\n      0x1425ea4200000000000000000000000000000000000000000000000000000000\n      dup2\n      mstore\n      0x04\n      add\n      mload(0x40)\n      dup1\n      swap2\n      sub\n      swap1\n      revert\n        /* \"#utility.yul\":88:205   */\n    tag_83:\n        /* \"#utility.yul\":197:198   */\n      0x00\n        /* \"#utility.yul\":194:195   */\n      dup1\n        /* \"#utility.yul\":187:199   */\n      revert\n        /* \"#utility.yul\":334:460   */\n    tag_85:\n        /* \"#utility.yul\":371:378   */\n      0x00\n        /* \"#utility.yul\":411:453   */\n      0xffffffffffffffffffffffffffffffffffffffff\n        /* \"#utility.yul\":404:409   */\n      dup3\n        /* \"#utility.yul\":400:454   */\n      and\n        /* \"#utility.yul\":389:454   */\n      swap1\n      pop\n        /* \"#utility.yul\":334:460   */\n      swap2\n      swap1\n      pop\n      jump\t// out\n        /* \"#utility.yul\":466:562   */\n    tag_86:\n        /* \"#utility.yul\":503:510   */\n      0x00\n        /* \"#utility.yul\":532:556   */\n      tag_111\n        /* \"#utility.yul\":550:555   */\n      dup3\n        /* \"#utility.yul\":532:556   */\n      tag_85\n      jump\t// in\n    tag_111:\n        /* \"#utility.yul\":521:556   */\n      swap1\n      pop\n        /* \"#utility.yul\":466:562   */\n      swap2\n      swap1\n      pop\n      jump\t// out\n        /* \"#utility.yul\":568:690   */\n    tag_87:\n        /* \"#utility.yul\":641:665   */\n      tag_113\n        /* \"#utility.yul\":659:664   */\n      dup2\n        /* \"#utility.yul\":641:665   */\n      tag_86\n      jump\t// in\n    tag_113:\n        /* \"#utility.yul\":634:639   */\n      dup2\n        /* \"#utility.yul\":631:666   */\n      eq\n        /* \"#utility.yul\":621:684   */\n      tag_114\n      jumpi\n        /* \"#utility.yul\":680:681   */\n      0x00\n        /* \"#utility.yul\":677:678   */\n      dup1\n        /* \"#utility.yul\":670:682   */\n      revert\n        /* \"#utility.yul\":621:684   */\n    tag_114:\n        /* \"#utility.yul\":568:690   */\n      pop\n      jump\t// out\n        /* \"#utility.yul\":696:835   */\n    tag_88:\n        /* \"#utility.yul\":742:747   */\n      0x00\n        /* \"#utility.yul\":780:786   */\n      dup2\n        /* \"#utility.yul\":767:787   */\n      calldataload\n        /* \"#utility.yul\":758:787   */\n      swap1\n      pop\n        /* \"#utility.yul\":796:829   */\n      tag_116\n        /* \"#utility.yul\":823:828   */\n      dup2\n        /* \"#utility.yul\":796:829   */\n      tag_87\n      jump\t// in\n    tag_116:\n        /* \"#utility.yul\":696:835   */\n      swap3\n      swap2\n      pop\n      pop\n      jump\t// out\n        /* \"#utility.yul\":841:1170   */\n    tag_8:\n        /* \"#utility.yul\":900:906   */\n      0x00\n        /* \"#utility.yul\":949:951   */\n      0x20\n        /* \"#utility.yul\":937:946   */\n      dup3\n        /* \"#utility.yul\":928:935   */\n      dup5\n        /* \"#utility.yul\":924:947   */\n      sub\n        /* \"#utility.yul\":920:952   */\n      slt\n        /* \"#utility.yul\":917:1036   */\n      iszero\n      tag_118\n      jumpi\n        /* \"#utility.yul\":955:1034   */\n      tag_119\n      tag_83\n      jump\t// in\n    tag_119:\n        /* \"#utility.yul\":917:1036   */\n    tag_118:\n        /* \"#utility.yul\":1075:1076   */\n      0x00\n        /* \"#utility.yul\":1100:1153   */\n      tag_120\n        /* \"#utility.yul\":1145:1152   */\n      dup5\n        /* \"#utility.yul\":1136:1142   */\n      dup3\n        /* \"#utility.yul\":1125:1134   */\n      dup6\n        /* \"#utility.yul\":1121:1143   */\n      add\n        /* \"#utility.yul\":1100:1153   */\n      tag_88\n      jump\t// in\n    tag_120:\n        /* \"#utility.yul\":1090:1153   */\n      swap2\n      pop\n        /* \"#utility.yul\":1046:1163   */\n      pop\n        /* \"#utility.yul\":841:1170   */\n      swap3\n      swap2\n      pop\n      pop\n      jump\t// out\n        /* \"#utility.yul\":1176:1253   */\n    tag_89:\n        /* \"#utility.yul\":1213:1220   */\n      0x00\n        /* \"#utility.yul\":1242:1247   */\n      dup2\n        /* \"#utility.yul\":1231:1247   */\n      swap1\n      pop\n        /* \"#utility.yul\":1176:1253   */\n      swap2\n      swap1\n      pop\n      jump\t// out\n        /* \"#utility.yul\":1259:1377   */\n    tag_90:\n        /* \"#utility.yul\":1346:1370   */\n      tag_123\n        /* \"#utility.yul\":1364:1369   */\n      dup2\n        /* \"#utility.yul\":1346:1370   */\n      tag_89\n      jump\t// in\n    tag_123:\n        /* \"#utility.yul\":1341:1344   */\n      dup3\n        /* \"#utility.yul\":1334:1371   */\n      mstore\n        /* \"#utility.yul\":1259:1377   */\n      pop\n      pop\n      jump\t// out\n        /* \"#utility.yul\":1383:1605   */\n    tag_11:\n        /* \"#utility.yul\":1476:1480   */\n      0x00\n        /* \"#utility.yul\":1514:1516   */\n      0x20\n        /* \"#utility.yul\":1503:1512   */\n      dup3\n        /* \"#utility.yul\":1499:1517   */\n      add\n        /* \"#utility.yul\":1491:1517   */\n      swap1\n      pop\n        /* \"#utility.yul\":1527:1598   */\n      tag_125\n        /* \"#utility.yul\":1595:1596   */\n      0x00\n        /* \"#utility.yul\":1584:1593   */\n      dup4\n        /* \"#utility.yul\":1580:1597   */\n      add\n        /* \"#utility.yul\":1571:1577   */\n      dup5\n        /* \"#utility.yul\":1527:1598   */\n      tag_90\n      jump\t// in\n    tag_125:\n        /* \"#utility.yul\":1383:1605   */\n      swap3\n      swap2\n      pop\n      pop\n      jump\t// out\n        /* \"#utility.yul\":1611:1733   */\n    tag_91:\n        /* \"#utility.yul\":1684:1708   */\n      tag_127\n        /* \"#utility.yul\":1702:1707   */\n      dup2\n        /* \"#utility.yul\":1684:1708   */\n      tag_89\n      jump\t// in\n    tag_127:\n        /* \"#utility.yul\":1677:1682   */\n      dup2\n        /* \"#utility.yul\":1674:1709   */\n      eq\n        /* \"#utility.yul\":1664:1727   */\n      tag_128\n      jumpi\n        /* \"#utility.yul\":1723:1724   */\n      0x00\n        /* \"#utility.yul\":1720:1721   */\n      dup1\n        /* \"#utility.yul\":1713:1725   */\n      revert\n        /* \"#utility.yul\":1664:1727   */\n    tag_128:\n        /* \"#utility.yul\":1611:1733   */\n      pop\n      jump\t// out\n        /* \"#utility.yul\":1739:1878   */\n    tag_92:\n        /* \"#utility.yul\":1785:1790   */\n      0x00\n        /* \"#utility.yul\":1823:1829   */\n      dup2\n        /* \"#utility.yul\":1810:1830   */\n      calldataload\n        /* \"#utility.yul\":1801:1830   */\n      swap1\n      pop\n        /* \"#utility.yul\":1839:1872   */\n      tag_130\n        /* \"#utility.yul\":1866:1871   */\n      dup2\n        /* \"#utility.yul\":1839:1872   */\n      tag_91\n      jump\t// in\n    tag_130:\n        /* \"#utility.yul\":1739:1878   */\n      swap3\n      swap2\n      pop\n      pop\n      jump\t// out\n        /* \"#utility.yul\":1884:2358   */\n    tag_14:\n        /* \"#utility.yul\":1952:1958   */\n      0x00\n        /* \"#utility.yul\":1960:1966   */\n      dup1\n        /* \"#utility.yul\":2009:2011   */\n      0x40\n        /* \"#utility.yul\":1997:2006   */\n      dup4\n        /* \"#utility.yul\":1988:1995   */\n      dup6\n        /* \"#utility.yul\":1984:2007   */\n      sub\n        /* \"#utility.yul\":1980:2012   */\n      slt\n        /* \"#utility.yul\":1977:2096   */\n      iszero\n      tag_132\n      jumpi\n        /* \"#utility.yul\":2015:2094   */\n      tag_133\n      tag_83\n      jump\t// in\n    tag_133:\n        /* \"#utility.yul\":1977:2096   */\n    tag_132:\n        /* \"#utility.yul\":2135:2136   */\n      0x00\n        /* \"#utility.yul\":2160:2213   */\n      tag_134\n        /* \"#utility.yul\":2205:2212   */\n      dup6\n        /* \"#utility.yul\":2196:2202   */\n      dup3\n        /* \"#utility.yul\":2185:2194   */\n      dup7\n        /* \"#utility.yul\":2181:2203   */\n      add\n        /* \"#utility.yul\":2160:2213   */\n      tag_88\n      jump\t// in\n    tag_134:\n        /* \"#utility.yul\":2150:2213   */\n      swap3\n      pop\n        /* \"#utility.yul\":2106:2223   */\n      pop\n        /* \"#utility.yul\":2262:2264   */\n      0x20\n        /* \"#utility.yul\":2288:2341   */\n      tag_135\n        /* \"#utility.yul\":2333:2340   */\n      dup6\n        /* \"#utility.yul\":2324:2330   */\n      dup3\n        /* \"#utility.yul\":2313:2322   */\n      dup7\n        /* \"#utility.yul\":2309:2331   */\n      add\n        /* \"#utility.yul\":2288:2341   */\n      tag_92\n      jump\t// in\n    tag_135:\n        /* \"#utility.yul\":2278:2341   */\n      swap2\n      pop\n        /* \"#utility.yul\":2233:2351   */\n      pop\n        /* \"#utility.yul\":1884:2358   */\n      swap3\n      pop\n      swap3\n      swap1\n      pop\n      jump\t// out\n        /* \"#utility.yul\":2364:2693   */\n    tag_18:\n        /* \"#utility.yul\":2423:2429   */\n      0x00\n        /* \"#utility.yul\":2472:2474   */\n      0x20\n        /* \"#utility.yul\":2460:2469   */\n      dup3\n        /* \"#utility.yul\":2451:2458   */\n      dup5\n        /* \"#utility.yul\":2447:2470   */\n      sub\n        /* \"#utility.yul\":2443:2475   */\n      slt\n        /* \"#utility.yul\":2440:2559   */\n      iszero\n      tag_137\n      jumpi\n        /* \"#utility.yul\":2478:2557   */\n      tag_138\n      tag_83\n      jump\t// in\n    tag_138:\n        /* \"#utility.yul\":2440:2559   */\n    tag_137:\n        /* \"#utility.yul\":2598:2599   */\n      0x00\n        /* \"#utility.yul\":2623:2676   */\n      tag_139\n        /* \"#utility.yul\":2668:2675   */\n      dup5\n        /* \"#utility.yul\":2659:2665   */\n      dup3\n        /* \"#utility.yul\":2648:2657   */\n      dup6\n        /* \"#utility.yul\":2644:2666   */\n      add\n        /* \"#utility.yul\":2623:2676   */\n      tag_92\n      jump\t// in\n    tag_139:\n        /* \"#utility.yul\":2613:2676   */\n      swap2\n      pop\n        /* \"#utility.yul\":2569:2686   */\n      pop\n        /* \"#utility.yul\":2364:2693   */\n      swap3\n      swap2\n      pop\n      pop\n      jump\t// out\n        /* \"#utility.yul\":2699:2817   */\n    tag_93:\n        /* \"#utility.yul\":2786:2810   */\n      tag_141\n        /* \"#utility.yul\":2804:2809   */\n      dup2\n        /* \"#utility.yul\":2786:2810   */\n      tag_86\n      jump\t// in\n    tag_141:\n        /* \"#utility.yul\":2781:2784   */\n      dup3\n        /* \"#utility.yul\":2774:2811   */\n      mstore\n        /* \"#utility.yul\":2699:2817   */\n      pop\n      pop\n      jump\t// out\n        /* \"#utility.yul\":2823:3045   */\n    tag_21:\n        /* \"#utility.yul\":2916:2920   */\n      0x00\n        /* \"#utility.yul\":2954:2956   */\n      0x20\n        /* \"#utility.yul\":2943:2952   */\n      dup3\n        /* \"#utility.yul\":2939:2957   */\n      add\n        /* \"#utility.yul\":2931:2957   */\n      swap1\n      pop\n        /* \"#utility.yul\":2967:3038   */\n      tag_143\n        /* \"#utility.yul\":3035:3036   */\n      0x00\n        /* \"#utility.yul\":3024:3033   */\n      dup4\n        /* \"#utility.yul\":3020:3037   */\n      add\n        /* \"#utility.yul\":3011:3017   */\n      dup5\n        /* \"#utility.yul\":2967:3038   */\n      tag_93\n      jump\t// in\n    tag_143:\n        /* \"#utility.yul\":2823:3045   */\n      swap3\n      swap2\n      pop\n      pop\n      jump\t// out\n        /* \"#utility.yul\":3051:3220   */\n    tag_94:\n        /* \"#utility.yul\":3135:3146   */\n      0x00\n        /* \"#utility.yul\":3169:3175   */\n      dup3\n        /* \"#utility.yul\":3164:3167   */\n      dup3\n        /* \"#utility.yul\":3157:3176   */\n      mstore\n        /* \"#utility.yul\":3209:3213   */\n      0x20\n        /* \"#utility.yul\":3204:3207   */\n      dup3\n        /* \"#utility.yul\":3200:3214   */\n      add\n        /* \"#utility.yul\":3185:3214   */\n      swap1\n      pop\n        /* \"#utility.yul\":3051:3220   */\n      swap3\n      swap2\n      pop\n      pop\n      jump\t// out\n        /* \"#utility.yul\":3226:3395   */\n    tag_95:\n        /* \"#utility.yul\":3366:3387   */\n      0x546f6b656e206e6f7420737570706f7274656400000000000000000000000000\n        /* \"#utility.yul\":3362:3363   */\n      0x00\n        /* \"#utility.yul\":3354:3360   */\n      dup3\n        /* \"#utility.yul\":3350:3364   */\n      add\n        /* \"#utility.yul\":3343:3388   */\n      mstore\n        /* \"#utility.yul\":3226:3395   */\n      pop\n      jump\t// out\n        /* \"#utility.yul\":3401:3767   */\n    tag_96:\n        /* \"#utility.yul\":3543:3546   */\n      0x00\n        /* \"#utility.yul\":3564:3631   */\n      tag_147\n        /* \"#utility.yul\":3628:3630   */\n      0x13\n        /* \"#utility.yul\":3623:3626   */\n      dup4\n        /* \"#utility.yul\":3564:3631   */\n      tag_94\n      jump\t// in\n    tag_147:\n        /* \"#utility.yul\":3557:3631   */\n      swap2\n      pop\n        /* \"#utility.yul\":3640:3733   */\n      tag_148\n        /* \"#utility.yul\":3729:3732   */\n      dup3\n        /* \"#utility.yul\":3640:3733   */\n      tag_95\n      jump\t// in\n    tag_148:\n        /* \"#utility.yul\":3758:3760   */\n      0x20\n        /* \"#utility.yul\":3753:3756   */\n      dup3\n        /* \"#utility.yul\":3749:3761   */\n      add\n        /* \"#utility.yul\":3742:3761   */\n      swap1\n      pop\n        /* \"#utility.yul\":3401:3767   */\n      swap2\n      swap1\n      pop\n      jump\t// out\n        /* \"#utility.yul\":3773:4192   */\n    tag_27:\n        /* \"#utility.yul\":3939:3943   */\n      0x00\n        /* \"#utility.yul\":3977:3979   */\n      0x20\n        /* \"#utility.yul\":3966:3975   */\n      dup3\n        /* \"#utility.yul\":3962:3980   */\n      add\n        /* \"#utility.yul\":3954:3980   */\n      swap1\n      pop\n        /* \"#utility.yul\":4026:4035   */\n      dup2\n        /* \"#utility.yul\":4020:4024   */\n      dup2\n        /* \"#utility.yul\":4016:4036   */\n      sub\n        /* \"#utility.yul\":4012:4013   */\n      0x00\n        /* \"#utility.yul\":4001:4010   */\n      dup4\n        /* \"#utility.yul\":3997:4014   */\n      add\n        /* \"#utility.yul\":3990:4037   */\n      mstore\n        /* \"#utility.yul\":4054:4185   */\n      tag_150\n        /* \"#utility.yul\":4180:4184   */\n      dup2\n        /* \"#utility.yul\":4054:4185   */\n      tag_96\n      jump\t// in\n    tag_150:\n        /* \"#utility.yul\":4046:4185   */\n      swap1\n      pop\n        /* \"#utility.yul\":3773:4192   */\n      swap2\n      swap1\n      pop\n      jump\t// out\n        /* \"#utility.yul\":4198:4378   */\n    tag_97:\n        /* \"#utility.yul\":4246:4323   */\n      0x4e487b7100000000000000000000000000000000000000000000000000000000\n        /* \"#utility.yul\":4243:4244   */\n      0x00\n        /* \"#utility.yul\":4236:4324   */\n      mstore\n        /* \"#utility.yul\":4343:4347   */\n      0x11\n        /* \"#utility.yul\":4340:4341   */\n      0x04\n        /* \"#utility.yul\":4333:4348   */\n      mstore\n        /* \"#utility.yul\":4367:4371   */\n      0x24\n        /* \"#utility.yul\":4364:4365   */\n      0x00\n        /* \"#utility.yul\":4357:4372   */\n      revert\n        /* \"#utility.yul\":4384:4575   */\n    tag_31:\n        /* \"#utility.yul\":4424:4427   */\n      0x00\n        /* \"#utility.yul\":4443:4463   */\n      tag_153\n        /* \"#utility.yul\":4461:4462   */\n      dup3\n        /* \"#utility.yul\":4443:4463   */\n      tag_89\n      jump\t// in\n    tag_153:\n        /* \"#utility.yul\":4438:4463   */\n      swap2\n      pop\n        /* \"#utility.yul\":4477:4497   */\n      tag_154\n        /* \"#utility.yul\":4495:4496   */\n      dup4\n        /* \"#utility.yul\":4477:4497   */\n      tag_89\n      jump\t// in\n    tag_154:\n        /* \"#utility.yul\":4472:4497   */\n      swap3\n      pop\n        /* \"#utility.yul\":4520:4521   */\n      dup3\n        /* \"#utility.yul\":4517:4518   */\n      dup3\n        /* \"#utility.yul\":4513:4522   */\n      add\n        /* \"#utility.yul\":4506:4522   */\n      swap1\n      pop\n        /* \"#utility.yul\":4541:4544   */\n      dup1\n        /* \"#utility.yul\":4538:4539   */\n      dup3\n        /* \"#utility.yul\":4535:4545   */\n      gt\n        /* \"#utility.yul\":4532:4568   */\n      iszero\n      tag_155\n      jumpi\n        /* \"#utility.yul\":4548:4566   */\n      tag_156\n      tag_97\n      jump\t// in\n    tag_156:\n        /* \"#utility.yul\":4532:4568   */\n    tag_155:\n        /* \"#utility.yul\":4384:4575   */\n      swap3\n      swap2\n      pop\n      pop\n      jump\t// out\n        /* \"#utility.yul\":4581:4913   */\n    tag_33:\n        /* \"#utility.yul\":4702:4706   */\n      0x00\n        /* \"#utility.yul\":4740:4742   */\n      0x40\n        /* \"#utility.yul\":4729:4738   */\n      dup3\n        /* \"#utility.yul\":4725:4743   */\n      add\n        /* \"#utility.yul\":4717:4743   */\n      swap1\n      pop\n        /* \"#utility.yul\":4753:4824   */\n      tag_158\n        /* \"#utility.yul\":4821:4822   */\n      0x00\n        /* \"#utility.yul\":4810:4819   */\n      dup4\n        /* \"#utility.yul\":4806:4823   */\n      add\n        /* \"#utility.yul\":4797:4803   */\n      dup6\n        /* \"#utility.yul\":4753:4824   */\n      tag_93\n      jump\t// in\n    tag_158:\n        /* \"#utility.yul\":4834:4906   */\n      tag_159\n        /* \"#utility.yul\":4902:4904   */\n      0x20\n        /* \"#utility.yul\":4891:4900   */\n      dup4\n        /* \"#utility.yul\":4887:4905   */\n      add\n        /* \"#utility.yul\":4878:4884   */\n      dup5\n        /* \"#utility.yul\":4834:4906   */\n      tag_90\n      jump\t// in\n    tag_159:\n        /* \"#utility.yul\":4581:4913   */\n      swap4\n      swap3\n      pop\n      pop\n      pop\n      jump\t// out\n        /* \"#utility.yul\":4919:5099   */\n    tag_42:\n        /* \"#utility.yul\":4967:5044   */\n      0x4e487b7100000000000000000000000000000000000000000000000000000000\n        /* \"#utility.yul\":4964:4965   */\n      0x00\n        /* \"#utility.yul\":4957:5045   */\n      mstore\n        /* \"#utility.yul\":5064:5068   */\n      0x32\n        /* \"#utility.yul\":5061:5062   */\n      0x04\n        /* \"#utility.yul\":5054:5069   */\n      mstore\n        /* \"#utility.yul\":5088:5092   */\n      0x24\n        /* \"#utility.yul\":5085:5086   */\n      0x00\n        /* \"#utility.yul\":5078:5093   */\n      revert\n        /* \"#utility.yul\":5105:5547   */\n    tag_48:\n        /* \"#utility.yul\":5254:5258   */\n      0x00\n        /* \"#utility.yul\":5292:5294   */\n      0x60\n        /* \"#utility.yul\":5281:5290   */\n      dup3\n        /* \"#utility.yul\":5277:5295   */\n      add\n        /* \"#utility.yul\":5269:5295   */\n      swap1\n      pop\n        /* \"#utility.yul\":5305:5376   */\n      tag_162\n        /* \"#utility.yul\":5373:5374   */\n      0x00\n        /* \"#utility.yul\":5362:5371   */\n      dup4\n        /* \"#utility.yul\":5358:5375   */\n      add\n        /* \"#utility.yul\":5349:5355   */\n      dup7\n        /* \"#utility.yul\":5305:5376   */\n      tag_93\n      jump\t// in\n    tag_162:\n        /* \"#utility.yul\":5386:5458   */\n      tag_163\n        /* \"#utility.yul\":5454:5456   */\n      0x20\n        /* \"#utility.yul\":5443:5452   */\n      dup4\n        /* \"#utility.yul\":5439:5457   */\n      add\n        /* \"#utility.yul\":5430:5436   */\n      dup6\n        /* \"#utility.yul\":5386:5458   */\n      tag_93\n      jump\t// in\n    tag_163:\n        /* \"#utility.yul\":5468:5540   */\n      tag_164\n        /* \"#utility.yul\":5536:5538   */\n      0x40\n        /* \"#utility.yul\":5525:5534   */\n      dup4\n        /* \"#utility.yul\":5521:5539   */\n      add\n        /* \"#utility.yul\":5512:5518   */\n      dup5\n        /* \"#utility.yul\":5468:5540   */\n      tag_90\n      jump\t// in\n    tag_164:\n        /* \"#utility.yul\":5105:5547   */\n      swap5\n      swap4\n      pop\n      pop\n      pop\n      pop\n      jump\t// out\n        /* \"#utility.yul\":5553:5643   */\n    tag_98:\n        /* \"#utility.yul\":5587:5594   */\n      0x00\n        /* \"#utility.yul\":5630:5635   */\n      dup2\n        /* \"#utility.yul\":5623:5636   */\n      iszero\n        /* \"#utility.yul\":5616:5637   */\n      iszero\n        /* \"#utility.yul\":5605:5637   */\n      swap1\n      pop\n        /* \"#utility.yul\":5553:5643   */\n      swap2\n      swap1\n      pop\n      jump\t// out\n        /* \"#utility.yul\":5649:5765   */\n    tag_99:\n        /* \"#utility.yul\":5719:5740   */\n      tag_167\n        /* \"#utility.yul\":5734:5739   */\n      dup2\n        /* \"#utility.yul\":5719:5740   */\n      tag_98\n      jump\t// in\n    tag_167:\n        /* \"#utility.yul\":5712:5717   */\n      dup2\n        /* \"#utility.yul\":5709:5741   */\n      eq\n        /* \"#utility.yul\":5699:5759   */\n      tag_168\n      jumpi\n        /* \"#utility.yul\":5755:5756   */\n      0x00\n        /* \"#utility.yul\":5752:5753   */\n      dup1\n        /* \"#utility.yul\":5745:5757   */\n      revert\n        /* \"#utility.yul\":5699:5759   */\n    tag_168:\n        /* \"#utility.yul\":5649:5765   */\n      pop\n      jump\t// out\n        /* \"#utility.yul\":5771:5908   */\n    tag_100:\n        /* \"#utility.yul\":5825:5830   */\n      0x00\n        /* \"#utility.yul\":5856:5862   */\n      dup2\n        /* \"#utility.yul\":5850:5863   */\n      mload\n        /* \"#utility.yul\":5841:5863   */\n      swap1\n      pop\n        /* \"#utility.yul\":5872:5902   */\n      tag_170\n        /* \"#utility.yul\":5896:5901   */\n      dup2\n        /* \"#utility.yul\":5872:5902   */\n      tag_99\n      jump\t// in\n    tag_170:\n        /* \"#utility.yul\":5771:5908   */\n      swap3\n      swap2\n      pop\n      pop\n      jump\t// out\n        /* \"#utility.yul\":5914:6259   */\n    tag_55:\n        /* \"#utility.yul\":5981:5987   */\n      0x00\n        /* \"#utility.yul\":6030:6032   */\n      0x20\n        /* \"#utility.yul\":6018:6027   */\n      dup3\n        /* \"#utility.yul\":6009:6016   */\n      dup5\n        /* \"#utility.yul\":6005:6028   */\n      sub\n        /* \"#utility.yul\":6001:6033   */\n      slt\n        /* \"#utility.yul\":5998:6117   */\n      iszero\n      tag_172\n      jumpi\n        /* \"#utility.yul\":6036:6115   */\n      tag_173\n      tag_83\n      jump\t// in\n    tag_173:\n        /* \"#utility.yul\":5998:6117   */\n    tag_172:\n        /* \"#utility.yul\":6156:6157   */\n      0x00\n        /* \"#utility.yul\":6181:6242   */\n      tag_174\n        /* \"#utility.yul\":6234:6241   */\n      dup5\n        /* \"#utility.yul\":6225:6231   */\n      dup3\n        /* \"#utility.yul\":6214:6223   */\n      dup6\n        /* \"#utility.yul\":6210:6232   */\n      add\n        /* \"#utility.yul\":6181:6242   */\n      tag_100\n      jump\t// in\n    tag_174:\n        /* \"#utility.yul\":6171:6242   */\n      swap2\n      pop\n        /* \"#utility.yul\":6127:6252   */\n      pop\n        /* \"#utility.yul\":5914:6259   */\n      swap3\n      swap2\n      pop\n      pop\n      jump\t// out\n        /* \"#utility.yul\":6265:6363   */\n    tag_101:\n        /* \"#utility.yul\":6316:6322   */\n      0x00\n        /* \"#utility.yul\":6350:6355   */\n      dup2\n        /* \"#utility.yul\":6344:6356   */\n      mload\n        /* \"#utility.yul\":6334:6356   */\n      swap1\n      pop\n        /* \"#utility.yul\":6265:6363   */\n      swap2\n      swap1\n      pop\n      jump\t// out\n        /* \"#utility.yul\":6369:6516   */\n    tag_102:\n        /* \"#utility.yul\":6470:6481   */\n      0x00\n        /* \"#utility.yul\":6507:6510   */\n      dup2\n        /* \"#utility.yul\":6492:6510   */\n      swap1\n      pop\n        /* \"#utility.yul\":6369:6516   */\n      swap3\n      swap2\n      pop\n      pop\n      jump\t// out\n        /* \"#utility.yul\":6522:6661   */\n    tag_103:\n        /* \"#utility.yul\":6611:6617   */\n      dup3\n        /* \"#utility.yul\":6606:6609   */\n      dup2\n        /* \"#utility.yul\":6601:6604   */\n      dup4\n        /* \"#utility.yul\":6595:6618   */\n      mcopy\n        /* \"#utility.yul\":6652:6653   */\n      0x00\n        /* \"#utility.yul\":6643:6649   */\n      dup4\n        /* \"#utility.yul\":6638:6641   */\n      dup4\n        /* \"#utility.yul\":6634:6650   */\n      add\n        /* \"#utility.yul\":6627:6654   */\n      mstore\n        /* \"#utility.yul\":6522:6661   */\n      pop\n      pop\n      pop\n      jump\t// out\n        /* \"#utility.yul\":6667:7053   */\n    tag_104:\n        /* \"#utility.yul\":6771:6774   */\n      0x00\n        /* \"#utility.yul\":6799:6837   */\n      tag_179\n        /* \"#utility.yul\":6831:6836   */\n      dup3\n        /* \"#utility.yul\":6799:6837   */\n      tag_101\n      jump\t// in\n    tag_179:\n        /* \"#utility.yul\":6853:6941   */\n      tag_180\n        /* \"#utility.yul\":6934:6940   */\n      dup2\n        /* \"#utility.yul\":6929:6932   */\n      dup6\n        /* \"#utility.yul\":6853:6941   */\n      tag_102\n      jump\t// in\n    tag_180:\n        /* \"#utility.yul\":6846:6941   */\n      swap4\n      pop\n        /* \"#utility.yul\":6950:7015   */\n      tag_181\n        /* \"#utility.yul\":7008:7014   */\n      dup2\n        /* \"#utility.yul\":7003:7006   */\n      dup6\n        /* \"#utility.yul\":6996:7000   */\n      0x20\n        /* \"#utility.yul\":6989:6994   */\n      dup7\n        /* \"#utility.yul\":6985:7001   */\n      add\n        /* \"#utility.yul\":6950:7015   */\n      tag_103\n      jump\t// in\n    tag_181:\n        /* \"#utility.yul\":7040:7046   */\n      dup1\n        /* \"#utility.yul\":7035:7038   */\n      dup5\n        /* \"#utility.yul\":7031:7047   */\n      add\n        /* \"#utility.yul\":7024:7047   */\n      swap2\n      pop\n        /* \"#utility.yul\":6775:7053   */\n      pop\n        /* \"#utility.yul\":6667:7053   */\n      swap3\n      swap2\n      pop\n      pop\n      jump\t// out\n        /* \"#utility.yul\":7059:7330   */\n    tag_65:\n        /* \"#utility.yul\":7189:7192   */\n      0x00\n        /* \"#utility.yul\":7211:7304   */\n      tag_183\n        /* \"#utility.yul\":7300:7303   */\n      dup3\n        /* \"#utility.yul\":7291:7297   */\n      dup5\n        /* \"#utility.yul\":7211:7304   */\n      tag_104\n      jump\t// in\n    tag_183:\n        /* \"#utility.yul\":7204:7304   */\n      swap2\n      pop\n        /* \"#utility.yul\":7321:7324   */\n      dup2\n        /* \"#utility.yul\":7314:7324   */\n      swap1\n      pop\n        /* \"#utility.yul\":7059:7330   */\n      swap3\n      swap2\n      pop\n      pop\n      jump\t// out\n\n    auxdata: 0xa2646970667358221220e3f26c5222db058c19dd39d26685133df7145d745cbd436495863881c95c006464736f6c634300081a0033\n}\n",
				"bytecode": {
					"linkReferences": {},
					"object": "608060405234801561000f575f80fd5b50604051610c64380380610c64833981810160405281019061003191906102ab565b806001908051906020019061004792919061004e565b50506102f2565b828054828255905f5260205f209081019282156100c4579160200282015b828111156100c3578251825f6101000a81548173ffffffffffffffffffffffffffffffffffffffff021916908373ffffffffffffffffffffffffffffffffffffffff1602179055509160200191906001019061006c565b5b5090506100d191906100d5565b5090565b5b808211156100ec575f815f9055506001016100d6565b5090565b5f604051905090565b5f80fd5b5f80fd5b5f80fd5b5f601f19601f8301169050919050565b7f4e487b71000000000000000000000000000000000000000000000000000000005f52604160045260245ffd5b61014b82610105565b810181811067ffffffffffffffff8211171561016a57610169610115565b5b80604052505050565b5f61017c6100f0565b90506101888282610142565b919050565b5f67ffffffffffffffff8211156101a7576101a6610115565b5b602082029050602081019050919050565b5f80fd5b5f73ffffffffffffffffffffffffffffffffffffffff82169050919050565b5f6101e5826101bc565b9050919050565b6101f5816101db565b81146101ff575f80fd5b50565b5f81519050610210816101ec565b92915050565b5f6102286102238461018d565b610173565b9050808382526020820190506020840283018581111561024b5761024a6101b8565b5b835b8181101561027457806102608882610202565b84526020840193505060208101905061024d565b5050509392505050565b5f82601f83011261029257610291610101565b5b81516102a2848260208601610216565b91505092915050565b5f602082840312156102c0576102bf6100f9565b5b5f82015167ffffffffffffffff8111156102dd576102dc6100fd565b5b6102e98482850161027e565b91505092915050565b610965806102ff5f395ff3fe608060405234801561000f575f80fd5b506004361061003f575f3560e01c80633053f0b2146100435780635668870014610073578063c62556261461008f575b5f80fd5b61005d600480360381019061005891906105ef565b6100bf565b60405161006a9190610632565b60405180910390f35b61008d60048036038101906100889190610675565b6100d3565b005b6100a960048036038101906100a491906106b3565b6101ee565b6040516100b691906106ed565b60405180910390f35b5f602052805f5260405f205f915090505481565b6100dc82610229565b61011b576040517f08c379a000000000000000000000000000000000000000000000000000000000815260040161011290610760565b60405180910390fd5b6101483330838573ffffffffffffffffffffffffffffffffffffffff166102cb909392919063ffffffff16565b805f808473ffffffffffffffffffffffffffffffffffffffff1673ffffffffffffffffffffffffffffffffffffffff1681526020019081526020015f205f82825461019391906107ab565b925050819055503373ffffffffffffffffffffffffffffffffffffffff167f9d278c56ba6dc86a12eefe6b43112bd6e06648eb4ec0b950ee2d783d40e2acb483836040516101e29291906107de565b60405180910390a25050565b600181815481106101fd575f80fd5b905f5260205f20015f915054906101000a900473ffffffffffffffffffffffffffffffffffffffff1681565b5f805f90505b6001805490508110156102c1578273ffffffffffffffffffffffffffffffffffffffff166001828154811061026757610266610805565b5b905f5260205f20015f9054906101000a900473ffffffffffffffffffffffffffffffffffffffff1673ffffffffffffffffffffffffffffffffffffffff16036102b45760019150506102c6565b808060010191505061022f565b505f90505b919050565b610347848573ffffffffffffffffffffffffffffffffffffffff166323b872dd86868660405160240161030093929190610832565b604051602081830303815290604052915060e01b6020820180517bffffffffffffffffffffffffffffffffffffffffffffffffffffffff838183161783525050505061034d565b50505050565b5f610377828473ffffffffffffffffffffffffffffffffffffffff166103e290919063ffffffff16565b90505f81511415801561039b575080806020019051810190610399919061089c565b155b156103dd57826040517f5274afe70000000000000000000000000000000000000000000000000000000081526004016103d491906106ed565b60405180910390fd5b505050565b60606103ef83835f6103f7565b905092915050565b60608147101561043e57306040517fcd78605900000000000000000000000000000000000000000000000000000000815260040161043591906106ed565b60405180910390fd5b5f808573ffffffffffffffffffffffffffffffffffffffff1684866040516104669190610919565b5f6040518083038185875af1925050503d805f81146104a0576040519150601f19603f3d011682016040523d82523d5f602084013e6104a5565b606091505b50915091506104b58683836104c0565b925050509392505050565b6060826104d5576104d08261054d565b610545565b5f82511480156104fb57505f8473ffffffffffffffffffffffffffffffffffffffff163b145b1561053d57836040517f9996b31500000000000000000000000000000000000000000000000000000000815260040161053491906106ed565b60405180910390fd5b819050610546565b5b9392505050565b5f8151111561055f5780518082602001fd5b6040517f1425ea4200000000000000000000000000000000000000000000000000000000815260040160405180910390fd5b5f80fd5b5f73ffffffffffffffffffffffffffffffffffffffff82169050919050565b5f6105be82610595565b9050919050565b6105ce816105b4565b81146105d8575f80fd5b50565b5f813590506105e9816105c5565b92915050565b5f6020828403121561060457610603610591565b5b5f610611848285016105db565b91505092915050565b5f819050919050565b61062c8161061a565b82525050565b5f6020820190506106455f830184610623565b92915050565b6106548161061a565b811461065e575f80fd5b50565b5f8135905061066f8161064b565b92915050565b5f806040838503121561068b5761068a610591565b5b5f610698858286016105db565b92505060206106a985828601610661565b9150509250929050565b5f602082840312156106c8576106c7610591565b5b5f6106d584828501610661565b91505092915050565b6106e7816105b4565b82525050565b5f6020820190506107005f8301846106de565b92915050565b5f82825260208201905092915050565b7f546f6b656e206e6f7420737570706f72746564000000000000000000000000005f82015250565b5f61074a601383610706565b915061075582610716565b602082019050919050565b5f6020820190508181035f8301526107778161073e565b9050919050565b7f4e487b71000000000000000000000000000000000000000000000000000000005f52601160045260245ffd5b5f6107b58261061a565b91506107c08361061a565b92508282019050808211156107d8576107d761077e565b5b92915050565b5f6040820190506107f15f8301856106de565b6107fe6020830184610623565b9392505050565b7f4e487b71000000000000000000000000000000000000000000000000000000005f52603260045260245ffd5b5f6060820190506108455f8301866106de565b61085260208301856106de565b61085f6040830184610623565b949350505050565b5f8115159050919050565b61087b81610867565b8114610885575f80fd5b50565b5f8151905061089681610872565b92915050565b5f602082840312156108b1576108b0610591565b5b5f6108be84828501610888565b91505092915050565b5f81519050919050565b5f81905092915050565b8281835e5f83830152505050565b5f6108f3826108c7565b6108fd81856108d1565b935061090d8185602086016108db565b80840191505092915050565b5f61092482846108e9565b91508190509291505056fea2646970667358221220e3f26c5222db058c19dd39d26685133df7145d745cbd436495863881c95c006464736f6c634300081a0033",
					"opcodes": "PUSH1 0x80 PUSH1 0x40 MSTORE CALLVALUE DUP1 ISZERO PUSH2 0xF JUMPI PUSH0 DUP1 REVERT JUMPDEST POP PUSH1 0x40 MLOAD PUSH2 0xC64 CODESIZE SUB DUP1 PUSH2 0xC64 DUP4 CODECOPY DUP2 DUP2 ADD PUSH1 0x40 MSTORE DUP2 ADD SWAP1 PUSH2 0x31 SWAP2 SWAP1 PUSH2 0x2AB JUMP JUMPDEST DUP1 PUSH1 0x1 SWAP1 DUP1 MLOAD SWAP1 PUSH1 0x20 ADD SWAP1 PUSH2 0x47 SWAP3 SWAP2 SWAP1 PUSH2 0x4E JUMP JUMPDEST POP POP PUSH2 0x2F2 JUMP JUMPDEST DUP3 DUP1 SLOAD DUP3 DUP3 SSTORE SWAP1 PUSH0 MSTORE PUSH1 0x20 PUSH0 KECCAK256 SWAP1 DUP2 ADD SWAP3 DUP3 ISZERO PUSH2 0xC4 JUMPI SWAP2 PUSH1 0x20 MUL DUP3 ADD JUMPDEST DUP3 DUP2 GT ISZERO PUSH2 0xC3 JUMPI DUP3 MLOAD DUP3 PUSH0 PUSH2 0x100 EXP DUP2 SLOAD DUP2 PUSH20 0xFFFFFFFFFFFFFFFFFFFFFFFFFFFFFFFFFFFFFFFF MUL NOT AND SWAP1 DUP4 PUSH20 0xFFFFFFFFFFFFFFFFFFFFFFFFFFFFFFFFFFFFFFFF AND MUL OR SWAP1 SSTORE POP SWAP2 PUSH1 0x20 ADD SWAP2 SWAP1 PUSH1 0x1 ADD SWAP1 PUSH2 0x6C JUMP JUMPDEST JUMPDEST POP SWAP1 POP PUSH2 0xD1 SWAP2 SWAP1 PUSH2 0xD5 JUMP JUMPDEST POP SWAP1 JUMP JUMPDEST JUMPDEST DUP1 DUP3 GT ISZERO PUSH2 0xEC JUMPI PUSH0 DUP2 PUSH0 SWAP1 SSTORE POP PUSH1 0x1 ADD PUSH2 0xD6 JUMP JUMPDEST POP SWAP1 JUMP JUMPDEST PUSH0 PUSH1 0x40 MLOAD SWAP1 POP SWAP1 JUMP JUMPDEST PUSH0 DUP1 REVERT JUMPDEST PUSH0 DUP1 REVERT JUMPDEST PUSH0 DUP1 REVERT JUMPDEST PUSH0 PUSH1 0x1F NOT PUSH1 0x1F DUP4 ADD AND SWAP1 POP SWAP2 SWAP1 POP JUMP JUMPDEST PUSH32 0x4E487B7100000000000000000000000000000000000000000000000000000000 PUSH0 MSTORE PUSH1 0x41 PUSH1 0x4 MSTORE PUSH1 0x24 PUSH0 REVERT JUMPDEST PUSH2 0x14B DUP3 PUSH2 0x105 JUMP JUMPDEST DUP2 ADD DUP2 DUP2 LT PUSH8 0xFFFFFFFFFFFFFFFF DUP3 GT OR ISZERO PUSH2 0x16A JUMPI PUSH2 0x169 PUSH2 0x115 JUMP JUMPDEST JUMPDEST DUP1 PUSH1 0x40 MSTORE POP POP POP JUMP JUMPDEST PUSH0 PUSH2 0x17C PUSH2 0xF0 JUMP JUMPDEST SWAP1 POP PUSH2 0x188 DUP3 DUP3 PUSH2 0x142 JUMP JUMPDEST SWAP2 SWAP1 POP JUMP JUMPDEST PUSH0 PUSH8 0xFFFFFFFFFFFFFFFF DUP3 GT ISZERO PUSH2 0x1A7 JUMPI PUSH2 0x1A6 PUSH2 0x115 JUMP JUMPDEST JUMPDEST PUSH1 0x20 DUP3 MUL SWAP1 POP PUSH1 0x20 DUP2 ADD SWAP1 POP SWAP2 SWAP1 POP JUMP JUMPDEST PUSH0 DUP1 REVERT JUMPDEST PUSH0 PUSH20 0xFFFFFFFFFFFFFFFFFFFFFFFFFFFFFFFFFFFFFFFF DUP3 AND SWAP1 POP SWAP2 SWAP1 POP JUMP JUMPDEST PUSH0 PUSH2 0x1E5 DUP3 PUSH2 0x1BC JUMP JUMPDEST SWAP1 POP SWAP2 SWAP1 POP JUMP JUMPDEST PUSH2 0x1F5 DUP2 PUSH2 0x1DB JUMP JUMPDEST DUP2 EQ PUSH2 0x1FF JUMPI PUSH0 DUP1 REVERT JUMPDEST POP JUMP JUMPDEST PUSH0 DUP2 MLOAD SWAP1 POP PUSH2 0x210 DUP2 PUSH2 0x1EC JUMP JUMPDEST SWAP3 SWAP2 POP POP JUMP JUMPDEST PUSH0 PUSH2 0x228 PUSH2 0x223 DUP5 PUSH2 0x18D JUMP JUMPDEST PUSH2 0x173 JUMP JUMPDEST SWAP1 POP DUP1 DUP4 DUP3 MSTORE PUSH1 0x20 DUP3 ADD SWAP1 POP PUSH1 0x20 DUP5 MUL DUP4 ADD DUP6 DUP2 GT ISZERO PUSH2 0x24B JUMPI PUSH2 0x24A PUSH2 0x1B8 JUMP JUMPDEST JUMPDEST DUP4 JUMPDEST DUP2 DUP2 LT ISZERO PUSH2 0x274 JUMPI DUP1 PUSH2 0x260 DUP9 DUP3 PUSH2 0x202 JUMP JUMPDEST DUP5 MSTORE PUSH1 0x20 DUP5 ADD SWAP4 POP POP PUSH1 0x20 DUP2 ADD SWAP1 POP PUSH2 0x24D JUMP JUMPDEST POP POP POP SWAP4 SWAP3 POP POP POP JUMP JUMPDEST PUSH0 DUP3 PUSH1 0x1F DUP4 ADD SLT PUSH2 0x292 JUMPI PUSH2 0x291 PUSH2 0x101 JUMP JUMPDEST JUMPDEST DUP2 MLOAD PUSH2 0x2A2 DUP5 DUP3 PUSH1 0x20 DUP7 ADD PUSH2 0x216 JUMP JUMPDEST SWAP2 POP POP SWAP3 SWAP2 POP POP JUMP JUMPDEST PUSH0 PUSH1 0x20 DUP3 DUP5 SUB SLT ISZERO PUSH2 0x2C0 JUMPI PUSH2 0x2BF PUSH2 0xF9 JUMP JUMPDEST JUMPDEST PUSH0 DUP3 ADD MLOAD PUSH8 0xFFFFFFFFFFFFFFFF DUP2 GT ISZERO PUSH2 0x2DD JUMPI PUSH2 0x2DC PUSH2 0xFD JUMP JUMPDEST JUMPDEST PUSH2 0x2E9 DUP5 DUP3 DUP6 ADD PUSH2 0x27E JUMP JUMPDEST SWAP2 POP POP SWAP3 SWAP2 POP POP JUMP JUMPDEST PUSH2 0x965 DUP1 PUSH2 0x2FF PUSH0 CODECOPY PUSH0 RETURN INVALID PUSH1 0x80 PUSH1 0x40 MSTORE CALLVALUE DUP1 ISZERO PUSH2 0xF JUMPI PUSH0 DUP1 REVERT JUMPDEST POP PUSH1 0x4 CALLDATASIZE LT PUSH2 0x3F JUMPI PUSH0 CALLDATALOAD PUSH1 0xE0 SHR DUP1 PUSH4 0x3053F0B2 EQ PUSH2 0x43 JUMPI DUP1 PUSH4 0x56688700 EQ PUSH2 0x73 JUMPI DUP1 PUSH4 0xC6255626 EQ PUSH2 0x8F JUMPI JUMPDEST PUSH0 DUP1 REVERT JUMPDEST PUSH2 0x5D PUSH1 0x4 DUP1 CALLDATASIZE SUB DUP2 ADD SWAP1 PUSH2 0x58 SWAP2 SWAP1 PUSH2 0x5EF JUMP JUMPDEST PUSH2 0xBF JUMP JUMPDEST PUSH1 0x40 MLOAD PUSH2 0x6A SWAP2 SWAP1 PUSH2 0x632 JUMP JUMPDEST PUSH1 0x40 MLOAD DUP1 SWAP2 SUB SWAP1 RETURN JUMPDEST PUSH2 0x8D PUSH1 0x4 DUP1 CALLDATASIZE SUB DUP2 ADD SWAP1 PUSH2 0x88 SWAP2 SWAP1 PUSH2 0x675 JUMP JUMPDEST PUSH2 0xD3 JUMP JUMPDEST STOP JUMPDEST PUSH2 0xA9 PUSH1 0x4 DUP1 CALLDATASIZE SUB DUP2 ADD SWAP1 PUSH2 0xA4 SWAP2 SWAP1 PUSH2 0x6B3 JUMP JUMPDEST PUSH2 0x1EE JUMP JUMPDEST PUSH1 0x40 MLOAD PUSH2 0xB6 SWAP2 SWAP1 PUSH2 0x6ED JUMP JUMPDEST PUSH1 0x40 MLOAD DUP1 SWAP2 SUB SWAP1 RETURN JUMPDEST PUSH0 PUSH1 0x20 MSTORE DUP1 PUSH0 MSTORE PUSH1 0x40 PUSH0 KECCAK256 PUSH0 SWAP2 POP SWAP1 POP SLOAD DUP2 JUMP JUMPDEST PUSH2 0xDC DUP3 PUSH2 0x229 JUMP JUMPDEST PUSH2 0x11B JUMPI PUSH1 0x40 MLOAD PUSH32 0x8C379A000000000000000000000000000000000000000000000000000000000 DUP2 MSTORE PUSH1 0x4 ADD PUSH2 0x112 SWAP1 PUSH2 0x760 JUMP JUMPDEST PUSH1 0x40 MLOAD DUP1 SWAP2 SUB SWAP1 REVERT JUMPDEST PUSH2 0x148 CALLER ADDRESS DUP4 DUP6 PUSH20 0xFFFFFFFFFFFFFFFFFFFFFFFFFFFFFFFFFFFFFFFF AND PUSH2 0x2CB SWAP1 SWAP4 SWAP3 SWAP2 SWAP1 PUSH4 0xFFFFFFFF AND JUMP JUMPDEST DUP1 PUSH0 DUP1 DUP5 PUSH20 0xFFFFFFFFFFFFFFFFFFFFFFFFFFFFFFFFFFFFFFFF AND PUSH20 0xFFFFFFFFFFFFFFFFFFFFFFFFFFFFFFFFFFFFFFFF AND DUP2 MSTORE PUSH1 0x20 ADD SWAP1 DUP2 MSTORE PUSH1 0x20 ADD PUSH0 KECCAK256 PUSH0 DUP3 DUP3 SLOAD PUSH2 0x193 SWAP2 SWAP1 PUSH2 0x7AB JUMP JUMPDEST SWAP3 POP POP DUP2 SWAP1 SSTORE POP CALLER PUSH20 0xFFFFFFFFFFFFFFFFFFFFFFFFFFFFFFFFFFFFFFFF AND PUSH32 0x9D278C56BA6DC86A12EEFE6B43112BD6E06648EB4EC0B950EE2D783D40E2ACB4 DUP4 DUP4 PUSH1 0x40 MLOAD PUSH2 0x1E2 SWAP3 SWAP2 SWAP1 PUSH2 0x7DE JUMP JUMPDEST PUSH1 0x40 MLOAD DUP1 SWAP2 SUB SWAP1 LOG2 POP POP JUMP JUMPDEST PUSH1 0x1 DUP2 DUP2 SLOAD DUP2 LT PUSH2 0x1FD JUMPI PUSH0 DUP1 REVERT JUMPDEST SWAP1 PUSH0 MSTORE PUSH1 0x20 PUSH0 KECCAK256 ADD PUSH0 SWAP2 POP SLOAD SWAP1 PUSH2 0x100 EXP SWAP1 DIV PUSH20 0xFFFFFFFFFFFFFFFFFFFFFFFFFFFFFFFFFFFFFFFF AND DUP2 JUMP JUMPDEST PUSH0 DUP1 PUSH0 SWAP1 POP JUMPDEST PUSH1 0x1 DUP1 SLOAD SWAP1 POP DUP2 LT ISZERO PUSH2 0x2C1 JUMPI DUP3 PUSH20 0xFFFFFFFFFFFFFFFFFFFFFFFFFFFFFFFFFFFFFFFF AND PUSH1 0x1 DUP3 DUP2 SLOAD DUP2 LT PUSH2 0x267 JUMPI PUSH2 0x266 PUSH2 0x805 JUMP JUMPDEST JUMPDEST SWAP1 PUSH0 MSTORE PUSH1 0x20 PUSH0 KECCAK256 ADD PUSH0 SWAP1 SLOAD SWAP1 PUSH2 0x100 EXP SWAP1 DIV PUSH20 0xFFFFFFFFFFFFFFFFFFFFFFFFFFFFFFFFFFFFFFFF AND PUSH20 0xFFFFFFFFFFFFFFFFFFFFFFFFFFFFFFFFFFFFFFFF AND SUB PUSH2 0x2B4 JUMPI PUSH1 0x1 SWAP2 POP POP PUSH2 0x2C6 JUMP JUMPDEST DUP1 DUP1 PUSH1 0x1 ADD SWAP2 POP POP PUSH2 0x22F JUMP JUMPDEST POP PUSH0 SWAP1 POP JUMPDEST SWAP2 SWAP1 POP JUMP JUMPDEST PUSH2 0x347 DUP5 DUP6 PUSH20 0xFFFFFFFFFFFFFFFFFFFFFFFFFFFFFFFFFFFFFFFF AND PUSH4 0x23B872DD DUP7 DUP7 DUP7 PUSH1 0x40 MLOAD PUSH1 0x24 ADD PUSH2 0x300 SWAP4 SWAP3 SWAP2 SWAP1 PUSH2 0x832 JUMP JUMPDEST PUSH1 0x40 MLOAD PUSH1 0x20 DUP2 DUP4 SUB SUB DUP2 MSTORE SWAP1 PUSH1 0x40 MSTORE SWAP2 POP PUSH1 0xE0 SHL PUSH1 0x20 DUP3 ADD DUP1 MLOAD PUSH28 0xFFFFFFFFFFFFFFFFFFFFFFFFFFFFFFFFFFFFFFFFFFFFFFFFFFFFFFFF DUP4 DUP2 DUP4 AND OR DUP4 MSTORE POP POP POP POP PUSH2 0x34D JUMP JUMPDEST POP POP POP POP JUMP JUMPDEST PUSH0 PUSH2 0x377 DUP3 DUP5 PUSH20 0xFFFFFFFFFFFFFFFFFFFFFFFFFFFFFFFFFFFFFFFF AND PUSH2 0x3E2 SWAP1 SWAP2 SWAP1 PUSH4 0xFFFFFFFF AND JUMP JUMPDEST SWAP1 POP PUSH0 DUP2 MLOAD EQ ISZERO DUP1 ISZERO PUSH2 0x39B JUMPI POP DUP1 DUP1 PUSH1 0x20 ADD SWAP1 MLOAD DUP2 ADD SWAP1 PUSH2 0x399 SWAP2 SWAP1 PUSH2 0x89C JUMP JUMPDEST ISZERO JUMPDEST ISZERO PUSH2 0x3DD JUMPI DUP3 PUSH1 0x40 MLOAD PUSH32 0x5274AFE700000000000000000000000000000000000000000000000000000000 DUP2 MSTORE PUSH1 0x4 ADD PUSH2 0x3D4 SWAP2 SWAP1 PUSH2 0x6ED JUMP JUMPDEST PUSH1 0x40 MLOAD DUP1 SWAP2 SUB SWAP1 REVERT JUMPDEST POP POP POP JUMP JUMPDEST PUSH1 0x60 PUSH2 0x3EF DUP4 DUP4 PUSH0 PUSH2 0x3F7 JUMP JUMPDEST SWAP1 POP SWAP3 SWAP2 POP POP JUMP JUMPDEST PUSH1 0x60 DUP2 SELFBALANCE LT ISZERO PUSH2 0x43E JUMPI ADDRESS PUSH1 0x40 MLOAD PUSH32 0xCD78605900000000000000000000000000000000000000000000000000000000 DUP2 MSTORE PUSH1 0x4 ADD PUSH2 0x435 SWAP2 SWAP1 PUSH2 0x6ED JUMP JUMPDEST PUSH1 0x40 MLOAD DUP1 SWAP2 SUB SWAP1 REVERT JUMPDEST PUSH0 DUP1 DUP6 PUSH20 0xFFFFFFFFFFFFFFFFFFFFFFFFFFFFFFFFFFFFFFFF AND DUP5 DUP7 PUSH1 0x40 MLOAD PUSH2 0x466 SWAP2 SWAP1 PUSH2 0x919 JUMP JUMPDEST PUSH0 PUSH1 0x40 MLOAD DUP1 DUP4 SUB DUP2 DUP6 DUP8 GAS CALL SWAP3 POP POP POP RETURNDATASIZE DUP1 PUSH0 DUP2 EQ PUSH2 0x4A0 JUMPI PUSH1 0x40 MLOAD SWAP2 POP PUSH1 0x1F NOT PUSH1 0x3F RETURNDATASIZE ADD AND DUP3 ADD PUSH1 0x40 MSTORE RETURNDATASIZE DUP3 MSTORE RETURNDATASIZE PUSH0 PUSH1 0x20 DUP5 ADD RETURNDATACOPY PUSH2 0x4A5 JUMP JUMPDEST PUSH1 0x60 SWAP2 POP JUMPDEST POP SWAP2 POP SWAP2 POP PUSH2 0x4B5 DUP7 DUP4 DUP4 PUSH2 0x4C0 JUMP JUMPDEST SWAP3 POP POP POP SWAP4 SWAP3 POP POP POP JUMP JUMPDEST PUSH1 0x60 DUP3 PUSH2 0x4D5 JUMPI PUSH2 0x4D0 DUP3 PUSH2 0x54D JUMP JUMPDEST PUSH2 0x545 JUMP JUMPDEST PUSH0 DUP3 MLOAD EQ DUP1 ISZERO PUSH2 0x4FB JUMPI POP PUSH0 DUP5 PUSH20 0xFFFFFFFFFFFFFFFFFFFFFFFFFFFFFFFFFFFFFFFF AND EXTCODESIZE EQ JUMPDEST ISZERO PUSH2 0x53D JUMPI DUP4 PUSH1 0x40 MLOAD PUSH32 0x9996B31500000000000000000000000000000000000000000000000000000000 DUP2 MSTORE PUSH1 0x4 ADD PUSH2 0x534 SWAP2 SWAP1 PUSH2 0x6ED JUMP JUMPDEST PUSH1 0x40 MLOAD DUP1 SWAP2 SUB SWAP1 REVERT JUMPDEST DUP2 SWAP1 POP PUSH2 0x546 JUMP JUMPDEST JUMPDEST SWAP4 SWAP3 POP POP POP JUMP JUMPDEST PUSH0 DUP2 MLOAD GT ISZERO PUSH2 0x55F JUMPI DUP1 MLOAD DUP1 DUP3 PUSH1 0x20 ADD REVERT JUMPDEST PUSH1 0x40 MLOAD PUSH32 0x1425EA4200000000000000000000000000000000000000000000000000000000 DUP2 MSTORE PUSH1 0x4 ADD PUSH1 0x40 MLOAD DUP1 SWAP2 SUB SWAP1 REVERT JUMPDEST PUSH0 DUP1 REVERT JUMPDEST PUSH0 PUSH20 0xFFFFFFFFFFFFFFFFFFFFFFFFFFFFFFFFFFFFFFFF DUP3 AND SWAP1 POP SWAP2 SWAP1 POP JUMP JUMPDEST PUSH0 PUSH2 0x5BE DUP3 PUSH2 0x595 JUMP JUMPDEST SWAP1 POP SWAP2 SWAP1 POP JUMP JUMPDEST PUSH2 0x5CE DUP2 PUSH2 0x5B4 JUMP JUMPDEST DUP2 EQ PUSH2 0x5D8 JUMPI PUSH0 DUP1 REVERT JUMPDEST POP JUMP JUMPDEST PUSH0 DUP2 CALLDATALOAD SWAP1 POP PUSH2 0x5E9 DUP2 PUSH2 0x5C5 JUMP JUMPDEST SWAP3 SWAP2 POP POP JUMP JUMPDEST PUSH0 PUSH1 0x20 DUP3 DUP5 SUB SLT ISZERO PUSH2 0x604 JUMPI PUSH2 0x603 PUSH2 0x591 JUMP JUMPDEST JUMPDEST PUSH0 PUSH2 0x611 DUP5 DUP3 DUP6 ADD PUSH2 0x5DB JUMP JUMPDEST SWAP2 POP POP SWAP3 SWAP2 POP POP JUMP JUMPDEST PUSH0 DUP2 SWAP1 POP SWAP2 SWAP1 POP JUMP JUMPDEST PUSH2 0x62C DUP2 PUSH2 0x61A JUMP JUMPDEST DUP3 MSTORE POP POP JUMP JUMPDEST PUSH0 PUSH1 0x20 DUP3 ADD SWAP1 POP PUSH2 0x645 PUSH0 DUP4 ADD DUP5 PUSH2 0x623 JUMP JUMPDEST SWAP3 SWAP2 POP POP JUMP JUMPDEST PUSH2 0x654 DUP2 PUSH2 0x61A JUMP JUMPDEST DUP2 EQ PUSH2 0x65E JUMPI PUSH0 DUP1 REVERT JUMPDEST POP JUMP JUMPDEST PUSH0 DUP2 CALLDATALOAD SWAP1 POP PUSH2 0x66F DUP2 PUSH2 0x64B JUMP JUMPDEST SWAP3 SWAP2 POP POP JUMP JUMPDEST PUSH0 DUP1 PUSH1 0x40 DUP4 DUP6 SUB SLT ISZERO PUSH2 0x68B JUMPI PUSH2 0x68A PUSH2 0x591 JUMP JUMPDEST JUMPDEST PUSH0 PUSH2 0x698 DUP6 DUP3 DUP7 ADD PUSH2 0x5DB JUMP JUMPDEST SWAP3 POP POP PUSH1 0x20 PUSH2 0x6A9 DUP6 DUP3 DUP7 ADD PUSH2 0x661 JUMP JUMPDEST SWAP2 POP POP SWAP3 POP SWAP3 SWAP1 POP JUMP JUMPDEST PUSH0 PUSH1 0x20 DUP3 DUP5 SUB SLT ISZERO PUSH2 0x6C8 JUMPI PUSH2 0x6C7 PUSH2 0x591 JUMP JUMPDEST JUMPDEST PUSH0 PUSH2 0x6D5 DUP5 DUP3 DUP6 ADD PUSH2 0x661 JUMP JUMPDEST SWAP2 POP POP SWAP3 SWAP2 POP POP JUMP JUMPDEST PUSH2 0x6E7 DUP2 PUSH2 0x5B4 JUMP JUMPDEST DUP3 MSTORE POP POP JUMP JUMPDEST PUSH0 PUSH1 0x20 DUP3 ADD SWAP1 POP PUSH2 0x700 PUSH0 DUP4 ADD DUP5 PUSH2 0x6DE JUMP JUMPDEST SWAP3 SWAP2 POP POP JUMP JUMPDEST PUSH0 DUP3 DUP3 MSTORE PUSH1 0x20 DUP3 ADD SWAP1 POP SWAP3 SWAP2 POP POP JUMP JUMPDEST PUSH32 0x546F6B656E206E6F7420737570706F7274656400000000000000000000000000 PUSH0 DUP3 ADD MSTORE POP JUMP JUMPDEST PUSH0 PUSH2 0x74A PUSH1 0x13 DUP4 PUSH2 0x706 JUMP JUMPDEST SWAP2 POP PUSH2 0x755 DUP3 PUSH2 0x716 JUMP JUMPDEST PUSH1 0x20 DUP3 ADD SWAP1 POP SWAP2 SWAP1 POP JUMP JUMPDEST PUSH0 PUSH1 0x20 DUP3 ADD SWAP1 POP DUP2 DUP2 SUB PUSH0 DUP4 ADD MSTORE PUSH2 0x777 DUP2 PUSH2 0x73E JUMP JUMPDEST SWAP1 POP SWAP2 SWAP1 POP JUMP JUMPDEST PUSH32 0x4E487B7100000000000000000000000000000000000000000000000000000000 PUSH0 MSTORE PUSH1 0x11 PUSH1 0x4 MSTORE PUSH1 0x24 PUSH0 REVERT JUMPDEST PUSH0 PUSH2 0x7B5 DUP3 PUSH2 0x61A JUMP JUMPDEST SWAP2 POP PUSH2 0x7C0 DUP4 PUSH2 0x61A JUMP JUMPDEST SWAP3 POP DUP3 DUP3 ADD SWAP1 POP DUP1 DUP3 GT ISZERO PUSH2 0x7D8 JUMPI PUSH2 0x7D7 PUSH2 0x77E JUMP JUMPDEST JUMPDEST SWAP3 SWAP2 POP POP JUMP JUMPDEST PUSH0 PUSH1 0x40 DUP3 ADD SWAP1 POP PUSH2 0x7F1 PUSH0 DUP4 ADD DUP6 PUSH2 0x6DE JUMP JUMPDEST PUSH2 0x7FE PUSH1 0x20 DUP4 ADD DUP5 PUSH2 0x623 JUMP JUMPDEST SWAP4 SWAP3 POP POP POP JUMP JUMPDEST PUSH32 0x4E487B7100000000000000000000000000000000000000000000000000000000 PUSH0 MSTORE PUSH1 0x32 PUSH1 0x4 MSTORE PUSH1 0x24 PUSH0 REVERT JUMPDEST PUSH0 PUSH1 0x60 DUP3 ADD SWAP1 POP PUSH2 0x845 PUSH0 DUP4 ADD DUP7 PUSH2 0x6DE JUMP JUMPDEST PUSH2 0x852 PUSH1 0x20 DUP4 ADD DUP6 PUSH2 0x6DE JUMP JUMPDEST PUSH2 0x85F PUSH1 0x40 DUP4 ADD DUP5 PUSH2 0x623 JUMP JUMPDEST SWAP5 SWAP4 POP POP POP POP JUMP JUMPDEST PUSH0 DUP2 ISZERO ISZERO SWAP1 POP SWAP2 SWAP1 POP JUMP JUMPDEST PUSH2 0x87B DUP2 PUSH2 0x867 JUMP JUMPDEST DUP2 EQ PUSH2 0x885 JUMPI PUSH0 DUP1 REVERT JUMPDEST POP JUMP JUMPDEST PUSH0 DUP2 MLOAD SWAP1 POP PUSH2 0x896 DUP2 PUSH2 0x872 JUMP JUMPDEST SWAP3 SWAP2 POP POP JUMP JUMPDEST PUSH0 PUSH1 0x20 DUP3 DUP5 SUB SLT ISZERO PUSH2 0x8B1 JUMPI PUSH2 0x8B0 PUSH2 0x591 JUMP JUMPDEST JUMPDEST PUSH0 PUSH2 0x8BE DUP5 DUP3 DUP6 ADD PUSH2 0x888 JUMP JUMPDEST SWAP2 POP POP SWAP3 SWAP2 POP POP JUMP JUMPDEST PUSH0 DUP2 MLOAD SWAP1 POP SWAP2 SWAP1 POP JUMP JUMPDEST PUSH0 DUP2 SWAP1 POP SWAP3 SWAP2 POP POP JUMP JUMPDEST DUP3 DUP2 DUP4 MCOPY PUSH0 DUP4 DUP4 ADD MSTORE POP POP POP JUMP JUMPDEST PUSH0 PUSH2 0x8F3 DUP3 PUSH2 0x8C7 JUMP JUMPDEST PUSH2 0x8FD DUP2 DUP6 PUSH2 0x8D1 JUMP JUMPDEST SWAP4 POP PUSH2 0x90D DUP2 DUP6 PUSH1 0x20 DUP7 ADD PUSH2 0x8DB JUMP JUMPDEST DUP1 DUP5 ADD SWAP2 POP POP SWAP3 SWAP2 POP POP JUMP JUMPDEST PUSH0 PUSH2 0x924 DUP3 DUP5 PUSH2 0x8E9 JUMP JUMPDEST SWAP2 POP DUP2 SWAP1 POP SWAP3 SWAP2 POP POP JUMP INVALID LOG2 PUSH5 0x6970667358 0x22 SLT KECCAK256 0xE3 CALLCODE PUSH13 0x5222DB058C19DD39D26685133D 0xF7 EQ TSTORE PUSH21 0x5CBD436495863881C95C006464736F6C634300081A STOP CALLER "
				},
				"gasEstimates": {
					"creation": {
						"codeDepositCost": "481000",
						"executionCost": "infinite",
						"totalCost": "infinite"
					},
					"external": {
						"addLiquidity(address,uint256)": "infinite",
						"supportedTokens(uint256)": "4966",
						"totalPoolLiquidity(address)": "2779"
					},
					"internal": {
						"isSupportedToken(address)": "infinite"
					}
				},
				"methodIdentifiers": {
					"addLiquidity(address,uint256)": "56688700",
					"supportedTokens(uint256)": "c6255626",
					"totalPoolLiquidity(address)": "3053f0b2"
				}
			},
			"storageLayout": {
				"storage": [
					{
						"astId": 668,
						"contract": "contracts/MultiTokenPool.sol:MultiTokenPool",
						"label": "totalPoolLiquidity",
						"offset": 0,
						"slot": "0",
						"type": "t_mapping(t_address,t_uint256)"
					},
					{
						"astId": 671,
						"contract": "contracts/MultiTokenPool.sol:MultiTokenPool",
						"label": "supportedTokens",
						"offset": 0,
						"slot": "1",
						"type": "t_array(t_address)dyn_storage"
					}
				],
				"types": {
					"t_address": {
						"encoding": "inplace",
						"label": "address",
						"numberOfBytes": "20"
					},
					"t_array(t_address)dyn_storage": {
						"base": "t_address",
						"encoding": "dynamic_array",
						"label": "address[]",
						"numberOfBytes": "32"
					},
					"t_mapping(t_address,t_uint256)": {
						"encoding": "mapping",
						"key": "t_address",
						"label": "mapping(address => uint256)",
						"numberOfBytes": "32",
						"value": "t_uint256"
					},
					"t_uint256": {
						"encoding": "inplace",
						"label": "uint256",
						"numberOfBytes": "32"
					}
				}
			},
			"userdoc": {
				"kind": "user",
				"methods": {},
				"version": 1
			}
		}
	}
}